:100000000C947C010C94A4010C94A4010C94A40104
:100010000C94A4010C94A4010C94A4010C94A401CC
:100020000C94A4010C94A4010C94A4010C94A401BC
:100030000C94A4010C94A4010C94A4010C94A401AC
:100040000C9411340C94A4010C946D050C94A90526
:100050000C94A4010C94A4010C94A4010C94A4018C
:100060000C94A4010C94A401084AD73B3BCE016E2A
:1000700084BCBFFDC12F3D6C74319ABD56833DDAFF
:100080003D00C77F11BED9E4BB4C3E916BAAAABE0E
:10009000000000803F05A84CCDB2D44EB93836A937
:1000A000020C50B9918688083CA6AAAA2ABE000074
:1000B00000803F0664EC1B3C04BC163E3BE5B93CAB
:1000C000C93C37C29E5A3D660498083EEA69AAAA0E
:1000D0003E000000803F2020202020202020002003
:1000E0002020202020202020202020207C202020B4
:1000F000202020202020202020207CC620202020FE
:100100002020202020202020C57C202020202020EE
:10011000202020202020207C202020202020202083
:1001200020202020207C00B0B1B2B3B47CB5B6B79B
:10013000B8B97C4D696E696D4F53442D4578747222
:100140006120322E34207C2072363232204D507C99
:10015000004F534420496E697469616C697A656423
:100160002C207265626F6F74004368617220446F67
:100170006E650A00526561647920666F7220466F71
:100180006E740A004D697373696E672F4F6C64203B
:10019000436F6E6669670000407A10F35A00A072E0
:1001A0004E18090010A5D4E80000E87648170000B2
:1001B000E40B54020000CA9A3B000000E1F5050080
:1001C0000080969800000040420F000000A08601C9
:1001D000000000102700000000E803000000006499
:1001E00000000000000A0000000000010000000004
:1001F000002C76D888DC674F0823DFC1DFAE59E1D9
:10020000B1B796E5E3E453C63AE651997696E8E647
:10021000C28426EB898C9B62ED407C6FFCEFBC9C1A
:100220009F40F2BAA56FA5F490055A2AF75C936B2C
:100230006CF9676DC11BFCE0E40D47FEF520E6B5E7
:1002400000D0ED902E0300943577050080841E08C1
:100250000000204E0A000000C80C333333330F98DF
:100260006E12831141EF8D2114893BE65516CFFEA6
:10027000E6DB18D1844B381BF77C1D901DA4BBE432
:1002800024203284725E228100C9F124ECA1E53D74
:10029000276E616E00696E66000000000024002772
:1002A000002A0000000000250028002B00000000AC
:1002B00000230026002900040404040404040402AA
:1002C00002020202020303030303030102040810F3
:1002D00020408001020408102001020408102000C0
:1002E00000000700020100000304060000000000F7
:1002F00000000000F705642B11241FBECFEFD8E0EB
:10030000DEBFCDBF13E0A0E0B1E0EEE0F5E702C054
:1003100005900D92A436B107D9F715E0A4E6B3E035
:1003200001C01D92A63BB107E1F712E0C8EFD2E091
:1003300004C02297FE010E94813AC43FD107C9F749
:100340000E94B3350C94853A0C940000283008F0D4
:1003500027E03327DA01990F311D87FD9160009660
:100360006105710539F432602E5F3D9330E32A95C3
:10037000E1F708959F3F30F080387105610509F07D
:100380003C5F3C5F3D93913008F08068911DDF93A6
:10039000CF931F930F93FF92EF92192F987F96950B
:1003A000E92F96959695E90FFF27EF50FE4F992775
:1003B0003327EE24FF24A701E70105900894079452
:1003C00028F4360FE71EF81E491F511D660F771FD0
:1003D000881F991F0694A1F70590079428F4E70E4B
:1003E000F81E491F561FC11D770F881F991F661FD2
:1003F0000694A1F70590079428F4F80E491F561F9C
:10040000C71FD11D880F991F661F771F0694A1F77C
:100410000590079420F4490F561FC71FD81F990F46
:10042000661F771F881F0694A9F78491109517708F
:1004300041F0D695C79557954795F794E7941A9547
:10044000C1F7E7E9F1E06894159015913591659150
:10045000959105907FE27395E118F10A430B560BD5
:10046000C90BD009C0F7E10CF11E431F561FC91F6D
:10047000D01D7EF4703311F48A95E6CFE8940150D4
:1004800030F0080F0AF40027021708F4202F2395F4
:10049000022F7A3328F079E37D932A95E9F710C08B
:1004A0007D932A9589F606949795679537951795C4
:1004B0001794E118F10A430B560BC90BD00998F0B9
:1004C00023957E9173957A3308F070E37C93201323
:1004D000B8F77E9170617D9330F0839571E37D93E1
:1004E00070E32A95E1F71124EF90FF900F911F918F
:1004F000CF91DF91992787FD90950895FA01AA275A
:10050000283051F1203181F1E8946F936E7F6E5F56
:100510007F4F8F4F9F4FAF4FB1E03ED0B4E03CD004
:10052000670F781F891F9A1FA11D680F791F8A1FE7
:10053000911DA11D6A0F711D811D911DA11D20D04E
:1005400009F468943F912AE0269F11243019305D08
:100550003193DEF6CF010895462F4770405D4193F9
:10056000B3E00FD0C9F7F6CF462F4F70405D4A3346
:1005700018F0495D31FD4052419302D0A9F7EACF0E
:10058000B4E0A6959795879577956795BA95C9F73D
:1005900000976105710508959B01AC010A2E069430
:1005A0005795479537952795BA95C9F7620F731FE9
:1005B000841F951FA01D0895FC0188279927E894A2
:1005C00021912032E9F3293010F02E30C8F32B327C
:1005D00041F02D3239F4689404C00E945703820F11
:1005E000911D219120532A30C0F31EF490958195DE
:1005F0009F4F08951F93FC0199278827BC01E89419
:1006000011911032E9F3193010F01E30C8F31B328B
:1006100051F01D3249F4689406C00E944203610FF4
:10062000711D811D911D119110531A30B0F33EF4CC
:1006300090958095709561957F4F8F4F9F4F1F913B
:100640000895FC010590615070400110D8F7809525
:1006500090958E0F9F1F0895FC018191861721F0C0
:100660008823D9F7992708953197CF010895FC0180
:100670006150704001900110D8F7809590958E0FD1
:100680009F1F0895592F482F372F262F660F771F4A
:10069000881F991F660F771F881F991F620F731F8E
:1006A000841F951F660F771F881F991F08957AE092
:1006B000979F902D879F802D910D11240895FC0107
:1006C0001382128288EE93E0A0E0B0E084839583E9
:1006D000A683B78389E093E0918380830895FC012A
:1006E0008089803419F421E030E002C020E030E05D
:1006F000C9010895FC01818990E00895FC01648797
:10070000458766874787089580E090E0089580E0F8
:1007100090E0089580E090E008950895EF92FF92B0
:100720001F93CF93DF93162F7A0186E060E00E943B
:100730005F3586E995E060E00E94482B86E995E008
:1007400060E00E94482B86E995E069E00E94482B12
:1007500086E995E0612F0E94482BC0E0D0E0F701C8
:10076000EC0FFD1F108186E995E06AE00E94482B9E
:1007700086E995E06C2F0E94482B86E995E06BE0B6
:100780000E94482B86E995E0612F0E94482B219614
:10079000C633D10521F786E995E068E00E94482B31
:1007A00086E995E060EA0E94482B86E995E060EAD8
:1007B0000E94482B85FDF9CF86E995E060E00E9414
:1007C000482B86E995E06CE00E94482B86E061E0CA
:1007D0000E945F35DF91CF911F91FF90EF900895B8
:1007E0001F93CF93DF93EC01162F86E060E00E9409
:1007F0005F3586E995E060E00E94482B112319F0EF
:10080000113059F404C086E995E0688904C068890C
:100810006C6186E995E00E94482B86E061E00E94C9
:100820005F35DF91CF911F910895EF92FF920F9363
:100830001F938EE1489F70011124E60EF11C86E0A3
:1008400060E00E945F3506E915E0C80165E00E949E
:10085000482BC8016F2D0E94482BC80166E00E94FA
:10086000482BC8016E2D0E94482B1F910F91FF90BD
:10087000EF900895EF92FF920F931F937C0106E98A
:1008800015E0C80167E00E94482BC8016FEF0E9485
:10089000482B86E061E00E945F35F70187858F5F16
:1008A00087871F910F91FF90EF900895EF92FF922D
:1008B0000F931F93FC01E7848EE1E89E70011124E1
:1008C0008685E80EF11C86E060E00E945F3506E94F
:1008D00015E0C80164E00E94482BC80163E00E9453
:1008E000482BC80165E00E94482BC8016F2D0E946B
:1008F000482BC80166E00E94482BC8016E2D0E945B
:10090000482B1F910F91FF90EF9008951F93CF9365
:10091000DF93EC01162F6C3731F40E943A04CE01BC
:100920000E9456040AC086E995E067E00E94482BC1
:1009300086E995E0612F0E94482B81E090E0DF91ED
:10094000CF911F9108950F931F9386E060E00E945E
:100950005F3506E915E0C80164E00E94482BC80134
:1009600064E00E94482B86E061E00E945F351F91A1
:100970000F9108951F9388EA95E066E973E00E945D
:100980003C32882361F0813011F412E009C08230DA
:1009900011F411E005C0833011F410E001C013E040
:1009A000109265031092640317C060916403709104
:1009B0006503605F86E995E00E94482B86E995E033
:1009C000612F0E94482B80916403909165030196EA
:1009D0009093650380936403809164039091650311
:1009E00040971CF31F910895CF93DF93EC0186E0AD
:1009F00060E00E945F3586E995E060EA0E94482B3E
:100A000086E995E06FEF0E94482B80FF05C080E4E7
:100A1000888B88E0898B13C088EA95E060E973E0F1
:100A20000E943C32882319F4188A86E003C080E4CF
:100A3000888B88E0898B86E060E00E945F35DF91DB
:100A4000CF910895CF92DF92FF920F931F936C0185
:100A500086E061E00E94203582E060E00E9420355F
:100A600082E061E00E945F35C6010E94F40486E0E6
:100A700060E00E945F3506E915E0C8016CEE0E9457
:100A8000482BC8016FEF0E94482BF82EC80160E088
:100A90000E94482BF60160896260C8010E94482BC1
:100AA00062E370E080E090E00E946734C8016CE689
:100AB0000E94482BFFEEFF22C8016F2D0E94482B99
:100AC000C6010E94BA04C60161E00E94F0031F91B2
:100AD0000F91FF90DF90CF9008951F920F920FB665
:100AE0000F9211242F933F934F938F939F93EF93E4
:100AF000FF934091C60020919705309198052F5F94
:100B00003F4F80919B0590919C052823392380912C
:100B1000990590919A052817390779F080919705E2
:100B200090919805E0919D05F0919E05E80FF91FC1
:100B300040833093980520939705FF91EF919F9103
:100B40008F914F913F912F910F900FBE0F901F905B
:100B500018951F920F920FB60F9211242F933F9367
:100B60008F939F93EF93FF932091A1053091A2055E
:100B700080919F059091A00528173907E9F0809191
:100B8000A1059091A205E091A505F091A605E80FB9
:100B9000F91F80818093C6008091A1059091A205E4
:100BA00001962091A3053091A4058223932390936D
:100BB000A2058093A10510C020919F053091A0054A
:100BC0008091A1059091A2052817390729F48091F9
:100BD000C1008F7D8093C100FF91EF919F918F9114
:100BE0003F912F910F900FBE0F901F9018958F92ED
:100BF000AF92CF92EF92FF920F931F9388EE93E004
:100C000060E045EC50E024EC30E000EC10E0F1EC6A
:100C1000EF2EF12CCC24C394E8E9AE2E70E2872E9F
:100C20000E949E2B85E094E00E945F0310921804BE
:100C30001092190410921A0410921B0410921C04B2
:100C400010921D0410921E0410921F041092210491
:100C500010922004109217041F910F91FF90EF90B3
:100C6000CF90AF908F90089580915E048130C1F451
:100C70000E94593468517C4F8F4F9F4F60935F049F
:100C800070936004809361049093620410925E04F8
:100C900090E080916304882309F491E090936304C9
:100CA0000E94593420915F043091600440916104A6
:100CB00050916204261737074807590718F481E056
:100CC00080935E040895AF92BF92CF92DF92EF922D
:100CD000FF920F931F931091FC04113009F03EC056
:100CE0008091A8048823D1F56091750470917604F1
:100CF000809177049091780420E030E040EA50E45D
:100D00000E94DE38181654F5809150048B3030F173
:100D10001093A80480E090E0A0E0B0E08093D604B7
:100D20009093D704A093D804B093D9041092EA0406
:100D30001092EB041092EC041092ED040E945934CE
:100D400028EE33E040E050E00E94423A20939904BC
:100D500030939A0440939B0450939C0460917504D3
:100D600070917604809177049091780420E030E0CF
:100D700040EA51E40E94143718168CF160913B044C
:100D800070913C0480913D0490913E0420E030E05D
:100D900040E050E40E94143718160CF18091500482
:100DA0008B30E8F48091A8048130C9F480917904F3
:100DB00090917A04A0917B04B0917C0485369105D2
:100DC000A105B10564F41092A8040E9459346093FF
:100DD000EA047093EB048093EC049093ED04A090EC
:100DE0003B04B0903C04C0903D04D0903E04C6014A
:100DF000B50120E030E040E85FE30E94DE381816DD
:100E000094F5E090D604F090D7040091D8041091A6
:100E1000D9040E9459342091FD043091FE04409180
:100E2000FF0450910005621B730B840B950B0E940D
:100E3000B4379B01AC01C601B5010E94E93820E03E
:100E400030E04AE754E40E941B379B01AC01C80123
:100E5000B7010E944E366093D6047093D7048093F6
:100E6000D8049093D904A0909D04B0909E04C090A3
:100E70009F04D090A0046091AD047091AE048827C7
:100E800077FD8095982F0E94B63720E030E040E251
:100E900051E40E94E9387B018C010E945934209171
:100EA000FD043091FE044091FF0450910005621B47
:100EB000730B840B950B0E94B4379B01AC01C801E6
:100EC000B7010E94E93820E03AEB4BE55AE40E9472
:100ED0001B379B01AC01C601B5010E944E366093E1
:100EE0009D0470939E0480939F049093A0040E949D
:100EF00059346093FD047093FE048093FF04909333
:100F000000058091A804813009F096C060917904B1
:100F100070917A0480917B0490917C040E94B63792
:100F20007B018C012091D2043091D3044091D404F0
:100F30005091D5040E94DE38181644F4E092D20491
:100F4000F092D3040093D4041093D504E0903F04AE
:100F5000F09040040091410410914204C801B7018F
:100F60002091DA043091DB044091DC045091DD04DF
:100F70000E94DE38181644F4E092DA04F092DB04A2
:100F80000093DC041093DD04E0903B04F0903C04FB
:100F900000913D0410913E04C801B7012091DE0488
:100FA0003091DF044091E0045091E1040E94DE386A
:100FB000181644F4E092DE04F092DF040093E0049B
:100FC0001093E104E0907504F090760400917704AA
:100FD00010917804C801B7012091E2043091E30434
:100FE0004091E4045091E5040E94DE38181644F460
:100FF000E092E204F092E3040093E4041093E50429
:101000006091E6047091E7048091E8049091E9040E
:1010100020E030E040E050E00E941437882364F480
:1010200080E090E0A0E0B0E08093E6049093E704D5
:10103000A093E804B093E9041F910F91FF90EF9003
:10104000DF90CF90BF90AF90089588EA95E06AE76F
:1010500073E00E943C32882381F586E696E6A6E698
:10106000B0E48093640490936504A0936604B09305
:10107000670480E090E0A0E8BFE380936804909369
:101080006904A0936A04B0936B0480E180936C04BC
:101090008CE080936D048AEB80936E048BE190E08A
:1010A0009093700480936F0488EE93E090937204A1
:1010B000809371048AE190E02FC082E598EBAEE066
:1010C000B0E48093640490936504A0936604B093A5
:1010D000670485E89BEEA1E5B0E4809368049093F3
:1010E0006904A0936A04B0936B0489E180936C0453
:1010F00086E680936D048BEB80936E048CE190E028
:101100009093700480936F0480EA94E1909372044A
:10111000809371048EE190E0909374048093730443
:101120000895DF92EF92FF920F931F938C01A8EA2C
:10113000EA2EA5E0FA2EC701B8010E943C32D82E53
:101140000F5F1F4FC701B8010E943C323D2D20E0C8
:10115000280F311DC9011F910F91FF90EF90DF9073
:101160000895DF92EF92FF920F931F93CF93DF9337
:1011700088EA95E06CE773E00E943C328093AA0411
:1011800088EA95E06EE773E00E943C328093A90400
:1011900088EA95E060E873E00E943C3290E0A0E0CD
:1011A000B0E0BC01CD010E94B43720E030E040E265
:1011B00051E40E941B376093D2027093D302809354
:1011C000D4029093D50288EA95E062E873E00E9429
:1011D0003C3290E0A0E0B0E0BC01CD010E94B43709
:1011E00020E030E040E251E40E941B376093D802D7
:1011F0007093D9028093DA029093DB0288EA95E03B
:101200006EE873E00E943C328093BC0488EA95E06B
:101210006AE873E00E943C328093B00488EA95E06B
:1012200064E873E00E943C328093CE0488EA95E043
:1012300066E873E00E943C328093CD0488EA95E032
:101240006CE873E00E943C321092AC04882319F0E1
:1012500081E08093AC0488EA95E064E973E00E9441
:101260003C328093AB0484EA93E00E949108A0E0B2
:10127000B0E0BC01CD010E94B43720E030E040E294
:1012800051E40E941B376093E7027093E802809359
:10129000E9029093EA028AEA93E00E949108A0E0B2
:1012A000B0E0BC01CD010E94B43720E030E040E264
:1012B00051E40E941B376093EB027093EC02809321
:1012C000ED029093EE0286EA93E00E9491087C0181
:1012D00088EA95E068EA73E00E943C32D82E00E08C
:1012E00010E0C801B7010E94B43720E030E040E2CE
:1012F00051E40E941B377B018C018D2D64E60E9416
:101300000F3A90E0AA2797FDA095BA2FBC01CD0116
:101310000E94B6379B01AC01C801B7010E944E364E
:101320006093EF027093F0028093F1029093F202C7
:101330008CEA93E00E949108A0E0B0E0BC01CD01EE
:101340000E94B43720E030E040E251E40E941B37B5
:101350006093EE047093EF048093F0049093F10493
:1013600088EA95E06EEA73E00E943C328093E602E0
:1013700088EA95E060EB73E00E943C328093D104F0
:10138000C0E0D0E0BE0168567C4F88EA95E00E943C
:101390003C32FE01EC53FB4F8083882321F02196E1
:1013A000C830D10579F7CC53DB4F1982DF91CF914B
:1013B0001F910F91FF90EF90DF900895BC0188EA94
:1013C00095E00E943C320895DF92EF92FF920F93D6
:1013D0001F93CF93DF93882309F481E0182F110F17
:1013E0001257613009F04CC060916404709165043B
:1013F000809166049091670420E030E040E050E086
:101400000E94E938A12FBB27A7FDB095D0906C04AE
:101410002DB73EB7265130400FB6F8943EBF0FBEF1
:101420002DBFEDB7FEB7319625E034E0CDB7DEB77E
:101430003A83298323E031E0338322832DE130E0B6
:1014400035832483262F372F482F592F2683378320
:1014500040875187D2861386B587A4871196B787B0
:10146000A687C901DA01808B918BA28BB38BD48ABA
:10147000158A0E947D2B2DB73EB72A5E3F4F4BC089
:10148000A12FBB27A7FDB09585E094E0623039F528
:10149000CDB7DEB72C970FB6F894DEBF0FBECDBF29
:1014A000EDB7FEB731969A83898389E191E0938302
:1014B0008283B583A4831196B783A68380917E042B
:1014C00090917F049187808785E090E09387828761
:1014D0000E947D2B2DB73EB7245F3F4F1CC0CDB778
:1014E000DEB728970FB6F894DEBF0FBECDBFEDB7BD
:1014F000FEB731969A83898383E291E09383828356
:10150000B583A4831196B783A6830E947D2B2DB744
:101510003EB7285F3F4F0FB6F8943EBF0FBE2DBFBA
:10152000DF91CF911F910F91FF90EF90DF90089581
:101530002F923F924F925F926F927F928F929F92E3
:10154000AF92BF92CF92DF92EF92FF920F931F93D1
:10155000DF93CF9300D000D000D0CDB7DEB7182FE7
:10156000662E2091490430914A042A35310530F025
:10157000C9018D549F4F89359105E8F437FF02C0AA
:101580002D543F4FC90137FF03C0909581959F4F60
:101590008A3191053CF0B9ED8B2E912CA8EF2A2EC3
:1015A000312C1DC00A975CF1F0ED8F2E912CE3EFEA
:1015B0002E2E312C20C02B35310514F0235B30400A
:1015C000C90137FF03C0909581959F4F8A319105DE
:1015D00054F07BEE872E912C6BEF262E312C57E0AA
:1015E000A52EB12C15C00A9754F042EE842E912CF2
:1015F00035EF232E312C28E0A22EB12C09C096EC19
:10160000892E912C8DEC282E312C09E0A02EB12CA6
:101610006091470470914804882777FD8095982F42
:101620000E94B63727EA32E94BE25CEB0E94E938C8
:101630000E94BD3920E030E040EA50E40E94E938E1
:1016400020E030E040E951E40E94E9380E944C3942
:1016500020E030E044E352E40E944E360E9483379B
:10166000712E1EEBC12E1FEFD12E9B01442737FD9B
:101670004095542F29833A834B835C83B5E04B2EEE
:10168000B4E05B2E4AEF5FEF240E351E60914904F3
:1016900070914A04882777FD8095982F0E94B6376D
:1016A00025E33AEF4EE85CE30E94E9380E94BD3939
:1016B0007B018C01B601882777FD8095982F0E94C9
:1016C000B6379B01AC01C801B7010E94E9387B0124
:1016D0008C0169817A818B819C810E94B6379B0144
:1016E000AC01C801B7010E944E360E9483379B01AE
:1016F000CB0101978A35910508F071C062E170E075
:101700000E942F3A8B012F5F3F4FAEEEBFEF6A9FD3
:10171000C0016B9F900D7A9F900D1124820F931F33
:1017200062E070E00E942F3A6D837E83E62CE01A1F
:101730004E2D4C5F85E094E0672D0E94150400D08B
:1017400000D000D0EDB7FEB73196ADB7BEB7129658
:101750005C924E92119720E031E0338322838D8199
:101760009E81880D991D958384830E947D2B4DB7A2
:101770005EB74A5F5F4F0FB6F8945EBF0FBE4DBFB6
:101780008D819E818A159B0554F1043011053CF52D
:1017900093E0E90EC201672D4E2D0E94150400D082
:1017A00000D000D0EDB7FEB73196ADB7BEB71296F8
:1017B0005C924E92119720E031E0338322834D8179
:1017C0005E81420D531D558344830E947D2B8DB74E
:1017D0009EB706960FB6F8949EBF0FBE8DBFACE0C5
:1017E000B0E0CA0EDB1E7394BEE4CB16D10409F040
:1017F0004DCF26960FB6F894DEBF0FBECDBFCF916A
:10180000DF911F910F91FF90EF90DF90CF90BF90ED
:10181000AF909F908F907F906F905F904F903F9090
:101820002F90089560914304709144048091450481
:101830009091460420E030E040EC51E40E94E93809
:1018400020E030E044EB53E40E941B370E944C3907
:101850000E9483379B012350304037FF03C09B0118
:101860002B5E3F4FA5E8B4E0F901E95DFC4F8081B4
:101870008C932F5F3F4F2831310514F020E030E08A
:10188000119684E0A039B80779F710928C04089576
:101890000F931F93282F462F85E094E0622F0E941C
:1018A0007E0385E094E00E94560480912B048823F7
:1018B00019F428E231E01AC0823019F42DE231E047
:1018C00015C0853019F422E331E010C027E331E080
:1018D0008A3019F42CE331E009C08B3019F421E48B
:1018E00031E004C08F3011F425E431E08DB79EB7AC
:1018F00008970FB6F8949EBF0FBE8DBFEDB7FEB729
:10190000319605E014E0ADB7BEB712961C930E9366
:1019100011978AE491E0938382838FE790E0958327
:101920008483378326830E947D2B8DB79EB70896CC
:101930000FB6F8949EBF0FBE8DBFC8010E943A0437
:101940001F910F9108950F931F93282F462F05E0A5
:1019500014E0C801622F0E947E03C8010E94560451
:1019600080917D0460E00E94E409C8010E943A046D
:101970001F910F9108950F931F93282F462F05E075
:1019800014E0C801622F0E947E03C8010E94560421
:101990008DB79EB70A970FB6F8949EBF0FBE8DBF46
:1019A000EDB7FEB73196ADB7BEB712961C930E9346
:1019B00011978FE491E09383828383EC90E0958389
:1019C000848385E894E09783868387E890E0918715
:1019D00080870E947D2B8DB79EB70A960FB6F8942C
:1019E0009EBF0FBE8DBFC8010E943A041F910F9188
:1019F00008950F931F93282F462F05E014E0C80188
:101A0000622F0E947E03C8010E9456048DB79EB7C4
:101A10000A970FB6F8949EBF0FBE8DBFEDB7FEB705
:101A20003196ADB7BEB712961C930E93119786E50B
:101A300091E0938382838091430490914404A09128
:101A40004504B091460484839583A683B78385E0DB
:101A500090E0918780870E947D2B8DB79EB70A9674
:101A60000FB6F8949EBF0FBE8DBFC8010E943A0406
:101A70001F910F9108950F931F93282F462F05E074
:101A800014E0C801622F0E947E03C8010E94560420
:101A90008DB79EB740970FB6F8949EBF0FBE8DBF0F
:101AA000EDB7FEB73196ADB7BEB712961C930E9345
:101AB00011978EE591E09383828383E090E0958394
:101AC000848380912D0490912E04A0912F04B091D5
:101AD000300486839783A087B18784E090E0938762
:101AE00082878091310490913204A0913304B091A7
:101AF000340484879587A687B7870E947D2B8DB78E
:101B00009EB740960FB6F8949EBF0FBE8DBFC8011A
:101B10000E943A041F910F9108950F931F93282F4D
:101B2000462F05E014E0C801622F0E947E03C80121
:101B30000E9456048DB79EB708970FB6F8949EBFC3
:101B40000FBE8DBFEDB7FEB73196ADB7BEB71296DB
:101B50001C930E93119780E791E093838283809189
:101B60003504805D8483158280913A0486831782D0
:101B70000E947D2B8DB79EB708960FB6F8949EBF36
:101B80000FBE8DBFC8010E943A041F910F910895A6
:101B90000F931F93282F462F05E014E0C801622FF2
:101BA0000E947E03C8010E9456048DB79EB70C9711
:101BB0000FB6F8949EBF0FBE8DBFEDB7FEB731963E
:101BC000ADB7BEB712961C930E93119786E791E0BE
:101BD0009383828380E690E095838483809191044F
:101BE00090919204A0919304B0919404868397837A
:101BF000A087B1878DE090E0938782870E947D2B3C
:101C00008DB79EB70C960FB6F8949EBF0FBE8DBFD2
:101C1000C8010E943A041F910F9108950F931F93DA
:101C2000282F462F05E014E0C801622F0E947E0392
:101C3000C8010E9456048DB79EB70C970FB6F89452
:101C40009EBF0FBE8DBFEDB7FEB73196ADB7BEB725
:101C500012961C930E93119786E791E093838283EB
:101C60008CEB90E095838483809195049091960409
:101C7000A0919704B091980486839783A087B18739
:101C80008DE090E0938782870E947D2B8DB79EB771
:101C90000C960FB6F8949EBF0FBE8DBFC8010E9470
:101CA0003A041F910F9108950F931F93282F462FE9
:101CB00005E014E0C801622F0E947E03C8010E9463
:101CC00056048DB79EB70A970FB6F8949EBF0FBE05
:101CD0008DBFEDB7FEB73196ADB7BEB712961C9368
:101CE0000E93119780E891E0938382838091490459
:101CF00090914A049583848385E090E0978386835E
:101D000086E090E0918780870E947D2B8DB79EB7FB
:101D10000A960FB6F8949EBF0FBE8DBFC8010E94F1
:101D20003A041F910F9108950F931F93282F462F68
:101D300005E014E0C801622F0E947E03C8010E94E2
:101D400056048DB79EB70A970FB6F8949EBF0FBE84
:101D50008DBFEDB7FEB73196ADB7BEB712961C93E7
:101D60000E93119780E891E09383828380914704DA
:101D7000909148049583848385E090E097838683DF
:101D800087E090E0918780870E947D2B8DB79EB77A
:101D90000A960FB6F8949EBF0FBE8DBFC8010E9471
:101DA0003A041F910F910895EF92FF920F931F93A2
:101DB000282F462F15E0E12E14E0F12EC701622FE7
:101DC0000E947E03C7010E9456048DB79EB70C97F0
:101DD0000FB6F8949EBF0FBE8DBF0DB71EB70F5F35
:101DE0001F4FEDB7FEB7F282E18288E891E0F8017B
:101DF000938382838BE090E0958384836091790460
:101E000070917A0480917B0490917C040E94B63793
:101E1000209168043091690440916A0450916B04E8
:101E20000E94E938F80166837783808791878091E3
:101E30006D04828713860E947D2B8DB79EB70C960A
:101E40000FB6F8949EBF0FBE8DBFC7010E943A0423
:101E50001F910F91FF90EF900895EF92FF920F93D3
:101E60001F93282F462F05E0E02E04E0F02EC70137
:101E7000622F0E947E03C7010E9456040E945934BB
:101E800028EE33E040E050E00E94423A809199040D
:101E900090919A04A0919B04B0919C04281B390B4B
:101EA0004A0B5B0BCA01B9010E94B4376093CE02A2
:101EB0007093CF028093D0029093D1020E94833717
:101EC0008B019C018DB79EB70C970FB6F8949EBFFF
:101ED0000FBE8DBFEDB7FEB73196ADB7BEB7129648
:101EE000FC92EE92119782E991E09383828388E0DD
:101EF00090E095838483C8016CE370E00E942F3AE0
:101F0000CB016CE370E00E942F3A978386838AE3CB
:101F100090E091878087C8016CE370E00E942F3ABF
:101F2000938782870E947D2B8DB79EB70C960FB644
:101F3000F8949EBF0FBE8DBFC7010E943A041F9147
:101F40000F91FF90EF9008950F931F93282F462F26
:101F500005E014E0C801622F0E947E03C8010E94C0
:101F600056048DB79EB70C970FB6F8949EBF0FBE60
:101F70008DBFEDB7FEB73196ADB7BEB712961C93C5
:101F80000E9311978EE991E09383828387E190E02D
:101F90009583848380919D0490919E04A0919F04D9
:101FA000B091A00486839783A087B18781E090E0F9
:101FB000938782870E947D2B8DB79EB70C960FB6B4
:101FC000F8949EBF0FBE8DBFC8010E943A041F91B6
:101FD0000F9108950F931F93282F462F05E014E0CB
:101FE000C801622F0E947E03C8010E9456048DB76B
:101FF0009EB70A970FB6F8949EBF0FBE8DBFEDB780
:10200000FEB73196ADB7BEB712961C930E931197DB
:1020100088EA91E09383828382E090E095838483D1
:10202000809150048683178285E290E091878087B3
:102030000E947D2B8DB79EB70A960FB6F8949EBF6F
:102040000FBE8DBFC8010E943A041F910F910895E1
:102050002F923F924F925F926F927F928F929F92B8
:10206000AF92BF92CF92DF92EF92FF920F931F93A6
:10207000DF93CF93CDB7DEB760970FB6F894DEBF8E
:102080000FBECDBF282F462FDE011196E7E1F3E00A
:1020900080E101900D928150E1F785E094E0622F9C
:1020A0000E947E0385E094E00E9456040E94593409
:1020B000611571058105910509F47EC18091A10426
:1020C000882391F08093A2041092A10481E0809370
:1020D000A3040E9459346093A4047093A5048093D0
:1020E000A6049093A70440C10E94593460517742DE
:1020F000804090402091A4043091A5044091A60412
:102100005091A704261737074807590710F4109273
:10211000A3048091A204882E992477E0372E66E0EC
:10212000262E55E0552E44E0442E33E0632E22E067
:10213000722E15C10894811C911C88E088169104A8
:1021400024F091E0892E912C04C0E1E08E169104D8
:1021500049F480913504823008F0FBC0F1E0F0933F
:10216000A104F7C08091A804813009F065C082E025
:1021700088169104B1F5A0903F04B0904004C0903F
:102180004104D0904204C601B5012091640430910D
:10219000650440916604509167040E94E9387B0110
:1021A0008C016091A90470E0882777FD8095982FB5
:1021B0000E94B6379B01AC01C801B7010E941437D9
:1021C00088230CF0C6C0C601B50129E23CE54FE802
:1021D0005FE30E94DE3818160CF0BBC07092A104B9
:1021E000B8C0E3E08E16910439F560913F04709118
:1021F0004004809141049091420420916404309104
:10220000650440916604509167040E94E9387B019F
:102210008C016091AA0470E080E090E00E94B437E5
:102220009B01AC01C801B7010E94DE3818160CF002
:1022300090C06092A1048DC0F4E08F16910429F53E
:10224000E090D202F090D3020091D4021091D50216
:10225000C801B70120E030E040E85FE30E94DE38CB
:1022600018160CF076C060919504709196048091D8
:10227000970490919804A80197010E94143788232D
:102280000CF067C04092A10464C085E088169104F8
:10229000B9F42091D6023091D7028091AB0490E03E
:1022A000281739070CF055C02D593F4F09F451C07C
:1022B0008091AC04882309F04CC05092A10449C01D
:1022C000F6E08F16910419F5E090D802F090D9024B
:1022D0000091DA021091DB02C801B70120E030E082
:1022E00040E85FE30E94DE3818169CF56091910487
:1022F000709192048091930490919404A8019701A5
:102300000E94143788232CF52092A10422C087E074
:1023100088169104F1F40E9459340E94B4377B016D
:102320008C01609127047091280480912904909178
:102330002A0420E030E84BE355E40E944E369B012E
:10234000AC01C801B7010E94DE38181614F43092AF
:10235000A1048091A20490E08816990629F080914A
:10236000A104882309F4E6CE8091630425E034E0DB
:10237000882349F000D000D0EDB7FEB73283218327
:1023800089819A8111C000D000D0EDB7FEB73283A9
:102390002183E091A104F0E0EE0FFF1FEC0FFD1F81
:1023A00081819281EDB7FEB7948383830E947D2B58
:1023B0000F900F900F900F9085E094E00E943A04E8
:1023C00060960FB6F894DEBF0FBECDBFCF91DF9100
:1023D0001F910F91FF90EF90DF90CF90BF90AF9043
:1023E0009F908F907F906F905F904F903F902F9035
:1023F0000895EF92FF920F931F93282F462FE5E049
:10240000EE2EE4E0FE2EC701622F0E947E03C7017C
:102410000E9456048DB79EB70C970FB6F8949EBFD6
:102420000FBE8DBF0DB71EB70F5F1F4FEDB7FEB7C5
:10243000F282E18282EB91E0F8019383828383E16F
:1024400090E09583848360913F0470914004809173
:1024500041049091420420916404309165044091BC
:102460006604509167040E94E938F8016683778317
:102470008087918780916C04828713860E947D2BD0
:102480008DB79EB70C960FB6F8949EBF0FBE8DBF4A
:10249000C7010E943A041F910F91FF90EF90089599
:1024A000EF92FF920F931F93282F462FF5E0EF2E08
:1024B000F4E0FF2EC701622F0E947E03C7010E9435
:1024C00056048DB79EB70C970FB6F8949EBF0FBEFB
:1024D0008DBF0DB71EB70F5F1F4FEDB7FEB7F2826E
:1024E000E18282EB91E0F8019383828384E190E0C2
:1024F0009583848360913B0470913C0480913D04FA
:1025000090913E04209164043091650440916604EA
:10251000509167040E94E938F801668377838087C9
:10252000918780916C04828713860E947D2B8DB7E2
:102530009EB70C960FB6F8949EBF0FBE8DBFC70115
:102540000E943A041F910F91FF90EF9008950F930E
:102550001F93282F462F05E014E0C801622F0E9428
:102560007E03C8010E9456048DB79EB70C970FB624
:10257000F8949EBF0FBE8DBFEDB7FEB73196ADB7D5
:10258000BEB712961C930E9311978EE991E0938338
:10259000828385E190E09583848380915A049091B1
:1025A0005B04A0915C04B0915D0486839783A0874F
:1025B000B1878091730490917404938782870E94FD
:1025C0007D2B8DB79EB70C960FB6F8949EBF0FBEAD
:1025D0008DBFC8010E943A041F910F910895EF9298
:1025E000FF920F931F93282F462FA5E0EA2EA4E019
:1025F000FA2EC701622F0E947E03C7010E94560473
:102600008DB79EB70C970FB6F8949EBF0FBE8DBFC7
:102610000DB71EB70F5F1F4FEDB7FEB7F282E18215
:1026200088E891E0F8019383828381E190E09583CB
:1026300084836091360470913704809138049091BE
:102640003904209168043091690440916A045091E2
:102650006B040E94E938F80166837783808791874D
:1026600080916D04828713860E947D2B8DB79EB763
:102670000C960FB6F8949EBF0FBE8DBFC7010E9487
:102680003A041F910F91FF90EF900895EF92FF92FF
:102690000F931F93282F462FB5E0EB2EB4E0FB2EAF
:1026A000C701622F0E947E03C7010E9456048DB7A6
:1026B0009EB70C970FB6F8949EBF0FBE8DBF0DB797
:1026C0001EB70F5F1F4FEDB7FEB7F282E18286E7BC
:1026D00091E0F801938382838DEB90E0958384836E
:1026E0006091AD047091AE04882777FD8095982F96
:1026F0000E94B6372AE037ED43E25CE30E94E938F6
:10270000F80166837783808791878EE090E09387D6
:1027100082870E947D2B8DB79EB70C960FB6F894DA
:102720009EBF0FBE8DBFC7010E943A041F910F913B
:10273000FF90EF900895CF93DF93282F462FC5E0A9
:10274000D4E0CE01622F0E947E03CE010E94560487
:102750000E94593428EE33E040E050E00E94423AB3
:10276000CA01B9012CE330E040E050E00E94423A57
:10277000623071058105910548F400D000D0EDB7B5
:10278000FEB7D283C18384EC94E008C000D000D0AF
:10279000EDB7FEB7D283C1838DED92E0948383833E
:1027A0000E947D2B0F900F900F900F9085E094E08A
:1027B0000E943A04DF91CF910895CF92DF92EF9279
:1027C000FF920F931F93CF93DF93282F462FC5E0DF
:1027D000D4E0CE01622F0E947E03CE010E945604F7
:1027E00080915904282F30E03093D7022093D602ED
:1027F0008091AC04882309F052C00091CD0410E010
:10280000201B310BB901882777FD8095982F0E94F6
:10281000B6376B017C016091CE0470E0601B710BD8
:10282000882777FD8095982F0E94B6379B01AC01D1
:10283000C701B6010E941B3720E030E048EC52E4AB
:102840000E94E9380E9483377093D7026093D602C2
:102850002DB73EB72A5030400FB6F8943EBF0FBE9A
:102860002DBFEDB7FEB73196ADB7BEB71296DC936C
:10287000CE9311972CEB31E03383228329E030E0B3
:10288000358324837783668385E290E09187808710
:102890000E947D2B2DB73EB7265F3F4F21C08DB7DD
:1028A0009EB708970FB6F8949EBF0FBE8DBFEDB7C9
:1028B000FEB73196ADB7BEB71296DC93CE931197A3
:1028C00084EC91E09383828389E090E09583848314
:1028D000378326830E947D2B2DB73EB7285F3F4F5D
:1028E0000FB6F8943EBF0FBE2DBF85E094E00E9466
:1028F0003A04DF91CF911F910F91FF90EF90DF90FD
:10290000CF9008950F931F93282F462F85E094E0D2
:10291000622F0E947E0385E094E00E94560440915D
:10292000B004453029F4209151043091520414C070
:10293000463029F420915304309154040DC047309F
:1029400029F4209155043091560406C0483021F4F2
:1029500020915704309158048DB79EB70A970FB64F
:10296000F8949EBF0FBE8DBFEDB7FEB7319605E060
:1029700014E0ADB7BEB712961C930E9311978AEC74
:1029800091E09383828383E490E095838483842F12
:1029900090E0C09697838683318720870E947D2BA5
:1029A0008DB79EB70A960FB6F8949EBF0FBE8DBF27
:1029B000C8010E943A041F910F910895EF92FF926F
:1029C0000F931F93282F462F15E0E12E14E0F12ED0
:1029D000C701622F0E947E03C7010E9456048DB773
:1029E0009EB70C970FB6F8949EBF0FBE8DBF0DB764
:1029F0001EB70F5F1F4FEDB7FEB7F282E18282ED87
:102A000091E0F801938382838AE090E09583848348
:102A10008091E60290E02091CF043091D004829F13
:102A2000B001839F700D929F700D11242091D104ED
:102A3000620F711D80E090E00E94B43720E030E02A
:102A400048EC52E40E941B37F80166837783808745
:102A5000918780916E04828713860E947D2B8DB7AB
:102A60009EB70C960FB6F8949EBF0FBE8DBFC701E0
:102A70000E943A041F910F91FF90EF9008952F92BA
:102A80003F924F925F926F927F928F929F92AF92FE
:102A9000BF92CF92DF92EF92FF920F931F9305E0C8
:102AA000202E04E0302EC1016BE045E00E947E0341
:102AB000C1010E9456046091CE027091CF028091B4
:102AC000D0029091D1020E9483376B017C018090EB
:102AD000680490906904A0906A04B0906B044090E0
:102AE0006404509065046090660470906704F090F0
:102AF0006D04E0906C048DB79EB7845490400FB67F
:102B0000F8949EBF0FBE8DBF0DB71EB70F5F1F4F4E
:102B1000EDB7FEB7328221828CED91E0F80193830C
:102B2000828388E090E095838483C6016CE370E043
:102B30000E942F3ACB016CE370E00E942F3A9783FA
:102B400086838AE390E091878087C6016CE370E01A
:102B50000E942F3A938782878BE090E09587848745
:102B6000C501B4012091D2043091D3044091D40422
:102B70005091D5040E94E9380E948337F801778785
:102B80006687F08A118A8FE890E0938B828BC5016B
:102B9000B4012091D6043091D7044091D8045091CB
:102BA000D9040E94E9380E948337F801758B648B41
:102BB000F68A178A83E190E0918F808FC301B2017A
:102BC0002091DA043091DB044091DC045091DD0463
:102BD0000E94E9380E948337F801738F628FE48E78
:102BE000158E84E190E0978F868FC301B20120910A
:102BF000DE043091DF044091E0045091E1040E9432
:102C0000E9380E948337F80171A360A3E2A213A2FE
:102C100082E190E095A384A3C501B4012091E20470
:102C20003091E3044091E4045091E5040E94E938B6
:102C30000E948337F80177A366A3F0A611A68DE161
:102C400090E093A782A7C301B2012091E6043091DE
:102C5000E7044091E8045091E9040E94E9380E9499
:102C60008337F80175A764A7E6A617A687E190E069
:102C700091AB80AB80919D0490919E04A0919F04A4
:102C8000B091A00482AB93ABA4ABB5AB81E090E074
:102C900097AB86AB83E090E091AF80AF80912D043D
:102CA00090912E04A0912F04B091300482AF93AF85
:102CB000A4AFB5AF84E090E097AF86AF005C1F4F44
:102CC0008091310490913204A0913304B091340486
:102CD000F80180839183A283B3830E947D2B8DB7FB
:102CE0009EB78C5B9F4F0FB6F8949EBF0FBE8DBFF3
:102CF000C1010E943A041F910F91FF90EF90DF9065
:102D0000CF90BF90AF909F908F907F906F905F908B
:102D10004F903F902F900895CF92DF92EF92FF92C5
:102D20000F931F93CF93DF93282F462FC5E0D4E056
:102D3000CE01622F0E947E03CE010E945604609154
:102D4000D6047091D7048091D8049091D904209131
:102D500068043091690440916A0450916B040E94A8
:102D6000E9386B017C0120E030E04AE754E40E943E
:102D7000DE381816CCF58DB79EB70C970FB6F894C1
:102D80009EBF0FBE8DBF0DB71EB70F5F1F4FADB7F4
:102D9000BEB71296DC93CE93119786E791E0F801C7
:102DA000938382838FE890E095838483609171049C
:102DB0007091720480E090E00E94B4379B01AC01F6
:102DC000C701B6010E941B37D80116966D937D93FB
:102DD0008D939C93199780916F04909170041B962A
:102DE0009C938E931A9721C08DB79EB70C970FB600
:102DF000F8949EBF0FBE8DBFEDB7FEB73196ADB74D
:102E0000BEB71296DC93CE93119788E891E0938336
:102E100082838FE890E095838483C682D782E086A0
:102E2000F18680916D04828713860E947D2BEDB719
:102E3000FEB73C960FB6F894FEBF0FBEEDBF85E01F
:102E400094E00E943A04DF91CF911F910F91FF907F
:102E5000EF90DF90CF900895EF92FF920F931F9322
:102E6000CF93DF93282F462F85E094E0622F0E94B6
:102E70007E0385E094E00E94560460914B047091BB
:102E80004C04882777FD8095982F0E94B6372091B3
:102E900043043091440440914504509146040E94FB
:102EA0004D3620E030E044EB53E40E941B3720E035
:102EB00030E040E851E40E94E9380E944C3920E0BB
:102EC00030E040E85FE30E944E360E948337862F51
:102ED0006093800467FF02C0805F03C061311CF013
:102EE000805180938004E0908104F09082040091EE
:102EF000830410918404C801B70120E030EC49E755
:102F000054E40E94DE3818162CF480E090ECA9E717
:102F1000B4E40EC0C801B70120E030EC49E754EC3E
:102F20000E941437882364F480E090ECA9E7B4ECA5
:102F30008093810490938204A0938304B0938404CB
:102F40008DB79EB742970FB6F8949EBF0FBE8DBF48
:102F50000DB71EB70F5F1F4FC5E0D4E0EDB7FEB74A
:102F6000D283C18384E392E0F8019383828387E56F
:102F700090E09583848380E790E0978386838091B7
:102F80004F04808711861386128660914D047091DC
:102F90004E0480E090E00E94B437209168043091A4
:102FA000690440916A0450916B040E94E938F80169
:102FB000648775878687978780916D04808B118AD7
:102FC0000E947D2B8DB79EB742960FB6F8949EBF98
:102FD0000FBE8DBF8091800460E00E94E409809163
:102FE0002B04853039F08A3029F08B3019F08F307E
:102FF00009F047C0EDB7FEB770970FB6F894FEBF63
:103000000FBEEDBF0DB71EB70F5F1F4F85E094E0F9
:103010009283818386E492E0F8019383828380E245
:1030200090E09583848388E590E09783868385E6A6
:1030300090E09187808760918104709182048091F3
:103040008304909184042091680430916904409134
:103050006A0450916B040E94E938F8016287738713
:103060008487958780916D04868717860E947D2BC3
:103070008DB79EB740960FB6F8949EBF0FBE8DBF1A
:1030800010C000D000D0EDB7FEB7D283C18386ED6B
:1030900090E0948383830E946C2B0F900F900F908D
:1030A0000F9085E094E00E943A04DF91CF911F9148
:1030B0000F91FF90EF900895CF92DF92EF92FF92E1
:1030C0000F931F937C01D62EC72E05E014E0C80194
:1030D0006E2D4D2D0E947E03C8010E94560400D023
:1030E00000D0EDB7FEB7128301838FED90E094839B
:1030F00083830E946C2B0F900F900F900F90C8014C
:103100000E943A04C70101966D2D7C2D0E94980AF9
:103110001F910F91FF90EF90DF90CF9008950F9344
:103120001F9305E014E0C80165E045E00E947E03BE
:10313000C8010E94560400D000D0EDB7FEB712833C
:10314000018387E291E0948383830E946C2B0F902C
:103150000F900F900F90C8010E943A041F910F9199
:1031600008950E948F180E9425080895EF92FF92FB
:103170000F931F939091A304913051F48091AF0469
:10318000882309F4B1C09093DC021092AF04ACC064
:103190008091B0048430C9F58091B104813009F088
:1031A00098C08091B204882321F582EB94E00E94BC
:1031B0002E32892BF1F06091790470917A0480911C
:1031C0007B0490917C040E94B637209136043091A4
:1031D000370440913804509139040E941B370E94F3
:1031E00088377093C2046093C10482EB94E00E941C
:1031F00038322091C1043091C2048091CC02909168
:10320000CD0282179307A0F52BC0853029F4809159
:1032100051049091520414C0863029F480915304D3
:10322000909154040DC0873029F4809155049091F9
:10323000560406C0883041F4809157049091580498
:103240009093BB048093BA048091BC042091BA048B
:103250003091BB04882381F484E0203B380718F4C4
:103260001092C30436C02950374010F082E001C0EC
:1032700081E08093C3042DC0215B344050F1E09085
:10328000BD04F090BE040091BF041091C00488EE0C
:1032900093E0A0E0B0E0E80EF91E0A1F1B1F0E9499
:1032A0005934E616F7060807190798F48091AF0419
:1032B0008F5F8093C304833010F01092C3040E9488
:1032C00059346093BD047093BE048093BF049093FF
:1032D000C0049091C3048091AF04891729F081E064
:1032E0008093DC029093AF041F910F91FF90EF90B9
:1032F00008958091A804882309F07CC28091EA0493
:103300009091EB04A091EC04B091ED040097A1051D
:10331000B10509F46FC20E9459342091EA0430913A
:10332000EB044091EC045091ED04621B730B840B91
:10333000950B695873418040904008F45BC28091BE
:10334000DC02882321F485E094E00E94A3040E941B
:103350003F150895FD01E653FC4F6081A853BC4F13
:103360008C9190E070E00E9428108091DC0288230C
:1033700031F085E094E00E94A3041092DC02809179
:10338000B004843010F00E94B6188091AF048230EF
:1033900009F43BC2A82FB0E0FD01EA59FC4F80813F
:1033A00081FF0BC0FD01EE58FC4F6081A059BC4F5E
:1033B0008C9190E070E00E94940E8091AF04A82F51
:1033C000B0E0FD01EA59FC4F808182FF0BC0FD0196
:1033D000EA58FC4F6081AC58BC4F8C9190E070E093
:1033E0000E94540E8091AF04A82FB0E0FD01EA596D
:1033F000FC4F808183FF0BC0FD01E658FC4F6081CC
:10340000A858BC4F8C9190E070E00E940E0E809105
:10341000AF04A82FB0E0FD01EA59FC4F808180FF86
:103420000BC0FD01E258FC4F6081A458BC4F8C9149
:1034300090E070E00E94C80D8091AF04A82FB0E02A
:10344000FD01EA59FC4F808185FF0BC0FD01EE575D
:10345000FC4F6081A058BC4F8C9190E070E00E94BE
:103460008D0D8091AF04A82FB0E0FD01EA59FC4F0B
:10347000808187FF0BC0FD01E657FC4F6081A85794
:10348000BC4F8C9190E070E00E943B0D8091AF04A6
:10349000A82FB0E0FD01EA59FC4F808184FF0BC0EA
:1034A000FD01E257FC4F6081A457BC4F8C9190E026
:1034B00070E00E94A40F8091AF04A82FB0E0FD013E
:1034C000E859FC4F808180FF0BC0FD01EE56FC4F98
:1034D0006081A057BC4F8C9190E070E00E94BB0CC3
:1034E0008091AF04A82FB0E0FD01E859FC4F808126
:1034F00081FF0BC0FD01EA56FC4F6081AC56BC4F0A
:103500008C9190E070E00E94F90C8091B1048130C0
:1035100051F58091AF04A82FB0E0FD01E859FC4FB0
:10352000808184FF0BC0FD01E256FC4F6081A456F0
:10353000BC4F8C9190E070E00E94D40E8091AF045B
:10354000A82FB0E0FD01E859FC4F808183FF0BC03C
:10355000FD01E656FC4F6081A856BC4F8C9190E06F
:1035600070E00E94A30C8091AF04A82FB0E0FD0191
:10357000E859FC4F808187FF0BC0FD01E655FC4FE9
:103580006081A855BC4F8C9190E070E00E942D0F97
:1035900080914F048823A9F08091AF04A82FB0E058
:1035A000FD01E859FC4F808186FF0BC0FD01EA5503
:1035B000FC4F6081AC55BC4F8C9190E070E00E9454
:1035C0002C178091B104813009F03FC08091AF0485
:1035D000A82FB0E0FD01E659FC4F808182FF0BC0AF
:1035E000FD01EE54FC4F6081A055BC4F8C9190E0E2
:1035F00070E00E94EF128091AF04A82FB0E0FD01AF
:10360000E659FC4F808183FF0BC0FD01EA54FC4F5B
:103610006081AC54BC4F8C9190E070E00E945012DD
:103620008091AF04A82FB0E0FD01E659FC4F8081E6
:1036300081FF0BC0FD01E654FC4F6081A854BC4FD4
:103640008C9190E070E00E94F9118091AF04A82F56
:10365000B0E0FD01E659FC4F808184FF0BC0FD0105
:10366000E254FC4F6081A454BC4F8C9190E070E018
:103670000E94EA0F8091AF04A82FB0E0FD01E65947
:10368000FC4F808185FF0BC0FD01EE53FC4F608134
:10369000A054BC4F8C9190E070E00E94480C809147
:1036A000AF04A82FB0E0FD01E659FC4F808186FFF2
:1036B0000BC0FD01EA53FC4F6081AC53BC4F8C91B1
:1036C00090E070E00E945C188091AF04A82FB0E0F9
:1036D000FD01E659FC4F808180FF0BC0FD01E255E2
:1036E000FC4F6081A455BC4F8C9190E070E00E942B
:1036F00046138091AF04A82FB0E0FD01E459FC4FC0
:10370000808183FF0BC0FD01EE52FC4F6081A0530E
:10371000BC4F8C9190E070E00E94A7128091AF04A2
:10372000A82FB0E0FD01E459FC4F808186FF0BC05B
:10373000FD01EA52FC4F6081AC52BC4F8C9190E08D
:1037400070E00E94DD138091AF04A82FB0E0FD016E
:10375000E459FC4F808185FF0BC0FD01E652FC4F10
:103760006081A852BC4F8C9190E070E00E949B1346
:103770008091AF04A82FB0E0FD01E259FC4F808199
:1037800081FF0BC0FD01EE51FC4F6081A052BC4F88
:103790008C9190E070E00E94DE148091AF04A82F1D
:1037A000B0E0FD01E259FC4F808180FF0BC0FD01BC
:1037B000E252FC4F6081A452BC4F8C9190E070E0CB
:1037C0000E9482148091AF04A82FB0E0FD01E2595D
:1037D000FC4F808182FF0BC0FD01EA51FC4F6081EC
:1037E000AC51BC4F8C9190E070E00E948C160E940E
:1037F000340608958091AF04A82FB0E0FD01E4598C
:10380000FC4F808180FFB1CDA5CD0895CF93DF938C
:10381000EC0185E094E00E947A03C817D9073CF0D8
:1038200085E094E00E946F03892B09F42397CE0171
:10383000DF91CF9108958F929F92AF92BF92CF92D6
:10384000DF92EF92FF920F931F93CF93DF9300913C
:10385000AF0410E08AEF90E0089F7001099FF00C20
:10386000189FF00C1124C70188569F4F0E94DE0953
:10387000F801EA59FC4F882319F08081806102C069
:1038800080818F7E80838091AF04C82FD0E0C701F4
:1038900086569F4F0E94DE09C457DC4F8883809173
:1038A000AF04C82FD0E0C70184569F4F0E94DE09A5
:1038B00090E00E94061CC257DC4F88830091AF0441
:1038C00010E0C70106960E94DE09F801EA59FC4F94
:1038D000882319F08081826002C080818D7F80837F
:1038E0008091AF04C82FD0E0C70108960E94DE097E
:1038F000C059DC4F88838091AF04C82FD0E0C70146
:103900000A960E94DE0990E00E94061CCE58DC4F09
:1039100088830091AF0410E0C7010C960E94DE0975
:10392000F801EA59FC4F882319F08081846002C0B5
:1039300080818B7F80838091AF04C82FD0E0C70146
:103940000E960E94DE09CC58DC4F88838091AF042C
:10395000C82FD0E0C70140960E94DE0990E00E9487
:10396000061CCA58DC4F88830091AF0410E0C701E1
:1039700042960E94DE09F801EA59FC4F882319F0AB
:103980008081886002C08081877F80838091AF04BE
:10399000C82FD0E0C70144960E94DE09C858DC4F0A
:1039A00088838091AF04C82FD0E0C70146960E945B
:1039B000DE0990E00E94061CC658DC4F8883009107
:1039C000AF0410E0C70148960E94DE09F801EA59E9
:1039D000FC4F882319F08081816002C080818E7F36
:1039E00080838091AF04C82FD0E0C7014A960E941F
:1039F000DE09C458DC4F88838091AF04C82FD0E023
:103A0000C7014C960E94DE0990E00E94061CC25835
:103A1000DC4F88830091AF0410E0C7014E960E94EE
:103A2000DE09F801EA59FC4F882319F08081806291
:103A300002C080818F7D80838091AF04C82FD0E049
:103A4000C70180960E94DE09C058DC4F88838091B0
:103A5000AF04C82FD0E0C70182960E94DE0990E033
:103A60000E94061CCE57DC4F88830091AF0410E003
:103A7000C70184960E94DE09F801EA59FC4F8823A9
:103A800019F08081806402C080818F7B8083809167
:103A9000AF04C82FD0E0C70186960E94DE09CC573C
:103AA000DC4F88838091AF04C82FD0E0C70188968F
:103AB0000E94DE0990E00E94061CCA57DC4F8883F2
:103AC0000091AF0410E0C7018A960E94DE09F80158
:103AD000EA59FC4F882319F08081806802C08081F8
:103AE0008F7780838091AF04C82FD0E0C7018C9678
:103AF0000E94DE09C857DC4F88838091AF04C82F2D
:103B0000D0E0C7018E960E94DE0990E00E94061C5C
:103B1000C657DC4F88830091AF0410E0C701C09600
:103B20000E94DE09F801E859FC4F882319F08081D2
:103B3000816002C080818E7F80838091AF04C82F16
:103B4000D0E0C701C2960E94DE09C057DC4F8883CF
:103B50008091AF04C82FD0E0C701C4960E94DE094F
:103B600090E00E94061CCE56DC4F88830091AF0483
:103B700010E0C701C6960E94DE09F801E859FC4F23
:103B8000882319F08081826002C080818D7F8083CC
:103B90008091AF04C82FD0E0C701C8960E94DE090B
:103BA000CC56DC4F88838091AF04C82FD0E0C7018A
:103BB000CA960E94DE0990E00E94061CCA56DC4F9D
:103BC00088830091AF0410E0C701885B9F4F0E947B
:103BD000DE09F801E859FC4F882319F080818061E3
:103BE00002C080818F7E80838091AF04C82FD0E097
:103BF000C701865B9F4F0E94DE09C456DC4F888355
:103C00008091AF04C82FD0E0C701845B9F4F0E9412
:103C1000DE0990E00E94061CC256DC4F88830091AA
:103C2000AF0410E0C7018E5B9F4F0E94DE09F801D0
:103C3000E859FC4F882319F08081886002C0808198
:103C4000877F80838091AF04C82FD0E0C7018C5B51
:103C50009F4F0E94DE09C856DC4F88838091AF04D5
:103C6000C82FD0E0C7018A5B9F4F0E94DE0990E019
:103C70000E94061CC656DC4F88830091AF0410E0FA
:103C8000C701805B9F4F0E94DE09F801E859FC4F95
:103C9000882319F08081806202C080818F7D8083BB
:103CA0008091AF04C82FD0E0C7018E5A9F4F0E9469
:103CB000DE09C056DC4F88838091AF04C82FD0E066
:103CC000C7018C5A9F4F0E94DE0990E00E94061C9B
:103CD000CE55DC4F88830091AF0410E0C7018A5AAB
:103CE0009F4F0E94DE09F801E859FC4F882319F024
:103CF0008081806402C080818F7B80838091AF044B
:103D0000C82FD0E0C701885A9F4F0E94DE09CC55CA
:103D1000DC4F88838091AF04C82FD0E0C701865A5A
:103D20009F4F0E94DE0990E00E94061CCA55DC4F9E
:103D300088830091AF0410E0C70182569F4F0E9414
:103D4000DE09F801E859FC4F882319F0808180686A
:103D500002C080818F7780838091AF04C82FD0E02C
:103D6000C70180569F4F0E94DE09C855DC4F8883EB
:103D70008091AF04C82FD0E0C7018E559F4F0E949D
:103D8000DE0990E00E94061CC655DC4F8883009136
:103D9000AF0410E02CE5822E912C8E0C9F1CC401E8
:103DA0000E94DE09F801E859FC4F882319F0808150
:103DB000806402C080818F7B80838091AF04C82F94
:103DC000D0E09EE5A92EB12CAE0CBF1CC5010E940F
:103DD000DE09CC52DC4F88838091AF04C82FD0E03D
:103DE00080E6C82ED12CCE0CDF1CC6010E94DE0955
:103DF00090E00E94061CCA52DC4F88830091AF04F9
:103E000010E0C7018E599F4F0E94DE09F801E65964
:103E1000FC4F882319F08081816002C080818E7FF1
:103E200080838091AF04C82FD0E0C7018C599F4F89
:103E30000E94DE09C455DC4F88838091AF04C82FEF
:103E4000D0E0C7018A599F4F0E94DE0990E00E948E
:103E5000061CC255DC4F88830091AF0410E0C701F7
:103E600082599F4F0E94DE09F801E659FC4F8823D2
:103E700019F08081846002C080818B7F8083809173
:103E8000AF04C82FD0E0C70180599F4F0E94DE09C0
:103E9000C055DC4F88838091AF04C82FD0E0C701A4
:103EA0008E589F4F0E94DE0990E00E94061CCE545F
:103EB000DC4F88830091AF0410E0C7018E569F4FFE
:103EC0000E94DE09F801E659FC4F882319F0808131
:103ED000826002C080818D7F80838091AF04C82F73
:103EE000D0E0C7018C569F4F0E94DE09C854DC4FBA
:103EF00088838091AF04C82FD0E0C7018A569F4FB6
:103F00000E94DE0990E00E94061CC654DC4F8883A4
:103F10000091AF0410E0C7018C589F4F0E94DE094A
:103F2000F801E659FC4F882319F08081886002C0AF
:103F30008081877F80838091AF04C82FD0E0C70144
:103F40008A589F4F0E94DE09CC54DC4F88838091B1
:103F5000AF04C82FD0E0C70188589F4F0E94DE09E8
:103F600090E00E94061CCA54DC4F88830091AF0485
:103F700010E0C70186589F4F0E94DE09F801E659FC
:103F8000FC4F882319F08081806102C080818F7E80
:103F900080838091AF04C82FD0E0C70184589F4F21
:103FA0000E94DE09C454DC4F88838091AF04C82F7F
:103FB000D0E0C70182589F4F0E94DE0990E00E9426
:103FC000061CC254DC4F88830091AF0410E0C70187
:103FD00080589F4F0E94DE09F801E659FC4F882364
:103FE00019F08081806202C080818F7D8083809102
:103FF000AF04C82FD0E0C7018E579F4F0E94DE0943
:10400000C054DC4F88838091AF04C82FD0E0C70133
:104010008C579F4F0E94DE0990E00E94061CCE53F1
:10402000DC4F88830091AF0410E0C7018A579F4F8F
:104030000E94DE09F801E659FC4F882319F08081BF
:10404000806402C080818F7B80838091AF04C82F01
:10405000D0E0C70188579F4F0E94DE09CC53DC4F48
:1040600088838091AF04C82FD0E0C70186579F4F47
:104070000E94DE0990E00E94061CCA53DC4F888330
:104080000091AF0410E0C7018C559F4F0E94DE09DC
:10409000F801E459FC4F882319F08081816002C047
:1040A00080818E7F80838091AF04C82FD0E0C701CC
:1040B0008A559F4F0E94DE09C853DC4F8883809148
:1040C000AF04C82FD0E0C70188559F4F0E94DE097A
:1040D00090E00E94061CC653DC4F88830091AF0419
:1040E00010E0C70180559F4F0E94DE09F801E45996
:1040F000FC4F882319F08081846002C080818B7F0F
:1041000080838091AF04C82FD0E0C7018E549F4FA9
:104110000E94DE09C453DC4F88838091AF04C82F0E
:10412000D0E0C7018C549F4F0E94DE0990E00E94AE
:10413000061CC253DC4F88830091AF0410E0C70116
:104140008A549F4F0E94DE09F801E459FC4F8823EE
:1041500019F08081886002C08081877F8083809190
:10416000AF04C82FD0E0C70188549F4F0E94DE09DA
:10417000C053DC4F88838091AF04C82FD0E0C701C3
:1041800086549F4F0E94DE0990E00E94061CCE528A
:10419000DC4F88830091AF0410E0C4010E94DE0967
:1041A000F801E459FC4F882319F08081806402C033
:1041B00080818F7B80838091AF04C82FD0E0C501C0
:1041C0000E94DE09CC52DC4F88838091AF04C82F57
:1041D000D0E0C6010E94DE0990E00E94061CCA528F
:1041E000DC4F88830091AF0410E0C70188539F4FD4
:1041F0000E94DE09F801E459FC4F882319F0808100
:10420000806202C080818F7D80838091AF04C82F3F
:10421000D0E0C70186539F4F0E94DE09C852DC4F91
:1042200088838091AF04C82FD0E0C70184539F4F8B
:104230000E94DE0990E00E94061CC652DC4F888373
:104240000091AF0410E0C70182539F4F0E94DE0926
:10425000F801E259FC4F882319F08081816002C087
:1042600080818E7F80838091AF04C82FD0E0C7010A
:1042700080539F4F0E94DE09C452DC4F8883809197
:10428000AF04C82FD0E0C7018E529F4F0E94DE09B5
:1042900090E00E94061CC252DC4F88830091AF045C
:1042A00010E0C7018C529F4F0E94DE09F801E259CD
:1042B000FC4F882319F08081826002C080818D7F4D
:1042C00080838091AF04C82FD0E0C7018A529F4FEE
:1042D0000E94DE09C052DC4F88838091AF04C82F52
:1042E000D0E0C70188529F4F0E94DE0990E00E94F3
:1042F000061CCE51DC4F88830091AF0410E0C7014B
:1043000080529F4F0E94DE09F801E259FC4F88233A
:1043100019F08081846002C080818B7F80838091CE
:10432000AF04C82FD0E0C7018E519F4F0E94DE0915
:10433000CC51DC4F88838091AF04C82FD0E0C701F7
:104340008C519F4F0E94DE0990E00E94061CCA51CA
:10435000DC4F8883DF91CF911F910F91FF90EF90F9
:10436000DF90CF90BF90AF909F908F900895482F8F
:1043700088EA95E00E9443320895CF93DF939091AD
:10438000AF048AEF989FE00111241092F304109279
:10439000F2040EC06C0F7D1F80E00E94B721809157
:1043A000F2049091F30401969093F3048093F20445
:1043B0006091F2047091F304653E71055CF3BE01F7
:1043C0006A5F7F4F81E00E94B721BE01685F7F4F27
:1043D00087E10E94B721BE01665F7F4F8BE00E949C
:1043E000B721BE01645F7F4F81E00E94B721BE010B
:1043F000625F7F4F8CE00E94B721BE01605F7F4FFC
:1044000081E00E94B721BE016E5E7F4F81E00E9475
:10441000B721BE016C5E7F4F8EE00E94B721BE01C6
:104420006A5E7F4F8EE00E94B721BE01685E7F4FBB
:1044300081E00E94B721BE01665E7F4F85E10E9448
:10444000B721BE01645E7F4F83E00E94B721BE01A9
:10445000625E7F4F81E00E94B721BE01605E7F4FA8
:1044600081E00E94B721BE016E5D7F4F8BE00E940C
:10447000B721BE016C5D7F4F81E00E94B721BE0174
:104480006A5D7F4F85E00E94B721BE01685D7F4F66
:104490008BE00E94B721BE01665D7F4F81E00E94E4
:1044A000B721BE01645D7F4F81E00E94B721BE014C
:1044B000625D7F4F8EE00E94B721BE01605D7F4F3D
:1044C00081E00E94B721BE016E5C7F4F85E10E94B2
:1044D000B721BE016C5C7F4F8FE00E94B721BE0107
:1044E0006A5C7F4F81E00E94B721BE01685C7F4F0C
:1044F00088E10E94B721BE01665C7F4F8EE00E947A
:10450000B721BE016E5B7F4F81E00E94B721BE01E3
:104510006C5B7F4F8EE00E94B721BE016A5B7F4FCC
:1045200083E00E94B721BE01685B7F4F81E00E945B
:10453000B721BE01665B7F4F86E10E94B721BE01B5
:10454000645B7F4F81E00E94B72180E060E570E00E
:104550000E94B7218BE162E570E00E94B7218CE0F8
:1045600064E570E00E94B72180E066E570E00E949B
:10457000B72189E068E570E00E94B7218EE06AE526
:1045800070E00E94B721BE01645A7F4F81E00E9413
:10459000B721BE01625A7F4F88E00E94B721BE0159
:1045A000605A7F4F8DE00E94B721BE016E597F4F48
:1045B00081E00E94B721BE016C597F4F8EE00E94BE
:1045C000B721BE016A597F4F8FE00E94B721BE011B
:1045D00062597F4F81E00E94B721BE0160597F4F31
:1045E00086E10E94B721BE016E587F4F83E00E9492
:1045F000B721BE016C587F4F81E00E94B721BE01F8
:104600006A587F4F81E00E94B721BE0168587F4FF2
:1046100082E00E94B721BE016E567F4F81E00E946A
:10462000B721BE016C567F4F81E00E94B721BE01C9
:104630006A567F4F81E00E94B721BE0168567F4FC6
:1046400081E00E94B721BE0166567F4F81E00E9443
:10465000B721BE0164567F4F84E00E94B721BE019E
:1046600062567F4F81E00E94B721BE0160567F4FA6
:1046700087E10E94B721BE016E557F4F8DE00E94F9
:10468000B721BE0166587F4F81E00E94B721BE016D
:1046900064587F4F81E00E94B721BE0162587F4F6E
:1046A00083E00E94B721BE0160587F4F81E00E94E5
:1046B000B721BE016E577F4F81E00E94B721BE0136
:1046C0006C577F4F8DE00E94B721BE016A577F4F24
:1046D00081E00E94B721BE0168577F4F88E00E94A9
:1046E000B721BE0166577F4F86E00E94B721BE0109
:1046F0006C557F4F81E00E94B721BE016A557F4F04
:1047000089E00E94B721BE0168557F4F84E00E9476
:10471000B721BE0160557F4F80E00E94B721BE01E6
:104720006E547F4F88E10E94B721BE016C547F4FC9
:1047300087E00E94B721BE016A547F4F81E00E944A
:10474000B721BE0168547F4F81E00E94B721BE01AE
:1047500066547F4F88E00E94B721BE0162537F4FAD
:1047600080E00E94B721BE0160537F4F8AE00E9423
:10477000B721BE016E527F4F84E00E94B721BE0177
:104780006C527F4F80E00E94B721BE016A527F4F7A
:1047900086E10E94B721BE0168527F4F8EE00E94E1
:1047A000B721BE0160527F4F80E00E94B721BE0159
:1047B0006E517F4F86E10E94B721BE016C517F4F41
:1047C00082E00E94B7218EE16CE773E00E94B7217E
:1047D00080E06EE773E00E94B72184E660E873E052
:1047E0000E94B72184E662E873E00E94B72186E068
:1047F0006AE873E00E94B72181E064EA73E00E94F6
:10480000B72181E065EA73E00E94B72181E06AEA9E
:1048100073E00E94B72181E06BEA73E00E94B72148
:1048200081E066EA73E00E94B72181E068EA73E004
:104830000E94B72180E06CEA73E00E94B72181E01A
:104840006EEA73E00E94B72180E060EB73E00E94A3
:10485000B721DF91CF9108950F931F938AE268EEFD
:1048600073E00E94B72184E26EEE73E00E94B721EC
:104870001092AF0407C00E94BD218091AF048F5FEA
:104880008093AF048091AF048230A8F305E014E078
:10489000C80164E049E00E947E03C8010E945604FA
:1048A00000D000D0EDB7FEB71283018381E591E01F
:1048B000948383830E946C2B0F900F900F900F9026
:1048C000C8010E943A04FFCF4F925F927F928F926D
:1048D0009F92AF92BF92CF92DF92EF92FF920F938F
:1048E0001F93DF93CF93CDB7DEB7C854D0400FB638
:1048F000F894DEBF0FBECDBF85E094E00E94A30414
:1049000000D000D008EE13E0EDB7FEB712830183AC
:1049100084E791E0948383830E946C2B79E6472E91
:1049200071E0572EEE24FF24CC24DD240F900F904D
:104930000F900F90702E012F69E0A62EB12CAC0EB7
:10494000BD1E4E010894811C911C88EE93E00E94CC
:10495000202C982F8D3031F08D30DCF18053823057
:10496000C0F530C01830A1F59981892F805382306D
:1049700078F5913311F490E801C090E08A81813399
:1049800009F4905C8B81813309F4905E8C818133D2
:1049900009F4905F8D81813309F4985F8E818133B2
:1049A00009F49C5F8F81813309F49E5F8885813390
:1049B00009F49F5FF501EE0DFF1D90830894E11C43
:1049C000F11C06C0F401E10FF11D90831F5F01C0CF
:1049D00010E0F0E4EF16F104C9F485E094E0B601CC
:1049E000A5010E948E030894C11CD11C00D000D0E8
:1049F000EDB7FEB771820283548243820E946C2B12
:104A0000EE24FF240F900F900F900F90FFEFCF1622
:104A1000D10409F00CF499CFC85BDF4F0FB6F894BE
:104A2000DEBF0FBECDBFCF91DF911F910F91FF90E1
:104A3000EF90DF90CF90BF90AF909F908F907F903E
:104A40005F904F900895EF92FF920F931F93DF9323
:104A5000CF93CDB7DEB766970FB6F894DEBF0FBE23
:104A6000CDBF7E010894E11CF11C01E02BC188EE52
:104A700093E00E94202C182F80912404882301F5B4
:104A80000E94593460527E4480409040C8F40E9495
:104A90005934695873418040904090F01A3011F0B9
:104AA0001D3031F4809125048F5F8093250402C06E
:104AB0001092250480912504833011F40E9464240F
:104AC000812FB7010E945C2A882309F4FBC0009360
:104AD0002404009326040E9459340E94B437609342
:104AE0002704709328048093290490932A048981D1
:104AF0009A818330910509F493C08430910554F470
:104B000081309105C9F0823091050CF07CC0892B71
:104B100069F0D8C08630910509F4B8C08730910596
:104B200009F4C5C0049709F0CDC08AC08B81809379
:104B30002B0410922C04C6C06B817C818D819E81D8
:104B40000E94B63720E836E948E15BE40E941B3753
:104B500060932D0470932E0480932F04909330045F
:104B60006F81788589859A850E94B63720E836E975
:104B700048E15BE40E941B37609331047093320478
:104B800080933304909334048F85809335046B8530
:104B90007C858D859E850E94B63760933604709320
:104BA00037048093380490933904888980933A04B9
:104BB00069897A8980E090E00E94B43760933B0471
:104BC00070933C0480933D0490933E046B897C89F0
:104BD00080E090E00E94B43760933F0470934004FB
:104BE00080934104909342046D897E8980E090E037
:104BF0000E94B43760934304709344048093450447
:104C0000909346045FC08B819C819093480480936D
:104C100047048D819E8190934A048093490452C039
:104C20008B819C8190934C0480934B048D819E8159
:104C300090934E0480934D04898580934F0442C025
:104C40008B819C81885E93406AE070E00E941B3AF1
:104C5000609350048D819E819093520480935104FF
:104C60008F819885909354048093530489859A8505
:104C700090935604809355048B859C85909358049B
:104C8000809357048B89809359041CC06B817C816D
:104C9000882777FD8095982F0E94B63760935A0435
:104CA00070935B0480935C0490935D040BC064EF8D
:104CB00071E080E090E00E946734E0912204F0917E
:104CC0002304099588EE93E00E94F02B181619062C
:104CD0000CF4CDCE66960FB6F894DEBF0FBECDBFF6
:104CE000CF91DF911F910F91FF90EF900895EF9278
:104CF000FF920F931F93E090F404F090F50400915D
:104D0000F6041091F7048FE590E0A0E0B0E0E80E23
:104D1000F91E0A1F1B1F0E9459346E157F0580075C
:104D2000910708F41BC10E9459340E9459346093C2
:104D3000F4047093F5048093F6049093F70487E0ED
:104D40000E94FE34AA2797FDA095BA2FBC01CD0181
:104D50000E94B63720E030E849E85FE30E94E93876
:104D60002091E7023091E8024091E9025091EA0275
:104D70000E941B372DEC3CEC4CE45EE30E94E938CA
:104D80007B018C016091F3027091F4028091F50235
:104D90009091F6022DEC3CEC4CE45FE30E94E93884
:104DA0009B01AC01C801B7010E944E36DC019B019A
:104DB000AC012093F3023093F4024093F502509338
:104DC000F602CB018093950490939604A0939704E8
:104DD000B093980486E00E94FE34AA2797FDA09520
:104DE000BA2FBC01CD010E94B63720E030E849E877
:104DF0005FE30E94E9382091EB023091EC02409190
:104E0000ED025091EE020E941B372DEC3CEC4CE47D
:104E10005EE30E94E9387B018C016091F70270919A
:104E2000F8028091F9029091FA022DEC3CEC4CE4EE
:104E30005FE30E94E9389B01AC01C801B7010E9401
:104E40004E36DC019B01AC012093F7023093F8024F
:104E50004093F9025093FA02CB018093910490930E
:104E60009204A0939304B093940481E00E94FE34D2
:104E70009093D0048093CF046091EF027091F00280
:104E80008091F1029091F20220E030E040E050E0A9
:104E90000E94DE3818160CF061C082E00E94FE34D9
:104EA000AA2797FDA095BA2FBC01CD010E94B63765
:104EB00020E030E849E85FE30E94E9387B018C019B
:104EC0006091EE047091EF048091F0049091F104F0
:104ED00020E030E040E251EC0E941B379B01AC0126
:104EE000C801B7010E944E362091EF023091F002C6
:104EF0004091F1025091F2020E941B372DEC3CECE4
:104F00004CEC5DE30E94E9387B018C016091F80470
:104F10007091F9048091FA049091FB0426E636E63C
:104F200046E65FE30E94E9389B01AC01C801B70186
:104F30000E944E366093F8047093F9048093FA044B
:104F40009093FB0420E030E048EC52E40E94E93802
:104F50000E9483377093AE046093AD041F910F914C
:104F6000FF90EF90089583E00E94FB346091D2029D
:104F70007091D3028091D4029091D5022DEC3CEC3B
:104F80004CE85FE30E94E9386093F3027093F40207
:104F90008093F5029093F6026091D8027091D90245
:104FA0008091DA029091DB022DEC3CEC4CE85FE35F
:104FB0000E94E9386093F7027093F8028093F90237
:104FC0009093FA02089586E061E00E945F350895AB
:104FD0000E94232587E194E00E949D3208950F935B
:104FE0001F93CF93DF9386E061E00E94203588EE27
:104FF00093E040E051EE60E070E00E948E2B0E9452
:10500000E327C5E0D4E0CE010E9422050E94B1183A
:1050100064EF71E080E090E00E94673488EE93E0F6
:105020000E94DE09082F8EEE93E00E94DE0910E058
:10503000080F111D0E341105E9F0CE0166E049E0BC
:105040000E947E03CE010E94560400D000D0EDB72E
:10505000FEB7D283C18384E891E0948383830E9466
:105060006C2B0F900F900F900F90CE010E943A047E
:105070000E942C240E94B1081092AF0407C00E9425
:105080001B1C8091AF048F5F8093AF048091AF04AD
:105090008230A8F31092AF0460ED77E080E090E0FA
:1050A0000E94673488EE93E00E946D2C87E194E0C3
:1050B00066E07AE228E730E040E050E000E00E945D
:1050C0004F320E94B32785E094E00E94A30487E159
:1050D00094E00E94B532DF91CF911F910F91089516
:1050E0002F923F924F925F926F927F928F929F92F8
:1050F000AF92BF92CF92DF92EF92FF920F931F93E6
:10510000DF93CF9300D000D0CDB7DEB7E090360468
:10511000F09037040091380410913904C801B701A8
:10512000209101053091020540910305509104053D
:105130000E944D36609375047093760480937704D3
:1051400090937804A090B104AA2089F58091350449
:10515000833009F044C180912D0490912E04A091D8
:105160002F04B09130048093050590930605A09319
:105170000705B09308058091310490913204A09105
:105180003304B09134048093090590930A05A093E9
:105190000B05B0930C05E0920105F0920205009317
:1051A00003051093040581E08093B10418C181E0E8
:1051B000A81609F014C160900D05E8E1E61580F12C
:1051C00060910E0570910F05809110059091110569
:1051D000A80197010E944D369F7720E030E040E023
:1051E0005FE30E94DE3818165CF410920D05E09221
:1051F0000E05F0920F05009310051093110510C0D5
:10520000862D8F5F80930D05893151F4E092010561
:10521000F09202050093030510930405A092FC048C
:10522000E0900505F090060500910705109108052E
:10523000C801B7019F7725E33AEF4EE85CE30E948F
:10524000E9380E94183769837A838B839C83C8016D
:10525000B70120912D0430912E0440912F045091DC
:1052600030040E944D361B012C019F7720EC3BE659
:1052700049ED57E40E94E9385B016C016091090532
:1052800070910A0580910B0590910C0520913104D5
:105290003091320440913304509134040E944D36D1
:1052A0003B014C019F7720EC3BE649ED57E40E941F
:1052B000E93829813A814B815C810E94E9387B0180
:1052C0008C01C601B501A60195010E94E9385B0178
:1052D0006C01C801B701A80197010E94E9389B0140
:1052E000AC01C601B5010E944E360E9470390E9481
:1052F00083376093790470937A0480937B0490934E
:105300007C0460E070E080E89FE329813A814B8172
:105310005C810E941B379B01AC01C201B1010E945C
:10532000E93897FA909497F89094A40193010E9419
:10533000C13620EE3EE245E652E40E94E93820E024
:1053400030E044EB52E40E944E360E9483379B01CA
:10535000AC0197FF04C028593E4F4F4F5F4FCA0121
:10536000B901645B70408040904097FF06C0CA015D
:10537000B9016C547F4F8F4F9F4F0E94B6372091D9
:1053800043043091440440914504509146040E94E6
:105390004D360E94833797FF04C068597E4F8F4F68
:1053A0009F4F0E94B63720E030E044EB53E40E9468
:1053B0001B3720E030E040E851E40E94E9380E94C9
:1053C0004C3920E030E040E85FE30E944E360E9416
:1053D000883760937D04613110F010927D040F9046
:1053E0000F900F900F90CF91DF911F910F91FF9031
:1053F000EF90DF90CF90BF90AF909F908F907F9075
:105400006F905F904F903F902F9008950E94120CE4
:1054100085E094E00E9470280E9477260E94791906
:105420000E94630608950F931F9386E195E06CE256
:1054300070E00E942C038C010F5F1F4F1093130527
:1054400000931205C8016CE270E00E942C03FC017D
:105450009093150580931405012B41F0009731F0CE
:105460001082209112053091130502C02BEF32E01B
:10547000C9011F910F910895809114059091150510
:10548000009781F0019690931305809312056CE2CA
:1054900070E00E942C03FC01909315058093140585
:1054A000009719F42BEF32E005C01082209112050D
:1054B00030911305C9010895EF92FF920F931F9346
:1054C000CF93DF93EB01843209F0DAC088EE93E0EA
:1054D0006AE046E155E020E830E00E941836882373
:1054E00009F4CEC0E82FF0E0EB5EFA4F80818D30FA
:1054F00009F0C6C01082809116058D3409F46EC083
:105500008E344CF4833409F481C08934E1F0813461
:1055100009F0B6C02AC0823509F4ADC0833524F441
:10552000803509F0ADC007C0853509F492C08A35D1
:1055300009F0A6C097C0198218820E94132A0E94FF
:10554000DC028A8310C082E090E0998388830E9405
:10555000132A0E94DC029D838C830E943C2A0E94B5
:10556000DC029B838A8381E08CC081E090E0998398
:1055700088830E94132A0E94FA026A837B838C83A9
:105580009D830E943C2A0E94FA026E837F83888753
:1055900099870E943C2A0E94DC028F870E943C2A45
:1055A0000E94FA026A877B878C879D870E943C2A2B
:1055B0000E94DC02888B198A0E943C2A0E94DC022D
:1055C0008A8B1B8A0E943C2A0E94DC029D8B8C8B5A
:1055D0000E943C2A0E94DC028E87C5CF83E090E0C7
:1055E000998388830E94132A0E94FA027B836A832C
:1055F0000E943C2A0E94FA026C837D838E839F83E3
:105600000E943C2A0E94DC028887ADCF84E090E0B3
:10561000998388830E94132A0E94DC029B838A83D9
:105620007E0101E010E00E943C2A0E94DC02F701AA
:10563000958384830F5F1F4F82E090E0E80EF91E90
:105640000530110581F70E943C2A0E94DC028A8BFA
:105650008ACF85E090E0998388830E94132A0E9474
:10566000DC027FCF86E090E0998388830E94132A32
:105670000E94DC0276CF87E090E09983888373CF25
:1056800080E0DF91CF911F910F91FF90EF900895EF
:105690006EBD0DB407FEFDCF8EB508958DE061E0BF
:1056A0000E9420358BE061E00E9420358CE060E0B4
:1056B0000E9420358AE061E00E9420351CBC80E514
:1056C0008CBD8DB58EB5089586E995E00E944E2B70
:1056D00008958FEF9FE70895DF93CF93CDB7DEB79F
:1056E000FE0139968D819E8161E04F8158859F0131
:1056F0000E940D2ECF91DF910895DF93CF93CDB708
:10570000DEB7FE0139968D819E8160E04F8158851C
:105710009F010E940D2ECF91DF9108950F931F934B
:10572000DC01ED91FC910288F389E02D20E030E06E
:1057300000E010E009951F910F9108958F92AF92AC
:10574000CF92EF92FF920F931F93DF93CF93CDB73A
:10575000DEB7FC011382128288EE93E0A0E0B0E095
:1057600084839583A683B7838FE493E091838083BA
:105770005587448737872687118B008BF38AE28A07
:10578000C48AA58A868A70E0CB0123E0880F991F1E
:105790002A95E1F79C0129563A4F308F278B815685
:1057A0009A4F928F818F81E090E002C0880F991FFD
:1057B0006A95E2F72091A705282B2093A705CF0132
:1057C00040E051EE60E070E00E948E2BCF91DF91BF
:1057D0001F910F91FF90EF90CF90AF908F90089511
:1057E000FC01838D882319F42FEF3FEF0DC007884C
:1057F000F08DE02D2081318182819381281B390B2E
:105800008481958128233923C9010895FC01838D62
:10581000882319F42FEF3FEF11C0018CF28DE02D9A
:105820002081318182819381281B390B209530950D
:1058300084819581282339232F5F3F4FC901089523
:10584000FC01838D882361F0A789B08D2D913C9157
:10585000119712968D919C9113972817390721F46F
:105860004FEF5FEFCA01089512968D919C911397A7
:105870001696ED91FC911797E80FF91F408112964B
:105880008D919C911397019614962D913C911597AB
:105890008223932313969C938E93129750E0E2CF2A
:1058A000FC01838D882351F00788F08DE02D208145
:1058B0003181828193812817390721F42FEF3FEF3F
:1058C000C9010895828193810680F781E02DE80F58
:1058D000F91F8081282F30E0F3CFDC015796ED913E
:1058E000FC91589782819381918380835996ED91A1
:1058F000FC915A9780819181938382830895DC0182
:105900005B968C915B978823A9F15996ED91FC9158
:105910005A97208131812F5F3F4F848195812823C1
:1059200039235C968C915C97882329F0828193813E
:1059300028173907F9F08281938128173907D9F39D
:10594000808191810680F781E02DE80FF91F608347
:105950005996ED91FC915A97318320835296ED919F
:10596000FC915397808156969C91892B808321E0EE
:1059700030E002C020E030E0C9010895CF93DF930A
:10598000EC011B821A828A819B81998388831D8204
:105990001C828E819F81009721F00E9479331F82A3
:1059A0001E82DF91CF9108950F931F938C01DC012C
:1059B0005296ED91FC915397208156968C91569773
:1059C00055969C915597892B809582238083579675
:1059D0008D919C9158970E94BE2CF801818D928DDB
:1059E0000E94BE2CD8015B961C921F910F910895C6
:1059F0000F931F93CF93DF938C01FC0113821282CC
:105A0000828193819183808341E0A1E0B0E001C075
:105A10004F5FFD01042E02C0EE0FFF1F0A94E2F754
:105A20009B0182E06130780710F020E032E0E2175D
:105A3000F30770F3C1E0D0E002C0CC0FDD1F4A9540
:105A4000E2F72197F801268137812115310541F0D0
:105A5000848195818C179D0789F0C9010E94793353
:105A6000F801D583C483CE0101960E94DC329C01EB
:105A7000F8019783868380E0232B09F081E0DF9192
:105A8000CF911F910F910895AF92BF92CF92DF9265
:105A9000EF92FF920F931F93CF93DF937C015A01F4
:105AA0006B01E901DC015B968C915B978823F1F037
:105AB0002115310539F45796ED91FC915897C48121
:105AC000D58121960115110549F4D7015996ED911B
:105AD000FC915A97048115810F5F1F4FD701ED91FB
