:100000000C947C010C94A4010C94A4010C94A40104
:100010000C94A4010C94A4010C94A4010C94A401CC
:100020000C94A4010C94A4010C94A4010C94A401BC
:100030000C94A4010C94A4010C94A4010C94A401AC
:100040000C94E8310C94A4010C946D050C94A90552
:100050000C94A4010C94A4010C94A4010C94A4018C
:100060000C94A4010C94A401084AD73B3BCE016E2A
:1000700084BCBFFDC12F3D6C74319ABD56833DDAFF
:100080003D00C77F11BED9E4BB4C3E916BAAAABE0E
:10009000000000803F05A84CCDB2D44EB93836A937
:1000A000020C50B9918688083CA6AAAA2ABE000074
:1000B00000803F0664EC1B3C04BC163E3BE5B93CAB
:1000C000C93C37C29E5A3D660498083EEA69AAAA0E
:1000D0003E000000803F2020202020202020002003
:1000E0002020202020202020202020207C202020B4
:1000F000202020202020202020207CC620202020FE
:100100002020202020202020C57C202020202020EE
:10011000202020202020207C202020202020202083
:1001200020202020207C00B0B1B2B3B47CB5B6B79B
:10013000B8B97C4D696E696D4F53442D4578747222
:100140006120322E34207C2072363232204D507C99
:10015000004F534420496E697469616C697A656423
:100160002C207265626F6F74004368617220446F67
:100170006E650A00526561647920666F7220466F71
:100180006E740A004D697373696E672F4F6C64203B
:10019000436F6E6669670000407A10F35A00A072E0
:1001A0004E18090010A5D4E80000E87648170000B2
:1001B000E40B54020000CA9A3B000000E1F5050080
:1001C0000080969800000040420F000000A08601C9
:1001D000000000102700000000E803000000006499
:1001E00000000000000A0000000000010000000004
:1001F000002C76D888DC674F0823DFC1DFAE59E1D9
:10020000B1B796E5E3E453C63AE651997696E8E647
:10021000C28426EB898C9B62ED407C6FFCEFBC9C1A
:100220009F40F2BAA56FA5F490055A2AF75C936B2C
:100230006CF9676DC11BFCE0E40D47FEF520E6B5E7
:1002400000D0ED902E0300943577050080841E08C1
:100250000000204E0A000000C80C333333330F98DF
:100260006E12831141EF8D2114893BE65516CFFEA6
:10027000E6DB18D1844B381BF77C1D901DA4BBE432
:1002800024203284725E228100C9F124ECA1E53D74
:10029000276E616E00696E66000000000024002772
:1002A000002A0000000000250028002B00000000AC
:1002B00000230026002900040404040404040402AA
:1002C00002020202020303030303030102040810F3
:1002D00020408001020408102001020408102000C0
:1002E00000000700020100000304060000000000F7
:1002F00000000000F7053B2911241FBECFEFD8E016
:10030000DEBFCDBF13E0A0E0B1E0E4E2F5E702C05C
:1003100005900D92AC39B107D9F715E0ACE9B3E01F
:1003200001C01D92A73EB107E1F712E0C8EFD2E08D
:1003300004C02297FE010E948C3AC43FD107C9F73E
:100340000E948A330C94903A0C940000283008F0F4
:1003500027E03327DA01990F311D87FD9160009660
:100360006105710539F432602E5F3D9330E32A95C3
:10037000E1F708959F3F30F080387105610509F07D
:100380003C5F3C5F3D93913008F08068911DDF93A6
:10039000CF931F930F93FF92EF92192F987F96950B
:1003A000E92F96959695E90FFF27EF50FE4F992775
:1003B0003327EE24FF24A701E70105900894079452
:1003C00028F4360FE71EF81E491F511D660F771FD0
:1003D000881F991F0694A1F70590079428F4E70E4B
:1003E000F81E491F561FC11D770F881F991F661FD2
:1003F0000694A1F70590079428F4F80E491F561F9C
:10040000C71FD11D880F991F661F771F0694A1F77C
:100410000590079420F4490F561FC71FD81F990F46
:10042000661F771F881F0694A9F78491109517708F
:1004300041F0D695C79557954795F794E7941A9547
:10044000C1F7E7E9F1E06894159015913591659150
:10045000959105907FE27395E118F10A430B560BD5
:10046000C90BD009C0F7E10CF11E431F561FC91F6D
:10047000D01D7EF4703311F48A95E6CFE8940150D4
:1004800030F0080F0AF40027021708F4202F2395F4
:10049000022F7A3328F079E37D932A95E9F710C08B
:1004A0007D932A9589F606949795679537951795C4
:1004B0001794E118F10A430B560BC90BD00998F0B9
:1004C00023957E9173957A3308F070E37C93201323
:1004D000B8F77E9170617D9330F0839571E37D93E1
:1004E00070E32A95E1F71124EF90FF900F911F918F
:1004F000CF91DF91992787FD90950895FA01AA275A
:10050000283051F1203181F1E8946F936E7F6E5F56
:100510007F4F8F4F9F4FAF4FB1E03ED0B4E03CD004
:10052000670F781F891F9A1FA11D680F791F8A1FE7
:10053000911DA11D6A0F711D811D911DA11D20D04E
:1005400009F468943F912AE0269F11243019305D08
:100550003193DEF6CF010895462F4770405D4193F9
:10056000B3E00FD0C9F7F6CF462F4F70405D4A3346
:1005700018F0495D31FD4052419302D0A9F7EACF0E
:10058000B4E0A6959795879577956795BA95C9F73D
:1005900000976105710508959B01AC010A2E069430
:1005A0005795479537952795BA95C9F7620F731FE9
:1005B000841F951FA01D0895FC0188279927E894A2
:1005C00021912032E9F3293010F02E30C8F32B327C
:1005D00041F02D3239F4689404C00E945703820F11
:1005E000911D219120532A30C0F31EF490958195DE
:1005F0009F4F08951F93FC0199278827BC01E89419
:1006000011911032E9F3193010F01E30C8F31B328B
:1006100051F01D3249F4689406C00E944203610FF4
:10062000711D811D911D119110531A30B0F33EF4CC
:1006300090958095709561957F4F8F4F9F4F1F913B
:100640000895FC010590615070400110D8F7809525
:1006500090958E0F9F1F0895FC018191861721F0C0
:100660008823D9F7992708953197CF010895FC0180
:100670006150704001900110D8F7809590958E0FD1
:100680009F1F0895592F482F372F262F660F771F4A
:10069000881F991F660F771F881F991F620F731F8E
:1006A000841F951F660F771F881F991F08957AE092
:1006B000979F902D879F802D910D11240895FC0107
:1006C0001382128288EE93E0A0E0B0E084839583E9
:1006D000A683B78382E493E0918380830895FC012D
:1006E0008089803419F421E030E002C020E030E05D
:1006F000C9010895FC01818990E00895FC01648797
:10070000458766874787089580E090E0089580E0F8
:1007100090E0089580E090E008950895EF92FF92B0
:100720001F93CF93DF93162F7A0186E060E00E943B
:10073000363387EC95E060E00E941F2987EC95E056
:1007400060E00E941F2987EC95E069E00E941F2964
:1007500087EC95E0612F0E941F29C0E0D0E0F701EF
:10076000EC0FFD1F108187EC95E06AE00E941F29C5
:1007700087EC95E06C2F0E941F2987EC95E06BE0D9
:100780000E941F2987EC95E0612F0E941F29219666
:10079000C633D10521F787EC95E068E00E941F2958
:1007A00087EC95E060EA0E941F2987EC95E060EAFB
:1007B0000E941F2985FDF9CF87EC95E060E00E943B
:1007C0001F2987EC95E06CE00E941F2986E061E01C
:1007D0000E943633DF91CF911F91FF90EF900895E3
:1007E0001F93CF93DF93EC01162F86E060E00E9409
:1007F000363387EC95E060E00E941F29112319F041
:10080000113059F404C087EC95E0688904C0688908
:100810006C6187EC95E00E941F2986E061E00E94F0
:100820003633DF91CF911F910895EF92FF920F938E
:100830001F938EE1489F70011124E60EF11C86E0A3
:1008400060E00E94363307EC15E0C80165E00E94C5
:100850001F29C8016F2D0E941F29C80166E00E9450
:100860001F29C8016E2D0E941F291F910F91FF9013
:10087000EF900895EF92FF920F931F937C0107EC86
:1008800015E0C80167E00E941F29C8016FEF0E94B0
:100890001F2986E061E00E943633F70187858F5F6C
:1008A00087871F910F91FF90EF900895EF92FF922D
:1008B0000F931F93FC01E7848EE1E89E70011124E1
:1008C0008685E80EF11C86E060E00E94363307EC76
:1008D00015E0C80164E00E941F29C80163E00E947E
:1008E0001F29C80165E00E941F29C8016F2D0E94C1
:1008F0001F29C80166E00E941F29C8016E2D0E94B1
:100900001F291F910F91FF90EF9008951F93CF9390
:10091000DF93EC01162F6C3731F40E943A04CE01BC
:100920000E9456040AC087EC95E067E00E941F29E8
:1009300087EC95E0612F0E941F2981E090E0DF9114
:10094000CF911F9108950F931F9386E060E00E945E
:10095000363307EC15E0C80164E00E941F29C80186
:1009600064E00E941F2986E061E00E9436331F91F7
:100970000F9108951F9389ED95E066E973E00E9459
:100980001330882361F0813011F412E009C0823005
:1009900011F411E005C0833011F410E001C013E040
:1009A00010929D0310929C0317C060919C0370915C
:1009B0009D03605F87EC95E00E941F2987EC95E01E
:1009C000612F0E941F2980919C0390919D030196A5
:1009D00090939D0380939C0380919C0390919D0331
:1009E00040971CF31F910895CF93DF93EC0186E0AD
:1009F00060E00E94363387EC95E060EA0E941F2990
:100A000087EC95E06FEF0E941F2980FF05C080E40E
:100A1000888B88E0898B13C089ED95E060E973E0ED
:100A20000E941330882319F4188A86E003C080E4FA
:100A3000888B88E0898B86E060E00E943633DF9106
:100A4000CF910895CF92DF92FF920F931F936C0185
:100A500086E061E00E94F73282E060E00E94F732B7
:100A600082E061E00E943633C6010E94F40486E011
:100A700060E00E94363307EC15E0C8016CEE0E947E
:100A80001F29C8016FEF0E941F29F82EC80160E0DE
:100A90000E941F29F60160896260C8010E941F2917
:100AA00062E370E080E090E00E943E32C8016CE6B4
:100AB0000E941F29FFEEFF22C8016F2D0E941F29EF
:100AC000C6010E94BA04C60161E00E94F0031F91B2
:100AD0000F91FF90DF90CF9008951F920F920FB665
:100AE0000F9211242F933F934F938F939F93EF93E4
:100AF000FF934091C6002091C8053091C9052F5F32
:100B00003F4F8091CC059091CD05282339238091CA
:100B1000CA059091CB052817390779F08091C8054F
:100B20009091C905E091CE05F091CF05E80FF91F2E
:100B300040833093C9052093C805FF91EF919F91A1
:100B40008F914F913F912F910F900FBE0F901F905B
:100B500018951F920F920FB60F9211242F933F9367
:100B60008F939F93EF93FF932091D2053091D305FC
:100B70008091D0059091D10528173907E9F080912F
:100B8000D2059091D305E091D605F091D705E80FF5
:100B9000F91F80818093C6008091D2059091D30582
:100BA00001962091D4053091D5058223932390930B
:100BB000D3058093D20510C02091D0053091D10586
:100BC0008091D2059091D3052817390729F4809197
:100BD000C1008F7D8093C100FF91EF919F918F9114
:100BE0003F912F910F900FBE0F901F9018958F92ED
:100BF000AF92CF92EF92FF920F931F938CE194E00C
:100C000060E045EC50E024EC30E000EC10E0F1EC6A
:100C1000EF2EF12CCC24C394E8E9AE2E70E2872E9F
:100C20000E94752989E394E00E945F0310924C04AE
:100C300010924D0410924E0410924F0410925004E2
:100C400010925104109252041092530410925504C1
:100C50001092540410924B041F910F91FF90EF904B
:100C6000CF90AF908F900895809192048130C1F41D
:100C70000E94303268517C4F8F4F9F4F6093930496
:100C80007093940480939504909396041092920428
:100C900090E080919704882309F491E09093970461
:100CA0000E94303220919304309194044091950435
:100CB00050919604261737074807590718F481E022
:100CC000809392040895AF92BF92CF92DF92EF92F9
:100CD000FF920F931F93109129051130B1F5809168
:100CE000D604882391F56091A9047091AA0480919B
:100CF000AB049091AC0420E030E040EA50E40E9464
:100D0000B538181614F5809184048B30F0F01093E8
:100D1000D60480E090E0A0E0B0E0809308059093D6
:100D20000905A0930A05B0930B050E94303228EE06
:100D300033E040E050E00E944D3A2093CD043093E0
:100D4000CE044093CF045093D0046091A9047091D5
:100D5000AA048091AB049091AC0420E030E040EA1A
:100D600051E40E94FC3618167CF160916F0470917A
:100D70007004809171049091720420E030E040E0B2
:100D800050E40E94FC361816FCF0809184048B30ED
:100D9000D8F48091D6048130B9F48091AD0490915B
:100DA000AE04A091AF04B091B00485369105A105C1
:100DB000B10554F40E94303260932A0570932B05DC
:100DC00080932C0590932D05A0906F04B090700433
:100DD000C0907104D0907204C601B50120E030E0EB
:100DE00040E85FE30E94B538181694F5E0900805D6
:100DF000F090090500910A0510910B050E94303210
:100E000020912E0530912F054091300550913105EC
:100E1000621B730B840B950B0E949C379B01AC01EA
:100E2000C601B5010E94C03820E030E04AE754E432
:100E30000E9403379B01AC01C801B7010E943636FE
:100E4000609308057093090580930A0590930B053C
:100E5000A090D104B090D204C090D304D090D40418
:100E60006091E0047091E104882777FD8095982FC8
:100E70000E949E3720E030E040E251E40E94C038FA
:100E80007B018C010E94303220912E0530912F057C
:100E90004091300550913105621B730B840B950B0B
:100EA0000E949C379B01AC01C801B7010E94C03869
:100EB00020E03AEB4BE55AE40E9403379B01AC017A
:100EC000C601B5010E9436366093D1047093D204F6
:100ED0008093D3049093D4040E94303260932E0503
:100EE00070932F0580933005909331058091D6043F
:100EF000813009F096C06091AD047091AE0480918C
:100F0000AF049091B0040E949E377B018C01209128
:100F100004053091050540910605509107050E9492
:100F2000B538181644F4E0920405F09205050093D4
:100F3000060510930705E0907304F0907404009187
:100F4000750410917604C801B70120910C05309109
:100F50000D0540910E0550910F050E94B5381816E9
:100F600044F4E0920C05F0920D0500930E051093E9
:100F70000F05E0906F04F0907004009171041091DF
:100F80007204C801B70120911005309111054091FC
:100F90001205509113050E94B538181644F4E092DA
:100FA0001005F09211050093120510931305E090BF
:100FB000A904F090AA040091AB041091AC04C801FC
:100FC000B7012091140530911505409116055091F7
:100FD00017050E94B538181644F4E0921405F092F3
:100FE000150500931605109317056091180570916B
:100FF000190580911A0590911B0520E030E040E032
:1010000050E00E94FC36882364F480E090E0A0E089
:10101000B0E08093180590931905A0931A05B0933A
:101020001B051F910F91FF90EF90DF90CF90BF9025
:10103000AF90089589ED95E06AE773E00E94133060
:10104000882381F586E696E6A6E6B0E480939804C8
:1010500090939904A0939A04B0939B0480E090E04D
:10106000A0E8BFE380939C0490939D04A0939E040A
:10107000B0939F0480E18093A0048CE08093A1044E
:101080008AEB8093A2048BE190E09093A404809378
:10109000A30488EE93E09093A6048093A5048AE1CC
:1010A00090E02FC082E598EBAEE0B0E48093980426
:1010B00090939904A0939A04B0939B0485E89BEEC7
:1010C000A1E5B0E480939C0490939D04A0939E04BA
:1010D000B0939F0489E18093A00486E68093A104E5
:1010E0008BEB8093A2048CE190E09093A404809316
:1010F000A30480EA94E19093A6048093A5048EE172
:1011000090E09093A8048093A7040895DF92EF9253
:10111000FF920F931F938C01A9EDEA2EA5E0FA2E02
:10112000C701B8010E941330D82E0F5F1F4FC701AF
:10113000B8010E9413303D2D20E0280F311DC90158
:101140001F910F91FF90EF90DF900895DF92EF9243
:10115000FF920F931F93CF93DF9389ED95E06CE798
:1011600073E00E9413308093D80489ED95E06EE718
:1011700073E00E9413308093D70489ED95E060E816
:1011800073E00E94133090E0A0E0B0E0BC01CD011C
:101190000E949C3720E030E040E251E40E94033797
:1011A00060930B0370930C0380930D0390930E03D5
:1011B00089ED95E062E873E00E94133090E0A0E0D2
:1011C000B0E0BC01CD010E949C3720E030E040E25D
:1011D00051E40E94033760931103709312038093CC
:1011E00013039093140389ED95E06EE873E00E9479
:1011F00013308093EE0489ED95E06AE873E00E9475
:1012000013308093E30489ED95E064E873E00E9475
:1012100013308093000589ED95E066E873E00E9445
:1012200013308093FF0489ED95E06CE873E00E9431
:1012300013301092DA04882319F081E08093DA04E5
:1012400089ED95E064E973E00E9413308093D9043E
:1012500084EA93E00E948608A0E0B0E0BC01CD01E2
:101260000E949C3720E030E040E251E40E940337C6
:1012700060932003709321038093220390932303B0
:101280008AEA93E00E948608A0E0B0E0BC01CD01AC
:101290000E949C3720E030E040E251E40E94033796
:1012A0006093240370932503809326039093270370
:1012B00086EA93E00E9486087C0189ED95E068EA61
:1012C00073E00E941330D82E00E010E0C801B7018F
:1012D0000E949C3720E030E040E251E40E94033756
:1012E0007B018C018D2D64E60E941A3A90E0AA27BA
:1012F00097FDA095BA2FBC01CD010E949E379B019E
:10130000AC01C801B7010E94363660932803709380
:10131000290380932A0390932B038CEA93E00E9485
:101320008608A0E0B0E0BC01CD010E949C3720E01F
:1013300030E040E251E40E94033760931D05709352
:101340001E0580931F059093200589ED95E06EEAB8
:1013500073E00E94133080931F0389ED95E060EBEA
:1013600073E00E94133080930305C0E0D0E0BE011B
:1013700068567C4F89ED95E00E941330FE01EA50DB
:10138000FB4F8083882321F02196C830D10579F75F
:10139000CA50DB4F1982DF91CF911F910F91FF90BF
:1013A000EF90DF900895BC0189ED95E00E94133025
:1013B0000895DF92EF92FF920F931F93CF93DF93E5
:1013C000882309F481E0182F110F1257613009F0BA
:1013D0004CC0609198047091990480919A04909106
:1013E0009B0420E030E040E050E00E94C038A12F94
:1013F000BB27A7FDB095D090A0042DB73EB72651CE
:1014000030400FB6F8943EBF0FBE2DBFEDB7FEB70C
:10141000319629E334E0CDB7DEB73A83298323E060
:1014200031E0338322832DE130E035832483262F7E
:10143000372F482F592F2683378340875187D286ED
:101440001386B587A4871196B787A687C901DA01E5
:10145000808B918BA28BB38BD48A158A0E945429DE
:101460002DB73EB72A5E3F4F4BC0A12FBB27A7FD2C
:10147000B09589E394E0623039F5CDB7DEB72C97AB
:101480000FB6F894DEBF0FBECDBFEDB7FEB73196F5
:101490009A83898389E191E093838283B583A483CE
:1014A0001196B783A6838091B2049091B30491877B
:1014B000808785E090E0938782870E9454292DB72A
:1014C0003EB7245F3F4F1CC0CDB7DEB728970FB69D
:1014D000F894DEBF0FBECDBFEDB7FEB731969A834D
:1014E000898383E291E093838283B583A4831196F9
:1014F000B783A6830E9454292DB73EB7285F3F4F7C
:101500000FB6F8943EBF0FBE2DBFDF91CF911F9154
:101510000F91FF90EF90DF9008952F923F924F929E
:101520005F926F927F928F929F92AF92BF92CF9273
:10153000DF92EF92FF920F931F93DF93CF9300D030
:1015400000D000D0CDB7DEB7182F662E20917D04D5
:1015500030917E042A35310530F0C9018D549F4FFA
:1015600089359105E8F437FF02C02D543F4FC9017A
:1015700037FF03C0909581959F4F8A3191053CF0CC
:10158000B9ED8B2E912CA8EF2A2E312C1DC00A9775
:101590005CF1F0ED8F2E912CE3EF2E2E312C20C03C
:1015A0002B35310514F0235B3040C90137FF03C0F0
:1015B000909581959F4F8A31910554F07BEE872E4F
:1015C000912C6BEF262E312C57E0A52EB12C15C097
:1015D0000A9754F042EE842E912C35EF232E312CB5
:1015E00028E0A22EB12C09C096EC892E912C8DEC0E
:1015F000282E312C09E0A02EB12C60917B04709133
:101600007C04882777FD8095982F0E949E3727EAD3
:1016100032E94BE25CEB0E94C0380E94943920E032
:1016200030E040EA50E40E94C03820E030E040E979
:1016300051E40E94C0380E94233920E030E044E3A6
:1016400052E40E9436360E946B37712E1EEBC12E7B
:101650001FEFD12E9B01442737FD4095542F29833E
:101660003A834B835C83B9E34B2EB4E05B2E4AEFA5
:101670005FEF240E351E60917D0470917E048827F3
:1016800077FD8095982F0E949E3725E33AEF4EE82C
:101690005CE30E94C0380E9494397B018C01B60142
:1016A000882777FD8095982F0E949E379B01AC017B
:1016B000C801B7010E94C0387B018C0169817A8121
:1016C0008B819C810E949E379B01AC01C801B701B0
:1016D0000E9436360E946B379B01CB0101978A35F9
:1016E000910508F071C062E170E00E943A3A8B0106
:1016F0002F5F3F4FAEEEBFEF6A9FC0016B9F900D13
:101700007A9F900D1124820F931F62E070E00E9477
:101710003A3A6D837E83E62CE01A4E2D4C5F89E3C6
:1017200094E0672D0E94150400D000D000D0EDB7E2
:10173000FEB73196ADB7BEB712965C924E92119736
:1017400020E031E0338322838D819E81880D991DB5
:10175000958384830E9454294DB75EB74A5F5F4FDB
:101760000FB6F8945EBF0FBE4DBF8D819E818A1566
:101770009B0554F1043011053CF593E0E90EC201DC
:10178000672D4E2D0E94150400D000D000D0EDB77B
:10179000FEB73196ADB7BEB712965C924E921197D6
:1017A00020E031E0338322834D815E81420D531D61
:1017B000558344830E9454298DB79EB706960FB671
:1017C000F8949EBF0FBE8DBFACE0B0E0CA0EDB1E2A
:1017D0007394BEE4CB16D10409F04DCF26960FB614
:1017E000F894DEBF0FBECDBFCF91DF911F910F9157
:1017F000FF90EF90DF90CF90BF90AF909F908F9031
:101800007F906F905F904F903F902F9008956091E0
:101810007704709178048091790490917A0420E0A3
:1018200030E040EC51E40E94C03820E030E044EB6E
:1018300053E40E9403370E9423390E946B379B01B7
:101840002350304037FF03C09B012B5E3F4FA9EB75
:10185000B4E0F901E05AFC4F80818C932F5F3F4F39
:101860002831310514F020E030E0119684E0A43CEA
:10187000B80779F71092C00408950F931F93282F8B
:10188000462F89E394E0622F0E947E0389E394E06F
:101890000E94560480915F04882319F428E231E005
:1018A0001AC0823019F42DE231E015C0853019F4E8
:1018B00022E331E010C027E331E08A3019F42CE351
:1018C00031E009C08B3019F421E431E004C08F30DD
:1018D00011F425E431E08DB79EB708970FB6F89460
:1018E0009EBF0FBE8DBFEDB7FEB7319609E314E082
:1018F000ADB7BEB712961C930E9311978AE491E090
:10190000938382838FE790E0958384833783268354
:101910000E9454298DB79EB708960FB6F8949EBFC3
:101920000FBE8DBFC8010E943A041F910F91089508
:101930000F931F93282F462F09E314E0C801622F4D
:101940000E947E03C8010E9456048091B10460E0A9
:101950000E94D909C8010E943A041F910F9108956D
:101960000F931F93282F462F09E314E0C801622F1D
:101970000E947E03C8010E9456048DB79EB70A9745
:101980000FB6F8949EBF0FBE8DBFEDB7FEB7319670
:10199000ADB7BEB712961C930E9311978FE491E0EA
:1019A0009383828383EC90E09583848389EB94E036
:1019B0009783868387E890E0918780870E945429E7
:1019C0008DB79EB70A960FB6F8949EBF0FBE8DBF17
:1019D000C8010E943A041F910F9108950F931F931D
:1019E000282F462F09E314E0C801622F0E947E03CE
:1019F000C8010E9456048DB79EB70A970FB6F89497
:101A00009EBF0FBE8DBFEDB7FEB73196ADB7BEB767
:101A100012961C930E93119786E591E0938382832F
:101A20008091770490917804A0917904B0917A0420
:101A300084839583A683B78385E090E09187808730
:101A40000E9454298DB79EB70A960FB6F8949EBF90
:101A50000FBE8DBFC8010E943A041F910F910895D7
:101A60000F931F93282F462F09E314E0C801622F1C
:101A70000E947E03C8010E9456048DB79EB740970E
:101A80000FB6F8949EBF0FBE8DBFEDB7FEB731966F
:101A9000ADB7BEB712961C930E9311978EE591E0E9
:101AA0009383828383E090E09583848380916104B3
:101AB00090916204A0916304B0916404868397833B
:101AC000A087B18784E090E0938782878091650446
:101AD00090916604A0916704B0916804848795870B
:101AE000A687B7870E9454298DB79EB740960FB638
:101AF000F8949EBF0FBE8DBFC8010E943A041F918B
:101B00000F9108950F931F93282F462F89E394E098
:101B1000622F0E947E0389E394E00E945604909114
:101B20006904923011F42FE105C0933011F42FE0D5
:101B300001C02AE280919704882319F0933009F0BC
:101B400020E28DB79EB708970FB6F8949EBF0FBEE0
:101B50008DBFEDB7FEB7319609E314E0ADB7BEB760
:101B600012961C930E93119780E791E093838283E2
:101B70002483158280916E04868317820E945429E3
:101B80008DB79EB708960FB6F8949EBF0FBE8DBF57
:101B9000C8010E943A041F910F9108950F931F935B
:101BA000282F462F09E314E0C801622F0E947E030C
:101BB000C8010E9456048DB79EB70C970FB6F894D3
:101BC0009EBF0FBE8DBFEDB7FEB73196ADB7BEB7A6
:101BD00012961C930E93119786E791E0938382836C
:101BE00080E690E0958384838091C5049091C6043B
:101BF000A091C704B091C80486839783A087B1875A
:101C00008DE090E0938782870E9454298DB79EB71C
:101C10000C960FB6F8949EBF0FBE8DBFC8010E94F0
:101C20003A041F910F9108950F931F93282F462F69
:101C300009E314E0C801622F0E947E03C8010E94DC
:101C400056048DB79EB70C970FB6F8949EBF0FBE83
:101C50008DBFEDB7FEB73196ADB7BEB712961C93E8
:101C60000E93119786E791E0938382838CEB90E04B
:101C7000958384838091C9049091CA04A091CB0478
:101C8000B091CC0486839783A087B1878DE090E0E4
:101C9000938782870E9454298DB79EB70C960FB602
:101CA000F8949EBF0FBE8DBFC8010E943A041F91D9
:101CB0000F9108950F931F93282F462F09E314E0E7
:101CC000C801622F0E947E03C8010E9456048DB78E
:101CD0009EB70A970FB6F8949EBF0FBE8DBFEDB7A3
:101CE000FEB73196ADB7BEB712961C930E931197FF
:101CF00080E891E09383828380917D0490917E04BB
:101D00009583848385E090E09783868386E090E0E6
:101D1000918780870E9454298DB79EB70A960FB687
:101D2000F8949EBF0FBE8DBFC8010E943A041F9158
:101D30000F9108950F931F93282F462F09E314E066
:101D4000C801622F0E947E03C8010E9456048DB70D
:101D50009EB70A970FB6F8949EBF0FBE8DBFEDB722
:101D6000FEB73196ADB7BEB712961C930E9311977E
:101D700080E891E09383828380917B0490917C043E
:101D80009583848385E090E09783868387E090E065
:101D9000918780870E9454298DB79EB70A960FB607
:101DA000F8949EBF0FBE8DBFC8010E943A041F91D8
:101DB0000F910895EF92FF920F931F93282F462FB4
:101DC00019E3E12E14E0F12EC701622F0E947E0379
:101DD000C7010E9456048DB79EB70C970FB6F894B2
:101DE0009EBF0FBE8DBF0DB71EB70F5F1F4FEDB764
:101DF000FEB7F282E18288E891E0F8019383828362
:101E00008BE090E0958384836091AD047091AE0483
:101E10008091AF049091B0040E949E3720919C0461
:101E200030919D0440919E0450919F040E94C038BF
:101E3000F80166837783808791878091A1048287E8
:101E400013860E9454298DB79EB70C960FB6F8944E
:101E50009EBF0FBE8DBFC7010E943A041F910F9114
:101E6000FF90EF900895EF92FF920F931F93282F0A
:101E7000462F09E3E02E04E0F02EC701622F0E94F6
:101E80007E03C7010E9456040E94303228EE33E0E0
:101E900040E050E00E944D3A8091CD049091CE04F4
:101EA000A091CF04B091D004281B390B4A0B5B0BD7
:101EB000CA01B9010E949C3760930703709308031D
:101EC0008093090390930A030E946B378B019C0156
:101ED0008DB79EB70C970FB6F8949EBF0FBE8DBFFF
:101EE000EDB7FEB73196ADB7BEB71296FC92EE9243
:101EF000119782E991E09383828388E090E0958353
:101F00008483C8016CE370E00E943A3ACB016CE331
:101F100070E00E943A3A978386838AE390E0918743
:101F20008087C8016CE370E00E943A3A9387828709
:101F30000E9454298DB79EB70C960FB6F8949EBF99
:101F40000FBE8DBFC7010E943A041F910F91FF90F1
:101F5000EF9008950F931F93282F462F09E314E065
:101F6000C801622F0E947E03C8010E9456048DB7EB
:101F70009EB70C970FB6F8949EBF0FBE8DBFEDB7FE
:101F8000FEB73196ADB7BEB712961C930E9311975C
:101F90008EE991E09383828387E190E09583848347
:101FA0008091D1049091D204A091D304B091D40433
:101FB00086839783A087B18781E090E093878287AB
:101FC0000E9454298DB79EB70C960FB6F8949EBF09
:101FD0000FBE8DBFC8010E943A041F910F91089552
:101FE0000F931F93282F462F09E314E0C801622F97
:101FF0000E947E03C8010E9456048DB79EB70A97BF
:102000000FB6F8949EBF0FBE8DBFEDB7FEB73196E9
:10201000ADB7BEB712961C930E93119788EA91E064
:102020009383828382E090E095838483809184040B
:102030008683178285E290E0918780870E945429E9
:102040008DB79EB70A960FB6F8949EBF0FBE8DBF90
:10205000C8010E943A041F910F910895AF92BF9258
:10206000CF92DF92EF92FF920F931F93DF93CF9364
:10207000CDB7DEB760970FB6F894DEBF0FBECDBF09
:10208000282F462FDE011196E0E5F3E080E1019074
:102090000D928150E1F789E394E0622F0E947E0364
:1020A00089E394E00E94560487E01CC1913029F432
:1020B00080916904823008F4CCC08091D6048130CC
:1020C00009F053C0923079F5A0907304B090740475
:1020D000C0907504D0907604C601B5012091980493
:1020E0003091990440919A0450919B040E94C03809
:1020F0007B018C016091D70470E0882777FD809583
:10210000982F0E949E379B01AC01C801B7010E9425
:10211000FC3688230CF0E3C0C601B50129E23CE59A
:102120004FE85FE391C0933001F5609173047091C3
:1021300074048091750490917604209198043091F4
:10214000990440919A0450919B040E94C0387B01ED
:102150008C016091D80470E080E090E00E949C3790
:102160009B01AC01C801B7016FC09430E1F4E0906D
:102170000B03F0900C0300910D0310910E03C801A6
:10218000B70120E030E040E85FE30E94B538181660
:102190000CF0A5C06091C9047091CA048091CB0471
:1021A0009091CC0434C09530A9F420910F03309164
:1021B00010038091D90490E0281739070CF08FC0E4
:1021C0002D593F4F09F48BC08091DA04882309F020
:1021D00086C03FC0963019F5E0901103F0901203CD
:1021E0000091130310911403C801B70120E030E0FF
:1021F00040E85FE30E94B53818160CF070C060919B
:10220000C5047091C6048091C7049091C804A801C8
:1022100097010E94FC3688230CF061C01AC09730E9
:1022200009F05DC00E9430320E949C3720915B040F
:1022300030915C0440915D0450915E040E943536FB
:1022400020E030E849E055E40E94B53818160CF05B
:1022500046C08091970429E334E0882349F000D0F8
:1022600000D0EDB7FEB73283218389819A8111C0F6
:1022700000D000D0EDB7FEB732832183E091D504C2
:10228000F0E0EE0FFF1FEC0FFD1F81819281EDB793
:10229000FEB7948383830E9454290F900F900F9070
:1022A0000F901092DB048091D504882319F081E00F
:1022B0008093DB0489E394E00E943A0460960FB6B1
:1022C000F894DEBF0FBECDBFCF91DF911F910F916C
:1022D000FF90EF90DF90CF90BF90AF9008958091E6
:1022E000D50481508093D5049091D504992309F0A9
:1022F000DDCEAFCFEF92FF920F931F93282F462F83
:1023000099E3E92E94E0F92EC701622F0E947E0323
:10231000C7010E9456048DB79EB70C970FB6F8946C
:102320009EBF0FBE8DBF0DB71EB70F5F1F4FEDB71E
:10233000FEB7F282E18282EB91E0F801938382831F
:1023400083E190E0958384836091730470917404B9
:1023500080917504909176042091980430919904AD
:1023600040919A0450919B040E94C038F801668302
:102370007783808791878091A004828713860E944B
:1023800054298DB79EB70C960FB6F8949EBF0FBE1A
:102390008DBFC7010E943A041F910F91FF90EF90EB
:1023A0000895EF92FF920F931F93282F462F39E342
:1023B000E32E34E0F32EC701622F0E947E03C70193
:1023C0000E9456048DB79EB70C970FB6F8949EBF27
:1023D0000FBE8DBF0DB71EB70F5F1F4FEDB7FEB716
:1023E000F282E18282EB91E0F8019383828384E1BF
:1023F00090E09583848360916F0470917004809164
:102400007104909172042091980430919904409144
:102410009A0450919B040E94C038F8016683778328
:10242000808791878091A004828713860E94542917
:102430008DB79EB70C960FB6F8949EBF0FBE8DBF9A
:10244000C7010E943A041F910F91FF90EF900895E9
:10245000CF92DF92EF92FF920F931F93282F462F78
:1024600059E3C52E54E0D52EC601622F0E947E038B
:10247000C6010E94560460918E0470918F04809171
:1024800090049091910420919C0430919D0440917E
:102490009E0450919F040E94C0382DEC3CEC4CEC03
:1024A0005DE30E94C0387B018C016091DC04709177
:1024B000DD048091DE049091DF0426E636E646E6F0
:1024C0005FE30E94C0389B01AC01C801B7010E94C4
:1024D00036366093DC047093DD048093DE049093C1
:1024E000DF042DB73EB72C5030400FB6F8943EBFF6
:1024F0000FBE2DBF0DB71EB70F5F1F4FEDB7FEB755
:10250000D282C1822EE931E0F8013383228325E1B2
:1025100030E03583248320E030E040E251E40E9443
:1025200003370E946B37882777FD8095982F0E948C
:102530009E3720E030E040E251E40E94C038F801CC
:1025400066837783808791878091A7049091A80400
:10255000938782870E9454292DB73EB7245F3F4F4F
:102560000FB6F8943EBF0FBE2DBFC6010E943A04BD
:102570001F910F91FF90EF90DF90CF900895EF9211
:10258000FF920F931F93282F462F69E3E62E64E0F6
:10259000F62EC701622F0E947E03C7010E945604D7
:1025A0008DB79EB70C970FB6F8949EBF0FBE8DBF28
:1025B0000DB71EB70F5F1F4FEDB7FEB7F282E18276
:1025C00088E891E0F8019383828381E190E095832C
:1025D000848360916A0470916B0480916C04909183
:1025E0006D0420919C0430919D0440919E04509173
:1025F0009F040E94C038F8016683778380879187A3
:102600008091A104828713860E9454298DB79EB7BA
:102610000C960FB6F8949EBF0FBE8DBFC7010E94E7
:102620003A041F910F91FF90EF900895EF92FF925F
:102630000F931F93282F462F79E3E72E74E0F72E90
:10264000C701622F0E947E03C7010E9456048DB706
:102650009EB70C970FB6F8949EBF0FBE8DBF0DB7F7
:102660001EB70F5F1F4FEDB7FEB7F282E18286E71C
:1026700091E0F801938382838DEB90E095838483CE
:102680006091E0047091E104882777FD8095982F90
:102690000E949E372AE037ED43E25CE30E94C03897
:1026A000F80166837783808791878EE090E0938737
:1026B00082870E9454298DB79EB70C960FB6F89466
:1026C0009EBF0FBE8DBFC7010E943A041F910F919C
:1026D000FF90EF900895CF93DF93282F462FC9E303
:1026E000D4E0CE01622F0E947E03CE010E945604E8
:1026F0000E94303228EE33E040E050E00E944D3A34
:10270000CA01B9012CE330E040E050E00E944D3AAC
:10271000623071058105910548F400D000D0EDB715
:10272000FEB7D283C18386EF94E008C000D000D00A
:10273000EDB7FEB7D283C18386E193E094838383B0
:102740000E9454290F900F900F900F9089E394E00E
:102750000E943A04DF91CF910895CF92DF92EF92D9
:10276000FF920F931F93282F462F89E394E0622F47
:102770000E947E0389E394E00E94560480918D04B8
:10278000282F30E03093100320930F038091DA0458
:10279000882359F50091FF0410E0201B310BB9018B
:1027A000882777FD8095982F0E949E376B017C01CA
:1027B0006091000570E0601B710B882777FD8095A4
:1027C000982F0E949E379B01AC01C701B6010E9461
:1027D000033720E030E048EC52E40E94C0380E9409
:1027E0006B377093100360930F038DB79EB70A97F2
:1027F0000FB6F8949EBF0FBE8DBFEDB7FEB73196F2
:1028000009E314E0ADB7BEB712961C930E9311976F
:102810008CEB91E09383828389E090E095838483BD
:1028200080910F03909110039783868385E290E057
:10283000918780870E9454298DB79EB70A960FB65C
:10284000F8949EBF0FBE8DBFC8010E943A041F912D
:102850000F91FF90EF90DF90CF9008950F931F930B
:10286000282F462F89E394E0622F0E947E0389E39C
:1028700094E00E9456044091E304453029F42091ED
:1028800085043091860414C0463029F420918704D1
:10289000309188040DC0473029F42091890430918B
:1028A0008A0406C0483021F420918B0430918C04B6
:1028B0008DB79EB70A970FB6F8949EBF0FBE8DBF17
:1028C000EDB7FEB7319609E314E0ADB7BEB7129687
:1028D0001C930E93119784EC91E09383828383E49D
:1028E00090E095838483842F90E0C09697838683BD
:1028F000318720870E9454298DB79EB70A960FB65C
:10290000F8949EBF0FBE8DBFC8010E943A041F916C
:102910000F910895EF92FF920F931F93282F462F48
:10292000E9E3EE2EE4E0FE2EC701622F0E947E0353
:10293000C7010E9456048DB79EB70C970FB6F89446
:102940009EBF0FBE8DBF0DB71EB70F5F1F4FEDB7F8
:10295000FEB7F282E1828CEC91E0F80193838283EE
:102960008AE090E09583848380911F0390E020911A
:10297000010530910205829FB001839F700D929FE7
:10298000700D112420910305620F711D80E090E00D
:102990000E949C3720E030E048EC52E40E9403376C
:1029A000F80166837783808791878091A20482876C
:1029B00013860E9454298DB79EB70C960FB6F894D3
:1029C0009EBF0FBE8DBFC7010E943A041F910F9199
:1029D000FF90EF900895CF92DF92EF92FF920F93C6
:1029E0001F93CF93DF93282F462FC9E3D4E0CE0166
:1029F000622F0E947E03CE010E945604609108055A
:102A00007091090580910A0590910B0520919C0415
:102A100030919D0440919E0450919F040E94C038C3
:102A20006B017C0120E030E04AE754E40E94B538B5
:102A30001816CCF58DB79EB70C970FB6F8949EBFBD
:102A40000FBE8DBF0DB71EB70F5F1F4FADB7BEB71F
:102A50001296DC93CE93119786E791E0F801938369
:102A600082838FE890E0958384836091A5047091C0
:102A7000A60480E090E00E949C379B01AC01C70156
:102A8000B6010E940337D80116966D937D938D93FE
:102A90009C9319978091A3049091A4041B969C93F6
:102AA0008E931A9721C08DB79EB70C970FB6F894E6
:102AB0009EBF0FBE8DBFEDB7FEB73196ADB7BEB7A7
:102AC0001296DC93CE93119788E891E093838283EA
:102AD0008FE890E095838483C682D782E086F18672
:102AE0008091A104828713860E945429EDB7FEB716
:102AF0003C960FB6F894FEBF0FBEEDBF89E394E09D
:102B00000E943A04DF91CF911F910F91FF90EF90B7
:102B1000DF90CF900895EF92FF920F931F93CF9382
:102B2000DF93282F462F89E394E0622F0E947E03D3
:102B300089E394E00E94560460917F0470918004C0
:102B4000882777FD8095982F0E949E3720917704E3
:102B5000309178044091790450917A040E9435367E
:102B600020E030E044EB53E40E94033720E030E003
:102B700040E851E40E94C0380E94233920E030E050
:102B800040E85FE30E9436360E946B37862F6093E1
:102B9000B40467FF02C0805F03C061311CF0805144
:102BA0008093B404E090B504F090B6040091B704AB
:102BB0001091B804C801B70120E030EC49E754E4B3
:102BC0000E94B53818162CF480E090ECA9E7B4E424
:102BD0000EC0C801B70120E030EC49E754EC0E9478
:102BE000FC36882364F480E090ECA9E7B4EC809391
:102BF000B5049093B604A093B704B093B8048DB70E
:102C00009EB742970FB6F8949EBF0FBE8DBF0DB70B
:102C10001EB70F5F1F4FC9E3D4E0EDB7FEB7D283F5
:102C2000C1838EE292E0F8019383828387E590E08E
:102C30009583848380E790E09783868380918304E3
:102C400080871186138612866091810470918204B8
:102C500080E090E00E949C3720919C0430919D047C
:102C600040919E0450919F040E94C038F8016487EF
:102C70007587868797878091A104808B118A0E942F
:102C800054298DB79EB742960FB6F8949EBF0FBEDB
:102C90008DBF8091B40460E00E94D90980915F04E7
:102CA000853039F08A3029F08B3019F08F3009F0F7
:102CB00047C0EDB7FEB770970FB6F894FEBF0FBED2
:102CC000EDBF0DB71EB70F5F1F4F89E394E09283EE
:102CD000818380E492E0F8019383828380E290E034
:102CE0009583848388E590E09783868385E690E0EA
:102CF000918780876091B5047091B6048091B70484
:102D00009091B80420919C0430919D0440919E04C0
:102D100050919F040E94C038F801628773878487AE
:102D200095878091A104868717860E9454298DB7C4
:102D30009EB740960FB6F8949EBF0FBE8DBF10C0D1
:102D400000D000D0EDB7FEB7D283C18386ED90E00E
:102D5000948383830E9443290F900F900F900F90CC
:102D600089E394E00E943A04DF91CF911F910F9183
:102D7000FF90EF900895CF92DF92EF92FF920F9322
:102D80001F937C01D62EC72E09E314E0C8016E2DD7
:102D90004D2D0E947E03C8010E94560400D000D031
:102DA000EDB7FEB7128301838FED90E094838383A8
:102DB0000E9443290F900F900F900F90C8010E941E
:102DC0003A04C70101966D2D7C2D0E948D0A1F913A
:102DD0000F91FF90EF90DF90CF9008950F931F9386
:102DE00009E314E0C80165E045E00E947E03C801E4
:102DF0000E94560400D000D0EDB7FEB712830183C5
:102E000087E291E0948383830E9443290F900F907F
:102E10000F900F90C8010E943A041F910F910895DE
:102E20000E94EE160E941A080895EF92FF920F93E7
:102E30001F939091DB04913051F48091E204882338
:102E400009F4B4C0909315031092E204AFC08091CE
:102E5000E3048430C9F580916904833009F09BC094
:102E60008091E404882321F584EE94E00E940530EB
:102E7000892BF1F06091AD047091AE048091AF04A4
:102E80009091B0040E949E3720916A0430916B04A7
:102E900040916C0450916D040E9403370E9470377A
:102EA0007093F4046093F30484EE94E00E940F3076
:102EB0002091F3043091F40480910503909106036E
:102EC00082179307A0F52BC0853029F480918504E3
:102ED0009091860414C0863029F4809187049091E3
:102EE00088040DC0873029F48091890490918A0468
:102EF00006C0883041F480918B0490918C049093AB
:102F0000ED048093EC048091EE042091EC04309168
:102F1000ED04882381F484E0203B380718F41092F4
:102F2000F50439C02950374010F082E001C081E03B
:102F30008093F50430C0215B344068F1E090EF04E9
:102F4000F090F0040091F1041091F20488EE93E007
:102F5000A0E0B0E0E80EF91E0A1F1B1F0E943032ED
:102F6000E616F70608071907B0F481E08093150309
:102F70008091E2048F5F8093F504833010F010920B
:102F8000F5040E9430326093EF047093F004809354
:102F9000F1049093F2049091F5048091E204891772
:102FA00029F081E0809315039093E2041F910F9123
:102FB000FF90EF9008958091E204A82FB0E0FD010A
:102FC000EC55FC4F808180FF0BC0FD01E250FC4FAF
:102FD0006081A450BC4F8C9190E070E00E942E1054
:102FE00080911503882331F089E394E00E94A304C3
:102FF000109215038091E304843010F00E9415179D
:103000008CE194E06EE472E00E94D7348CE194E0AD
:103010006091DB044AE050E00E9472348CE194E05D
:1030200065E572E00E94D7348CE194E06091D504AC
:103030004AE050E00E9472348CE194E06DE572E069
:103040000E94D734609115038CE194E070E04AE06F
:1030500050E00E94C4348CE194E064E672E00E9487
:10306000D7348CE194E06091E2044AE050E00E94A1
:1030700072348CE194E06DE672E00E94D7340E94D5
:1030800030320E949C3720915B0430915C04409167
:103090005D0450915E040E943536AB01BC018CE1A9
:1030A00094E022E030E00E94BE358CE194E06CE7D1
:1030B00072E00E94C1358091E204823009F42AC294
:1030C000A82FB0E0FD01E256FC4F808181FF0BC0CC
:1030D000FD01E655FC4F6081A855BC4F8C9190E0F6
:1030E00070E00E949A0E8091E204A82FB0E0FD01EA
:1030F000E256FC4F808182FF0BC0FD01E255FC4F80
:103100006081A455BC4F8C9190E070E00E945A0EF3
:103110008091E204A82FB0E0FD01E256FC4F8081CF
:1031200083FF0BC0FD01EE54FC4F6081A055BC4FE6
:103130008C9190E070E00E94140E8091E204A82F20
:10314000B0E0FD01E256FC4F808180FF0BC0FD0125
:10315000EA54FC4F6081AC54BC4F8C9190E070E01D
:103160000E94CE0D8091E204A82FB0E0FD01E2564E
:10317000FC4F808185FF0BC0FD01E654FC4F608150
:10318000A854BC4F8C9190E070E00E94820D809119
:10319000E204A82FB0E0FD01E256FC4F808187FFDA
:1031A0000BC0FD01EE53FC4F6081A054BC4F8C91CD
:1031B00090E070E00E94300D8091E204A82FB0E012
:1031C000FD01E256FC4F808184FF0BC0FD01EA53F4
:1031D000FC4F6081AC53BC4F8C9190E070E00E943A
:1031E000AA0F8091E204A82FB0E0FD01E056FC4F49
:1031F000808180FF0BC0FD01E653FC4F6081A85326
:10320000BC4F8C9190E070E00E94B00C8091E20481
:10321000A82FB0E0FD01E056FC4F808181FF0BC07C
:10322000FD01E253FC4F6081A453BC4F8C9190E0B0
:1032300070E00E94EE0C80911C05813051F5809168
:10324000E204A82FB0E0FD01E056FC4F808184FF2E
:103250000BC0FD01EA52FC4F6081AC52BC4F8C9117
:1032600090E070E00E94DA0E8091E204A82FB0E0B6
:10327000FD01E056FC4F808183FF0BC0FD01EE5243
:10328000FC4F6081A053BC4F8C9190E070E00E9495
:10329000980C8091E204A82FB0E0FD01E056FC4FAD
:1032A000808187FF0BC0FD01E252FC4F6081A45278
:1032B000BC4F8C9190E070E00E94330F80918304AA
:1032C0008823A9F08091E204A82FB0E0FD01E05628
:1032D000FC4F808186FF0BC0FD01E652FC4F6081F0
:1032E000A852BC4F8C9190E070E00E948B158091A9
:1032F000E204A82FB0E0FD01EE55FC4F808182FF73
:103300000BC0FD01EA51FC4F6081AC51BC4F8C9168
:1033100090E070E00E94BF128091E204A82FB0E01C
:10332000FD01EE55FC4F808183FF0BC0FD01E6518E
:10333000FC4F6081A851BC4F8C9190E070E00E94DE
:10334000D1118091E204A82FB0E0FD01EE55FC4FB1
:10335000808181FF0BC0FD01E251FC4F6081A451CF
:10336000BC4F8C9190E070E00E947A118091E20451
:10337000A82FB0E0FD01EE55FC4F808184FF0BC00B
:10338000FD01EE50FC4F6081A051BC4F8C9190E04C
:1033900070E00E94F00F8091E204A82FB0E0FD01E0
:1033A000EE55FC4F808185FF0BC0FD01EA50FC4FBC
:1033B0006081AC50BC4F8C9190E070E00E943D0C5D
:1033C0008091E204A82FB0E0FD01EE55FC4F808112
:1033D00086FF0BC0FD01E650FC4F6081A850BC4F3A
:1033E0008C9190E070E00E94BB168091E204A82FBF
:1033F000B0E0FD01EE55FC4F808180FF0BC0FD0168
:10340000EE51FC4F6081A052BC4F8C9190E070E077
:103410000E9416138091E204A82FB0E0FD01EC5544
:10342000FC4F808183FF0BC0FD01EA5FFB4F608191
:10343000AC5FBB4F8C9190E070E00E9428128091AD
:10344000E204A82FB0E0FD01EC55FC4F808186FF1F
:103450000BC0FD01E65FFB4F6081A85FBB4F8C9105
:1034600090E070E00E94AD138091E204A82FB0E0DC
:10347000FD01EC55FC4F808185FF0BC0FD01E25F33
:10348000FB4F6081A45FBB4F8C9190E070E00E9485
:103490006B138091E204A82FB0E0FD01EA55FC4FC8
:1034A000808181FF0BC0FD01EA5EFB4F6081AC5E55
:1034B000BB4F8C9190E070E00E948A148091E204EE
:1034C000A82FB0E0FD01EA55FC4F808180FF0BC0C2
:1034D000FD01EE5EFB4F6081A05FBB4F8C9190E0E1
:1034E00070E00E942E148091E204A82FB0E0FD014C
:1034F000EA55FC4F808182FF0BC0FD01E65EFB4F69
:103500006081A85EBB4F8C9190E070E00E94EB144C
:103510000E9434060895CF93DF93EC0189E394E091
:103520000E947A03C817D9073CF089E394E00E940F
:103530006F03892B09F42397CE01DF91CF91089572
:10354000EF92FF920F931F93CF93DF930091E204CA
:1035500010E08AEF90E0089F7001099FF00C189F1F
:10356000F00C1124C70188569F4F0E94D309F8011F
:10357000E256FC4F882319F08081806102C080816F
:103580008F7E80838091E204C82FD0E0C7018656E9
:103590009F4F0E94D309CC53DC4F88838091E20473
:1035A000C82FD0E0C70184569F4F0E94D30990E0F6
:1035B0000E948B1ACA53DC4F88830091E20410E00A
:1035C000C70106960E94D309F801E256FC4F8823F2
:1035D00019F08081826002C080818D7F808380911C
:1035E000E204C82FD0E0C70108960E94D309C8554D
:1035F000DC4F88838091E204C82FD0E0C7010A968F
:103600000E94D30990E00E948B1AC655DC4F888334
:103610000091E20410E0C7010C960E94D309F80162
:10362000E256FC4F882319F08081846002C08081BB
:103630008B7F80838091E204C82FD0E0C7010E9673
:103640000E94D309C455DC4F88838091E204C82FBF
:10365000D0E0C70140960E94D30990E00E948B1AE7
:10366000C255DC4F88830091E20410E0C701429606
:103670000E94D309F801E256FC4F882319F080819B
:10368000886002C08081877F80838091E204C82F98
:10369000D0E0C70144960E94D309C055DC4F88830F
:1036A0008091E204C82FD0E0C70146960E94D3095A
:1036B00090E00E948B1ACE54DC4F88830091E20484
:1036C00010E0C70148960E94D309F801E256FC4F6A
:1036D000882319F08081816002C080818E7F808381
:1036E0008091E204C82FD0E0C7014A960E94D30916
:1036F000CC54DC4F88838091E204C82FD0E0C7010E
:103700004C960E94D30990E00E948B1ACA54DC4F59
:1037100088830091E20410E0C7014E960E94D3090D
:10372000F801E256FC4F882319F08081806202C0C4
:1037300080818F7D80838091E204C82FD0E0C70113
:1037400080960E94D309C854DC4F88838091E2049C
:10375000C82FD0E0C70182960E94D30990E00E9452
:103760008B1AC654DC4F88830091E20410E0C70135
:1037700084960E94D309F801E256FC4F882319F081
:103780008081806402C080818F7B80838091E2048D
:10379000C82FD0E0C70186960E94D309C454DC4FDD
:1037A00088838091E204C82FD0E0C70188960E94E8
:1037B000D30990E00E948B1AC254DC4F8883009199
:1037C000E20410E0C7018A960E94D309F801E2568C
:1037D000FC4F882319F08081806802C080818F7738
:1037E00080838091E204C82FD0E0C7018C960E94AC
:1037F000D309C054DC4F88838091E204C82FD0E005
:10380000C7018E960E94D30990E00E948B1ACE5376
:10381000DC4F88830091E20410E0C701C0960E944B
:10382000D309F801E056FC4F882319F080818160AC
:1038300002C080818E7F80838091E204C82FD0E017
:10384000C701C2960E94D309C853DC4F8883809178
:10385000E204C82FD0E0C701C4960E94D30990E0CB
:103860000E948B1AC653DC4F88830091E20410E05B
:10387000C701C6960E94D309F801E056FC4F882381
:1038800019F08081826002C080818D7F8083809169
:10389000E204C82FD0E0C701C8960E94D309C453E0
:1038A000DC4F88838091E204C82FD0E0C701CA961C
:1038B0000E94D30990E00E948B1AC253DC4F888388
:1038C0000091E20410E0C701885B9F4F0E94D3097A
:1038D000F801E056FC4F882319F08081806102C016
:1038E00080818F7E80838091E204C82FD0E0C70161
:1038F000865B9F4F0E94D309CC52DC4F8883809116
:10390000E204C82FD0E0C701845B9F4F0E94D30917
:1039100090E00E948B1ACA52DC4F88830091E20427
:1039200010E0C7018E5B9F4F0E94D309F801E0565B
:10393000FC4F882319F08081886002C08081877FD6
:1039400080838091E204C82FD0E0C7018C5B9F4F39
:103950000E94D309C053DC4F88838091E204C82FB2
:10396000D0E0C7018A5B9F4F0E94D30990E00E947C
:103970008B1ACE52DC4F88830091E20410E0C7011D
:103980008A5A9F4F0E94D309F801E056FC4F8823C2
:1039900019F08081806402C080818F7B8083809158
:1039A000E204C82FD0E0C701885A9F4F0E94D30974
:1039B000C852DC4F88838091E204C82FD0E0C70151
:1039C000865A9F4F0E94D30990E00E948B1AC652DC
:1039D000DC4F88830091E20410E0C70182569F4FBC
:1039E0000E94D309F801E056FC4F882319F080812A
:1039F000806802C080818F7780838091E204C82F25
:103A0000D0E0C70180569F4F0E94D309C452DC4FBB
:103A100088838091E204C82FD0E0C7018E559F4F64
:103A20000E94D30990E00E948B1AC252DC4F888317
:103A30000091E20410E0C7018E599F4F0E94D30904
:103A4000F801EE55FC4F882319F08081816002C097
:103A500080818E7F80838091E204C82FD0E0C701EF
:103A60008C599F4F0E94D309C052DC4F88838091AC
:103A7000E204C82FD0E0C7018A599F4F0E94D309A2
:103A800090E00E948B1ACE51DC4F88830091E204B3
:103A900010E0C70182599F4F0E94D309F801EE55EB
:103AA000FC4F882319F08081846002C080818B7F65
:103AB00080838091E204C82FD0E0C70180599F4FD6
:103AC0000E94D309CC51DC4F88838091E204C82F37
:103AD000D0E0C7018E589F4F0E94D30990E00E940A
:103AE0008B1ACA51DC4F88830091E20410E0C701B1
:103AF0008E569F4F0E94D309F801EE55FC4F882344
:103B000019F08081826002C080818D7F80838091E6
:103B1000E204C82FD0E0C7018C569F4F0E94D30902
:103B2000C451DC4F88838091E204C82FD0E0C701E4
:103B30008A569F4F0E94D30990E00E948B1AC2516F
:103B4000DC4F88830091E20410E0C7018C589F4F3E
:103B50000E94D309F801EE55FC4F882319F08081AB
:103B6000886002C08081877F80838091E204C82FB3
:103B7000D0E0C7018A589F4F0E94D309C851DC4F3B
:103B800088838091E204C82FD0E0C70188589F4FF6
:103B90000E94D30990E00E948B1AC651DC4F8883A3
:103BA0000091E20410E0C70186589F4F0E94D3099C
:103BB000F801EE55FC4F882319F08081806102C026
:103BC00080818F7E80838091E204C82FD0E0C7017E
:103BD00084589F4F0E94D309C051DC4F8883809145
:103BE000E204C82FD0E0C70182589F4F0E94D3093A
:103BF00090E00E948B1ACE50DC4F88830091E20443
:103C000010E0C70180589F4F0E94D309F801EE557C
:103C1000FC4F882319F08081806202C080818F7DF3
:103C200080838091E204C82FD0E0C7018E579F4F58
:103C30000E94D309CC50DC4F88838091E204C82FC6
:103C4000D0E0C7018C579F4F0E94D30990E00E949B
:103C50008B1ACA50DC4F88830091E20410E0C70140
:103C60008A579F4F0E94D309F801EE55FC4F8823D5
:103C700019F08081806402C080818F7B8083809175
:103C8000E204C82FD0E0C70188579F4F0E94D30994
:103C9000C850DC4F88838091E204C82FD0E0C70170
:103CA00086579F4F0E94D30990E00E948B1AC650FE
:103CB000DC4F88830091E20410E0C7018C559F4FD0
:103CC0000E94D309F801EC55FC4F882319F080813C
:103CD000816002C080818E7F80838091E204C82F42
:103CE000D0E0C7018A559F4F0E94D309C450DC4FD2
:103CF00088838091E204C82FD0E0C70188559F4F88
:103D00000E94D30990E00E948B1AC250DC4F888336
:103D10000091E20410E0C70180559F4F0E94D30933
:103D2000F801EC55FC4F882319F08081846002C0B3
:103D300080818B7F80838091E204C82FD0E0C7010F
:103D40008E549F4F0E94D309C050DC4F88838091CE
:103D5000E204C82FD0E0C7018C549F4F0E94D309C2
:103D600090E00E948B1ACE5FDB4F88830091E204C3
:103D700010E0C7018A549F4F0E94D309F801EC5507
:103D8000FC4F882319F08081886002C08081877F82
:103D900080838091E204C82FD0E0C70188549F4FF0
:103DA0000E94D309CC5FDB4F88838091E204C82F47
:103DB000D0E0C70186549F4F0E94D30990E00E9433
:103DC0008B1ACA5FDB4F88830091E20410E0C701C1
:103DD000845A9F4F0E94D309F801EC55FC4F882369
:103DE00019F08081806402C080818F7B8083809104
:103DF000E204C82FD0E0C701825A9F4F0E94D30926
:103E0000C85FDB4F88838091E204C82FD0E0C701F0
:103E1000805A9F4F0E94D30990E00E948B1AC65F80
:103E2000DB4F88830091E20410E0C70188539F4F65
:103E30000E94D309F801EC55FC4F882319F08081CA
:103E4000806202C080818F7D80838091E204C82FD0
:103E5000D0E0C70186539F4F0E94D309C45FDB4F58
:103E600088838091E204C82FD0E0C70184539F4F1C
:103E70000E94D30990E00E948B1AC25FDB4F8883B7
:103E80000091E20410E0C70182539F4F0E94D309C2
:103E9000F801EA55FC4F882319F08081816002C047
:103EA00080818E7F80838091E204C82FD0E0C7019B
:103EB00080539F4F0E94D309C05FDB4F888380915E
:103EC000E204C82FD0E0C7018E529F4F0E94D30951
:103ED00090E00E948B1ACE5EDB4F88830091E20453
:103EE00010E0C7018C529F4F0E94D309F801EA5598
:103EF000FC4F882319F08081826002C080818D7F11
:103F000080838091E204C82FD0E0C7018A529F4F7E
:103F10000E94D309CC5EDB4F88838091E204C82FD6
:103F2000D0E0C70188529F4F0E94D30990E00E94C1
:103F30008B1ACA5EDB4F88830091E20410E0C70150
:103F400080529F4F0E94D309F801EA55FC4F882305
:103F500019F08081846002C080818B7F8083809192
:103F6000E204C82FD0E0C7018E519F4F0E94D309B1
:103F7000C85EDB4F88838091E204C82FD0E0C70180
:103F80008C519F4F0E94D30990E00E948B1AC65E0D
:103F9000DB4F8883DF91CF911F910F91FF90EF90BE
:103FA0000895482F89ED95E00E941A3008950F93E7
:103FB0001F930091E2048AEF089F800111240A5F99
:103FC0001F4F81E0B8010E94D11F0E5F1F4F87E194
:103FD000B8010E94D11F0E5F1F4F8BE0B8010E94F5
:103FE000D11F0E5F1F4F81E0B8010E94D11F0E5FED
:103FF0001F4F8CE0B8010E94D11F0E5F1F4F81E060
:10400000B8010E94D11F0E5F1F4F81E0B8010E94CE
:10401000D11F0E5F1F4F8EE0B8010E94D11F0E5FAF
:104020001F4F8EE0B8010E94D11F0E5F1F4F81E02D
:10403000B8010E94D11F0E5F1F4F85E1B8010E9499
:10404000D11F0E5F1F4F83E0B8010E94D11F0E5F8A
:104050001F4F81E0B8010E94D11F0E5F1F4F81E00A
:10406000B8010E94D11F0E5F1F4F8BE0B8010E9464
:10407000D11F0E5F1F4F81E0B8010E94D11F0E5F5C
:104080001F4F85E0B8010E94D11F0E5F1F4F8BE0CC
:10409000B8010E94D11F0E5F1F4F81E0B8010E943E
:1040A000D11F0E5F1F4F81E0B8010E94D11F0E5F2C
:1040B0001F4F8EE0B8010E94D11F0E5F1F4F81E09D
:1040C000B8010E94D11F0E5F1F4F85E1B8010E9409
:1040D000D11F0E5F1F4F8FE0B8010E94D11F0E5FEE
:1040E0001F4F81E0B8010E94D11F0E5F1F4F88E172
:1040F000B8010E94D11F0E5F1F4F8EE0B8010E94D1
:10410000D11F085F1F4F81E0B8010E94D11F0E5FD1
:104110001F4F8EE0B8010E94D11F0E5F1F4F83E03A
:10412000B8010E94D11F0E5F1F4F81E0B8010E94AD
:10413000D11F0E5F1F4F86E1B8010E94D11F0E5F95
:104140001F4F81E0B8010E94D11F80E066E570E05A
:104150000E94D11F89E068E570E00E94D11F8EE0C7
:104160006AE570E00E94D11F005F1F4F81E0B80137
:104170000E94D11F0E5F1F4F88E0B8010E94D11F1F
:104180000E5F1F4F8DE0B8010E94D11F0E5F1F4FC1
:1041900081E0B8010E94D11F0E5F1F4F8EE0B80171
:1041A0000E94D11F0E5F1F4F8FE0B8010E94D11FE8
:1041B000085F1F4F81E0B8010E94D11F0E5F1F4FA3
:1041C00086E1B8010E94D11F0E5F1F4F83E0B80146
:1041D0000E94D11F0E5F1F4F81E0B8010E94D11FC6
:1041E0000E5F1F4F81E0B8010E94D11F0E5F1F4F6D
:1041F00082E0B8010E94D11F065E1F4F81E0B80126
:104200000E94D11F0E5F1F4F81E0B8010E94D11F95
:104210000E5F1F4F81E0B8010E94D11F0E5F1F4F3C
:1042200081E0B8010E94D11F0E5F1F4F81E0B801ED
:104230000E94D11F0E5F1F4F84E0B8010E94D11F62
:104240000E5F1F4F81E0B8010E94D11F0E5F1F4F0C
:1042500087E1B8010E94D11F0E5F1F4F8DE0B801AA
:104260000E94D11F0852104081E0B8010E94D11F66
:104270000E5F1F4F81E0B8010E94D11F0E5F1F4FDC
:1042800083E0B8010E94D11F0E5F1F4F81E0B8018B
:104290000E94D11F0E5F1F4F81E0B8010E94D11F05
:1042A0000E5F1F4F8DE0B8010E94D11F0E5F1F4FA0
:1042B00081E0B8010E94D11F0E5F1F4F88E0B80156
:1042C0000E94D11F0E5F1F4F86E0B8010E94D11FD0
:1042D000065E1F4F81E0B8010E94D11F0E5F1F4F85
:1042E00089E0B8010E94D11F0E5F1F4F84E0B80122
:1042F0000E94D11F085F1F4F80E0B8010E94D11FAC
:104300000E5F1F4F88E1B8010E94D11F0E5F1F4F43
:1043100087E0B8010E94D11F0E5F1F4F81E0B801F6
:104320000E94D11F0E5F1F4F81E0B8010E94D11F74
:104330000E5F1F4F88E0B8010E94D11F065E1F4F1D
:1043400080E0B8010E94D11F0E5F1F4F86E1B801C7
:104350000E94D11F0E5F1F4F8EE0B8010E94D11F37
:10436000085F1F4F80E0B8010E94D11F0E5F1F4FF2
:1043700086E1B8010E94D11F0E5F1F4F82E0B80195
:104380000E94D11F8EE16CE773E00E94D11F80E094
:104390006EE773E00E94D11F84E660E873E00E943C
:1043A000D11F84E662E873E00E94D11F86E06AE8CC
:1043B00073E00E94D11F81E064EA73E00E94D11F84
:1043C00081E065EA73E00E94D11F81E06AEA73E050
:1043D0000E94D11F81E06BEA73E00E94D11F81E04F
:1043E00066EA73E00E94D11F81E068EA73E00E94F0
:1043F000D11F80E06CEA73E00E94D11F81E06EEA79
:1044000073E00E94D11F80E060EB73E00E94D11F37
:104410001F910F9108950F931F938AE268EE73E046
:104420000E94D11F84E26EEE73E00E94D11F1092B1
:10443000E20407C00E94D71F8091E2048F5F80933F
:10444000E2048091E2048230A8F309E314E0C80199
:1044500064E049E00E947E03C8010E94560400D037
:1044600000D0EDB7FEB71283018381E591E094831C
:1044700083830E9443290F900F900F900F90C801E3
:104480000E943A04FFCF4F925F927F928F929F9249
:10449000AF92BF92CF92DF92EF92FF920F931F9352
:1044A000DF93CF93CDB7DEB7C854D0400FB6F894A2
:1044B000DEBF0FBECDBF89E394E00E94A30400D00D
:1044C00000D00CE114E0EDB7FEB71283018384E75E
:1044D00091E0948383830E94432999E6492E91E0D9
:1044E000592EEE24FF24CC24DD240F900F900F9042
:1044F0000F90702E012F89E0A82EB12CAC0EBD1E9E
:104500004E010894811C911C8CE194E00E94F729D3
:10451000982F8D3031F08D30DCF180538230C0F532
:1045200030C01830A1F59981892F8053823078F5F9
:10453000913311F490E801C090E08A81813309F44D
:10454000905C8B81813309F4905E8C81813309F416
:10455000905F8D81813309F4985F8E81813309F4F6
:104560009C5F8F81813309F49E5F8885813309F4D4
:104570009F5FF501EE0DFF1D90830894E11CF11C77
:1045800006C0F401E10FF11D90831F5F01C010E030
:10459000F0E4EF16F104C9F489E394E0B601A50153
:1045A0000E948E030894C11CD11C00D000D0EDB72E
:1045B000FEB771820283548243820E944329EE2413
:1045C000FF240F900F900F900F90FFEFCF16D104A4
:1045D00009F00CF499CFC85BDF4F0FB6F894DEBF3B
:1045E0000FBECDBFCF91DF911F910F91FF90EF9044
:1045F000DF90CF90BF90AF909F908F907F905F9013
:104600004F900895EF92FF920F931F93DF93CF93F4
:10461000CDB7DEB766970FB6F894DEBF0FBECDBF3D
:104620007E010894E11CF11C01E02BC18CE194E0B7
:104630000E94F729182F80915804882301F50E94C1
:10464000303260527E4480409040C8F40E94303244
:10465000695873418040904090F01A3011F01D303D
:1046600031F4809159048F5F8093590402C01092F5
:10467000590480915904833011F40E944322812F00
:10468000B7010E943328882309F4FBC00093580423
:1046900000935A040E9430320E949C3760935B045E
:1046A00070935C0480935D0490935E0489819A8189
:1046B0008330910509F493C08430910554F481301E
:1046C0009105C9F0823091050CF07CC0892B69F00E
:1046D000D8C08630910509F4B8C08730910509F437
:1046E000C5C0049709F0CDC08AC08B8180935F0458
:1046F00010926004C6C06B817C818D819E810E9476
:104700009E3720E836E948E15BE40E940337609376
:1047100061047093620480936304909364046F81D6
:10472000788589859A850E949E3720E836E948E198
:104730005BE40E9403376093650470936604809382
:104740006704909368048F85809369046B857C85EA
:104750008D859E850E949E3760936A0470936B04DA
:1047600080936C0490936D04888980936E046989AA
:104770007A8980E090E00E949C3760936F04709388
:10478000700480937104909372046B897C8980E03B
:1047900090E00E949C37609373047093740480933C
:1047A0007504909376046D897E8980E090E00E9484
:1047B0009C37609377047093780480937904909386
:1047C0007A045FC08B819C8190937C0480937B04EE
:1047D0008D819E8190937E0480937D0452C08B8155
:1047E0009C819093800480937F048D819E8190931F
:1047F00082048093810489858093830442C08B81E5
:104800009C81885E93406AE070E00E94263A609343
:1048100084048D819E8190938604809385048F818A
:104820009885909388048093870489859A859093CE
:104830008A04809389048B859C8590938C04809353
:104840008B048B8980938D041CC06B817C818827AD
:1048500077FD8095982F0E949E3760938E04709309
:104860008F0480939004909391040BC064EF71E0E7
:1048700080E090E00E943E32E0915604F0915704AF
:1048800009958CE194E00E94C729181619060CF4CA
:10489000CDCE66960FB6F894DEBF0FBECDBFCF91DA
:1048A000DF911F910F91FF90EF900895EF92FF928B
:1048B0000F931F93E0902105F090220500912305AE
:1048C000109124058FE590E0A0E0B0E0E80EF91E1D
:1048D0000A1F1B1F0E9430326E157F05800791074B
:1048E00008F41BC10E9430320E94303260932105CF
:1048F00070932205809323059093240587E00E94FE
:10490000D532AA2797FDA095BA2FBC01CD010E94F0
:104910009E3720E030E849E85FE30E94C0382091EC
:1049200020033091210340912203509123030E94E0
:1049300003372DEC3CEC4CE45EE30E94C0387B0175
:104940008C0160912C0370912D0380912E03909126
:104950002F032DEC3CEC4CE45FE30E94C0389B013C
:10496000AC01C801B7010E943636DC019B01AC01E5
:1049700020932C0330932D0340932E0350932F0349
:10498000CB018093C9049093CA04A093CB04B09345
:10499000CC0486E00E94D532AA2797FDA095BA2FB5
:1049A000BC01CD010E949E3720E030E849E85FE37A
:1049B0000E94C038209124033091250340912603A2
:1049C000509127030E9403372DEC3CEC4CE45EE34E
:1049D0000E94C0387B018C016091300370913103DB
:1049E00080913203909133032DEC3CEC4CE45FE377
:1049F0000E94C0389B01AC01C801B7010E94363645
:104A0000DC019B01AC0120933003309331034093D0
:104A1000320350933303CB018093C5049093C604B3
:104A2000A093C704B093C80481E00E94D53290934C
:104A300002058093010560912803709129038091FC
:104A40002A0390912B0320E030E040E050E00E94E8
:104A5000B53818160CF061C082E00E94D532AA2742
:104A600097FDA095BA2FBC01CD010E949E3720E092
:104A700030E849E85FE30E94C0387B018C01609117
:104A80001D0570911E0580911F059091200520E065
:104A900030E040E251EC0E9403379B01AC01C801B9
:104AA000B7010E94363620912803309129034091A6
:104AB0002A0350912B030E9403372DEC3CEC4CEC65
:104AC0005DE30E94C0387B018C01609125057091E7
:104AD0002605809127059091280526E636E646E6CC
:104AE0005FE30E94C0389B01AC01C801B7010E947E
:104AF000363660932505709326058093270590939D
:104B0000280520E030E048EC52E40E94C0380E94C2
:104B10006B377093E1046093E0041F910F91FF9055
:104B2000EF90089583E00E94D23260910B03709160
:104B30000C0380910D0390910E032DEC3CEC4CE89E
:104B40005FE30E94C03860932C0370932D03809321
:104B50002E0390932F0360911103709112038091A3
:104B60001303909114032DEC3CEC4CE85FE30E949E
:104B7000C038609330037093310380933203909375
:104B80003303089586E061E00E94363308950E9461
:104B900002238BE494E00E94743008950F931F93D6
:104BA000CF93DF9386E061E00E94F7328CE194E0DE
:104BB00040E051EE60E070E00E9465290E94C2254D
:104BC000C9E3D4E0CE010E9422050E94101764EFD1
:104BD00071E080E090E00E943E3288EE93E00E9417
:104BE000D309082F8EEE93E00E94D30910E0080F3E
:104BF000111D0E341105E9F0CE0166E049E00E9476
:104C00007E03CE010E94560400D000D0EDB7FEB75F
:104C1000D283C18384E891E0948383830E944329F3
:104C20000F900F900F900F90CE010E943A040E94B7
:104C30000B220E94A6081092E20407C00E94A01A4C
:104C40008091E2048F5F8093E2048091E2048230DD
:104C5000A8F31092E20460ED77E080E090E00E941B
:104C60003E328CE194E00E94442A8BE494E06DEDA6
:104C700077E228E730E040E050E000E00E94263094
:104C80000E94922589E394E00E94A3048BE494E0BF
:104C90000E948C30DF91CF911F910F9108952F9238
:104CA0003F924F925F926F927F928F929F92AF92BC
:104CB000BF92CF92DF92EF92FF920F931F93DF93F9
:104CC000CF9300D000D0CDB7DEB7E0906A04F0906B
:104CD0006B0400916C0410916D04C801B701209120
:104CE00032053091330540913405509135050E94CD
:104CF00035366093A9047093AA048093AB04909313
:104D0000AC04A0901C05AA2049F580916904833069
:104D100009F03CC18091610490916204A091630408
:104D2000B09164048093360590933705A0933805BD
:104D3000B09339058091650490916604A091670451
:104D4000B091680480933A0590933B05A0933C058D
:104D5000B0933D0581E080931C0518C181E0A81641
:104D600009F014C160903E05E8E1E61580F160911C
:104D70003F05709140058091410590914205A80141
:104D800097010E9435369F7720E030E040E05FE3F6
:104D90000E94B53818165CF410923E05E0923F056B
:104DA000F0924005009341051093420510C0862DF6
:104DB0008F5F80933E05893151F4E0923205F09285
:104DC00033050093340510933505A0922905E09032
:104DD0003605F09037050091380510913905C80166
:104DE000B7019F7725E33AEF4EE85CE30E94C038B5
:104DF0000E94003769837A838B839C83C801B70143
:104E000020916104309162044091630450916404E4
:104E10000E9435361B012C019F7720EC3BE649EDC3
:104E200057E40E94C0385B016C0160913A057091B3
:104E30003B0580913C0590913D05209165043091A2
:104E4000660440916704509168040E9435363B0126
:104E50004C019F7720EC3BE649ED57E40E94C038B7
:104E600029813A814B815C810E94C0387B018C0191
:104E7000C601B501A60195010E94C0385B016C0115
:104E8000C801B701A80197010E94C0389B01AC017D
:104E9000C601B5010E9436360E9447390E946B3721
:104EA0006093AD047093AE048093AF049093B0040C
:104EB00060E070E080E89FE329813A814B815C816A
:104EC0000E9403379B01AC01C201B1010E94C038AE
:104ED00097FA909497F89094A40193010E94A936B0
:104EE00020EE3EE245E652E40E94C03820E030E089
:104EF00044EB52E40E9436360E946B379B01AC01B2
:104F000097FF04C028593E4F4F4F5F4FCA01B90168
:104F1000645B70408040904097FF06C0CA01B901B1
:104F20006C547F4F8F4F9F4F0E949E372091770484
:104F3000309178044091790450917A040E9435367A
:104F40000E946B3797FF04C068597E4F8F4F9F4F69
:104F50000E949E3720E030E044EB53E40E94033788
:104F600020E030E040E851E40E94C0380E9423393C
:104F700020E030E040E85FE30E9436360E94703760
:104F80006093B104613110F01092B1040F900F9052
:104F90000F900F90CF91DF911F910F91FF90EF90A5
:104FA000DF90CF90BF90AF909F908F907F906F9049
:104FB0005F904F903F902F9008950E94070C89E3D7
:104FC00094E00E944F260E9456240E94DB170E9404
:104FD000630608950F931F9387E495E06CE270E0F9
:104FE0000E942C038C010F5F1F4F10934405009308
:104FF0004305C8016CE270E00E942C03FC01909311
:10500000460580934505012B41F0009731F0108251
:10501000209143053091440502C024E333E0C901E7
:105020001F910F9108958091450590914605009735
:1050300081F0019690934405809343056CE270E003
:105040000E942C03FC019093460580934505009730
:1050500019F424E333E005C0108220914305309118
:105060004405C9010895EF92FF920F931F93CF93C8
:10507000DF93EB01843209F0DAC08CE194E06AE05E
:1050800047E455E020E830E00E940036882309F428
:10509000CEC0E82FF0E0EA5BFA4F80818D3009F056
:1050A000C6C01082809147058D3409F46EC08E34DD
:1050B0004CF4833409F481C08934E1F0813409F07F
:1050C000B6C02AC0823509F4ADC0833524F48035DA
:1050D00009F0ADC007C0853509F492C08A3509F0E2
:1050E000A6C097C0198218820E94EA270E94DC029B
:1050F0008A8310C082E090E0998388830E94EA2727
:105100000E94DC029D838C830E9413280E94DC0293
:105110009B838A8381E08CC081E090E099838883BF
:105120000E94EA270E94FA026A837B838C839D8314
:105130000E9413280E94FA026E837F8388879987D2
:105140000E9413280E94DC028F870E9413280E946D
:10515000FA026A877B878C879D870E9413280E94AA
:10516000DC02888B198A0E9413280E94DC028A8B39
:105170001B8A0E9413280E94DC029D8B8C8B0E944C
:1051800013280E94DC028E87C5CF83E090E09983CC
:1051900088830E94EA270E94FA027B836A830E9426
:1051A00013280E94FA026C837D838E839F830E9462
:1051B00013280E94DC028887ADCF84E090E09983B9
:1051C00088830E94EA270E94DC029B838A837E01F7
:1051D00001E010E00E9413280E94DC02F701958391
:1051E00084830F5F1F4F82E090E0E80EF91E0530C8
:1051F000110581F70E9413280E94DC028A8B8ACF56
:1052000085E090E0998388830E94EA270E94DC026F
:105210007FCF86E090E0998388830E94EA270E94EE
:10522000DC0276CF87E090E09983888373CF80E0BB
:10523000DF91CF911F910F91FF90EF9008956EBD78
:105240000DB407FEFDCF8EB508958DE061E00E949C
:10525000F7328BE061E00E94F7328CE060E00E9460
:10526000F7328AE061E00E94F7321CBC80E58CBD19
:105270008DB58EB5089587EC95E00E942529089597
:105280008FEF9FE70895DF93CF93CDB7DEB7FE0191
:1052900039968D819E8161E04F8158859F010E94E2
:1052A000E42BCF91DF910895DF93CF93CDB7DEB795
:1052B000FE0139968D819E8160E04F8158859F0166
:1052C0000E94E42BCF91DF9108950F931F93DC018F
:1052D000ED91FC910288F389E02D20E030E000E0C0
:1052E00010E009951F910F9108958F92AF92CF9280
:1052F000EF92FF920F931F93DF93CF93CDB7DEB75B
:10530000FC011382128288EE93E0A0E0B0E0848377
:105310009583A683B78388E893E09183808355873C
:10532000448737872687118B008BF38AE28AC48AE9
:10533000A58A868A70E0CB0123E0880F991F2A9501
:10534000E1F79C0128533A4F308F278B80539A4FB7
:10535000928F818F81E090E002C0880F991F6A953B
:10536000E2F72091D805282B2093D805CF0140E003
:1053700051EE60E070E00E946529CF91DF911F91AE
:105380000F91FF90EF90CF90AF908F900895FC0118
:10539000838D882319F42FEF3FEF0DC00788F08D20
:1053A000E02D2081318182819381281B390B8481FA
:1053B000958128233923C9010895FC01838D882311
:1053C00019F42FEF3FEF11C0018CF28DE02D2081F9
:1053D000318182819381281B390B209530958481FE
:1053E0009581282339232F5F3F4FC9010895FC0180
:1053F000838D882361F0A789B08D2D913C91119701
:1054000012968D919C9113972817390721F44FEF2D
:105410005FEFCA01089512968D919C91139716968D
:10542000ED91FC911797E80FF91F408112968D912D
:105430009C911397019614962D913C911597822378
:10544000932313969C938E93129750E0E2CFFC0126
:10545000838D882351F00788F08DE02D20813181E4
:10546000828193812817390721F42FEF3FEFC9017B
:105470000895828193810680F781E02DE80FF91F5E
:105480008081282F30E0F3CFDC015796ED91FC911D
:10549000589782819381918380835996ED91FC91F5
:1054A0005A9780819181938382830895DC015B9672
:1054B0008C915B978823A9F15996ED91FC915A97AD
:1054C000208131812F5F3F4F8481958128233923AB
:1054D0005C968C915C97882329F0828193812817B0
:1054E0003907F9F08281938128173907D9F3808130
:1054F00091810680F781E02DE80FF91F60835996AE
:10550000ED91FC915A97318320835296ED91FC9155
:105510005397808156969C91892B808321E030E0BF
:1055200002C020E030E0C9010895CF93DF93EC0181
:105530001B821A828A819B81998388831D821C82A7
:105540008E819F81009721F00E9450311F821E8220
:10555000DF91CF9108950F931F938C01DC01529638
:10556000ED91FC915397208156968C9156975596C4
:105570009C915597892B80958223808357968D9196
:105580009C9158970E94952AF801818D928D0E94D6
:10559000952AD8015B961C921F910F9108950F9345
:1055A0001F93CF93DF938C01FC01138212828281BF
:1055B00093819183808341E0A1E0B0E001C04F5F1F
:1055C000FD01042E02C0EE0FFF1F0A94E2F79B01BB
:1055D00082E06130780710F020E032E0E217F30754
:1055E00070F3C1E0D0E002C0CC0FDD1F4A95E2F7B6
:1055F0002197F801268137812115310541F08481F9
:1056000095818C179D0789F0C9010E945031F801DE
:10561000D583C483CE0101960E94B3309C01F8016A
:105620009783868380E0232B09F081E0DF91CF917F
:105630001F910F910895AF92BF92CF92DF92EF9298
:10564000FF920F931F93CF93DF937C015A016B015D
:10565000E901DC015B968C915B978823F1F02115C1
:10566000310539F45796ED91FC915897C481D58155
:1056700021960115110549F4D7015996ED91FC9138
:105680005A97048115810F5F1F4FD701ED91FC914F
:105690000088F189E02DC7010995F7018789908D70
:1056A000209711F4C0E8D0E0BE010E94CF2A8823E1
:1056B00081F0D70159968D919C915A97011511054A
:1056C00011F400E110E0B8010E94CF2A882309F00C
:1056D0004DC0D701ED91FC910088F189E02DC70103
:1056E000099567C0D7015096ED91FC915197B0E0B4
:1056F000AB16B1EEBB06B0E0CB06B0E0DB0609F4BA
:1057000054C081E090E0D70154960C9002C0880FFD
:10571000991F0A94E2F7808360E079E08DE390E0DE
:10572000A60195010E946F3A215030404040504000
:10573000CA01B90122E030E040E050E00E946F3A37
:10574000D7011C96ED91FC911D9730831E96ED912B
:10575000FC911F972083D7015296ED91FC915397AE
:10576000808155969C91892B808323C0D7015996BF
:10577000ED91FC915A9713821282828193819183D9
:1057800080835796ED91FC91589713821282828103
:1057900093819183808381E05B968C931A141B0420
:1057A0001C041D040CF49ECFD6CF108220E130E003
:1057B000C7CFDF91CF911F910F91FF90EF90DF90B6
:1057C000CF90BF90AF9008952F923F924F925F92EB
:1057D0006F927F928F929F92AF92BF92CF92DF9201
:1057E000EF92FF920F931F93DF93CF93CDB7DEB766
:1057F00064970FB6F894DEBF0FBECDBF3C01688B37
:105800005A8B498B69011C01AE014F5F5F4F5C8B66
:105810004B8BE989FA89488940FD659140FF619188
:10582000FA8BE98B662309F4D7C3653249F440FD4E
:10583000859140FF8191FA8BE98B8532B1F40CC0E0
:105840006A3051F4D301ED91FC910190F081E02D8B
:10585000C1016DE009956AE0D301ED91FC910190E1
:10586000F081E02DC1010995D4CF982F10E0882454
:1058700099241032B0F49B3269F09C3228F49032B3
:1058800051F0933271F40BC09D3239F0903349F4EA
:10589000116028C01260146025C0186023C0106118
:1058A00021C017FD2BC0892F80538A3078F416FF52
:1058B00006C0BAE09B9E902C1124980E13C0EAE01B
:1058C0008E9E802C1124880E10620CC09E3221F412
:1058D00016FD82C3106406C09C3611F4106802C025
:1058E000983661F4E989FA89488940FD959140FF2D
:1058F0009191FA8BE98B992309F0BBCF892F8554BD
:10590000833020F4812F8061905E07C0892F8556F7
:10591000833008F0E6C1812F8F7E86FD02C076E0DD
:10592000972E6FE3F62EF822953619F450E4F52AF7
:1059300007C0963619F480E8F82A02C091109A94AC
:10594000F7FE0BC09BE3991520F427E05CE3B52E2E
:105950000DC0B92CB39427E009C0A7E0A91520F425
:1059600047E0942E27E001C0292DBB24F601349690
:10597000FD87EC87D6016D917D918D919C91AE0153
:105980004F5F5F4F0B2D0E94A6016C010981E02F34
:10599000F0E0FF87EE8700FF05C0FE85F3FD02C043
:1059A0001DE209C0F1FE02C01BE205C0F2FC02C00C
:1059B00010E001C010E28E859F858C709070892B5D
:1059C00009F444C0112311F483E001C084E0881578
:1059D00010F088240EC0881AF3FC0BC0D301ED919F
:1059E000FC910190F081E02DC10160E209958A945B
:1059F000A9F7112349F0D301ED91FC910190F081B9
:105A0000E02DC101612F0995BE85B3FF03C001E9F7
:105A100012E012C005E912E00FC0E114F10409F030
:105A20006052D301ED91FC910190F081E02DC10114
:105A300009950F5F1F4F05C0EF2CFF24B0E1EB224B
:105A4000FF24F8016491662341F748C1F7FE13C0B3
:105A5000BC0CFE85F4FF04C08A81813309F4BA943A
:105A60001B141CF0BB24B3942DC048E04B1550F51B
:105A700038E0B32E27C0F6FC25C0892D90E08C15A8
:105A80009D054CF05CEFC5165FEFD50624F080E86D
:105A9000F82A01C09A94992049F0E2E0F0E0EC0F76
:105AA000FD1FE90DF11D80818033A1F3F7FE0AC0CF
:105AB000B92CB394892D90E0C816D90614F0992416
:105AC00001C09C18F7FC03C025E030E009C01C149D
:105AD0001D041CF021E030E003C096012F5F3F4F12
