:100000000C948E010C94B6010C94B6010C94B601BC
:100010000C94B6010C94B6010C94B6010C94B60184
:100020000C94B6010C94B6010C94B6010C94B60174
:100030000C94B6010C94B6010C94B6010C94B60164
:100040000C9447340C94B6010C947F050C94BB05BA
:100050000C94B6010C94B6010C94B6010C94B60144
:100060000C94B6010C94B601084AD73B3BCE016E06
:1000700084BCBFFDC12F3D6C74319ABD56833DDAFF
:100080003D00C77F11BED9E4BB4C3E916BAAAABE0E
:10009000000000803F05A84CCDB2D44EB93836A937
:1000A000020C50B9918688083CA6AAAA2ABE000074
:1000B00000803F0664EC1B3C04BC163E3BE5B93CAB
:1000C000C93C37C29E5A3D660498083EEA69AAAA0E
:1000D0003E000000803F20202020202020202020E3
:1000E0002020002020202020202020202020202030
:1000F0007C202020202020202020202020207CC6A2
:10010000202020202020202020202020C57C2020EE
:1001100020202020202020202020207C2020202083
:100120002020202020202020207C004D6174726936
:100130007850696C6F747C4D696E696D4F53442DB6
:10014000457874726120322E34207C20723632342D
:100150007C004F534420496E697469616C697A650B
:10016000642C207265626F6F740043686172204472
:100170006F6E650A00526561647920666F72204671
:100180006F6E740A004D697373696E672F4F6C64EC
:1001900020436F6E666967008280818081808480E1
:1001A0008180818083808180818085808180818041
:1001B00000000000000000000000000000407A1075
:1001C000F35A00A0724E18090010A5D4E80000E808
:1001D0007648170000E40B54020000CA9A3B000066
:1001E00000E1F505000080969800000040420F00F5
:1001F0000000A08601000000102700000000E803B6
:10020000000000006400000000000A000000000080
:100210000100000000002C76D888DC674F0823DF3F
:10022000C1DFAE59E1B1B796E5E3E453C63AE65112
:10023000997696E8E6C28426EB898C9B62ED407C39
:100240006FFCEFBC9C9F40F2BAA56FA5F490055AD5
:100250002AF75C936B6CF9676DC11BFCE0E40D47FA
:10026000FEF520E6B500D0ED902E0300943577051D
:100270000080841E080000204E0A000000C80C33D5
:100280003333330F986E12831141EF8D2114893B64
:10029000E65516CFFEE6DB18D1844B381BF77C1DE4
:1002A000901DA4BBE424203284725E228100C9F137
:1002B00024ECA1E53D276E616E00696E66000000CA
:1002C0000000240027002A0000000000250028006C
:1002D0002B00000000002300260029000404040471
:1002E00004040404020202020202030303030303E0
:1002F00001020408102040800102040810200102BD
:10030000040810200000000700020100000304069A
:10031000000000000000000009069A2B11241FBEF7
:10032000CFEFD8E0DEBFCDBF13E0A0E0B1E0EAE759
:10033000F5E702C005900D92A634B107D9F715E094
:10034000A6E4B3E001C01D92AC39B107E1F713E0B8
:10035000CCE1D3E004C02297FE010E94B73AC83135
:10036000D107C9F70E94E9350C94BB3A0C94000000
:10037000283008F027E03327DA01990F311D87FD77
:10038000916000966105710539F432602E5F3D93EE
:1003900030E32A95E1F708959F3F30F080387105EA
:1003A000610509F03C5F3C5F3D93913008F0806847
:1003B000911DDF93CF931F930F93FF92EF92192F0D
:1003C000987F9695E92F96959695E90FFF27EA5E17
:1003D000FD4F99273327EE24FF24A701E70105905D
:1003E0000894079428F4360FE71EF81E491F511D84
:1003F000660F771F881F991F0694A1F70590079431
:1004000028F4E70EF81E491F561FC11D770F881FDD
:10041000991F661F0694A1F70590079428F4F80E1B
:10042000491F561FC71FD11D880F991F661F771FB1
:100430000694A1F70590079420F4490F561FC71F93
:10044000D81F990F661F771F881F0694A9F78491FC
:100450001095177041F0D695C79557954795F79425
:10046000E7941A95C1F7ECEBF1E0689415901591BB
:1004700035916591959105907FE27395E118F10AA8
:10048000430B560BC90BD009C0F7E10CF11E431FFB
:10049000561FC91FD01D7EF4703311F48A95E6CF24
:1004A000E894015030F0080F0AF40027021708F40E
:1004B000202F2395022F7A3328F079E37D932A9514
:1004C000E9F710C07D932A9589F60694979567956C
:1004D000379517951794E118F10A430B560BC90B82
:1004E000D00998F023957E9173957A3308F070E3E4
:1004F0007C932013B8F77E9170617D9330F08395E3
:1005000071E37D9370E32A95E1F71124EF90FF905A
:100510000F911F91CF91DF91992787FD90950895B5
:10052000FA01AA27283051F1203181F1E8946F9324
:100530006E7F6E5F7F4F8F4F9F4FAF4FB1E03ED0CA
:10054000B4E03CD0670F781F891F9A1FA11D680F68
:10055000791F8A1F911DA11D6A0F711D811D911D9B
:10056000A11D20D009F468943F912AE0269F112410
:100570003019305D3193DEF6CF010895462F477074
:10058000405D4193B3E00FD0C9F7F6CF462F4F70CF
:10059000405D4A3318F0495D31FD4052419302D02D
:1005A000A9F7EACFB4E0A6959795879577956795D3
:1005B000BA95C9F700976105710508959B01AC01D3
:1005C0000A2E06945795479537952795BA95C9F7FA
:1005D000620F731F841F951FA01D0895FC018827BB
:1005E0009927E89421912032E9F3293010F02E3038
:1005F000C8F32B3241F02D3239F4689404C00E94C4
:100600006903820F911D219120532A30C0F31EF4FB
:10061000909581959F4F08951F93FC0199278827F6
:10062000BC01E89411911032E9F3193010F01E303A
:10063000C8F31B3251F01D3249F4689406C00E9481
:100640005403610F711D811D911D119110531A30BA
:10065000B0F33EF490958095709561957F4F8F4FE4
:100660009F4F1F910895FC0105906150704001104B
:10067000D8F7809590958E0F9F1F0895FC0181916A
:10068000861721F08823D9F7992708953197CF014C
:100690000895FC016150704001900110D8F78095D9
:1006A00090958E0F9F1F0895592F482F372F262F73
:1006B000660F771F881F991F660F771F881F991F66
:1006C000620F731F841F951F660F771F881F991F66
:1006D00008957AE0979F902D879F802D910D11248A
:1006E0000895FC011382128288EE93E0A0E0B0E04E
:1006F00084839583A683B78380E193E0918380838D
:100700000895FC018089803419F421E030E002C0B2
:1007100020E030E0C9010895FC01818990E008954E
:10072000FC016487458766874787089580E090E0ED
:10073000089580E090E0089580E090E008950895A5
:10074000EF92FF921F93CF93DF93162F7A0186E0EB
:1007500060E00E9495358CE795E060E00E947E2B7A
:100760008CE795E060E00E947E2B8CE795E069E0E5
:100770000E947E2B8CE795E0612F0E947E2BC0E0CB
:10078000D0E0F701EC0FFD1F10818CE795E06AE0E7
:100790000E947E2B8CE795E06C2F0E947E2B8CE7CD
:1007A00095E06BE00E947E2B8CE795E0612F0E9424
:1007B0007E2B2196C633D10521F78CE795E068E0C2
:1007C0000E947E2B8CE795E060EA0E947E2B8CE7EE
:1007D00095E060EA0E947E2B85FDF9CF8CE795E0DD
:1007E00060E00E947E2B8CE795E06CE00E947E2BFF
:1007F00086E061E00E949535DF91CF911F91FF90D7
:10080000EF9008951F93CF93DF93EC01162F86E0AE
:1008100060E00E9495358CE795E060E00E947E2BB9
:10082000112319F0113059F404C08CE795E0688960
:1008300004C068896C618CE795E00E947E2B86E09D
:1008400061E00E949535DF91CF911F910895EF925D
:10085000FF920F931F938EE1489F70011124E60EC3
:10086000F11C86E060E00E9495350CE715E0C801B8
:1008700065E00E947E2BC8016F2D0E947E2BC8016F
:1008800066E00E947E2BC8016E2D0E947E2B1F9178
:100890000F91FF90EF900895EF92FF920F931F93A7
:1008A0007C010CE715E0C80167E00E947E2BC801BF
:1008B0006FEF0E947E2B86E061E00E949535F70184
:1008C00087858F5F87871F910F91FF90EF90089525
:1008D000EF92FF920F931F93FC01E7848EE1E89E55
:1008E000700111248685E80EF11C86E060E00E940C
:1008F00095350CE715E0C80164E00E947E2BC80125
:1009000063E00E947E2BC80165E00E947E2BC80137
:100910006F2D0E947E2BC80166E00E947E2BC801CD
:100920006E2D0E947E2B1F910F91FF90EF900895E6
:100930001F93CF93DF93EC01162F6C3731F40E9495
:100940004C04CE010E9468040AC08CE795E067E081
:100950000E947E2B8CE795E0612F0E947E2B81E028
:1009600090E0DF91CF911F9108950F931F9386E040
:1009700060E00E9495350CE715E0C80164E00E9434
:100980007E2BC80164E00E947E2B86E061E00E941D
:1009900095351F910F9108951F938EE895E066E9B4
:1009A00073E00E947232882361F0813011F412E00A
:1009B00009C0823011F411E005C0833011F410E059
:1009C00001C013E0109247031092460317C06091D4
:1009D000460370914703605F8CE795E00E947E2B91
:1009E0008CE795E0612F0E947E2B809146039091C9
:1009F00047030196909347038093460380914603F3
:100A00009091470340971CF31F910895CF93DF9374
:100A1000EC0186E060E00E9495358CE795E060EAA5
:100A20000E947E2B8CE795E06FEF0E947E2B80FF6B
:100A300005C080E4888B88E0898B13C08EE895E040
:100A400060E973E00E947232882319F4188A86E004
:100A500003C080E4888B88E0898B86E060E00E9498
:100A60009535DF91CF910895CF92DF92FF920F934A
:100A70001F936C0186E061E00E94563582E060E0E1
:100A80000E94563582E061E00E949535C6010E94C1
:100A9000060586E060E00E9495350CE715E0C80188
:100AA0006CEE0E947E2BC8016FEF0E947E2BF82E09
:100AB000C80160E00E947E2BF60160896260C80177
:100AC0000E947E2B62E370E080E090E00E949D3403
:100AD000C8016CE60E947E2BFFEEFF22C8016F2D3D
:100AE0000E947E2BC6010E94CC04C60161E00E94D8
:100AF00002041F910F91FF90DF90CF9008951F92F5
:100B00000F920FB60F9211242F933F934F938F9311
:100B10009F93EF93FF934091C60020917D05309104
:100B20007E052F5F3F4F809181059091820528239C
:100B3000392380917F05909180052817390779F036
:100B400080917D0590917E05E0918305F09184056B
:100B5000E80FF91F408330937E0520937D05FF91B8
:100B6000EF919F918F914F913F912F910F900FBED9
:100B70000F901F9018951F920F920FB60F9211248D
:100B80002F933F938F939F93EF93FF93209187052C
:100B90003091880580918505909186052817390741
:100BA000E9F08091870590918805E0918B05F0919F
:100BB0008C05E80FF91F80818093C600809187051E
:100BC0009091880501962091890530918A058223AC
:100BD0009323909388058093870510C02091850505
:100BE00030918605809187059091880528173907EF
:100BF00029F48091C1008F7D8093C100FF91EF9116
:100C00009F918F913F912F910F900FBE0F901F904A
:100C100018958F92AF92CF92EF92FF920F931F93FE
:100C20008AEC93E060E045EC50E024EC30E000EC2E
:100C300010E0F1ECEF2EF12CCC24C394E8E9AE2EB9
:100C400070E2872E0E94D42B87EE93E00E947103FE
:100C50001092FA031092FB031092FC031092FD0312
:100C60001092FE031092FF031092000410920104F0
:100C700010920304109202041092F9031F910F9135
:100C8000FF90EF90CF90AF908F90089580913804AF
:100C90008130C1F40E948F3468517C4F8F4F9F4F39
:100CA0006093390470933A0480933B0490933C041E
:100CB0001092380490E080913D04882309F491E07B
:100CC00090933D040E948F342091390430913A046E
:100CD00040913B0450913C042617370748075907B9
:100CE00018F481E0809338040895AF92BF92CF92B8
:100CF000DF92EF92FF920F931F931091D90411305E
:100D000009F03EC080917B048823D1F560914F04A7
:100D100070915004809151049091520420E030E091
:100D200040EA50E40E941439181654F580913204B8
:100D30008B3030F110937B0480E090E0A0E0B0E0D5
:100D40008093B2049093B304A093B404B093B50419
:100D50001092C6041092C7041092C8041092C904DD
:100D60000E948F3428EE33E040E050E00E94783A51
:100D7000209371043093720440937304509374046D
:100D8000A0901304B0901404C0901504D0901604E1
:100D90006091DF047091E0048091E1049091E2049D
:100DA000A60195010E944A37882349F1E0900F047B
:100DB000F090100400911104109112046091E3046A
:100DC0007091E4048091E5049091E604A8019701F4
:100DD0000E944A37882399F0A092DF04B092E00481
:100DE000C092E104D092E204E092E304F092E404C1
:100DF0000093E5041093E6041092DE0405C0809190
:100E0000DE048F5F8093DE048091DE04853108F17B
:100E1000809132048D30E8F480917B048130C9F4F4
:100E20008091530490915404A0915504B0915604BC
:100E3000893C9105A105B10564F410927B040E94E0
:100E40008F346093C6047093C7048093C804909352
:100E5000C904A0901D04B0901E04C0901F04D0903F
:100E60002004C601B50120E030E040E85FE30E94C5
:100E70001439181694F5E090B204F090B304009180
:100E8000B4041091B5040E948F342091DA0430919B
:100E9000DB044091DC045091DD04621B730B840B76
:100EA000950B0E94EA379B01AC01C601B5010E9477
:100EB0001F3920E030E04AE754E40E9451379B019B
:100EC000AC01C801B7010E9484366093B2047093EC
:100ED000B3048093B4049093B504A0907504B090CB
:100EE0007604C0907704D090780460918404709167
:100EF0008504882777FD8095982F0E94EC3720E0A5
:100F000030E040E251E40E941F397B018C010E94D5
:100F10008F342091DA043091DB044091DC0450914D
:100F2000DD04621B730B840B950B0E94EA379B0157
:100F3000AC01C801B7010E941F3920E03AEB4BE534
:100F40005AE40E9451379B01AC01C601B5010E94D1
:100F5000843660937504709376048093770490933D
:100F600078040E948F346093DA047093DB048093DA
:100F7000DC049093DD0480917B04813009F096C0FD
:100F800060915304709154048091550490915604DB
:100F90000E94EC377B018C012091AE043091AF04AC
:100FA0004091B0045091B1040E941439181644F4D1
:100FB000E092AE04F092AF040093B0041093B10439
:100FC000E0902104F0902204009123041091240465
:100FD000C801B7012091B6043091B7044091B8041C
:100FE0005091B9040E941439181644F4E092B604E2
:100FF000F092B7040093B8041093B904E0901D0474
:10100000F0901E0400911F0410912004C801B70144
:101010002091BA043091BB044091BC045091BD04AE
:101020000E941439181644F4E092BA04F092BB04FA
:101030000093BC041093BD04E0904F04F090500462
:101040000091510410915204C801B7012091BE04CF
:101050003091BF044091C0045091C1040E941439E2
:10106000181644F4E092BE04F092BF040093C0044A
:101070001093C1046091C2047091C3048091C404B0
:101080009091C50420E030E040E050E00E944A37F3
:10109000882364F480E090E0A0E0B0E08093C20494
:1010A0009093C304A093C404B093C5041F910F91FF
:1010B000FF90EF90DF90CF90BF90AF9008958EE8B3
:1010C00095E06AE773E00E947232882381F586E634
:1010D00096E6A6E6B0E480933E0490933F04A09386
:1010E0004004B093410480E090E0A0E8BFE3809327
:1010F000420490934304A0934404B093450480E1D8
:10110000809346048CE0809347048AEB80934804E4
:101110008BE190E090934A048093490488EE93E039
:1011200090934C0480934B048AE190E02FC082E5B9
:1011300098EBAEE0B0E480933E0490933F04A0931C
:101140004004B093410485E89BEEA1E5B0E48093B0
:10115000420490934304A0934404B093450489E16E
:101160008093460486E6809347048BEB8093480483
:101170008CE190E090934A048093490480EA94E1E2
:1011800090934C0480934B048EE190E090934E0436
:1011900080934D040895DF92EF92FF920F931F9377
:1011A0008C01AEE8EA2EA5E0FA2EC701B8010E9434
:1011B0007232D82E0F5F1F4FC701B8010E947232E2
:1011C0003D2D20E0280F311DC9011F910F91FF9087
:1011D000EF90DF900895DF92EF92FF920F931F93AD
:1011E000CF93DF938EE895E06CE773E00E94723254
:1011F00080937D048EE895E06EE773E00E94723282
:1012000080937C048EE895E060E873E00E9472327F
:1012100090E0A0E0B0E0BC01CD010E94EA3720E000
:1012200030E040E251E40E9451376093D70270935E
:10123000D8028093D9029093DA028EE895E062E8B2
:1012400073E00E94723290E0A0E0B0E0BC01CD01FA
:101250000E94EA3720E030E040E251E40E9451373A
:101260006093D3027093D4028093D5029093D602F8
:101270008EE895E06EE873E00E94723280939104EC
:101280008EE895E06AE873E00E94723280938704EA
:101290008EE895E064E873E00E9472328093A904BE
:1012A0008EE895E066E873E00E9472328093A804AD
:1012B0008EE895E06CE873E00E94723210927F0431
:1012C000882319F081E080937F048EE895E064E93B
:1012D00073E00E94723280937E0484EA93E00E945D
:1012E000CB08A0E0B0E0BC01CD010E94EA3720E0CD
:1012F00030E040E251E40E9451376093EE02709377
:10130000EF028093F0029093F1028AEA93E00E9448
:10131000CB08A0E0B0E0BC01CD010E94EA3720E09C
:1013200030E040E251E40E9451376093F202709342
:10133000F3028093F4029093F50286EA93E00E9410
:10134000CB087C018EE895E068EA73E00E94723277
:10135000D82E00E010E0C801B7010E94EA3720E073
:1013600030E040E251E40E9451377B018C018D2D29
:1013700064E60E94453A90E0AA2797FDA095BA2F0F
:10138000BC01CD010E94EC379B01AC01C801B70143
:101390000E9484366093F6027093F7028093F802FD
:1013A0009093F9028CEA93E00E94CB08A0E0B0E0B1
:1013B000BC01CD010E94EA3720E030E040E251E478
:1013C0000E9451376093CB047093CC048093CD047A
:1013D0009093CE048EE895E06EEA73E00E9472323C
:1013E0008093ED028EE895E060EB73E00E9472322C
:1013F0008093AD048EE895E060EB73E00E9472325A
:101400008093C9021092CA02C0E0D0E0BE016856C3
:101410007C4F8EE895E00E947232FE01E156FB4F50
:101420008083882321F02196C830D10579F7C156F1
:10143000DB4F1982DF91CF911F910F91FF90EF90B9
:10144000DF900895BC018EE895E00E947232089505
:10145000DF92EF92FF920F931F93CF93DF93882336
:1014600009F481E0182F110F1257613009F04CC0B8
:1014700060913E0470913F0480914004909141043A
:1014800020E030E040E050E00E941F39A12FBB2750
:10149000A7FDB095D09046042DB73EB726513040F9
:1014A0000FB6F8943EBF0FBE2DBFEDB7FEB7319615
:1014B00027EE33E0CDB7DEB73A83298323E031E06E
:1014C000338322832DE130E035832483262F372F89
:1014D000482F592F2683378340875187D28613861A
:1014E000B587A4871196B787A687C901DA01808BD3
:1014F000918BA28BB38BD48A158A0E94B32B2DB704
:101500003EB72A5E3F4F4BC0A12FBB27A7FDB0952A
:1015100087EE93E0623039F5CDB7DEB72C970FB682
:10152000F894DEBF0FBECDBFEDB7FEB731969A83FC
:10153000898389E191E093838283B583A4831196A3
:10154000B783A6838091580490915904918780872E
:1015500085E090E0938782870E94B32B2DB73EB73A
:10156000245F3F4F1CC0CDB7DEB728970FB6F89465
:10157000DEBF0FBECDBFEDB7FEB731969A8389832C
:1015800083E291E093838283B583A4831196B7832A
:10159000A6830E94B32B2DB73EB7285F3F4F0FB6EF
:1015A000F8943EBF0FBE2DBFDF91CF911F910F91D9
:1015B000FF90EF90DF9008952F923F924F925F92AD
:1015C0006F927F928F929F92AF92BF92CF92DF9253
:1015D000EF92FF920F931F93DF93CF9300D000D031
:1015E00000D0CDB7DEB7182F662E20912B04309196
:1015F0002C042A35310530F0C9018D549F4F8935AF
:101600009105E8F437FF02C02D543F4FC90137FF61
:1016100003C0909581959F4F8A3191053CF0B9EDBB
:101620008B2E912CA8EF2A2E312C1DC00A975CF12D
:10163000F0ED8F2E912CE3EF2E2E312C20C02B3588
:10164000310514F0235B3040C90137FF03C090958A
:1016500081959F4F8A31910554F07BEE872E912C16
:101660006BEF262E312C57E0A52EB12C15C00A9712
:1016700054F042EE842E912C35EF232E312C28E0AD
:10168000A22EB12C09C096EC892E912C8DEC282E1F
:10169000312C09E0A02EB12C6091290470912A040C
:1016A000882777FD8095982F0E94EC3727EA32E94A
:1016B0004BE25CEB0E941F390E94F33920E030E0DE
:1016C00040EA50E40E941F3920E030E040E951E454
:1016D0000E941F390E94823920E030E044E352E446
:1016E0000E9484360E94B937712E1EEBC12E1FEF67
:1016F000D12E9B01442737FD4095542F29833A83EF
:101700004B835C83B7EE4B2EB3E05B2E4AEF5FEF6B
:10171000240E351E60912B0470912C04882777FDD0
:101720008095982F0E94EC3725E33AEF4EE85CE372
:101730000E941F390E94F3397B018C01B601882772
:1017400077FD8095982F0E94EC379B01AC01C80172
:10175000B7010E941F397B018C0169817A818B81DD
:101760009C810E94EC379B01AC01C801B7010E942B
:1017700084360E94B9379B01CB0101978A359105C8
:1017800008F071C062E170E00E94653A8B012F5F42
:101790003F4FAEEEBFEF6A9FC0016B9F900D7A9FE7
:1017A000900D1124820F931F62E070E00E94653A51
:1017B0006D837E83E62CE01A4E2D4C5F87EE93E01E
:1017C000672D0E94270400D000D000D0EDB7FEB7EF
:1017D0003196ADB7BEB712965C924E92119720E04B
:1017E00031E0338322838D819E81880D991D9583FD
:1017F00084830E94B32B4DB75EB74A5F5F4F0FB62D
:10180000F8945EBF0FBE4DBF8D819E818A159B05EA
:1018100054F1043011053CF593E0E90EC201672D47
:101820004E2D0E94270400D000D000D0EDB7FEB7A7
:101830003196ADB7BEB712965C924E92119720E0EA
:1018400031E0338322834D815E81420D531D5583E8
:1018500044830E94B32B8DB79EB706960FB6F894BB
:101860009EBF0FBE8DBFACE0B0E0CA0EDB1E73940E
:10187000BEE4CB16D10409F04DCF26960FB6F894EE
:10188000DEBF0FBECDBFCF91DF911F910F91FF90B3
:10189000EF90DF90CF90BF90AF909F908F907F9010
:1018A0006F905F904F903F902F9008956091250426
:1018B00070912604809127049091280420E030E064
:1018C00040EC51E40E941F3920E030E044EB53E447
:1018D0000E9451370E9482390E94B9379B012350E0
:1018E000304037FF03C09B012B5E3F4FABE5B4E0B8
:1018F000F901E856FE4F80818C932F5F3F4F2831CE
:10190000310514F020E030E0119684E0A636B807E7
:1019100079F71092620408950F931F93282F462F92
:1019200087EE93E0622F0E94900387EE93E00E947F
:10193000680480910D04882319F428E231E01AC06C
:10194000823019F42DE231E015C0853019F422E31C
:1019500031E010C027E331E08A3019F42CE331E0A4
:1019600009C08B3019F421E431E004C08F3011F448
:1019700026E431E08DB79EB708970FB6F8949EBF66
:101980000FBE8DBFEDB7FEB7319607EE13E0ADB7D2
:10199000BEB712961C930E9311978BE491E093833C
:1019A00082838FE790E095838483378326830E9428
:1019B000B32B8DB79EB708960FB6F8949EBF0FBE97
:1019C0008DBFC8010E944C041F910F9108950F9381
:1019D0001F93282F462F07EE13E0C801622F0E94A5
:1019E0009003C8010E9468048091570460E00E943F
:1019F000280AC8010E944C041F910F9108950F936B
:101A00001F93282F462F07EE13E0C801622F0E9474
:101A10009003C8010E9468048DB79EB70A970FB65D
:101A2000F8949EBF0FBE8DBFEDB7FEB73196ADB730
:101A3000BEB712961C930E93119780E591E09383A5
:101A4000828383EC90E0958384838BE594E0978395
:101A5000868387E890E0918780870E94B32B8DB7BB
:101A60009EB70A960FB6F8949EBF0FBE8DBFC801F1
:101A70000E944C041F910F9108950F931F93282FDC
:101A8000462F07EE13E0C801622F0E949003C801A1
:101A90000E9468048DB79EB70A970FB6F8949EBF50
:101AA0000FBE8DBFEDB7FEB73196ADB7BEB712967C
:101AB0001C930E93119787E591E093838283809125
:101AC000250490912604A0912704B09128048483D2
:101AD0009583A683B78385E090E0918780870E94F5
:101AE000B32B8DB79EB70A960FB6F8949EBF0FBE64
:101AF0008DBFC8010E944C041F910F9108950F9350
:101B00001F93282F462F07EE13E0C801622F0E9473
:101B10009003C8010E9468048DB79EB740970FB626
:101B2000F8949EBF0FBE8DBFEDB7FEB73196ADB72F
:101B3000BEB712961C930E9311978FE591E0938395
:101B4000828383E090E09583848380910F04909159
:101B50001004A0911104B091120486839783A0878A
:101B6000B18784E090E093878287809113049091FD
:101B70001404A0911504B091160484879587A68754
:101B8000B7870E94B32B8DB79EB740960FB6F894D7
:101B90009EBF0FBE8DBFC8010E944C041F910F91C4
:101BA00008950F931F93282F462F87EE93E0622FFF
:101BB0000E94900387EE93E00E94680490911704BE
:101BC000923011F42FE105C0933011F42FE001C0E1
:101BD00026E880913D04882319F0933009F020E233
:101BE0008DB79EB708970FB6F8949EBF0FBE8DBFF6
:101BF000EDB7FEB7319607EE13E0ADB7BEB712965C
:101C00001C930E93119781E791E093838283248341
:101C1000158280911C04868317820E94B32B8DB796
:101C20009EB708960FB6F8949EBF0FBE8DBFC80131
:101C30000E944C041F910F910895EF92FF920F9311
:101C40001F93282F462F87EE93E0622F0E94900368
:101C500087EE93E00E94680480E680936B04E09036
:101C6000D302F090D4020091D5021091D602C8019F
:101C7000B70120E030E040E85FE30E941439181615
:101C8000ACF460916704709168048091690490914C
:101C90006A04A80197010E944A3788233CF4809186
:101CA0003D04882319F080E280936B048DB79EB7C2
:101CB0000C970FB6F8949EBF0FBE8DBFEDB7FEB761
:101CC000319607EE13E0ADB7BEB712961C930E9394
:101CD000119787E791E09383828380916B04992722
:101CE00087FD909595838483809167049091680423
:101CF000A0916904B0916A0486839783A087B18715
:101D00008DE090E0938782870E94B32B8DB79EB7BA
:101D10000C960FB6F8949EBF0FBE8DBFC8010E94EF
:101D20004C041F910F91FF90EF900895EF92FF9256
:101D30000F931F93282F462F87EE93E0622F0E9468
:101D4000900387EE93E00E9468048CEB809370040C
:101D5000E090D702F090D8020091D9021091DA02F7
:101D6000C801B70120E030E040E85FE30E94143989
:101D70001816ACF460916C0470916D0480916E043F
:101D800090916F04A80197010E944A3788233CF480
:101D900080913D04882319F080E2809370048DB710
:101DA0009EB70C970FB6F8949EBF0FBE8DBFEDB7D0
:101DB000FEB7319607EE13E0ADB7BEB712961C938F
:101DC0000E93119787E791E093838283809170044B
:101DD000992787FD90959583848380916C049091D9
:101DE0006D04A0916E04B0916F0486839783A087E1
:101DF000B1878DE090E0938782870E94B32B8DB7E7
:101E00009EB70C960FB6F8949EBF0FBE8DBFC8014B
:101E10000E944C041F910F91FF90EF9008950F9333
:101E20001F93282F462F07EE13E0C801622F0E9450
:101E30009003C8010E9468048DB79EB70A970FB639
:101E4000F8949EBF0FBE8DBFEDB7FEB73196ADB70C
:101E5000BEB712961C930E93119781E891E093837D
:101E6000828380912B0490912C049583848385E058
:101E700090E09783868386E090E0918780870E9438
:101E8000B32B8DB79EB70A960FB6F8949EBF0FBEC0
:101E90008DBFC8010E944C041F910F9108950F93AC
:101EA0001F93282F462F07EE13E0C801622F0E94D0
:101EB0009003C8010E9468048DB79EB70A970FB6B9
:101EC000F8949EBF0FBE8DBFEDB7FEB73196ADB78C
:101ED000BEB712961C930E93119781E891E09383FD
:101EE00082838091290490912A049583848385E0DC
:101EF00090E09783868387E090E0918780870E94B7
:101F0000B32B8DB79EB70A960FB6F8949EBF0FBE3F
:101F10008DBFC8010E944C041F910F910895EF924C
:101F2000FF920F931F93282F462F17EEE12E13E0F9
:101F3000F12EC701622F0E949003C7010E9468041E
:101F40008DB79EB70C970FB6F8949EBF0FBE8DBF8E
:101F50000DB71EB70F5F1F4FEDB7FEB7F282E182DC
:101F600089E891E0F801938382838BE090E0958388
:101F7000848360915304709154048091550490912E
:101F800056040E94EC372091420430914304409162
:101F90004404509145040E941F39F80166837783F9
:101FA0008087918780914704828713860E94B32B94
:101FB0008DB79EB70C960FB6F8949EBF0FBE8DBF1F
:101FC000C7010E944C041F910F91FF90EF9008955C
:101FD000EF92FF920F931F93282F462F07EEE02ECC
:101FE00003E0F02EC701622F0E949003C7010E94F8
:101FF00068040E948F3428EE33E040E050E00E94F5
:10200000783A8091710490917204A0917304B09118
:102010007404281B390B4A0B5B0BCA01B9010E94DF
:10202000EA376093DB027093DC028093DD029093C9
:10203000DE020E94B9378B019C018DB79EB70C97C9
:102040000FB6F8949EBF0FBE8DBFEDB7FEB73196A9
:10205000ADB7BEB71296FC92EE92119783E991E06C
:102060009383828388E090E095838483C8016CE346
:1020700070E00E94653ACB016CE370E00E94653A23
:10208000978386838AE390E091878087C8016CE319
:1020900070E00E94653A938782870E94B32B8DB7C8
:1020A0009EB70C960FB6F8949EBF0FBE8DBFC701AA
:1020B0000E944C041F910F91FF90EF9008950F9391
:1020C0001F93282F462F07EE13E0C801622F0E94AE
:1020D0009003C8010E9468048DB79EB70C970FB695
:1020E000F8949EBF0FBE8DBFEDB7FEB73196ADB76A
:1020F000BEB712961C930E9311978FE991E09383CC
:10210000828387E190E09583848380917504909128
:102110007604A0917704B091780486839783A08792
:10212000B18781E090E0938782870E94B32B8DB7BF
:102130009EB70C960FB6F8949EBF0FBE8DBFC80118
:102140000E944C041F910F9108950F931F93282F05
:10215000462F07EE13E0C801622F0E949003C801CA
:102160000E9468048DB79EB70A970FB6F8949EBF79
:102170000FBE8DBFEDB7FEB73196ADB7BEB71296A5
:102180001C930E93119789EA91E09383828382E0F6
:1021900090E095838483809132048683178285E260
:1021A00090E0918780870E94B32B8DB79EB70A96E7
:1021B0000FB6F8949EBF0FBE8DBFC8010E944C049D
:1021C0001F910F910895BF92CF92DF92EF92FF92ED
:1021D0000F931F93282F462F87EE93E0622F0E94C4
:1021E000900387EE93E00E9468040E948F34209150
:1021F0008004309181044091820450918304261719
:1022000037074807590708F00BC1D090790410929E
:102210007A04BB24B394D39484E0D81609F479C02B
:102220008D1550F0E2E0DE16E1F0ED1508F444C043
:10223000F1E0DF1661F40DC086E0D81609F496C00F
:10224000D81608F482C0E7E0DE1609F4B0C0DD2439
:10225000CCC080911704823008F0C7C0D0927A04B5
:10226000C4C0C0907B04F1E0CF1609F0BEC06091FD
:1022700021047091220480912304909124042091E0
:102280003E0430913F0440914004509141040E942B
:102290001F397B018C0160917C0470E080E090E04C
:1022A0000E94EA379B01AC01C801B7010E944A377E
:1022B00088230CF09AC02AC0C0907B0481E0C81625
:1022C00009F093C06091210470912204809123044D
:1022D0009091240420913E0430913F0440914004A9
:1022E000509141040E941F397B018C0160917D0453
:1022F00070E080E090E00E94EA379B01AC01C801E9
:10230000B7010E94143918160CF06FC0C0927A04FD
:102310006CC0E090D702F090D8020091D9021091E1
:10232000DA02C801B70120E030E040E85FE30E9434
:10233000143918160CF059C060916C0470916D043A
:1023400080916E0490916F042BC080917E0490E088
:102350002091DF023091E002281739070CF045C0C8
:1023600080917F04882309F040C03DC0E090D302F3
:10237000F090D4020091D5021091D602C801B701A5
:1023800020E030E040E85FE30E94143918166CF555
:1023900060916704709168048091690490916A0467
:1023A000A80197010E944A378823FCF41CC00E94B0
:1023B0008F340E94EA377B018C016091090470918F
:1023C0000A0480910B0490910C0420E030E84BE368
:1023D00055E40E9484369B01AC01C801B7010E94FC
:1023E0001439181614F4B0927A0480917A04882370
:1023F00019F0D092790406C080917904D81609F0BA
:102400000ACF42C00E948F3468577C4E8F4F9F4F37
:10241000609380047093810480938204909383047A
:1024200080913D0427EE33E0882391F000D000D066
:10243000EDB7FEB732832183E0917904F0E0EE0F2F
:10244000FF1FE25EFC4F80819181EDB7FEB708C0AF
:1024500000D000D0EDB7FEB73283218383EB91E04B
:10246000948383830E94B32B0F900F900F900F9053
:1024700087EE93E00E944C041F910F91FF90EF9024
:10248000DF90CF90BF90089510927904BBCFEF9268
:10249000FF920F931F93282F462F97EEE92E93E07C
:1024A000F92EC701622F0E949003C7010E946804A1
:1024B0008DB79EB70C970FB6F8949EBF0FBE8DBF19
:1024C0000DB71EB70F5F1F4FEDB7FEB7F282E18267
:1024D00082EC91E0F8019383828383E190E095831D
:1024E000848360912104709122048091230490914F
:1024F000240420913E0430913F04409140045091C7
:1025000041040E941F39F801668377838087918791
:1025100080914604828713860E94B32B8DB79EB7A5
:102520000C960FB6F8949EBF0FBE8DBFC7010E94D8
:102530004C041F910F91FF90EF900895EF92FF923E
:102540000F931F93282F462F37EEE32E33E0F32E01
:10255000C701622F0E949003C7010E9468048DB7D3
:102560009EB70C970FB6F8949EBF0FBE8DBF0DB7E8
:102570001EB70F5F1F4FEDB7FEB7F282E18282EC0C
:1025800091E0F8019383828384E190E095838483D2
:1025900060911D0470911E0480911F04909120048D
:1025A00020913E0430913F044091400450914104F9
:1025B0000E941F39F8016683778380879187809115
:1025C0004604828713860E94B32B8DB79EB70C9664
:1025D0000FB6F8949EBF0FBE8DBFC7010E944C047A
:1025E0001F910F91FF90EF9008950F931F93282F45
:1025F000462F07EE13E0C801622F0E949003C80126
:102600000E9468048DB79EB70C970FB6F8949EBFD2
:102610000FBE8DBFEDB7FEB73196ADB7BEB7129600
:102620001C930E9311978FE991E09383828385E148
:1026300090E0958384838091340490913504A09137
:102640003604B091370486839783A087B187809141
:102650004D0490914E04938782870E94B32B8DB7CF
:102660009EB70C960FB6F8949EBF0FBE8DBFC801E3
:102670000E944C041F910F910895EF92FF920F93C7
:102680001F93282F462F57EEE52E53E0F52EC70156
:10269000622F0E949003C7010E9468048DB79EB705
:1026A0000C970FB6F8949EBF0FBE8DBF0DB71EB727
:1026B0000F5F1F4FEDB7FEB7F282E18289E891E02C
:1026C000F8019383828381E190E095838483609114
:1026D00018047091190480911A0490911B042091A0
:1026E00042043091430440914404509145040E94B7
:1026F0001F39F8016683778380879187809147042B
:10270000828713860E94B32B8DB79EB70C960FB6A7
:10271000F8949EBF0FBE8DBFC7010E944C041F914D
:102720000F91FF90EF900895EF92FF920F931F93F8
:10273000282F462F67EEE62E63E0F62EC701622FA4
:102740000E949003C7010E9468048DB79EB70C9742
:102750000FB6F8949EBF0FBE8DBF0DB71EB70F5FAB
:102760001F4FEDB7FEB7F282E18287E791E0F801F3
:10277000938382838DEB90E09583848360918404BE
:1027800070918504882777FD8095982F0E94EC37FB
:102790002AE037ED43E25CE30E941F39F8016683CB
:1027A0007783808791878EE090E0938782870E946D
:1027B000B32B8DB79EB70C960FB6F8949EBF0FBE85
:1027C0008DBFC7010E944C041F910F91FF90EF90A5
:1027D0000895CF93DF93282F462FC7EED3E0CE0185
:1027E000622F0E949003CE010E9468040E948F34E1
:1027F00028EE33E040E050E00E94783ACA01B90187
:102800002CE330E040E050E00E94783A62307105FD
:102810008105910548F400D000D0EDB7FEB7D28312
:10282000C1838FE994E008C000D000D0EDB7FEB7B7
:10283000D283C18384EE92E0948383830E94B32B7E
:102840000F900F900F900F9087EE93E00E944C0432
:10285000DF91CF910895CF92DF92EF92FF920F9385
:102860001F93CF93DF93282F462FC7EED3E0CE01DF
:10287000622F0E949003CE010E946804809133046D
:10288000282F30E03093E0022093DF0280917F0414
:10289000882309F059C00091A80410E0201B310BD7
:1028A000B901882777FD8095982F0E94EC376B013E
:1028B0007C016091A90470E0601B710B882777FD93
:1028C0008095982F0E94EC379B01AC01C701B6019F
:1028D0000E94513720E030E048EC52E40E941F395A
:1028E0000E94B9379B017093E0026093DF0289E098
:1028F0008093AA0480917E0490E0281739073CF465
:1029000080913D04882319F080E28093AA048DB75A
:102910009EB708970FB6F8949EBF0FBE8DBFEDB758
:10292000FEB7319687EE93E0ADB7BEB712969C9393
:102930008E9311978CEC91E0938382838091AA040B
:10294000992787FD909515C0ADB7BEB718970FB6FC
:10295000F894BEBF0FBEADBFEDB7FEB7319612966D
:10296000DC93CE93119784ED91E09383828389E089
:1029700090E095838483378326830E94B32B8DB7A1
:102980009EB708960FB6F8949EBF0FBE8DBF87EE18
:1029900093E00E944C04DF91CF911F910F91FF9023
:1029A000EF90DF90CF9008950F931F93282F462F1D
:1029B00087EE93E0622F0E94900387EE93E00E94DF
:1029C000680440918704453029F42091CB0230916E
:1029D000CC0214C0463029F42091CD023091CE02B1
:1029E0000DC0473029F42091CF023091D00206C0AB
:1029F000483021F42091D1023091D2028DB79EB798
:102A00000A970FB6F8949EBF0FBE8DBFEDB7FEB705
:102A1000319607EE13E0ADB7BEB712961C930E9336
:102A200011978AED91E09383828383E490E095830C
:102A30008483842F90E0C096978386833187208794
:102A40000E94B32B8DB79EB70A960FB6F8949EBF1F
:102A50000FBE8DBFC8010E944C041F910F910895B5
:102A60000F931F93282F462F07EE13E0C801622F04
:102A70000E949003C8010E9468044DB75EB74A5097
:102A800050400FB6F8945EBF0FBE4DBFEDB7FEB716
:102A90003196ADB7BEB712961C930E93119782EE86
:102AA00091E0938382838AE090E095838483809190
:102AB000ED0290E02091AB043091AC04AC01429F58
:102AC000C001439F900D529F900D11242091AD04A1
:102AD000820F911D64E670E00E94513A778366830D
:102AE00080914804808711860E94B32B8DB79EB7D2
:102AF0000A960FB6F8949EBF0FBE8DBFC8010E9404
:102B00004C041F910F9108952F923F924F925F9224
:102B10006F927F928F929F92AF92BF92CF92DF92ED
:102B2000EF92FF920F931F9377EE272E73E0372ECD
:102B3000C1016BE045E00E949003C1010E9468045E
:102B40006091DB027091DC028091DD029091DE02E7
:102B50000E94B9376B017C0180904204909043043D
:102B6000A0904404B090450440903E0450903F042F
:102B70006090400470904104F0904704E090460457
:102B80008DB79EB7845490400FB6F8949EBF0FBE89
:102B90008DBF0DB71EB70F5F1F4FEDB7FEB7328267
:102BA00021828AEE91E0F8019383828388E090E0AD
:102BB00095838483C6016CE370E00E94653ACB0183
:102BC0006CE370E00E94653A978386838AE390E025
:102BD00091878087C6016CE370E00E94653A938715
:102BE00082878BE090E095878487C501B4012091AE
:102BF000AE043091AF044091B0045091B1040E94F2
:102C00001F390E94B937F80177876687F08A118AE1
:102C10008FE890E0938B828BC501B4012091B204C0
:102C20003091B3044091B4045091B5040E941F390F
:102C30000E94B937F801758B648BF68A178A83E195
:102C400090E0918F808FC301B2012091B604309142
:102C5000B7044091B8045091B9040E941F390E94F2
:102C6000B937F801738F628FE48E158E84E190E09E
:102C7000978F868FC301B2012091BA043091BB04B3
:102C80004091BC045091BD040E941F390E94B93785
:102C9000F80171A360A3E2A213A282E190E095A3E0
:102CA00084A3C501B4012091BE043091BF044091BA
:102CB000C0045091C1040E941F390E94B937F80125
:102CC00077A366A3F0A611A68DE190E093A782A753
:102CD000C301B2012091C2043091C3044091C404E5
:102CE0005091C5040E941F390E94B937F80175A799
:102CF00064A7E6A617A687E190E091AB80AB809130
:102D0000750490917604A0917704B091780482AB19
:102D100093ABA4ABB5AB81E090E097AB86AB83E01F
:102D200090E091AF80AF80910F0490911004A0913A
:102D30001104B091120482AF93AFA4AFB5AF84E099
:102D400090E097AF86AF005C1F4F80911304909185
:102D50001404A0911504B0911604F80180839183A6
:102D6000A283B3830E94B32B8DB79EB78C5B9F4F1A
:102D70000FB6F8949EBF0FBE8DBFC1010E944C04D8
:102D80001F910F91FF90EF90DF90CF90BF90AF9089
:102D90009F908F907F906F905F904F903F902F907B
:102DA0000895CF92DF92EF92FF920F931F93CF93EC
:102DB000DF93282F462FC7EED3E0CE01622F0E946B
:102DC0009003CE010E9468046091B2047091B30434
:102DD0008091B4049091B504209142043091430451
:102DE00040914404509145040E941F396B017C01BD
:102DF00020E030E04AE754E40E9414391816CCF57C
:102E00008DB79EB70C970FB6F8949EBF0FBE8DBFBF
:102E10000DB71EB70F5F1F4FADB7BEB71296DC934D
:102E2000CE93119782E492E0F801938382838FE836
:102E300090E09583848360914B0470914C0480E012
:102E400090E00E94EA379B01AC01C701B6010E94E5
:102E50005137D80116966D937D938D939C93199756
:102E60008091490490914A041B969C938E931A97E3
:102E700021C08DB79EB70C970FB6F8949EBF0FBEBA
:102E80008DBFEDB7FEB73196ADB7BEB71296DC93E6
:102E9000CE93119789E891E0938382838FE890E045
:102EA00095838483C682D782E086F1868091470429
:102EB000828713860E94B32BEDB7FEB73C960FB600
:102EC000F894FEBF0FBEEDBF87EE93E00E944C0466
:102ED000DF91CF911F910F91FF90EF90DF90CF90F6
:102EE00008950F931F93CF93DF93282F462FC7EE9C
:102EF000D3E0CE01622F0E949003CE010E946804AD
:102F000090910D04953029F09B3019F09F3009F015
:102F10004DC086EB80935A04953019F487EB80936B
:102F20005A048DB79EB70E970FB6F8949EBF0FBE8A
:102F30008DBF0DB71EB70F5F1F4F87EE93E0EDB744
:102F4000FEB7928381838CE492E0F80193838283BD
:102F500080915A048483158280913104868317827C
:102F600060912F047091300480E090E00E94EA3775
:102F7000209142043091430440914404509145040F
:102F80000E941F39F801608771878287938780913B
:102F90004704848715860E94B32B8DB79EB70E9683
:102FA0000FB6F8949EBF0FBE8DBF10C000D000D0EA
:102FB000EDB7FEB7D283C18386ED90E0948383831F
:102FC0000E94A22B0F900F900F900F9087EE93E02E
:102FD0000E944C04DF91CF911F910F910895CF92E1
:102FE000DF92EF92FF920F931F937C01D62EC72E94
:102FF00007EE13E0C8016E2D4D2D0E949003C8010D
:103000000E94680400D000D0EDB7FEB712830183A0
:1030100083EE90E0948383830E94A22B0F900F9005
:103020000F900F90C8010E944C04C70101966D2DAE
:103030007C2D0E94DC0A1F910F91FF90EF90DF9092
:10304000CF9008950F931F9307EE13E0C80165E03A
:1030500045E00E949003C8010E94680400D000D09F
:10306000EDB7FEB7128301838BE291E094838383F3
:103070000E94A22B0F900F900F900F90C8010E94FA
:103080004C041F910F9108950E9422180E945F081E
:103090000895EF92FF920F931F938091860480937F
:1030A0009E0480917A04813009F499C0809187044C
:1030B000843009F05AC080918804813009F0C8C07A
:1030C00080918904882341F589E894E00E94643264
:1030D000892B11F16091530470915404809155042F
:1030E000909156040E94EC372091180430911904F5
:1030F00040911A0450911B040E9451370E94B93725
:103100006093960470939704809398049093990425
:1031100089E894E00E946E320E948F3420919A04D4
:1031200030919B0440919C0450919D042C503E4F43
:103130004F4F5F4F261737074807590708F088C0D9
:103140008091C9029091CA02A0E0B0E0209196045B
:1031500030919704409198045091990482179307F5
:10316000A407B5070CF043C03AC0853029F480911C
:10317000CB029091CC0214C0863029F48091CD020C
:103180009091CE020DC0873029F48091CF029091AA
:10319000D00206C0883041F48091D1029091D202D1
:1031A0009093E2028093E1028091E1029091E20229
:1031B000805293408957954030F088EE93E0909389
:1031C000E2028093E102809191042091E10230912A
:1031D000E202882381F484E0203B380718F410923F
:1031E0009E0436C02950374010F082E001C081E0D3
:1031F00080939E042DC0215B344050F1E0909204F6
:10320000F0909304009194041091950488EE93E05B
:10321000A0E0B0E0E80EF91E0A1F1B1F0E948F34C9
:10322000E616F7060807190798F4809186048F5F61
:1032300080939E04833010F010929E040E948F347D
:1032400060939204709393048093940490939504F4
:1032500090919E0480918604891779F081E0809393
:10326000E302909386040E948F3460939A047093D3
:103270009B0480939C0490939D041F910F91FF9059
:10328000EF9008950F931F9380917B04882309F09A
:10329000B8C28091C6049091C704A091C804B091AF
:1032A000C9040097A105B10509F4ABC20E948F348F
:1032B0002091C6043091C7044091C8045091C904BC
:1032C000621B730B840B950B6958734180409040CF
:1032D00008F497C28091E302882321F487EE93E0FB
:1032E0000E94B5040E94841592C28093CA04109271
:1032F000860481E08093E30280918604A82FB0E0E9
:10330000FD01E25BFC4F808180FF0BC0FD01E455B5
:10331000FC4F6081A655BC4F8C9190E070E00E94FC
:10332000E3108091E302882331F087EE93E00E945E
:10333000B5041092E30280918704843010F00E945B
:10334000491880918604823009F42BC2A82FB0E07E
:10335000FD01E85BFC4F808181FF0BC0FD01EC5A51
:10336000FC4F6081AE5ABC4F8C9190E070E00E949F
:103370004F0F80918604A82FB0E0FD01E85BFC4F61
:10338000808182FF0BC0FD01E85AFC4F6081AA5A80
:10339000BC4F8C9190E070E00E940F0F80918604EA
:1033A000A82FB0E0FD01E85BFC4F808183FF0BC0DC
:1033B000FD01E45AFC4F6081A65ABC4F8C9190E00D
:1033C00070E00E94960E80918604A82FB0E0FD0167
:1033D000E85BFC4F808180FF0BC0FD01E05AFC4F91
:1033E0006081A25ABC4F8C9190E070E00E941D0E4B
:1033F00080918604A82FB0E0FD01E85BFC4F80813E
:1034000085FF0BC0FD01EC59FC4F6081AE59BC4FEC
:103410008C9190E070E00E94D10D80918604A82FDD
:10342000B0E0FD01E85BFC4F808187FF0BC0FD0130
:10343000E459FC4F6081A659BC4F8C9190E070E03C
:103440000E947F0D80918604A82FB0E0FD01E85B0B
:10345000FC4F808184FF0BC0FD01E059FC4F60816F
:10346000A259BC4F8C9190E070E00E945F10809157
:103470008604A82FB0E0FD01E65BFC4F808180FF51
:103480000BC0FD01EC58FC4F6081AE58BC4F8C91D5
:1034900090E070E00E94FF0C80918604A82FB0E0BD
:1034A000FD01E65BFC4F808181FF0BC0FD01E85808
:1034B000FC4F6081AA58BC4F8C9190E070E00E9454
:1034C0003D0D80918804813051F580918604A82FAC
:1034D000B0E0FD01E65BFC4F808184FF0BC0FD0185
:1034E000E058FC4F6081A258BC4F8C9190E070E096
:1034F0000E948F0F80918604A82FB0E0FD01E65B4B
:10350000FC4F808183FF0BC0FD01E458FC4F6081BC
:10351000A658BC4F8C9190E070E00E94E70C80911F
:103520008604A82FB0E0FD01E65BFC4F808187FF99
:103530000BC0FD01E457FC4F6081A657BC4F8C9136
:1035400090E070E00E94E80F80918604A82FB0E020
:10355000FD01E65BFC4F808186FF0BC0FD01E85753
:10356000FC4F6081AA57BC4F8C9190E070E00E94A4
:10357000711780918804813009F03FC080918604E2
:10358000A82FB0E0FD01E45BFC4F808182FF0BC0FF
:10359000FD01EC56FC4F6081AE56BC4F8C9190E023
:1035A00070E00E943D1380918604A82FB0E0FD01D9
:1035B000E45BFC4F808183FF0BC0FD01E856FC4FAC
:1035C0006081AA56BC4F8C9190E070E00E949E12E0
:1035D00080918604A82FB0E0FD01E45BFC4F808160
:1035E00081FF0BC0FD01E456FC4F6081A656BC4F25
:1035F0008C9190E070E00E94471280918604A82F81
:10360000B0E0FD01E45BFC4F808184FF0BC0FD0155
:10361000E056FC4F6081A256BC4F8C9190E070E068
:103620000E94A51080918604A82FB0E0FD01E45B04
:10363000FC4F808185FF0BC0FD01EC55FC4F608184
:10364000AE55BC4F8C9190E070E00E948C0C809144
:103650008604A82FB0E0FD01E45BFC4F808186FF6B
:103660000BC0FD01E855FC4F6081AA55BC4F8C9101
:1036700090E070E00E94EF1780918604A82FB0E0E0
:10368000FD01E45BFC4F808180FF0BC0FD01E05732
:10369000FC4F6081A257BC4F8C9190E070E00E947B
:1036A000941380918604A82FB0E0FD01E25BFC4FEB
:1036B000808183FF0BC0FD01EC54FC4F6081AE5450
:1036C000BC4F8C9190E070E00E94F51280918604CE
:1036D000A82FB0E0FD01E25BFC4F808186FF0BC0AC
:1036E000FD01E854FC4F6081AA54BC4F8C9190E0DE
:1036F00070E00E942B1480918604A82FB0E0FD0199
:10370000E25BFC4F808185FF0BC0FD01E454FC4F60
:103710006081A654BC4F8C9190E070E00E94E91348
:1037200080918604A82FB0E0FD01E05BFC4F808112
:1037300081FF0BC0FD01EC53FC4F6081AE53BC4FC9
:103740008C9190E070E00E94301580918604A82F43
:10375000B0E0FD01E05BFC4F808180FF0BC0FD010C
:10376000E054FC4F6081A254BC4F8C9190E070E01B
:103770000E94D41480918604A82FB0E0FD01E05B84
:10378000FC4F808182FF0BC0FD01E853FC4F60813C
:10379000AA53BC4F8C9190E070E00E94D1160E9419
:1037A00046068091CA04882391F107EE13E0C80110
:1037B0006DE045E00E949003C8010E94680400D0BB
:1037C00000D000D0EDB7FEB73196ADB7BEB71296B8
:1037D0001C930E9311978CE592E0938382838091E2
:1037E000CA04848315820E94B32B8DB79EB70696B8
:1037F0000FB6F8949EBF0FBE8DBFC8010E944C0447
:1038000006C080918604833008F06FCD75CD1F917E
:103810000F910895CF93DF93EC0187EE93E00E9420
:103820008C03C817D9073CF087EE93E00E94810310
:10383000892B09F42397CE01DF91CF9108958F92C0
:103840009F92AF92BF92CF92DF92EF92FF920F932F
:103850001F93CF93DF930091860410E08AEF90E0EE
:10386000089F7001099FF00C189FF00C1124C701EC
:1038700088569F4F0E94220AF801E85BFC4F88237C
:1038800019F08081806102C080818F7E8083809169
:103890008604C82FD0E0C70186569F4F0E94220A97
:1038A000C259DC4F888380918604C82FD0E0C701BD
:1038B00084569F4F0E94220A90E00E940A1CC05921
:1038C000DC4F88830091860410E0C70106960E94B1
:1038D000220AF801E85BFC4F882319F0808182609E
:1038E00002C080818D7F808380918604C82FD0E0C4
:1038F000C70108960E94220ACE5ADC4F8883809125
:103900008604C82FD0E0C7010A960E94220A90E0E0
:103910000E940A1CCC5ADC4F88830091860410E078
:10392000C7010C960E94220AF801E85BFC4F88232D
:1039300019F08081846002C080818B7F80838091B8
:103940008604C82FD0E0C7010E960E94220ACA5AE8
:10395000DC4F888380918604C82FD0E0C701409651
:103960000E94220A90E00E940A1CC85ADC4F8883F9
:103970000091860410E0C70142960E94220AF801D5
:10398000E85BFC4F882319F08081886002C0808149
:10399000877F808380918604C82FD0E0C70144963A
:1039A0000E94220AC65ADC4F888380918604C82F61
:1039B000D0E0C70146960E94220A90E00E940A1CAD
:1039C000C45ADC4F88830091860410E0C7014896F2
:1039D0000E94220AF801E85BFC4F882319F08081DD
:1039E000816002C080818E7F808380918604C82F91
:1039F000D0E0C7014A960E94220AC25ADC4F88834F
:103A000080918604C82FD0E0C7014C960E94220AFC
:103A100090E00E940A1CC05ADC4F88830091860403
:103A200010E0C7014E960E94220AF801E85BFC4FA5
:103A3000882319F08081806202C080818F7D80831D
:103A400080918604C82FD0E0C70180960E94220A88
:103A5000CE59DC4F888380918604C82FD0E0C701FF
:103A600082960E94220A90E00E940A1CCC59DC4FE8
:103A700088830091860410E0C70184960E94220A80
:103A8000F801E85BFC4F882319F08081806402C054
:103A900080818F7B808380918604C82FD0E0C7010E
:103AA00086960E94220ACA59DC4F88838091860438
:103AB000C82FD0E0C70188960E94220A90E00E9499
:103AC0000A1CC859DC4F88830091860410E0C701A6
:103AD0008A960E94220AF801E85BFC4F882319F0BD
:103AE0008081806802C080818F7780838091860486
:103AF000C82FD0E0C7018C960E94220AC659DC4F1D
:103B0000888380918604C82FD0E0C7018E960E94DA
:103B1000220A90E00E940A1CC459DC4F888300915D
:103B2000860410E0C701C0960E94220AF801E65BF5
:103B3000FC4F882319F08081816002C080818E7FD4
:103B4000808380918604C82FD0E0C701C2960E946E
:103B5000220ACE58DC4F888380918604C82FD0E09B
:103B6000C701C4960E94220A90E00E940A1CCC5809
:103B7000DC4F88830091860410E0C701C6960E943E
:103B8000220AF801E65BFC4F882319F080818260ED
:103B900002C080818D7F808380918604C82FD0E011
:103BA000C701C8960E94220ACA58DC4F88838091B8
:103BB0008604C82FD0E0C701CA960E94220A90E06E
:103BC0000E940A1CC858DC4F88830091860410E0CC
:103BD000C701885B9F4F0E94220AF801E65BFC4FF9
:103BE000882319F08081806102C080818F7E80836C
:103BF00080918604C82FD0E0C701865B9F4F0E944A
:103C0000220AC258DC4F888380918604C82FD0E0F6
:103C1000C701845B9F4F0E94220A90E00E940A1C09
:103C2000C058DC4F88830091860410E0C7018E5B8A
:103C30009F4F0E94220AF801E65BFC4F882319F08F
:103C40008081886002C08081877F80838091860424
:103C5000C82FD0E0C7018C5B9F4F0E94220AC65834
:103C6000DC4F888380918604C82FD0E0C7018A5B2F
:103C70009F4F0E94220A90E00E940A1CC458DC4F09
:103C800088830091860410E0C701805B9F4F0E94EB
:103C9000220AF801E65BFC4F882319F080818062DC
:103CA00002C080818F7D808380918604C82FD0E000
:103CB000C7018E5A9F4F0E94220ACE57DC4F88833D
:103CC00080918604C82FD0E0C7018C5A9F4F0E9474
:103CD000220A90E00E940A1CCC57DC4F8883009196
:103CE000860410E0C7018A5A9F4F0E94220AF801F9
:103CF000E65BFC4F882319F08081806402C08081DC
:103D00008F7B808380918604C82FD0E0C701885ABA
:103D10009F4F0E94220ACA57DC4F888380918604F5
:103D2000C82FD0E0C701865A9F4F0E94220A90E018
:103D30000E940A1CC857DC4F88830091860410E05B
:103D4000C70182569F4F0E94220AF801E65BFC4F92
:103D5000882319F08081806802C080818F778083FA
:103D600080918604C82FD0E0C70180569F4F0E94E3
:103D7000220AC657DC4F888380918604C82FD0E082
:103D8000C7018E559F4F0E94220A90E00E940A1C94
:103D9000C457DC4F88830091860410E0ACE58A2E7E
:103DA000912C8E0C9F1CC4010E94220AF801E65B34
:103DB000FC4F882319F08081806402C080818F7B52
:103DC000808380918604C82FD0E0FEE5AF2EB12C11
:103DD000AE0CBF1CC5010E94220ACA54DC4F888366
:103DE00080918604C82FD0E0E0E6CE2ED12CCE0CF8
:103DF000DF1CC6010E94220A90E00E940A1CC854DF
:103E0000DC4F88830091860410E0C7018E599F4FD4
:103E10000E94220AF801E45BFC4F882319F080819C
:103E2000816002C080818E7F808380918604C82F4C
:103E3000D0E0C7018C599F4F0E94220AC257DC4F25
:103E4000888380918604C82FD0E0C7018A599F4F8C
:103E50000E94220A90E00E940A1CC057DC4F88830F
:103E60000091860410E0C70182599F4F0E94220AE8
:103E7000F801E45BFC4F882319F08081846002C064
:103E800080818B7F808380918604C82FD0E0C7011A
:103E900080599F4F0E94220ACE56DC4F8883809122
:103EA0008604C82FD0E0C7018E589F4F0E94220A77
:103EB00090E00E940A1CCC56DC4F88830091860457
:103EC00010E0C7018E569F4F0E94220AF801E45B62
:103ED000FC4F882319F08081826002C080818D7F31
:103EE000808380918604C82FD0E0C7018C569F4FF5
:103EF0000E94220AC656DC4F888380918604C82F10
:103F0000D0E0C7018A569F4F0E94220A90E00E948B
:103F10000A1CC456DC4F88830091860410E0C70158
:103F20008C589F4F0E94220AF801E45BFC4F8823C3
:103F300019F08081886002C08081877F80838091B2
:103F40008604C82FD0E0C7018A589F4F0E94220ADA
:103F5000CA56DC4F888380918604C82FD0E0C70101
:103F600088589F4F0E94220A90E00E940A1CC8565F
:103F7000DC4F88830091860410E0C70186589F4F6C
:103F80000E94220AF801E45BFC4F882319F080812B
:103F9000806102C080818F7E808380918604C82FDB
:103FA000D0E0C70184589F4F0E94220AC256DC4FBE
:103FB000888380918604C82FD0E0C70182589F4F24
:103FC0000E94220A90E00E940A1CC056DC4F88839F
:103FD0000091860410E0C70180589F4F0E94220A7A
:103FE000F801E45BFC4F882319F08081806202C0F5
:103FF00080818F7D808380918604C82FD0E0C701A7
:104000008E579F4F0E94220ACE55DC4F88838091A5
:104010008604C82FD0E0C7018C579F4F0E94220A08
:1040200090E00E940A1CCC55DC4F888300918604E6
:1040300010E0C7018A579F4F0E94220AF801E45BF3
:10404000FC4F882319F08081806402C080818F7BBF
:10405000808380918604C82FD0E0C70188579F4F86
:104060000E94220ACA55DC4F888380918604C82F9B
:10407000D0E0C70186579F4F0E94220A90E00E941D
:104080000A1CC855DC4F88830091860410E0C701E4
:104090008C559F4F0E94220AF801E25BFC4F882357
:1040A00019F08081816002C080818E7F8083809141
:1040B0008604C82FD0E0C7018A559F4F0E94220A6C
:1040C000C655DC4F888380918604C82FD0E0C70195
:1040D00088559F4F0E94220A90E00E940A1CC455F6
:1040E000DC4F88830091860410E0C70180559F4F04
:1040F0000E94220AF801E25BFC4F882319F08081BC
:10410000846002C080818B7F808380918604C82F69
:10411000D0E0C7018E549F4F0E94220AC255DC4F47
:10412000888380918604C82FD0E0C7018C549F4FAC
:104130000E94220A90E00E940A1CC055DC4F88832E
:104140000091860410E0C7018A549F4F0E94220A02
:10415000F801E25BFC4F882319F08081886002C07F
:104160008081877F808380918604C82FD0E0C7013B
:1041700088549F4F0E94220ACE54DC4F888380913E
:104180008604C82FD0E0C70186549F4F0E94220AA0
:1041900090E00E940A1CCC54DC4F88830091860476
:1041A00010E0C4010E94220AF801E25BFC4F882360
:1041B00019F08081806402C080818F7B8083809130
:1041C0008604C82FD0E0C5010E94220ACA54DC4FE1
:1041D000888380918604C82FD0E0C6010E94220AFD
:1041E00090E00E940A1CC854DC4F8883009186042A
:1041F00010E0C70188539F4F0E94220AF801E25B3A
:10420000FC4F882319F08081806202C080818F7DFD
:10421000808380918604C82FD0E0C70186539F4FCA
:104220000E94220AC654DC4F888380918604C82FDE
:10423000D0E0C70184539F4F0E94220A90E00E9461
:104240000A1CC454DC4F88830091860410E0C70127
:1042500082539F4F0E94220AF801E05BFC4F8823A3
:1042600019F08081816002C080818E7F808380917F
:104270008604C82FD0E0C70180539F4F0E94220AB6
:10428000C254DC4F888380918604C82FD0E0C701D8
:104290008E529F4F0E94220A90E00E940A1CC05436
:1042A000DC4F88830091860410E0C7018C529F4F39
:1042B0000E94220AF801E05BFC4F882319F08081FC
:1042C000826002C080818D7F808380918604C82FA8
:1042D000D0E0C7018A529F4F0E94220ACE53DC4F82
:1042E000888380918604C82FD0E0C70188529F4FF1
:1042F0000E94220A90E00E940A1CCC53DC4F888363
:104300000091860410E0C70180529F4F0E94220A4C
:10431000F801E05BFC4F882319F08081846002C0C3
:1043200080818B7F808380918604C82FD0E0C70175
:104330008E519F4F0E94220ACA53DC4F888380917E
:104340008604C82FD0E0C7018C519F4F0E94220ADB
:1043500090E00E940A1CC853DC4F8883DF91CF9104
:104360001F910F91FF90EF90DF90CF90BF90AF9093
:104370009F908F900895482F8EE895E00E947932A3
:104380000895CF93DF93909186048AEF989FE00180
:1043900011241092D0041092CF040EC06C0F7D1F18
:1043A00080E00E94BB218091CF049091D0040196BF
:1043B0009093D0048093CF046091CF047091D00487
:1043C000653E71055CF3BE016A5F7F4F81E00E942C
:1043D000BB21BE01685F7F4F87E10E94BB21BE0108
:1043E000665F7F4F8BE00E94BB21BE01645F7F4F01
:1043F00081E00E94BB21BE01625F7F4F8CE00E9482
:10440000BB21BE01605F7F4F81E00E94BB21BE01E6
:104410006E5E7F4F81E00E94BB21BE016C5E7F4FCC
:104420008EE00E94BB21BE016A5E7F4F8EE00E943B
:10443000BB21BE01685E7F4F81E00E94BB21BE01AF
:10444000665E7F4F85E10E94BB21BE01645E7F4FA7
:1044500083E00E94BB21BE01625E7F4F81E00E942B
:10446000BB21BE01605E7F4F81E00E94BB21BE0187
:104470006E5D7F4F8BE00E94BB21BE016C5D7F4F64
:1044800081E00E94BB21BE016A5D7F4F85E00E94F2
:10449000BB21BE01685D7F4F8BE00E94BB21BE0146
:1044A000665D7F4F81E00E94BB21BE01645D7F4F4E
:1044B00081E00E94BB21BE01625D7F4F8EE00E94C1
:1044C000BB21BE01605D7F4F81E00E94BB21BE0128
:1044D0006E5C7F4F85E10E94BB21BE016C5C7F4F0B
:1044E0008FE00E94BB21BE016A5C7F4F81E00E9489
:1044F000BB21BE01685C7F4F88E10E94BB21BE01E9
:10450000665C7F4F8EE00E94BB21BE016E5B7F4FD9
:1045100081E00E94BB21BE016C5B7F4F8EE00E9458
:10452000BB21BE016A5B7F4F83E00E94BB21BE01BD
:10453000685B7F4F81E00E94BB21BE01665B7F4FBD
:1045400086E10E94BB21BE01645B7F4F81E00E9437
:10455000BB2180E060E570E00E94BB218BE162E559
:1045600070E00E94BB218CE064E570E00E94BB21FA
:1045700080E066E570E00E94BB2189E068E570E0BC
:104580000E94BB218EE06AE570E00E94BB21BE0163
:10459000645A7F4F81E00E94BB21BE01625A7F4F67
:1045A00088E00E94BB21BE01605A7F4F8DE00E94CF
:1045B000BB21BE016E597F4F81E00E94BB21BE012D
:1045C0006C597F4F8EE00E94BB21BE016A597F4F1C
:1045D0008FE00E94BB21BE0162597F4F81E00E94A3
:1045E000BB21BE0160597F4F86E10E94BB21BE0105
:1045F0006E587F4F83E00E94BB21BE016C587F4FF5
:1046000081E00E94BB21BE016A587F4F81E00E9479
:10461000BB21BE0168587F4F82E00E94BB21BE01D2
:104620006E567F4F81E00E94BB21BE016C567F4FCA
:1046300081E00E94BB21BE016A567F4F81E00E944B
:10464000BB21BE0168567F4F81E00E94BB21BE01A5
:1046500066567F4F81E00E94BB21BE0164567F4FAA
:1046600084E00E94BB21BE0162567F4F81E00E9420
:10467000BB21BE0160567F4F87E10E94BB21BE0176
:104680006E557F4F8DE00E94BB21BE0166587F4F63
:1046900081E00E94BB21BE0164587F4F81E00E94EF
:1046A000BB21BE0162587F4F83E00E94BB21BE0147
:1046B00060587F4F81E00E94BB21BE016E577F4F43
:1046C00081E00E94BB21BE016C577F4F8DE00E94AC
:1046D000BB21BE016A577F4F81E00E94BB21BE0112
:1046E00068577F4F88E00E94BB21BE0166577F4F0D
:1046F00086E00E94BB21BE016C557F4F81E00E9485
:10470000BB21BE016A557F4F89E00E94BB21BE01DB
:1047100068557F4F84E00E94BB21BE0160557F4FEA
:1047200080E00E94BB21BE016E547F4F88E10E9451
:10473000BB21BE016C547F4F87E00E94BB21BE01AC
:104740006A547F4F81E00E94BB21BE0168547F4FB5
:1047500081E00E94BB21BE0166547F4F88E00E9429
:10476000BB21BE0162537F4F80E00E94BB21BE018E
:1047700060537F4F8AE00E94BB21BE016E527F4F83
:1047800084E00E94BB21BE016C527F4F80E00E94FA
:10479000BB21BE016A527F4F86E10E94BB21BE0150
:1047A00068527F4F8EE00E94BB21BE0160527F4F56
:1047B00080E00E94BB21BE016E517F4F86E10E94C6
:1047C000BB21BE016C517F4F82E00E94BB218EE174
:1047D0006CE773E00E94BB2180E06EE773E00E940B
:1047E000BB2184E660E873E00E94BB2184E662E8B6
:1047F00073E00E94BB2186E06AE873E00E94BB215F
:1048000081E064EA73E00E94BB2181E065EA73E025
:104810000E94BB2181E06AEA73E00E94BB2181E033
:104820006BEA73E00E94BB2181E066EA73E00E94BC
:10483000BB2181E068EA73E00E94BB2180E06CEA62
:1048400073E00E94BB2181E06EEA73E00E94BB210D
:1048500080E060EB73E00E94BB218AE062EB73E0D2
:104860000E94BB21DF91CF9108950F931F938AE29D
:1048700068EE73E00E94BB2186E26EEE73E00E9458
:10488000BB211092860407C00E94C121809186043A
:104890008F5F80938604809186048230A8F307EEB0
:1048A00013E0C80164E049E00E949003C8010E943F
:1048B000680400D000D0EDB7FEB71283018382E513
:1048C00091E0948383830E94A22B0F900F900F900E
:1048D0000F90C8010E944C04FFCF4F925F927F92CD
:1048E0008F929F92AF92BF92CF92DF92EF92FF9200
:1048F0000F931F93DF93CF93CDB7DEB7C854D0404B
:104900000FB6F894DEBF0FBECDBF87EE93E00E94D6
:10491000B50400D000D00AEC13E0EDB7FEB7128367
:10492000018385E791E0948383830E94A22B4AE66A
:10493000442E41E0542EEE24FF24CC24DD240F909D
:104940000F900F900F90702E012F39E0A32EB12CF5
:10495000AC0EBD1E4E010894811C911C8AEC93E0A4
:104960000E94562C982F8D3031F08D30DCF1805321
:104970008230C0F530C01830A1F59981892F80535D
:10498000823078F5913311F490E801C090E08A818B
:10499000813309F4905C8B81813309F4905E8C81C2
:1049A000813309F4905F8D81813309F4985F8E81A2
:1049B000813309F49C5F8F81813309F49E5F888580
:1049C000813309F49F5FF501EE0DFF1D908308947C
:1049D000E11CF11C06C0F401E10FF11D90831F5F83
:1049E00001C010E0F0E4EF16F104C9F487EE93E0A3
:1049F000B601A5010E94A0030894C11CD11C00D0DF
:104A000000D0EDB7FEB771820283548243820E94C8
:104A1000A22BEE24FF240F900F900F900F90FFEF2A
:104A2000CF16D10409F00CF499CFC85BDF4F0FB655
:104A3000F894DEBF0FBECDBFCF91DF911F910F91D4
:104A4000FF90EF90DF90CF90BF90AF909F908F90AE
:104A50007F905F904F900895EF92FF920F931F9376
:104A6000DF93CF93CDB7DEB766970FB6F894DEBF6E
:104A70000FBECDBF7E010894E11CF11C01E02BC1EB
:104A80008AEC93E00E94562C182F8091060488230C
:104A900001F50E948F3460527E4480409040C8F4FB
:104AA0000E948F34695873418040904090F01A30D2
:104AB00011F01D3031F4809107048F5F809307045B
:104AC00002C01092070480910704833011F40E9401
:104AD0006D24812FB7010E94922A882309F4FBC01C
:104AE00000930604009308040E948F340E94EA3762
:104AF0006093090470930A0480930B0490930C0450
:104B000089819A818330910509F493C0843091059D
:104B100054F481309105C9F0823091050CF07CC0CD
:104B2000892B69F0D8C08630910509F4B8C0873068
:104B3000910509F4C5C0049709F0CDC08AC08B81E6
:104B400080930D0410920E04C6C06B817C818D8110
:104B50009E810E94EC3720E836E948E15BE40E9440
:104B6000513760930F047093100480931104909355
:104B700012046F81788589859A850E94EC3720E838
:104B800036E948E15BE40E94513760931304709367
:104B9000140480931504909316048F858093170452
:104BA0006B857C858D859E850E94EC37609318040B
:104BB0007093190480931A0490931B04888980933E
:104BC0001C0469897A8980E090E00E94EA3760934A
:104BD0001D0470931E0480931F04909320046B891E
:104BE0007C8980E090E00E94EA3760932104709312
:104BF000220480932304909324046D897E8980E0AD
:104C000090E00E94EA376093250470932604809315
:104C10002704909328045FC08B819C8190932A0481
:104C2000809329048D819E8190932C0480932B0482
:104C300052C08B819C8190932E0480932D048D8192
:104C40009E819093300480932F0489858093310452
:104C500042C08B819C81885E93406AE070E00E9434
:104C6000513A609332048D819E819093CC0280935F
:104C7000CB028F8198859093CE028093CD02898557
:104C80009A859093D0028093CF028B859C859093D8
:104C9000D2028093D1028B89809333041CC06B8134
:104CA0007C81882777FD8095982F0E94EC37609350
:104CB00034047093350480933604909337040BC00A
:104CC00064EF71E080E090E00E949D34E091040484
:104CD000F091050409958AEC93E00E94262C1816A1
:104CE00019060CF4CDCE66960FB6F894DEBF0FBE53
:104CF000CDBFCF91DF911F910F91FF90EF9008955D
:104D0000EF92FF920F931F93E090D104F090D204A2
:104D10000091D3041091D4048FE590E0A0E0B0E0BE
:104D2000E80EF91E0A1F1B1F0E948F346E157F05A7
:104D30008007910708F441C10E948F340E948F348C
:104D40006093D1047093D2048093D3049093D404DD
:104D500087E00E943435AA2797FDA095BA2FBC01A1
:104D6000CD010E94EC3720E030E849E85FE30E9483
:104D70001F392091EE023091EF024091F0025091E4
:104D8000F1020E9451372DEC3CEC4CE45EE30E94B2
:104D90001F397B018C016091FA027091FB028091B6
:104DA000FC029091FD022DEC3CEC4CE45FE30E9490
:104DB0001F399B01AC01C801B7010E948436DC0198
:104DC0009B01AC012093FA023093FB024093FC025A
:104DD0005093FD02CB0180936C0490936D04A093DB
:104DE0006E04B0936F0486E00E943435AA2797FDC5
:104DF000A095BA2FBC01CD010E94EC3720E030E82D
:104E000049E85FE30E941F392091F2023091F302DA
:104E10004091F4025091F5020E9451372DEC3CEC88
:104E20004CE45EE30E941F397B018C016091FE021D
:104E30007091FF0280910003909101032DEC3CECF6
:104E40004CE45FE30E941F399B01AC01C801B7012C
:104E50000E948436DC019B01AC012093FE0230935A
:104E6000FF024093000350930103CB01809367043A
:104E700090936804A0936904B0936A0481E00E944F
:104E80003435AA2797FDA095BA2FBC01CD010E9409
:104E9000EC372DEC3CEC4CEC5DE30E941F397B01C0
:104EA0008C016091AB047091AC0480E090E00E94B2
:104EB000EA3726E636E646E65FE30E941F399B01A5
:104EC000AC01C801B7010E9484360E94BE377093BE
:104ED000AC046093AB046091F6027091F70280918C
:104EE000F8029091F90220E030E040E050E00E94AA
:104EF000143918160CF061C082E00E943435AA27DC
:104F000097FDA095BA2FBC01CD010E94EC3720E09F
:104F100030E849E85FE30E941F397B018C01609112
:104F2000CB047091CC048091CD049091CE0420E00C
:104F300030E040E251EC0E9451379B01AC01C801C6
:104F4000B7010E9484362091F6023091F702409119
:104F5000F8025091F9020E9451372DEC3CEC4CECD8
:104F60005DE30E941F397B018C016091D504709133
:104F7000D6048091D7049091D80426E636E646E61A
:104F80005FE30E941F399B01AC01C801B7010E9479
:104F900084366093D5047093D6048093D70490939D
:104FA000D80420E030E048EC52E40E941F390E940F
:104FB000B93770938504609384041F910F91FF901B
:104FC000EF90089583E00E9431356091D70270918F
:104FD000D8028091D9029091DA022DEC3CEC4CE899
:104FE0005FE30E941F396093FA027093FB02809383
:104FF000FC029093FD026091D3027091D4028091E3
:10500000D5029091D6022DEC3CEC4CE85FE30E9477
:105010001F396093FE027093FF0280930003909308
:10502000010381E00E9434359093AC048093AB047B
:10503000089586E061E00E94953508950E942C2530
:1050400089EF93E00E94D33208950F931F93CF937B
:10505000DF9386E061E00E9456358AEC93E040E001
:1050600051EE60E070E00E94C42B0E941928C7EE48
:10507000D3E0CE010E9434050E94441864EF71E031
:1050800080E090E00E949D3488EE93E00E94220A26
:10509000082F8EEE93E00E94220A10E0080F111DE7
:1050A00000351105E9F0CE0166E049E00E94900369
:1050B000CE010E94680400D000D0EDB7FEB7D283C5
:1050C000C18385E891E0948383830E94A22B0F9093
:1050D0000F900F900F90CE010E944C040E94352437
:1050E0000E94EB081092860407C00E941F1C80914A
:1050F00086048F5F80938604809186048230A8F3B3
:105100001092860460ED77E080E090E00E949D348C
:105110008AEC93E00E94A32C89EF93E06CE37AE29F
:1051200028E730E040E050E000E00E9485320E9435
:10513000E22787EE93E00E94B50489EF93E00E9496
:10514000EB32DF91CF911F910F9108952F923F92F3
:105150004F925F926F927F928F929F92AF92BF9287
:10516000CF92DF92EF92FF920F931F93DF93CF9333
:1051700000D000D0CDB7DEB7E0901804F09019044D
:1051800000911A0410911B04C801B7012091E70493
:105190003091E8044091E9045091EA040E9483367A
:1051A00060934F0470935004809351049093520481
:1051B000A0908804AA2089F580911704833009F013
:1051C00044C180910F0490911004A0911104B091FA
:1051D00012048093EB049093EC04A093ED04B0933D
:1051E000EE048091130490911404A0911504B091E1
:1051F00016048093EF049093F004A093F104B0930D
:10520000F204E092E704F092E8040093E9041093BA
:10521000EA0481E08093880418C181E0A81609F0AF
:1052200014C16090F304E8E1E61580F16091F404A4
:105230007091F5048091F6049091F704A80197010C
:105240000E9483369F7720E030E040E05FE30E94D9
:10525000143918165CF41092F304E092F404F092FE
:10526000F5040093F6041093F70410C0862D8F5FA9
:105270008093F304893151F4E092E704F092E8045A
:105280000093E9041093EA04A092D904E090EB049F
:10529000F090EC040091ED041091EE04C801B70108
:1052A0009F7725E33AEF4EE85CE30E941F390E94A6
:1052B0004E3769837A838B839C83C801B701209121
:1052C0000F043091100440911104509112040E9477
:1052D00083361B012C019F7720EC3BE649ED57E418
:1052E0000E941F395B016C016091EF047091F00422
:1052F0008091F1049091F2042091130430911404F0
:1053000040911504509116040E9483363B014C01D4
:105310009F7720EC3BE649ED57E40E941F39298135
:105320003A814B815C810E941F397B018C01C6014F
:10533000B501A60195010E941F395B016C01C801EE
:10534000B701A80197010E941F399B01AC01C6015A
:10535000B5010E9484360E94A6390E94B937609335
:10536000530470935404809355049093560460E062
:1053700070E080E89FE329813A814B815C810E9443
:1053800051379B01AC01C201B1010E941F3997FA4C
:10539000909497F89094A40193010E94F73620EE20
:1053A0003EE245E652E40E941F3920E030E044EB43
:1053B00052E40E9484360E94B9379B01AC0197FFEA
:1053C00004C028593E4F4F4F5F4FCA01B901645B7B
:1053D00070408040904097FF06C0CA01B9016C54EC
:1053E0007F4F8F4F9F4F0E94EC37209125043091C3
:1053F000260440912704509128040E9483360E947D
:10540000B93797FF04C068597E4F8F4F9F4F0E9456
:10541000EC3720E030E044EB53E40E94513720E0C9
:1054200030E040E851E40E941F390E94823920E0B8
:1054300030E040E85FE30E9484360E94BE3760930C
:105440005704613110F0109257040F900F900F9095
:105450000F90CF91DF911F910F91FF90EF90DF9010
:10546000CF90BF90AF909F908F907F906F905F9004
:105470004F903F902F9008950E94560C87EE93E036
:105480000E94A6280E9480260E9442190E9475064A
:1054900008950F931F938CEF94E06CE270E00E94EC
:1054A0003E038C010F5F1F4F1093F9040093F80423
:1054B000C8016CE270E00E943E03FC019093FB0483
:1054C0008093FA04012B41F0009731F01082209173
:1054D000F8043091F90402C022E033E0C9011F91C1
:1054E0000F9108958091FA049091FB04009781F048
:1054F00001969093F9048093F8046CE270E00E94A6
:105500003E03FC019093FB048093FA04009719F486
:1055100022E033E005C010822091F8043091F904B4
:10552000C9010895EF92FF920F931F93CF93DF93DA
:10553000EB01843209F0DAC08AEC93E06AE04CEFC8
:1055400054E020E830E00E944E36882309F4CEC0B3
:10555000E82FF0E0E550FB4F80818D3009F0C6C0A8
:1055600010828091FC048D3409F46EC08E344CF4AA
:10557000833409F481C08934E1F0813409F0B6C084
:105580002AC0823509F4ADC0833524F4803509F092
:10559000ADC007C0853509F492C08A3509F0A6C0B0
:1055A00097C0198218820E94492A0E94EE028A83BB
:1055B00010C082E090E0998388830E94492A0E946B
:1055C000EE029D838C830E94722A0E94EE029B83CE
:1055D0008A8381E08CC081E090E0998388830E9477
:1055E000492A0E940C036A837B838C839D830E94DB
:1055F000722A0E940C036E837F83888799870E949A
:10560000722A0E94EE028F870E94722A0E940C0367
:105610006A877B878C879D870E94722A0E94EE0290
:10562000888B198A0E94722A0E94EE028A8B1B8A3A
:105630000E94722A0E94EE029D8B8C8B0E94722A1D
:105640000E94EE028E87C5CF83E090E09983888325
:105650000E94492A0E94EE029B838A830E94722A3A
:105660000E940C036C837D838E839F830E94722A29
:105670000E94EE028887ADCF84E090E09983888312
:105680000E94492A0E94EE029B838A837E0101E0E8
:1056900010E00E94722A0E94EE02F7019583848333
:1056A0000F5F1F4F82E090E0E80EF91E05301105F4
:1056B00081F70E94722A0E94EE028A8B8ACF85E0CF
:1056C00090E0998388830E94492A0E94EE027FCF4E
:1056D00086E090E0998388830E94492A0E94EE0226
:1056E00076CF87E090E09983888373CF80E0DF9165
:1056F000CF911F910F91FF90EF9008956EBD0DB463
:1057000007FEFDCF8EB508958DE061E00E9456350D
:105710008BE061E00E9456358CE060E00E945635D7
:105720008AE061E00E9456351CBC80E58CBD8DB5D9
:105730008EB508958CE795E00E94842B08958FEF35
:105740009FE70895DF93CF93CDB7DEB7FE0139967B
:105750008D819E8161E04F8158859F010E94432E7B
:10576000CF91DF910895DF93CF93CDB7DEB7FE01E0
:1057700039968D819E8160E04F8158859F010E94FE
:10578000432ECF91DF9108950F931F93DC01ED918C
:10579000FC910288F389E02D20E030E000E010E089
:1057A00009951F910F9108958F92AF92CF92EF922A
:1057B000FF920F931F93DF93CF93CDB7DEB7FC011A
:1057C0001382128288EE93E0A0E0B0E08483958398
:1057D000A683B78382E393E09183808355874487D0
:1057E00037872687118B008BF38AE28AC48AA58AC1
:1057F000868A70E0CB0123E0880F991F2A95E1F794
:105800009C0123583A4F308F278B8B579A4F928F9A
:10581000818F81E090E002C0880F991F6A95E2F7BE
:1058200020918D05282B20938D05CF0140E051EE6E
:1058300060E070E00E94C42BCF91DF911F910F9127
:10584000FF90EF90CF90AF908F900895FC01838DE3
:10585000882319F42FEF3FEF0DC00788F08DE02D5E
:105860002081318182819381281B390B848195812C
:1058700028233923C9010895FC01838D882319F455
:105880002FEF3FEF11C0018CF28DE02D208131818F
:1058900082819381281B390B2095309584819581D5
:1058A000282339232F5F3F4FC9010895FC01838DC1
:1058B000882361F0A789B08D2D913C9111971296A4
:1058C0008D919C9113972817390721F44FEF5FEFC3
:1058D000CA01089512968D919C9113971696ED9199
:1058E000FC911797E80FF91F408112968D919C91BA
:1058F0001397019614962D913C911597822393232B
:1059000013969C938E93129750E0E2CFFC01838D07
:10591000882351F00788F08DE02D2081318182812C
:1059200093812817390721F42FEF3FEFC90108951C
:10593000828193810680F781E02DE80FF91F808135
:10594000282F30E0F3CFDC015796ED91FC9158976A
:1059500082819381918380835996ED91FC915A972E
:1059600080819181938382830895DC015B968C9181
:105970005B978823A9F15996ED91FC915A97208164
:1059800031812F5F3F4F84819581282339235C9695
:105990008C915C97882329F082819381281739079D
:1059A000F9F08281938128173907D9F38081918199
:1059B0000680F781E02DE80FF91F60835996ED917D
:1059C000FC915A97318320835296ED91FC91539725
:1059D000808156969C91892B808321E030E002C023
:1059E00020E030E0C9010895CF93DF93EC011B82E2
:1059F0001A828A819B81998388831D821C828E8171
:105A00009F81009721F00E94AF331F821E82DF9199
:105A1000CF9108950F931F938C01DC015296ED9165
:105A2000FC915397208156968C91569755969C9150
:105A30005597892B80958223808357968D919C91D1
:105A400058970E94F42CF801818D928D0E94F42CBD
:105A5000D8015B961C921F910F9108950F931F938D
:105A6000CF93DF938C01FC01138212828281938198
:105A70009183808341E0A1E0B0E001C04F5FFD0170
:105A8000042E02C0EE0FFF1F0A94E2F79B0182E092
:105A90006130780710F020E032E0E217F30770F38E
:105AA000C1E0D0E002C0CC0FDD1F4A95E2F721979C
:105AB000F801268137812115310541F084819581D6
:105AC0008C179D0789F0C9010E94AF33F801D58377
:105AD000C483CE0101960E9412339C01F801978382
