:100000000C947C010C94A4010C94A4010C94A40104
:100010000C94A4010C94A4010C94A4010C94A401CC
:100020000C94A4010C94A4010C94A4010C94A401BC
:100030000C94A4010C94A4010C94A4010C94A401AC
:100040000C9443330C94A4010C946D050C94A905F5
:100050000C94A4010C94A4010C94A4010C94A4018C
:100060000C94A4010C94A401084AD73B3BCE016E2A
:1000700084BCBFFDC12F3D6C74319ABD56833DDAFF
:100080003D00C77F11BED9E4BB4C3E916BAAAABE0E
:10009000000000803F05A84CCDB2D44EB93836A937
:1000A000020C50B9918688083CA6AAAA2ABE000074
:1000B00000803F0664EC1B3C04BC163E3BE5B93CAB
:1000C000C93C37C29E5A3D660498083EEA69AAAA0E
:1000D0003E000000803F2020202020202020002003
:1000E0002020202020202020202020207C202020B4
:1000F000202020202020202020207CC620202020FE
:100100002020202020202020C57C202020202020EE
:10011000202020202020207C202020202020202083
:1001200020202020207C00B0B1B2B3B47CB5B6B79B
:10013000B8B97C4D696E696D4F53442D4578747222
:100140006120322E34207C2072363231204D507C9A
:10015000004F534420496E697469616C697A656423
:100160002C207265626F6F74004368617220446F67
:100170006E650A00526561647920666F7220466F71
:100180006E740A004D697373696E672F4F6C64203B
:10019000436F6E6669670000407A10F35A00A072E0
:1001A0004E18090010A5D4E80000E87648170000B2
:1001B000E40B54020000CA9A3B000000E1F5050080
:1001C0000080969800000040420F000000A08601C9
:1001D000000000102700000000E803000000006499
:1001E00000000000000A0000000000010000000004
:1001F000002C76D888DC674F0823DFC1DFAE59E1D9
:10020000B1B796E5E3E453C63AE651997696E8E647
:10021000C28426EB898C9B62ED407C6FFCEFBC9C1A
:100220009F40F2BAA56FA5F490055A2AF75C936B2C
:100230006CF9676DC11BFCE0E40D47FEF520E6B5E7
:1002400000D0ED902E0300943577050080841E08C1
:100250000000204E0A000000C80C333333330F98DF
:100260006E12831141EF8D2114893BE65516CFFEA6
:10027000E6DB18D1844B381BF77C1D901DA4BBE432
:1002800024203284725E228100C9F124ECA1E53D74
:10029000276E616E00696E66000000000024002772
:1002A000002A0000000000250028002B00000000AC
:1002B00000230026002900040404040404040402AA
:1002C00002020202020303030303030102040810F3
:1002D00020408001020408102001020408102000C0
:1002E00000000700020100000304060000000000F7
:1002F000000000004F06A42A11241FBECFEFD8E053
:10030000DEBFCDBF13E0A0E0B1E0E2E7F3E702C05B
:1003100005900D92A035B107D9F715E0A0E5B3E03F
:1003200001C01D92A639B107E1F712E0C8EFD2E093
:1003300004C02297FE010E94B339C43FD107C9F718
:100340000E94E5340C94B7390C940000283008F072
:1003500027E03327DA01990F311D87FD9160009660
:100360006105710539F432602E5F3D9330E32A95C3
:10037000E1F708959F3F30F080387105610509F07D
:100380003C5F3C5F3D93913008F08068911DDF93A6
:10039000CF931F930F93FF92EF92192F987F96950B
:1003A000E92F96959695E90FFF27EF50FE4F992775
:1003B0003327EE24FF24A701E70105900894079452
:1003C00028F4360FE71EF81E491F511D660F771FD0
:1003D000881F991F0694A1F70590079428F4E70E4B
:1003E000F81E491F561FC11D770F881F991F661FD2
:1003F0000694A1F70590079428F4F80E491F561F9C
:10040000C71FD11D880F991F661F771F0694A1F77C
:100410000590079420F4490F561FC71FD81F990F46
:10042000661F771F881F0694A9F78491109517708F
:1004300041F0D695C79557954795F794E7941A9547
:10044000C1F7E7E9F1E06894159015913591659150
:10045000959105907FE27395E118F10A430B560BD5
:10046000C90BD009C0F7E10CF11E431F561FC91F6D
:10047000D01D7EF4703311F48A95E6CFE8940150D4
:1004800030F0080F0AF40027021708F4202F2395F4
:10049000022F7A3328F079E37D932A95E9F710C08B
:1004A0007D932A9589F606949795679537951795C4
:1004B0001794E118F10A430B560BC90BD00998F0B9
:1004C00023957E9173957A3308F070E37C93201323
:1004D000B8F77E9170617D9330F0839571E37D93E1
:1004E00070E32A95E1F71124EF90FF900F911F918F
:1004F000CF91DF91992787FD90950895FA01AA275A
:10050000283051F1203181F1E8946F936E7F6E5F56
:100510007F4F8F4F9F4FAF4FB1E03ED0B4E03CD004
:10052000670F781F891F9A1FA11D680F791F8A1FE7
:10053000911DA11D6A0F711D811D911DA11D20D04E
:1005400009F468943F912AE0269F11243019305D08
:100550003193DEF6CF010895462F4770405D4193F9
:10056000B3E00FD0C9F7F6CF462F4F70405D4A3346
:1005700018F0495D31FD4052419302D0A9F7EACF0E
:10058000B4E0A6959795879577956795BA95C9F73D
:1005900000976105710508959B01AC010A2E069430
:1005A0005795479537952795BA95C9F7620F731FE9
:1005B000841F951FA01D0895FC0188279927E894A2
:1005C00021912032E9F3293010F02E30C8F32B327C
:1005D00041F02D3239F4689404C00E945703820F11
:1005E000911D219120532A30C0F31EF490958195DE
:1005F0009F4F08951F93FC0199278827BC01E89419
:1006000011911032E9F3193010F01E30C8F31B328B
:1006100051F01D3249F4689406C00E944203610FF4
:10062000711D811D911D119110531A30B0F33EF4CC
:1006300090958095709561957F4F8F4F9F4F1F913B
:100640000895FC010590615070400110D8F7809525
:1006500090958E0F9F1F0895FC018191861721F0C0
:100660008823D9F7992708953197CF010895FC0180
:100670006150704001900110D8F7809590958E0FD1
:100680009F1F0895592F482F372F262F660F771F4A
:10069000881F991F660F771F881F991F620F731F8E
:1006A000841F951F660F771F881F991F08957AE092
:1006B000979F902D879F802D910D11240895FC0107
:1006C0001382128288EE93E0A0E0B0E084839583E9
:1006D000A683B78386EF92E0918380830895FC011F
:1006E0008089803419F421E030E002C020E030E05D
:1006F000C9010895FC01818990E00895FC01648797
:10070000458766874787089580E090E0089580E0F8
:1007100090E0089580E090E008950895EF92FF92B0
:100720001F93CF93DF93162F7A0186E060E00E943B
:10073000913486E795E060E00E94882A86E795E09C
:1007400060E00E94882A86E795E069E00E94882A96
:1007500086E795E0612F0E94882AC0E0D0E0F7018B
:10076000EC0FFD1F108186E795E06AE00E94882A61
:1007700086E795E06C2F0E94882A86E795E06BE07B
:100780000E94882A86E795E0612F0E94882A219698
:10079000C633D10521F786E795E068E00E94882AF4
:1007A00086E795E060EA0E94882A86E795E060EA9D
:1007B0000E94882A85FDF9CF86E795E060E00E94D7
:1007C000882A86E795E06CE00E94882A86E061E04E
:1007D0000E949134DF91CF911F91FF90EF90089587
:1007E0001F93CF93DF93EC01162F86E060E00E9409
:1007F000913486E795E060E00E94882A112319F081
:10080000113059F404C086E795E0688904C068890E
:100810006C6186E795E00E94882A86E061E00E948C
:100820009134DF91CF911F910895EF92FF920F9332
:100830001F938EE1489F70011124E60EF11C86E0A3
:1008400060E00E94913406E715E0C80165E00E946F
:10085000882AC8016F2D0E94882AC80166E00E947C
:10086000882AC8016E2D0E94882A1F910F91FF903F
:10087000EF900895EF92FF920F931F937C0106E78C
:1008800015E0C80167E00E94882AC8016FEF0E9446
:10089000882A86E061E00E949134F70187858F5FA6
:1008A00087871F910F91FF90EF900895EF92FF922D
:1008B0000F931F93FC01E7848EE1E89E70011124E1
:1008C0008685E80EF11C86E060E00E94913406E720
:1008D00015E0C80164E00E94882AC80163E00E9414
:1008E000882AC80165E00E94882AC8016F2D0E94ED
:1008F000882AC80166E00E94882AC8016E2D0E94DD
:10090000882A1F910F91FF90EF9008951F93CF9326
:10091000DF93EC01162F6C3731F40E943A04CE01BC
:100920000E9456040AC086E795E067E00E94882A84
:1009300086E795E0612F0E94882A81E090E0DF91B0
:10094000CF911F9108950F931F9386E060E00E945E
:10095000913406E715E0C80164E00E94882AC801C6
:1009600064E00E94882A86E061E00E9491341F9131
:100970000F9108951F9388E895E066E973E00E945F
:100980006E31882361F0813011F412E009C08230A9
:1009900011F411E005C0833011F410E001C013E040
:1009A000109251031092500317C060915003709140
:1009B0005103605F86E795E00E94882A86E795E00C
:1009C000612F0E94882A80915003909151030196D3
:1009D0009093510380935003809150039091510361
:1009E00040971CF31F910895CF93DF93EC0186E0AD
:1009F00060E00E94913486E795E060EA0E94882AD0
:100A000086E795E06FEF0E94882A80FF05C080E4AA
:100A1000888B88E0898B13C088E895E060E973E0F3
:100A20000E946E31882319F4188A86E003C080E49E
:100A3000888B88E0898B86E060E00E949134DF91AA
:100A4000CF910895CF92DF92FF920F931F936C0185
:100A500086E061E00E94523482E060E00E945234FD
:100A600082E061E00E949134C6010E94F40486E0B5
:100A700060E00E94913406E715E0C8016CEE0E9428
:100A8000882AC8016FEF0E94882AF82EC80160E00A
:100A90000E94882AF60160896260C8010E94882A43
:100AA00062E370E080E090E00E949933C8016CE658
:100AB0000E94882AFFEEFF22C8016F2D0E94882A1B
:100AC000C6010E94BA04C60161E00E94F0031F91B2
:100AD0000F91FF90DF90CF9008951F920F920FB665
:100AE0000F9211242F933F934F938F939F93EF93E4
:100AF000FF934091C60020917705309178052F5FD4
:100B00003F4F80917B0590917C052823392380916C
:100B1000790590917A052817390779F08091770542
:100B200090917805E0917D05F0917E05E80FF91F21
:100B300040833093780520937705FF91EF919F9143
:100B40008F914F913F912F910F900FBE0F901F905B
:100B500018951F920F920FB60F9211242F933F9367
:100B60008F939F93EF93FF9320918105309182059E
:100B700080917F059091800528173907E9F08091D1
:100B8000810590918205E0918505F0918605E80F39
:100B9000F91F80818093C600809181059091820524
:100BA00001962091830530918405822393239093AD
:100BB00082058093810510C020917F0530918005CA
:100BC00080918105909182052817390729F4809139
:100BD000C1008F7D8093C100FF91EF919F918F9114
:100BE0003F912F910F900FBE0F901F9018958091FD
:100BF0009F04853029F48091390490913A0414C0FF
:100C0000863029F480913B0490913C040DC08730DC
:100C100029F480913D0490913E0406C0883041F44F
:100C200080913F04909140049093A1048093A0048C
:100C300090918F04913039F48091A204882371F14E
:100C40009093C80213C08091A304882339F5809142
:100C5000A0049091A10424E0803B920750F480917D
:100C6000A2048823D9F081E08093C8021092A204E4
:100C700008952091A2048950974048F0223071F0E5
:100C800081E08093C80282E08093A204089521301D
:100C900029F081E08093C8028093A20408958F9286
:100CA000AF92CF92EF92FF920F931F9380ED93E05C
:100CB00060E045EC50E024EC30E000EC10E0F1ECBA
:100CC000EF2EF12CCC24C394E8E9AE2E70E2872EEF
:100CD0000E94DE2A8DEE93E00E945F0310920004D2
:100CE0001092010410920204109203041092040462
:100CF0001092050410920604109207041092090441
:100D0000109208041092FF031F910F91FF90EF9033
:100D1000CF90AF908F900895809146048130C1F4B8
:100D20000E948B3368517C4F8F4F9F4F60934704D5
:100D3000709348048093490490934A0410924604A7
:100D400090E080914B04882309F491E090934B0448
:100D50000E948B332091470430914804409149040C
:100D600050914A04261737074807590718F481E0BD
:100D7000809346040895AF92BF92CF92DF92EF9294
:100D8000FF920F931F931091DC041130B1F5809105
:100D90009404882391F560915D0470915E048091C4
:100DA0005F049091600420E030E040EA50E40E944B
:100DB000FF37181614F5809138048B30F0F010933B
:100DC000940480E090E0A0E0B0E08093B6049093BB
:100DD000B704A093B804B093B9040E948B3328EEF3
:100DE00033E040E050E00E94743920938104309356
:100DF0008204409383045093840460915D04709155
:100E00005E0480915F049091600420E030E040EA4D
:100E100051E40E94463618167CF1609123047091CB
:100E20002404809125049091260420E030E040E0E5
:100E300050E40E9446361816FCF0809138048B303E
:100E4000D8F4809194048130B9F480916104909138
:100E50006204A0916304B091640485369105A105F4
:100E6000B10554F40E948B336093CA047093CB0491
:100E70008093CC049093CD04A0902304B0902404DC
:100E8000C0902504D0902604C601B50120E030E0D2
:100E900040E85FE30E94FF37181694F5E090B6042F
:100EA000F090B7040091B8041091B9040E948B33FC
:100EB0002091DD043091DE044091DF045091E00484
:100EC000621B730B840B950B0E94E6369B01AC01F1
:100ED000C601B5010E940A3820E030E04AE754E438
:100EE0000E944D369B01AC01C801B7010E948035BC
:100EF0006093B6047093B7048093B8049093B904D8
:100F0000A0908504B0908604C0908704D090880497
:100F100060919D0470919E04882777FD8095982F9D
:100F20000E94E83620E030E040E251E40E940A38B6
:100F30007B018C010E948B332091DD043091DE0413
:100F40004091DF045091E004621B730B840B950BFE
:100F50000E94E6369B01AC01C801B7010E940A3825
:100F600020E03AEB4BE55AE40E944D369B01AC0180
:100F7000C601B5010E948035609385047093860494
:100F800080938704909388040E948B336093DD04E0
:100F90007093DE048093DF049093E00480919404C6
:100FA000813009F096C06091610470916204809173
:100FB0006304909164040E94E8367B018C012091C7
:100FC000B2043091B3044091B4045091B5040E942E
:100FD000FF37181644F4E092B204F092B304009381
:100FE000B4041093B504E0902704F0902804009115
:100FF000290410912A04C801B7012091BA04309144
:10100000BB044091BC045091BD040E94FF371816E8
:1010100044F4E092BA04F092BB040093BC04109331
:10102000BD04E0902304F090240400912504109165
:101030002604C801B7012091BE043091BF0440913D
:10104000C0045091C1040E94FF37181644F4E09286
:10105000BE04F092BF040093C0041093C104E0905A
:101060005D04F0905E0400915F0410916004C8017B
:10107000B7012091C2043091C3044091C40450913F
:10108000C5040E94FF37181644F4E092C204F0929F
:10109000C3040093C4041093C5046091C604709106
:1010A000C7048091C8049091C90420E030E040E07A
:1010B00050E00E944636882364F480E090E0A0E08F
:1010C000B0E08093C6049093C704A093C804B09383
:1010D000C9041F910F91FF90EF90DF90CF90BF90C8
:1010E000AF90089588E895E06AE773E00E946E315A
:1010F000882381F586E696E6A6E6B0E480934C0464
:1011000090934D04A0934E04B0934F0480E090E080
:10111000A0E8BFE38093500490935104A09352043D
:10112000B093530480E1809354048CE08093550481
:101130008AEB809356048BE190E09093580480935F
:10114000570488EE93E090935A04809359048AE1FF
:1011500090E02FC082E598EBAEE0B0E480934C04C1
:1011600090934D04A0934E04B0934F0485E89BEEFA
:10117000A1E5B0E48093500490935104A0935204ED
:10118000B093530489E18093540486E68093550418
:101190008BEB809356048CE190E0909358048093FD
:1011A000570480EA94E190935A04809359048EE1A5
:1011B00090E090935C0480935B040895DF92EF923B
:1011C000FF920F931F938C01A8E8EA2EA5E0FA2E58
:1011D000C701B8010E946E31D82E0F5F1F4FC701A3
:1011E000B8010E946E313D2D20E0280F311DC9014C
:1011F0001F910F91FF90EF90DF900895DF92EF9293
:10120000FF920F931F93CF93DF9388E895E06CE7ED
:1012100073E00E946E318093960488E895E06EE753
:1012200073E00E946E318093950488E895E060E851
:1012300073E00E946E3190E0A0E0B0E0BC01CD010F
:101240000E94E63620E030E040E251E40E944D3654
:101250006093BE027093BF028093C0029093C1025C
:1012600088E895E062E873E00E946E3190E0A0E0CB
:10127000B0E0BC01CD010E94E63620E030E040E263
:1012800051E40E944D366093C4027093C50280936E
:10129000C6029093C70288E895E06EE873E00E946A
:1012A0006E318093A30488E895E06AE873E00E94B9
:1012B0006E3180939F0488E895E064E873E00E94B3
:1012C0006E318093AE0488E895E066E873E00E9492
:1012D0006E318093AD0488E895E06CE873E00E947D
:1012E0006E3110929804882319F081E0809398045D
:1012F00088E895E064E973E00E946E31809397047A
:1013000084EA93E00E94DE08A0E0B0E0BC01CD01D9
:101310000E94E63620E030E040E251E40E944D3683
:101320006093D3027093D4028093D5029093D60237
:101330008AEA93E00E94DE08A0E0B0E0BC01CD01A3
:101340000E94E63620E030E040E251E40E944D3653
:101350006093D7027093D8028093D9029093DA02F7
:1013600086EA93E00E94DE087C0188E895E068EA5E
:1013700073E00E946E31D82E00E010E0C801B70182
:101380000E94E63620E030E040E251E40E944D3613
:101390007B018C018D2D64E60E94413990E0AA27E3
:1013A00097FDA095BA2FBC01CD010E94E8369B01A4
:1013B000AC01C801B7010E9480356093DB027093D5
:1013C000DC028093DD029093DE028CEA93E00E94BF
:1013D000DE08A0E0B0E0BC01CD010E94E63620E0CE
:1013E00030E040E251E40E944D366093CF047093A8
:1013F000D0048093D1049093D20488E895E06EEAFB
:1014000073E00E946E318093D20288E895E060EB31
:1014100073E00E946E318093B104C0E0D0E0BE0161
:1014200068567C4F88E895E00E946E31FE01EC55CD
:10143000FB4F8083882321F02196C830D10579F7AE
:10144000CC55DB4F1982DF91CF911F910F91FF9007
:10145000EF90DF900895BC0188E895E00E946E311E
:101460000895DF92EF92FF920F931F93CF93DF9334
:10147000882309F481E0182F110F1257613009F009
:101480004CC060914C0470914D0480914E04909139
:101490004F0420E030E040E050E00E940A38A12FE5
:1014A000BB27A7FDB095D09054042DB73EB7265169
:1014B00030400FB6F8943EBF0FBE2DBFEDB7FEB75C
:1014C00031962DEE33E0CDB7DEB73A83298323E0A2
:1014D00031E0338322832DE130E035832483262FCE
:1014E000372F482F592F2683378340875187D2863D
:1014F0001386B587A4871196B787A687C901DA0135
:10150000808B918BA28BB38BD48A158A0E94BD2AC3
:101510002DB73EB72A5E3F4F4BC0A12FBB27A7FD7B
:10152000B0958DEE93E0623039F5CDB7DEB72C97EC
:101530000FB6F894DEBF0FBECDBFEDB7FEB7319644
:101540009A83898389E191E093838283B583A4831D
:101550001196B783A6838091660490916704918762
:10156000808785E090E0938782870E94BD2A2DB70F
:101570003EB7245F3F4F1CC0CDB7DEB728970FB6EC
:10158000F894DEBF0FBECDBFEDB7FEB731969A839C
:10159000898383E291E093838283B583A483119648
:1015A000B783A6830E94BD2A2DB73EB7285F3F4F61
:1015B0000FB6F8943EBF0FBE2DBFDF91CF911F91A4
:1015C0000F91FF90EF90DF9008952F923F924F92EE
:1015D0005F926F927F928F929F92AF92BF92CF92C3
:1015E000DF92EF92FF920F931F93DF93CF9300D080
:1015F00000D000D0CDB7DEB7182F662E2091310471
:10160000309132042A35310530F0C9018D549F4F95
:1016100089359105E8F437FF02C02D543F4FC901C9
:1016200037FF03C0909581959F4F8A3191053CF01B
:10163000B9ED8B2E912CA8EF2A2E312C1DC00A97C4
:101640005CF1F0ED8F2E912CE3EF2E2E312C20C08B
:101650002B35310514F0235B3040C90137FF03C03F
:10166000909581959F4F8A31910554F07BEE872E9E
:10167000912C6BEF262E312C57E0A52EB12C15C0E6
:101680000A9754F042EE842E912C35EF232E312C04
:1016900028E0A22EB12C09C096EC892E912C8DEC5D
:1016A000282E312C09E0A02EB12C60912F047091CE
:1016B0003004882777FD8095982F0E94E83627EA26
:1016C00032E94BE25CEB0E940A380E94DE3820E0EF
:1016D00030E040EA50E40E940A3820E030E040E97F
:1016E00051E40E940A380E946D3820E030E044E363
:1016F00052E40E9480350E94B536712E1EEBC12E39
:101700001FEFD12E9B01442737FD4095542F29838D
:101710003A834B835C83BDEE4B2EB3E05B2E4AEFE6
:101720005FEF240E351E60913104709132048827DA
:1017300077FD8095982F0E94E83625E33AEF4EE832
:101740005CE30E940A380E94DE387B018C01B601FE
:10175000882777FD8095982F0E94E8369B01AC0181
:10176000C801B7010E940A387B018C0169817A8126
:101770008B819C810E94E8369B01AC01C801B701B6
:101780000E9480350E94B5369B01CB0101978A35B6
:10179000910508F071C062E170E00E9461398B012F
:1017A0002F5F3F4FAEEEBFEF6A9FC0016B9F900D62
:1017B0007A9F900D1124820F931F62E070E00E94C7
:1017C00061396D837E83E62CE01A4E2D4C5F8DEEE1
:1017D00093E0672D0E94150400D000D000D0EDB733
:1017E000FEB73196ADB7BEB712965C924E92119786
:1017F00020E031E0338322838D819E81880D991D05
:10180000958384830E94BD2A4DB75EB74A5F5F4FC0
:101810000FB6F8945EBF0FBE4DBF8D819E818A15B5
:101820009B0554F1043011053CF593E0E90EC2012B
:10183000672D4E2D0E94150400D000D000D0EDB7CA
:10184000FEB73196ADB7BEB712965C924E92119725
:1018500020E031E0338322834D815E81420D531DB0
:10186000558344830E94BD2A8DB79EB706960FB656
:10187000F8949EBF0FBE8DBFACE0B0E0CA0EDB1E79
:101880007394BEE4CB16D10409F04DCF26960FB663
:10189000F894DEBF0FBECDBFCF91DF911F910F91A6
:1018A000FF90EF90DF90CF90BF90AF909F908F9080
:1018B0007F906F905F904F903F902F900895609130
:1018C0002B0470912C0480912D0490912E0420E023
:1018D00030E040EC51E40E940A3820E030E044EB74
:1018E00053E40E944D360E946D380E94B5369B012C
:1018F0002350304037FF03C09B012B5E3F4FADE6C6
:10190000B4E0F901EC5EFC4F80818C932F5F3F4F78
:101910002831310514F020E030E0119684E0A8373A
:10192000B80779F71092740408950F931F93282F26
:10193000462F8DEE93E0622F0E947E038DEE93E0A2
:101940000E94560480911304882319F428E231E0A0
:101950001AC0823019F42DE231E015C0853019F437
:1019600022E331E010C027E331E08A3019F42CE3A0
:1019700031E009C08B3019F421E431E004C08F302C
:1019800011F425E431E08DB79EB708970FB6F894AF
:101990009EBF0FBE8DBFEDB7FEB731960DEE13E0C3
:1019A000ADB7BEB712961C930E9311978AE491E0DF
:1019B000938382838FE790E09583848337832683A4
:1019C0000E94BD2A8DB79EB708960FB6F8949EBFA9
:1019D0000FBE8DBFC8010E943A041F910F91089558
:1019E0000F931F93282F462F0DEE13E0C801622F8F
:1019F0000E947E03C8010E9456048091650460E045
:101A00000E94310AC8010E943A041F910F91089563
:101A10000F931F93282F462F0DEE13E0C801622F5E
:101A20000E947E03C8010E9456048DB79EB70A9794
:101A30000FB6F8949EBF0FBE8DBFEDB7FEB73196BF
:101A4000ADB7BEB712961C930E9311978FE491E039
:101A50009383828383EC90E0958384838DE694E086
:101A60009783868387E890E0918780870E94BD2ACC
:101A70008DB79EB70A960FB6F8949EBF0FBE8DBF66
:101A8000C8010E943A041F910F9108950F931F936C
:101A9000282F462F0DEE13E0C801622F0E947E030F
:101AA000C8010E9456048DB79EB70A970FB6F894E6
:101AB0009EBF0FBE8DBFEDB7FEB73196ADB7BEB7B7
:101AC00012961C930E93119786E591E0938382837F
:101AD00080912B0490912C04A0912D04B0912E04A0
:101AE00084839583A683B78385E090E09187808780
:101AF0000E94BD2A8DB79EB70A960FB6F8949EBF76
:101B00000FBE8DBFC8010E943A041F910F91089526
:101B10000F931F93282F462F0DEE13E0C801622F5D
:101B20000E947E03C8010E9456048DB79EB740975D
:101B30000FB6F8949EBF0FBE8DBFEDB7FEB73196BE
:101B4000ADB7BEB712961C930E9311978EE591E038
:101B50009383828383E090E095838483809115044E
:101B600090911604A0911704B0911804868397836E
:101B7000A087B18784E090E09387828780911904E1
:101B800090911A04A0911B04B0911C04848795873E
:101B9000A687B7870E94BD2A8DB79EB740960FB61D
:101BA000F8949EBF0FBE8DBFC8010E943A041F91DA
:101BB0000F9108950F931F93282F462F8DEE93E0DA
:101BC000622F0E947E038DEE93E00E945604809166
:101BD0001D04823011F42FE105C0833011F42FE091
:101BE00001C02AE280914B04811120E28DB79EB79B
:101BF00008970FB6F8949EBF0FBE8DBFEDB7FEB726
:101C000031960DEE13E0ADB7BEB712961C930E934E
:101C1000119780E791E093838283248315828091DA
:101C20002204868317820E94BD2A8DB79EB708962C
:101C30000FB6F8949EBF0FBE8DBFC8010E943A0434
:101C40001F910F9108950F931F93282F462F0DEE8C
:101C500013E0C801622F0E947E03C8010E9456044F
:101C60008DB79EB70C970FB6F8949EBF0FBE8DBF71
:101C7000EDB7FEB73196ADB7BEB712961C930E9373
:101C8000119786E791E09383828380E690E09583C5
:101C900084838091790490917A04A0917B04B0911F
:101CA0007C0486839783A087B1878DE090E093873B
:101CB00082870E94BD2A8DB79EB70C960FB6F89406
:101CC0009EBF0FBE8DBFC8010E943A041F910F91A5
:101CD00008950F931F93282F462F0DEE13E0C80190
:101CE000622F0E947E03C8010E9456048DB79EB7E2
:101CF0000C970FB6F8949EBF0FBE8DBFEDB7FEB721
:101D00003196ADB7BEB712961C930E93119786E726
:101D100091E0938382838CEB90E095838483809120
:101D20007D0490917E04A0917F04B091800486830D
:101D30009783A087B1878DE090E0938782870E9488
:101D4000BD2A8DB79EB70C960FB6F8949EBF0FBEF6
:101D50008DBFC8010E943A041F910F9108950F93FF
:101D60001F93282F462F0DEE13E0C801622F0E940B
:101D70007E03C8010E9456048DB79EB70A970FB61E
:101D8000F8949EBF0FBE8DBFEDB7FEB73196ADB7CD
:101D9000BEB712961C930E93119780E891E093833F
:101DA000828380913104909132049583848385E00D
:101DB00090E09783868386E090E0918780870E94F9
:101DC000BD2A8DB79EB70A960FB6F8949EBF0FBE78
:101DD0008DBFC8010E943A041F910F9108950F937F
:101DE0001F93282F462F0DEE13E0C801622F0E948B
:101DF0007E03C8010E9456048DB79EB70A970FB69E
:101E0000F8949EBF0FBE8DBFEDB7FEB73196ADB74C
:101E1000BEB712961C930E93119780E891E09383BE
:101E2000828380912F04909130049583848385E090
:101E300090E09783868387E090E0918780870E9477
:101E4000BD2A8DB79EB70A960FB6F8949EBF0FBEF7
:101E50008DBFC8010E943A041F910F910895EF921F
:101E6000FF920F931F93282F462F1DEEE12E13E0B4
:101E7000F12EC701622F0E947E03C7010E94560403
:101E80008DB79EB70C970FB6F8949EBF0FBE8DBF4F
:101E90000DB71EB70F5F1F4FEDB7FEB7F282E1829D
:101EA00088E891E0F801938382838BE090E095834A
:101EB00084836091610470916204809163049091C5
:101EC00064040E94E83620915004309151044091FE
:101ED0005204509153040E940A38F80166837783B4
:101EE0008087918780915504828713860E94BD2A3E
:101EF0008DB79EB70C960FB6F8949EBF0FBE8DBFE0
:101F0000C7010E943A041F910F91FF90EF9008952E
:101F1000EF92FF920F931F93282F462F0DEEE02E86
:101F200003E0F02EC701622F0E947E03C7010E94CA
:101F300056040E948B3328EE33E040E050E00E94CC
:101F400074398091810490918204A0918304B091AE
:101F50008404281B390B4A0B5B0BCA01B9010E9490
:101F6000E6366093BA027093BB028093BC029093F2
:101F7000BD020E94B5368B019C018DB79EB70C97B0
:101F80000FB6F8949EBF0FBE8DBFEDB7FEB731966A
:101F9000ADB7BEB71296FC92EE92119782E991E02E
:101FA0009383828388E090E095838483C8016CE307
:101FB00070E00E946139CB016CE370E00E946139EE
:101FC000978386838AE390E091878087C8016CE3DA
:101FD00070E00E946139938782870E94BD2A8DB785
:101FE0009EB70C960FB6F8949EBF0FBE8DBFC7016B
:101FF0000E943A041F910F91FF90EF9008950F9364
:102000001F93282F462F0DEE13E0C801622F0E9468
:102010007E03C8010E9456048DB79EB70C970FB679
:10202000F8949EBF0FBE8DBFEDB7FEB73196ADB72A
:10203000BEB712961C930E9311978EE991E093838D
:10204000828387E190E095838483809185049091D9
:102050008604A0918704B091880486839783A08723
:10206000B18781E090E0938782870E94BD2A8DB777
:102070009EB70C960FB6F8949EBF0FBE8DBFC801D9
:102080000E943A041F910F9108950F931F93282FD8
:10209000462F0DEE13E0C801622F0E947E03C80197
:1020A0000E9456048DB79EB70A970FB6F8949EBF4C
:1020B0000FBE8DBFEDB7FEB73196ADB7BEB7129666
:1020C0001C930E93119788EA91E09383828382E0B8
:1020D00090E095838483809138048683178285E21B
:1020E00090E0918780870E94BD2A8DB79EB70A969F
:1020F0000FB6F8949EBF0FBE8DBFC8010E943A0470
:102100001F910F9108952F923F924F925F926F927D
:102110007F928F929F92AF92BF92CF92DF92EF9277
:10212000FF920F931F93DF93CF93CDB7DEB76097E6
:102130000FB6F894DEBF0FBECDBF282F462FDE01AD
:102140001196E4E0F3E080E101900D928150E1F717
:102150008DEE93E0622F0E947E038DEE93E00E944D
:1021600056040E948B332091890430918A04409157
:102170008B0450918C04261737074807590708F03D
:102180008DC180918D04882391F080938E041092EC
:102190008D0481E080938F040E948B3360939004C0
:1021A00070939104809392049093930440C10E9491
:1021B0008B33605177428040904020919004309161
:1021C00091044091920450919304261737074807D1
:1021D000590710F410928F0480918E04882E992450
:1021E00077E0372E66E0262E55E0552E44E0442E4B
:1021F00033E0632E22E0722E15C10894811C911CDD
:1022000088E08816910424F091E0892E912C04C076
:1022100091E08916910449F480911D04823008F000
:10222000FBC0E1E0E0938D04F7C08091940481301D
:1022300009F065C0F2E08F169104B1F5A090270473
:10224000B0902804C0902904D0902A04C601B5019A
:1022500020914C0430914D0440914E0450914F0414
:102260000E940A387B018C016091950470E08827F8
:1022700077FD8095982F0E94E8369B01AC01C8013C
:10228000B7010E94463688230CF0C6C0C601B501CE
:1022900029E23CE54FE85FE30E94FF3718160CF097
:1022A000BBC070928D04B8C083E08816910439F5E4
:1022B00060912704709128048091290490912A0448
:1022C00020914C0430914D0440914E0450914F04A4
:1022D0000E940A387B018C016091960470E080E0D6
:1022E00090E00E94E6369B01AC01C801B7010E9454
:1022F000FF3718160CF090C060928D048DC094E0EA
:102300008916910429F5E090BE02F090BF02009179
:10231000C0021091C102C801B70120E030E040E8DE
:102320005FE30E94FF3718160CF076C060917D04C1
:1023300070917E0480917F0490918004A8019701A0
:102340000E94463688230CF067C040928D0464C01A
:10235000E5E08E169104B9F42091C2023091C302D7
:102360008091970490E0281739070CF055C02D593B
:102370003F4F09F451C080919804882309F04CC064
:1023800050928D0449C086E08816910419F5E090BA
:10239000C402F090C5020091C6021091C702C801A4
:1023A000B70120E030E040E85FE30E94FF371816F5
:1023B0009CF56091790470917A0480917B049091EE
:1023C0007C04A80197010E94463688232CF52092B0
:1023D0008D0422C097E089169104F1F40E948B339A
:1023E0000E94E6367B018C0160910F04709110040D
:1023F000809111049091120420E030E849E055E406
:102400000E9480359B01AC01C801B7010E9446368D
:10241000882314F430928D0480918E0490E0881605
:10242000990629F080918D04882309F4E6CE0E9454
:102430008B3368517C4F8F4F9F4F6093890470930B
:102440008A0480938B0490938C0400D000D000D039
:10245000ADB7BEB711968DEE93E0EDB7FEB79283A0
:10246000818382EB91E013969C938E931297E09177
:102470008D04F0E0EE0FFF1FEC0FFD1F81819281B4
:1024800015969C938E9314970E94BD2A8DB79EB784
:1024900006960FB6F8949EBF0FBE8DBF8DEE93E0EB
:1024A0000E943A0460960FB6F894DEBF0FBECDBF0F
:1024B000CF91DF911F910F91FF90EF90DF90CF9020
:1024C000BF90AF909F908F907F906F905F904F9054
:1024D0003F902F900895EF92FF920F931F93282F14
:1024E000462FEDEEEE2EE3E0FE2EC701622F0E9496
:1024F0007E03C7010E9456048DB79EB70C970FB696
:10250000F8949EBF0FBE8DBF0DB71EB70F5F1F4F54
:10251000EDB7FEB7F282E18285EB91E0F80193839B
:10252000828383E190E09583848360912704709196
:1025300028048091290490912A0420914C04309120
:102540004D0440914E0450914F040E940A38F80106
:10255000668377838087918780915404828713866E
:102560000E94BD2A8DB79EB70C960FB6F8949EBFF9
:102570000FBE8DBFC7010E943A041F910F91FF90BB
:10258000EF900895EF92FF920F931F93282F462FFD
:10259000FDEEEF2EF3E0FF2EC701622F0E947E03B7
:1025A000C7010E9456048DB79EB70C970FB6F894DA
:1025B0009EBF0FBE8DBF0DB71EB70F5F1F4FEDB78C
:1025C000FEB7F282E18285EB91E0F801938382838A
:1025D00084E190E0958384836091230470912404C6
:1025E000809125049091260420914C0430914D0453
:1025F00040914E0450914F040E940A38F8016683BE
:1026000077838087918780915404828713860E9404
:10261000BD2A8DB79EB70C960FB6F8949EBF0FBE1D
:102620008DBFC7010E943A041F910F91FF90EF9058
:102630000895CF92DF92EF92FF920F931F93282F6E
:10264000462FADEECA2EA3E0DA2EC601622F0E94FD
:102650007E03C6010E9456046091420470914304B7
:10266000809144049091450420915004309151048C
:1026700040915204509153040E940A382DEC3CECD6
:102680004CEC5DE30E940A387B018C016091990457
:1026900070919A0480919B0490919C0426E636E602
:1026A00046E65FE30E940A389B01AC01C801B7010E
:1026B0000E9480356093990470939A0480939B04E0
:1026C00090939C042DB73EB72C5030400FB6F89431
:1026D0003EBF0FBE2DBF0DB71EB70F5F1F4FEDB72B
:1026E000FEB7D282C1822EE931E0F8013383228322
:1026F00025E130E03583248320E030E040E251E4FE
:102700000E944D360E94B536882777FD8095982F18
:102710000E94E83620E030E040E251E40E940A38AE
:10272000F801668377838087918780915B0490911D
:102730005C04938782870E94BD2A2DB73EB7245F31
:102740003F4F0FB6F8943EBF0FBE2DBFC6010E948B
:102750003A041F910F91FF90EF90DF90CF90089572
:10276000EF92FF920F931F93282F462FBDEEEB2E73
:10277000B3E0FB2EC701622F0E947E03C7010E94B7
:1027800056048DB79EB70C970FB6F8949EBF0FBE38
:102790008DBF0DB71EB70F5F1F4FEDB7FEB7F282AB
:1027A000E18288E891E0F8019383828381E190E0FF
:1027B0009583848360911E0470911F04809120048E
:1027C0009091210420915004309151044091520481
:1027D000509153040E940A38F801668377838087FA
:1027E000918780915504828713860E94BD2A8DB7F8
:1027F0009EB70C960FB6F8949EBF0FBE8DBFC70153
:102800000E943A041F910F91FF90EF900895EF926C
:10281000FF920F931F93282F462F1DEEE12E13E0FA
:10282000F12EC701622F0E947E03C7010E94560449
:102830008DB79EB70C970FB6F8949EBF0FBE8DBF95
:102840000DB71EB70F5F1F4FEDB7FEB7F282E182E3
:1028500086E791E0F801938382838DEB90E0958386
:10286000848360919D0470919E04882777FD8095F4
:10287000982F0E94E8362AE037ED43E25CE30E949D
:102880000A38F80166837783808791878EE090E02D
:10289000938782870E94BD2A8DB79EB70C960FB68C
:1028A000F8949EBF0FBE8DBFC7010E943A041F91CE
:1028B0000F91FF90EF900895CF93DF93282F462F2D
:1028C000CDEED3E0CE01622F0E947E03CE010E94A6
:1028D00056040E948B3328EE33E040E050E00E9423
:1028E0007439CA01B9012CE330E040E050E00E94A5
:1028F000743922EB31E0623071058105910588F46D
:1029000000D000D000D0EDB7FEB73196ADB7BEB75E
:102910001296DC93CE9311973383228384EA94E05A
:1029200010C000D000D000D0EDB7FEB73196ADB7E3
:10293000BEB71296DC93CE9311973383228389EC32
:1029400092E0958384830E94BD2A8DB79EB7069638
:102950000FB6F8949EBF0FBE8DBF8DEE93E00E9420
:102960003A04DF91CF910895CF92DF92EF92FF92D8
:102970000F931F93282F462F8DEE93E0622F0E9416
:102980007E038DEE93E00E94560480914104282F2F
:1029900030E03093C3022093C202809198048823D0
:1029A00059F50091AD0410E0201B310BB9018827C7
:1029B00077FD8095982F0E94E8366B017C0160912D
:1029C000AE0470E0601B710B882777FD8095982F0F
:1029D0000E94E8369B01AC01C701B6010E944D364A
:1029E00020E030E048EC52E40E940A380E94B536FC
:1029F0007093C3026093C2028DB79EB70A970FB659
:102A0000F8949EBF0FBE8DBFEDB7FEB731960DEEA9
:102A100013E0ADB7BEB712961C930E9311978FEBD0
:102A200091E09383828389E090E095838483809111
:102A3000C2029091C3029783868385E290E09187DA
:102A400080870E94BD2A8DB79EB70A960FB6F8946C
:102A50009EBF0FBE8DBFC8010E943A041F910F9107
:102A6000FF90EF90DF90CF9008950F931F93282F42
:102A7000462F8DEE93E0622F0E947E038DEE93E051
:102A80000E94560440919F04453029F42091390456
:102A900030913A0414C0463029F420913B0430911F
:102AA0003C040DC0473029F420913D0430913E0490
:102AB00006C0483021F420913F04309140048DB786
:102AC0009EB70A970FB6F8949EBF0FBE8DBFEDB7A5
:102AD000FEB731960DEE13E0ADB7BEB712961C935C
:102AE0000E93119787EC91E09383828383E490E0C7
:102AF00095838483842F90E0C09697838683318763
:102B000020870E94BD2A8DB79EB70A960FB6F8940B
:102B10009EBF0FBE8DBFC8010E943A041F910F9146
:102B20000895EF92FF920F931F93282F462F0DEEDB
:102B3000E02E03E0F02EC701622F0E947E03C70142
:102B40000E9456048DB79EB70C970FB6F8949EBF9F
:102B50000FBE8DBF0DB71EB70F5F1F4FEDB7FEB78E
:102B6000F282E1828FEC91E0F801938382838AE024
:102B700090E0958384838091D20290E02091AF040D
:102B80003091B004829FB001839F700D929F700DB1
:102B900011242091B104620F711D80E090E00E9429
:102BA000E63620E030E048EC52E40E944D36F80171
:102BB0006683778380879187809156048287138606
:102BC0000E94BD2A8DB79EB70C960FB6F8949EBF93
:102BD0000FBE8DBFC7010E943A041F910F91FF9055
:102BE000EF9008952F923F924F925F926F927F9253
:102BF0008F929F92AF92BF92CF92DF92EF92FF920D
:102C00000F931F938DEE282E83E0382EC1016BE0C9
:102C100045E00E947E03C1010E9456046091BA0201
:102C20007091BB028091BC029091BD020E94B536AA
:102C30006B017C018090500490905104A09052044C
:102C4000B090530440904C0450904D0460904E045A
:102C500070904F04F0905504E09054048DB79EB7E7
:102C6000845490400FB6F8949EBF0FBE8DBF0DB731
:102C70001EB70F5F1F4FEDB7FEB73282218289ED7D
:102C800091E0F8019383828388E090E095838483C8
:102C9000C6016CE370E00E946139CB016CE370E027
:102CA0000E946139978386838AE390E091878087C9
:102CB000C6016CE370E00E946139938782878BE0E4
:102CC00090E095878487C501B4012091B2043091CA
:102CD000B3044091B4045091B5040E940A380E9494
:102CE000B536F80177876687F08A118A8FE890E019
:102CF000938B828BC501B4012091B6043091B70447
:102D00004091B8045091B9040E940A380E94B53627
:102D1000F801758B648BF68A178A83E190E0918FB6
:102D2000808FC301B2012091BA043091BB0440915D
:102D3000BC045091BD040E940A380E94B536F801C7
:102D4000738F628FE48E158E84E190E0978F868F6B
:102D5000C301B2012091BE043091BF044091C00470
:102D60005091C1040E940A380E94B536F80171A33F
:102D700060A3E2A213A282E190E095A384A3C5011F
:102D8000B4012091C2043091C3044091C404509115
:102D9000C5040E940A380E94B536F80177A366A3DD
:102DA000F0A611A68DE190E093A782A7C301B2011E
:102DB0002091C6043091C7044091C8045091C904C1
:102DC0000E940A380E94B536F80175A764A7E6A6E6
:102DD00017A687E190E091AB80AB8091850490913C
:102DE0008604A0918704B091880482AB93ABA4AB16
:102DF000B5AB81E090E097AB86AB83E090E091AF1C
:102E000080AF8091150490911604A0911704B091A1
:102E1000180482AF93AFA4AFB5AF84E090E097AF52
:102E200086AF005C1F4F8091190490911A04A09105
:102E30001B04B0911C04F80180839183A283B383A7
:102E40000E94BD2A8DB79EB78C5B9F4F0FB6F8943A
:102E50009EBF0FBE8DBFC1010E943A041F910F910A
:102E6000FF90EF90DF90CF90BF90AF909F908F90AA
:102E70007F906F905F904F903F902F900895CF92EA
:102E8000DF92EF92FF920F931F93CF93DF93282F40
:102E9000462FCDEED3E0CE01622F0E947E03CE01FD
:102EA0000E9456046091B6047091B7048091B804F2
:102EB0009091B904209150043091510440915204F2
:102EC000509153040E940A386B017C0120E030E0ED
:102ED0004AE754E40E94FF371816CCF58DB79EB729
:102EE0000C970FB6F8949EBF0FBE8DBF0DB71EB7DF
:102EF0000F5F1F4FADB7BEB71296DC93CE931197FD
:102F000086E791E0F801938382838FE890E09583D0
:102F100084836091590470915A0480E090E00E948B
:102F2000E6369B01AC01C701B6010E944D36D801BF
:102F300016966D937D938D939C931997809157046A
:102F4000909158041B969C938E931A9721C08DB72D
:102F50009EB70C970FB6F8949EBF0FBE8DBFEDB70E
:102F6000FEB73196ADB7BEB71296DC93CE931197EC
:102F700088E891E0938382838FE890E0958384834F
:102F8000C682D782E086F1868091550482871386B7
:102F90000E94BD2AEDB7FEB73C960FB6F894FEBF6F
:102FA0000FBEEDBF8DEE93E00E943A04DF91CF910A
:102FB0001F910F91FF90EF90DF90CF900895EF92C7
:102FC000FF920F931F93CF93DF93282F462F8DEE01
:102FD00093E0622F0E947E038DEE93E00E945604E0
:102FE0006091330470913404882777FD8095982F81
:102FF0000E94E83620912B0430912C0440912D043E
:1030000050912E040E947F3520E030E044EB53E4E1
:103010000E944D3620E030E040E851E40E940A383A
:103020000E946D3820E030E040E85FE30E94803588
:103030000E94B536862F6093680467FF02C0805FE8
:1030400003C061311CF0805180936804E0906904F2
:10305000F0906A0400916B0410916C04C801B701F0
:1030600020E030EC49E754E40E94FF3718162CF4B6
:1030700080E090ECA9E7B4E40EC0C801B70120E0FD
:1030800030EC49E754EC0E944636882364F480E033
:1030900090ECA9E7B4EC8093690490936A04A09340
:1030A0006B04B0936C048DB79EB742970FB6F8943B
:1030B0009EBF0FBE8DBF0DB71EB70F5F1F4FCDEE6A
:1030C000D3E0EDB7FEB7D283C18381E392E0F8018C
:1030D0009383828387E590E09583848380E790E003
:1030E00097838683809137048087118613861286A2
:1030F000609135047091360480E090E00E94E636DD
:103100002091500430915104409152045091530445
:103110000E940A38F80164877587868797878091AF
:103120005504808B118A0E94BD2A8DB79EB74296A6
:103130000FB6F8949EBF0FBE8DBF8091680460E00B
:103140000E94310A80911304853039F08A3029F0C9
:103150008B3019F08F3009F047C0EDB7FEB770978C
:103160000FB6F894FEBF0FBEEDBF0DB71EB70F5FD1
:103170001F4F8DEE93E09283818383E492E0F80108
:103180009383828380E290E09583848388E590E056
:103190009783868385E690E09187808760916904B4
:1031A00070916A0480916B0490916C04209150049A
:1031B0003091510440915204509153040E940A38B6
:1031C000F801628773878487958780915504868785
:1031D00017860E94BD2A8DB79EB740960FB6F89409
:1031E0009EBF0FBE8DBF10C000D000D0EDB7FEB7A0
:1031F000D283C18386ED90E0948383830E94AC2ABE
:103200000F900F900F900F908DEE93E00E943A0474
:10321000DF91CF911F910F91FF90EF900895CF9282
:10322000DF92EF92FF920F931F937C01D62EC72E51
:103230000DEE13E0C8016E2D4D2D0E947E03C801D6
:103240000E94560400D000D0EDB7FEB71283018370
:103250008FED90E0948383830E94AC2A0F900F90AF
:103260000F900F90C8010E943A04C70101966D2D7E
:103270007C2D0E94E50A1F910F91FF90EF90DF9047
:10328000CF9008950F931F930DEE13E0C80165E0F2
:1032900045E00E947E03C8010E94560400D000D081
:1032A000EDB7FEB71283018387E291E094838383B5
:1032B0000E94AC2A0F900F900F900F90C8010E94AF
:1032C0003A041F910F9108950E9442190E947208BA
:1032D00008950E948B332091CA043091CB04409111
:1032E000CC045091CD04621B730B840B950B695871
:1032F00073418040904058F08091C802882321F4A7
:103300008DEE93E00E94A3040E94F215089580912F
:10331000A204A82FB0E0FD01E85AFC4F808180FF95
:103320000BC0FD01EE54FC4F6081A055BC4F8C9149
:1033300090E070E00E9483108091C802882331F0F1
:103340008DEE93E00E94A3041092C80280919F0426
:10335000843010F00E94F7058091A204823009F4B5
:103360002AC2A82FB0E0FD01EE5AFC4F808181FFF8
:103370000BC0FD01E25AFC4F6081A45ABC4F8C91F6
:1033800090E070E00E94EF0E8091A204A82FB0E0C0
:10339000FD01EE5AFC4F808182FF0BC0FD01EE590A
:1033A000FC4F6081A05ABC4F8C9190E070E00E946D
:1033B000AF0E8091A204A82FB0E0FD01EE5AFC4FA1
:1033C000808183FF0BC0FD01EA59FC4F6081AC593D
:1033D000BC4F8C9190E070E00E94690E8091A20435
:1033E000A82FB0E0FD01EE5AFC4F808180FF0BC09A
:1033F000FD01E659FC4F6081A859BC4F8C9190E0CB
:1034000070E00E94230E8091A204A82FB0E0FD017D
:10341000EE5AFC4F808185FF0BC0FD01E259FC4F45
:103420006081A459BC4F8C9190E070E00E94DA0D4D
:103430008091A204A82FB0E0FD01EE5AFC4F8081DC
:1034400087FF0BC0FD01EA58FC4F6081AC58BC4FB0
:103450008C9190E070E00E94880D8091A204A82FCA
:10346000B0E0FD01EE5AFC4F808184FF0BC0FD01EE
:10347000E658FC4F6081A858BC4F8C9190E070E0FA
:103480000E94FF0F8091A204A82FB0E0FD01EC5A2A
:10349000FC4F808180FF0BC0FD01E258FC4F608132
:1034A000A458BC4F8C9190E070E00E94080D809170
:1034B000A204A82FB0E0FD01EC5AFC4F808181FFEF
:1034C0000BC0FD01EE57FC4F6081A058BC4F8C91A2
:1034D00090E070E00E94460D8091CE04813051F55D
:1034E0008091A204A82FB0E0FD01EC5AFC4F80812E
:1034F00084FF0BC0FD01E657FC4F6081A857BC4F0D
:103500008C9190E070E00E942F0F8091A204A82F70
:10351000B0E0FD01EC5AFC4F808183FF0BC0FD0140
:10352000EA57FC4F6081AC57BC4F8C9190E070E043
:103530000E94F00C8091A204A82FB0E0FD01EC5A8B
:10354000FC4F808187FF0BC0FD01EE56FC4F608170
:10355000A057BC4F8C9190E070E00E94880F809142
:1035600037048823A9F08091A204A82FB0E0FD01C0
:10357000EC5AFC4F808186FF0BC0FD01E257FC4FE7
:103580006081A457BC4F8C9190E070E00E94DF17DF
:103590008091A204A82FB0E0FD01EA5AFC4F80817F
:1035A00082FF0BC0FD01E656FC4F6081A856BC4F60
:1035B0008C9190E070E00E94B0138091A204A82F3B
:1035C000B0E0FD01EA5AFC4F808183FF0BC0FD0192
:1035D000E256FC4F6081A456BC4F8C9190E070E0A5
:1035E0000E94C2128091A204A82FB0E0FD01EA5A05
:1035F000FC4F808181FF0BC0FD01EE55FC4F6081C7
:10360000A056BC4F8C9190E070E00E946B128091AC
:10361000A204A82FB0E0FD01EA5AFC4F808184FF8C
:103620000BC0FD01EA55FC4F6081AC55BC4F8C913D
:1036300090E070E00E9445108091A204A82FB0E0B5
:10364000FD01EA5AFC4F808185FF0BC0FD01E65564
:10365000FC4F6081A855BC4F8C9190E070E00E94B7
:10366000950C8091A204A82FB0E0FD01EA5AFC4F0E
:10367000808186FF0BC0FD01E255FC4F6081A4559F
:10368000BC4F8C9190E070E00E940F198091A204D1
:10369000A82FB0E0FD01EA5AFC4F808180FF0BC0EB
:1036A000FD01EA56FC4F6081AC56BC4F8C9190E016
:1036B00070E00E9407148091A204A82FB0E0FD01E1
:1036C000E85AFC4F808183FF0BC0FD01E654FC4F9C
:1036D0006081A854BC4F8C9190E070E00E94191357
:1036E0008091A204A82FB0E0FD01E85AFC4F808130
:1036F00086FF0BC0FD01E254FC4F6081A454BC4F17
:103700008C9190E070E00E94B4148091A204A82FE4
:10371000B0E0FD01E85AFC4F808185FF0BC0FD0140
:10372000EE53FC4F6081A054BC4F8C9190E070E050
:103730000E945C148091A204A82FB0E0FD01E65A1B
:10374000FC4F808181FF0BC0FD01E653FC4F60817F
:10375000A853BC4F8C9190E070E00E94911580912D
:10376000A204A82FB0E0FD01E65AFC4F808180FF43
:103770000BC0FD01EA53FC4F6081AC53BC4F8C91F0
:1037800090E070E00E9435158091A204A82FB0E06F
:10379000FD01E65AFC4F808182FF0BC0FD01E25320
:1037A000FC4F6081A453BC4F8C9190E070E00E946C
:1037B0003F170E948C060895CF93DF93EC018DEEA6
:1037C00093E00E947A03C817D9073CF08DEE93E08E
:1037D0000E946F03892B09F42397CE01DF91CF91CB
:1037E0000895EF92FF920F931F93CF93DF93009171
:1037F000A20410E08AEF90E0089F7001099FF00C8E
:10380000189FF00C1124C70188569F4F0E942B0A65
:10381000F801EE5AFC4F882319F08081806102C0C4
:1038200080818F7E80838091A204C82FD0E0C70161
:1038300086569F4F0E942B0AC858DC4F8883809180
:10384000A204C82FD0E0C70184569F4F0E942B0AC4
:1038500090E00E94DC1BC658DC4F88830091A204D4
:1038600010E0C70106960E942B0AF801EE5AFC4FA1
:10387000882319F08081826002C080818D7F8083DF
:103880008091A204C82FD0E0C70108960E942B0A9D
:10389000C45ADC4F88838091A204C82FD0E0C701AE
:1038A0000A960E942B0A90E00E94DC1BC25ADC4F51
:1038B00088830091A20410E0C7010C960E942B0A95
:1038C000F801EE5AFC4F882319F08081846002C011
:1038D00080818B7F80838091A204C82FD0E0C701B4
:1038E0000E960E942B0AC05ADC4F88838091A20456
:1038F000C82FD0E0C70140960E942B0A90E00E949A
:10390000DC1BCE59DC4F88830091A20410E0C70174
:1039100042960E942B0AF801EE5AFC4F882319F0B8
:103920008081886002C08081877F80838091A2042B
:10393000C82FD0E0C70144960E942B0ACC59DC4F17
:1039400088838091A204C82FD0E0C70146960E94C8
:103950002B0A90E00E94DC1BCA59DC4F888300913F
:10396000A20410E0C70148960E942B0AF801EE5A03
:10397000FC4F882319F08081816002C080818E7F96
:1039800080838091A204C82FD0E0C7014A960E948C
:103990002B0AC859DC4F88838091A204C82FD0E03D
:1039A000C7014C960E942B0A90E00E94DC1BC6596E
:1039B000DC4F88830091A20410E0C7014E960E945C
:1039C0002B0AF801EE5AFC4F882319F0808180629F
:1039D00002C080818F7D80838091A204C82FD0E0B7
:1039E000C70180960E942B0AC459DC4F88838091BE
:1039F000A204C82FD0E0C70182960E942B0A90E053
:103A00000E94DC1BC259DC4F88830091A20410E0A5
:103A1000C70184960E942B0AF801EE5AFC4F8823B6
:103A200019F08081806402C080818F7B80838091C7
:103A3000A204C82FD0E0C70186960E942B0AC05965
:103A4000DC4F88838091A204C82FD0E0C7018896FC
:103A50000E942B0A90E00E94DC1BCE58DC4F88832A
:103A60000091A20410E0C7018A960E942B0AF80177
:103A7000EE5AFC4F882319F08081806802C0808153
:103A80008F7780838091A204C82FD0E0C7018C96E5
:103A90000E942B0ACC58DC4F88838091A204C82F47
:103AA000D0E0C7018E960E942B0A90E00E94DC1B9A
:103AB000CA58DC4F88830091A20410E0C701C09669
:103AC0000E942B0AF801EC5AFC4F882319F08081E0
:103AD000816002C080818E7F80838091A204C82F84
:103AE000D0E0C701C2960E942B0AC458DC4F8883DD
:103AF0008091A204C82FD0E0C701C4960E942B0A6F
:103B000090E00E94DC1BC258DC4F88830091A20425
:103B100010E0C701C6960E942B0AF801EC5AFC4F30
:103B2000882319F08081826002C080818D7F80832C
:103B30008091A204C82FD0E0C701C8960E942B0A2A
:103B4000C058DC4F88838091A204C82FD0E0C70101
:103B5000CA960E942B0A90E00E94DC1BCE57DC4FD5
:103B600088830091A20410E0C701885B9F4F0E94E8
:103B70002B0AF801EC5AFC4F882319F080818061F0
:103B800002C080818F7E80838091A204C82FD0E004
:103B9000C701865B9F4F0E942B0AC857DC4F888362
:103BA0008091A204C82FD0E0C701845B9F4F0E9480
:103BB0002B0A90E00E94DC1BC657DC4F88830091E3
:103BC000A20410E0C7018E5B9F4F0E942B0AF801F0
:103BD000EC5AFC4F882319F08081886002C08081F4
:103BE000877F80838091A204C82FD0E0C7018C5BBF
:103BF0009F4F0E942B0ACC57DC4F88838091A204F0
:103C0000C82FD0E0C7018A5B9F4F0E942B0A90E02B
:103C10000E94DC1BCA57DC4F88830091A20410E08D
:103C2000C7018A5A9F4F0E942B0AF801EC5AFC4F99
:103C3000882319F08081806402C080818F7B80831B
:103C40008091A204C82FD0E0C701885A9F4F0E94DC
:103C50002B0AC457DC4F88838091A204C82FD0E080
:103C6000C701865A9F4F0E942B0A90E00E94DC1BDE
:103C7000C257DC4F88830091A20410E0C70182562E
:103C80009F4F0E942B0AF801EC5AFC4F882319F031
:103C90008081806802C080818F7780838091A204B8
:103CA000C82FD0E0C70180569F4F0E942B0AC057F3
:103CB000DC4F88838091A204C82FD0E0C7018E55C5
:103CC0009F4F0E942B0A90E00E94DC1BCE56DC4FD7
:103CD00088830091A20410E0C7018E599F4F0E9473
:103CE0002B0AF801EA5AFC4F882319F08081816081
:103CF00002C080818E7F80838091A204C82FD0E093
:103D0000C7018C599F4F0E942B0ACC56DC4F8883E9
:103D10008091A204C82FD0E0C7018A599F4F0E940A
:103D20002B0A90E00E94DC1BCA56DC4F888300916E
:103D3000A20410E0C70182599F4F0E942B0AF8018C
:103D4000EA5AFC4F882319F08081846002C0808188
:103D50008B7F80838091A204C82FD0E0C701805957
:103D60009F4F0E942B0AC856DC4F88838091A20483
:103D7000C82FD0E0C7018E589F4F0E942B0A90E0B9
:103D80000E94DC1BC656DC4F88830091A20410E021
:103D9000C7018E569F4F0E942B0AF801EA5AFC4F2A
:103DA000882319F08081826002C080818D7F8083AA
:103DB0008091A204C82FD0E0C7018C569F4F0E946B
:103DC0002B0AC056DC4F88838091A204C82FD0E014
:103DD000C7018A569F4F0E942B0A90E00E94DC1B6D
:103DE000CE55DC4F88830091A20410E0C7018C58A7
:103DF0009F4F0E942B0AF801EA5AFC4F882319F0C2
:103E00008081886002C08081877F80838091A20446
:103E1000C82FD0E0C7018A589F4F0E942B0AC45672
:103E2000DC4F88838091A204C82FD0E0C701885856
:103E30009F4F0E942B0A90E00E94DC1BC256DC4F71
:103E400088830091A20410E0C70186589F4F0E940A
:103E50002B0AF801EA5AFC4F882319F0808180610F
:103E600002C080818F7E80838091A204C82FD0E021
:103E7000C70184589F4F0E942B0ACC55DC4F888382
:103E80008091A204C82FD0E0C70182589F4F0E94A2
:103E90002B0A90E00E94DC1BCA55DC4F88830091FE
:103EA000A20410E0C70180589F4F0E942B0AF8011E
:103EB000EA5AFC4F882319F08081806202C0808119
:103EC0008F7D80838091A204C82FD0E0C7018E57D8
:103ED0009F4F0E942B0AC855DC4F88838091A20413
:103EE000C82FD0E0C7018C579F4F0E942B0A90E04B
:103EF0000E94DC1BC655DC4F88830091A20410E0B1
:103F0000C7018A579F4F0E942B0AF801EA5AFC4FBB
:103F1000882319F08081806402C080818F7B808338
:103F20008091A204C82FD0E0C70188579F4F0E94FC
:103F30002B0AC455DC4F88838091A204C82FD0E09F
:103F4000C70186579F4F0E942B0A90E00E94DC1BFE
:103F5000C255DC4F88830091A20410E0C7018C5544
:103F60009F4F0E942B0AF801E85AFC4F882319F052
:103F70008081816002C080818E7F80838091A204D5
:103F8000C82FD0E0C7018A559F4F0E942B0AC05509
:103F9000DC4F88838091A204C82FD0E0C7018855E8
:103FA0009F4F0E942B0A90E00E94DC1BCE54DC4FF6
:103FB00088830091A20410E0C70180559F4F0E94A2
:103FC0002B0AF801E85AFC4F882319F0808184609D
:103FD00002C080818B7F80838091A204C82FD0E0B3
:103FE000C7018E549F4F0E942B0ACC54DC4F88830C
:103FF0008091A204C82FD0E0C7018C549F4F0E942B
:104000002B0A90E00E94DC1BCA54DC4F888300918D
:10401000A20410E0C7018A549F4F0E942B0AF801A6
:10402000E85AFC4F882319F08081886002C08081A3
:10403000877F80838091A204C82FD0E0C701885475
:104040009F4F0E942B0AC854DC4F88838091A204A2
:10405000C82FD0E0C70186549F4F0E942B0A90E0E2
:104060000E94DC1BC654DC4F88830091A20410E040
:10407000C701845A9F4F0E942B0AF801E85AFC4F4F
:10408000882319F08081806402C080818F7B8083C7
:104090008091A204C82FD0E0C701825A9F4F0E948E
:1040A0002B0AC454DC4F88838091A204C82FD0E02F
:1040B000C701805A9F4F0E942B0A90E00E94DC1B90
:1040C000C254DC4F88830091A20410E0C7018853DA
:1040D0009F4F0E942B0AF801E85AFC4F882319F0E1
:1040E0008081806202C080818F7D80838091A20464
:1040F000C82FD0E0C70186539F4F0E942B0AC0549F
:10410000DC4F88838091A204C82FD0E0C70184537C
:104110009F4F0E942B0A90E00E94DC1BCE53DC4F85
:1041200088830091A20410E0C70182539F4F0E9430
:104130002B0AF801E65AFC4F882319F08081816030
:1041400002C080818E7F80838091A204C82FD0E03E
:10415000C70180539F4F0E942B0ACC53DC4F8883AA
:104160008091A204C82FD0E0C7018E529F4F0E94B9
:104170002B0A90E00E94DC1BCA53DC4F888300911D
:10418000A20410E0C7018C529F4F0E942B0AF80135
:10419000E65AFC4F882319F08081826002C080813A
:1041A0008D7F80838091A204C82FD0E0C7018A52FE
:1041B0009F4F0E942B0AC853DC4F88838091A20432
:1041C000C82FD0E0C70188529F4F0E942B0A90E071
:1041D0000E94DC1BC653DC4F88830091A20410E0D0
:1041E000C70180529F4F0E942B0AF801E65AFC4FEC
:1041F000882319F08081846002C080818B7F808356
:104200008091A204C82FD0E0C7018E519F4F0E9419
:104210002B0AC453DC4F88838091A204C82FD0E0BE
:10422000C7018C519F4F0E942B0A90E00E94DC1B1B
:10423000C253DC4F8883DF91CF911F910F91FF9084
:10424000EF900895482F88E895E00E947531089511
:104250000F931F930091A2048AEF089F80011124FD
:104260000A5F1F4F81E0B8010E9422210E5F1F4F9D
:1042700087E1B8010E9422210E5F1F4F8BE0B80139
:104280000E9422210E5F1F4F81E0B8010E9422216F
:104290000E5F1F4F8CE0B8010E9422210E5F1F4F5E
:1042A00081E0B8010E9422210E5F1F4F81E0B8011A
:1042B0000E9422210E5F1F4F8EE0B8010E94222132
:1042C0000E5F1F4F8EE0B8010E9422210E5F1F4F2C
:1042D00081E0B8010E9422210E5F1F4F85E1B801E5
:1042E0000E9422210E5F1F4F83E0B8010E9422210D
:1042F0000E5F1F4F81E0B8010E9422210E5F1F4F09
:1043000081E0B8010E9422210E5F1F4F8BE0B801AF
:104310000E9422210E5F1F4F81E0B8010E942221DE
:104320000E5F1F4F85E0B8010E9422210E5F1F4FD4
:104330008BE0B8010E9422210E5F1F4F81E0B8017F
:104340000E9422210E5F1F4F81E0B8010E942221AE
:104350000E5F1F4F8EE0B8010E9422210E5F1F4F9B
:1043600081E0B8010E9422210E5F1F4F85E1B80154
:104370000E9422210E5F1F4F8FE0B8010E94222170
:104380000E5F1F4F81E0B8010E9422210E5F1F4F78
:1043900088E1B8010E9422210E5F1F4F8EE0B80114
:1043A0000E942221085F1F4F81E0B8010E94222154
:1043B0000E5F1F4F8EE0B8010E9422210E5F1F4F3B
:1043C00083E0B8010E9422210E5F1F4F81E0B801F7
:1043D0000E9422210E5F1F4F86E1B8010E94222118
:1043E0000E5F1F4F81E0B8010E94222180E066E548
:1043F00070E00E94222189E068E570E00E9422219D
:104400008EE06AE570E00E942221005F1F4F81E08C
:10441000B8010E9422210E5F1F4F88E0B8010E9460
:1044200022210E5F1F4F8DE0B8010E9422210E5FF6
:104430001F4F81E0B8010E9422210E5F1F4F8EE0C6
:10444000B8010E9422210E5F1F4F8FE0B8010E9429
:104450002221085F1F4F81E0B8010E9422210E5FD8
:104460001F4F86E1B8010E9422210E5F1F4F83E09B
:10447000B8010E9422210E5F1F4F81E0B8010E9407
:1044800022210E5F1F4F81E0B8010E9422210E5FA2
:104490001F4F82E0B8010E942221065E1F4F81E07B
:1044A000B8010E9422210E5F1F4F81E0B8010E94D7
:1044B00022210E5F1F4F81E0B8010E9422210E5F72
:1044C0001F4F81E0B8010E9422210E5F1F4F81E043
:1044D000B8010E9422210E5F1F4F84E0B8010E94A4
:1044E00022210E5F1F4F81E0B8010E9422210E5F42
:1044F0001F4F87E1B8010E9422210E5F1F4F8DE000
:10450000B8010E9422210852104081E0B8010E94A7
:1045100022210E5F1F4F81E0B8010E9422210E5F11
:104520001F4F83E0B8010E9422210E5F1F4F81E0E0
:10453000B8010E9422210E5F1F4F81E0B8010E9446
:1045400022210E5F1F4F8DE0B8010E9422210E5FD5
:104550001F4F81E0B8010E9422210E5F1F4F88E0AB
:10456000B8010E9422210E5F1F4F86E0B8010E9411
:104570002221065E1F4F81E0B8010E9422210E5FBA
:104580001F4F89E0B8010E9422210E5F1F4F84E077
:10459000B8010E942221085F1F4F80E0B8010E94ED
:1045A00022210E5F1F4F88E1B8010E9422210E5F79
:1045B0001F4F87E0B8010E9422210E5F1F4F81E04C
:1045C000B8010E9422210E5F1F4F81E0B8010E94B6
:1045D00022210E5F1F4F88E0B8010E942221065E53
:1045E0001F4F80E0B8010E9422210E5F1F4F86E11D
:1045F000B8010E9422210E5F1F4F8EE0B8010E9479
:104600002221085F1F4F80E0B8010E9422210E5F27
:104610001F4F86E1B8010E9422210E5F1F4F82E0EA
:10462000B8010E9422218EE16CE773E00E942221F2
:1046300080E06EE773E00E94222184E660E873E088
:104640000E94222184E662E873E00E94222186E033
:104650006AE873E00E94222181E064EA73E00E942C
:10466000222181E065EA73E00E94222181E06AEA6A
:1046700073E00E94222181E06BEA73E00E94222114
:1046800081E066EA73E00E94222181E068EA73E03B
:104690000E94222180E06CEA73E00E94222181E0E6
:1046A0006EEA73E00E94222180E060EB73E00E94DA
:1046B00022211F910F9108950F931F938AE268EEB4
:1046C00073E00E94222184E26EEE73E00E942221B8
:1046D0001092A20407C00E9428218091A2048F5F3B
:1046E0008093A2048091A2048230A8F30DEE13E01F
:1046F000C80164E049E00E947E03C8010E9456049C
:1047000000D000D0EDB7FEB71283018381E591E0C0
:10471000948383830E94AC2A0F900F900F900F9088
:10472000C8010E943A04FFCF4F925F927F928F920E
:104730009F92AF92BF92CF92DF92EF92FF920F9330
:104740001F93DF93CF93CDB7DEB7C854D0400FB6D9
:10475000F894DEBF0FBECDBF8DEE93E00E94A304A0
:1047600000D000D000ED13E0EDB7FEB71283018357
:1047700084E791E0948383830E94AC2A59E6452E16
:1047800051E0552EEE24FF24CC24DD240F900F9011
:104790000F900F90702E012F49E0A42EB12CAC0E7B
:1047A000BD1E4E010894811C911C80ED93E00E9477
:1047B000602B982F8D3031F08D30DCF180538230BA
:1047C000C0F530C01830A1F59981892F805382300F
:1047D00078F5913311F490E801C090E08A8181333B
:1047E00009F4905C8B81813309F4905E8C81813374
:1047F00009F4905F8D81813309F4985F8E81813354
:1048000009F49C5F8F81813309F49E5F8885813331
:1048100009F49F5FF501EE0DFF1D90830894E11CE4
:10482000F11C06C0F401E10FF11D90831F5F01C070
:1048300010E0F0E4EF16F104C9F48DEE93E0B60158
:10484000A5010E948E030894C11CD11C00D000D089
:10485000EDB7FEB771820283548243820E94AC2A74
:10486000EE24FF240F900F900F900F90FFEFCF16C4
:10487000D10409F00CF499CFC85BDF4F0FB6F89460
:10488000DEBF0FBECDBFCF91DF911F910F91FF9083
:10489000EF90DF90CF90BF90AF909F908F907F90E0
:1048A0005F904F900895EF92FF920F931F93DF93C5
:1048B000CF93CDB7DEB766970FB6F894DEBF0FBEC5
:1048C000CDBF7E010894E11CF11C01E02BC180EDFD
:1048D00093E00E94602B182F80910C04882301F52F
:1048E0000E948B3360527E4480409040C8F40E9406
:1048F0008B33695873418040904090F01A3011F02A
:104900001D3031F480910D048F5F80930D0402C03F
:1049100010920D0480910D04833011F40E949423B1
:10492000812FB7010E949C29882309F4FBC00093C2
:104930000C0400930E040E948B330E94E6366093B1
:104940000F047093100480931104909312048981D2
:104950009A818330910509F493C08430910554F411
:1049600081309105C9F0823091050CF07CC0892B13
:1049700069F0D8C08630910509F4B8C08730910538
:1049800009F4C5C0049709F0CDC08AC08B8180931B
:10499000130410921404C6C06B817C818D819E81AA
:1049A0000E94E83620E836E948E15BE40E944D3693
:1049B0006093150470931604809317049093180461
:1049C0006F81788589859A850E94E83620E836E9E6
:1049D00048E15BE40E944D366093190470931A0419
:1049E00080931B0490931C048F8580931D046B851A
:1049F0007C858D859E850E94E83660931E047093A9
:104A00001F048093200490932104888980932204BA
:104A100069897A8980E090E00E94E63660932304F9
:104A20007093240480932504909326046B897C89D9
:104A300080E090E00E94E63660932704709328049B
:104A40008093290490932A046D897E8980E090E008
:104A50000E94E63660932B0470932C0480932D04FF
:104A600090932E045FC08B819C819093300480933F
:104A70002F048D819E81909332048093310452C023
:104A80008B819C8190933404809333048D819E812B
:104A9000909336048093350489858093370442C00F
:104AA0008B819C81885E93406AE070E00E944D3962
:104AB000609338048D819E8190933A0480933904E9
:104AC0008F81988590933C0480933B0489859A85D7
:104AD00090933E0480933D048B859C859093400485
:104AE00080933F048B89809341041CC06B817C813F
:104AF000882777FD8095982F0E94E83660934204BE
:104B00007093430480934404909345040BC064EF76
:104B100071E080E090E00E949933E0910A04F09106
:104B20000B04099580ED93E00E94302B18161906AE
:104B30000CF4CDCE66960FB6F894DEBF0FBECDBF97
:104B4000CF91DF911F910F91FF90EF900895EF9219
:104B5000FF920F931F93E090D304F090D404009140
:104B6000D5041091D6048FE590E0A0E0B0E0E80E07
:104B7000F91E0A1F1B1F0E948B336E157F058007CD
:104B8000910708F41BC10E948B330E948B33609302
:104B9000D3047093D4048093D5049093D60487E013
:104BA0000E943034AA2797FDA095BA2FBC01CD01F1
:104BB0000E94E83620E030E849E85FE30E940A38C6
:104BC0002091D3023091D4024091D5025091D60267
:104BD0000E944D362DEC3CEC4CE45EE30E940A381A
:104BE0007B018C016091DF027091E0028091E10213
:104BF0009091E2022DEC3CEC4CE45FE30E940A3819
:104C00009B01AC01C801B7010E948035DC019B010A
:104C1000AC012093DF023093E0024093E102509315
:104C2000E202CB0180937D0490937E04A0937F04E5
:104C3000B093800486E00E943034AA2797FDA095A7
:104C4000BA2FBC01CD010E94E83620E030E849E8E7
:104C50005FE30E940A382091D7023091D802409138
:104C6000D9025091DA020E944D362DEC3CEC4CE416
:104C70005EE30E940A387B018C016091E30270912F
:104C8000E4028091E5029091E6022DEC3CEC4CE4CC
:104C90005FE30E940A389B01AC01C801B7010E9482
:104CA0008035DC019B01AC012093E3023093E402E8
:104CB0004093E5025093E602CB01809379049093F0
:104CC0007A04A0937B04B0937C0481E00E9430348A
:104CD0009093B0048093AF046091DB027091DC028A
:104CE0008091DD029091DE0220E030E040E050E073
:104CF0000E94FF3718160CF061C082E00E94303429
:104D0000AA2797FDA095BA2FBC01CD010E94E836D5
:104D100020E030E849E85FE30E940A387B018C011B
:104D20006091CF047091D0048091D1049091D2040D
:104D300020E030E040E251EC0E944D369B01AC0196
:104D4000C801B7010E9480352091DB023091DC025E
:104D50004091DD025091DE020E944D362DEC3CEC7C
:104D60004CEC5DE30E940A387B018C016091D70412
:104D70007091D8048091D9049091DA0426E636E641
:104D800046E65FE30E940A389B01AC01C801B70107
:104D90000E9480356093D7047093D8048093D9041F
:104DA0009093DA0420E030E048EC52E40E940A38A4
:104DB0000E94B53670939E0460939D041F910F91DD
:104DC000FF90EF90089583E00E942D346091BE0221
:104DD0007091BF028091C0029091C1022DEC3CEC19
:104DE0004CE85FE30E940A386093DF027093E002B0
:104DF0008093E1029093E2026091C4027091C50237
:104E00008091C6029091C7022DEC3CEC4CE85FE328
:104E10000E940A386093E3027093E4028093E502F3
:104E20009093E602089586E061E00E94913408952F
:104E30008091DB048130A1F41092DB048DEE93E0CD
:104E40000E94A3041092E7020E948B330E94E63670
:104E500060930F04709310048093110490931204D4
:104E60000E9453248FEF93E00E94CF3108950F9357
:104E70001F93CF93DF9386E061E00E94523480ED70
:104E800093E040E051EE60E070E00E94CE2A0E9484
:104E90001327CDEED3E0CE010E9422050E946419B3
:104EA00064EF71E080E090E00E94993388EE93E037
:104EB0000E942B0A082F8EEE93E00E942B0A10E02E
:104EC000080F111D0E341105E9F0CE0166E049E02E
:104ED0000E947E03CE010E94560400D000D0EDB7A0
:104EE000FEB7D283C18384E891E0948383830E94D8
:104EF000AC2A0F900F900F900F90CE010E943A04B1
:104F00000E945C230E94FE081092A20407C00E9427
:104F1000F11B8091A2048F5F8093A2048091A20470
:104F20008230A8F31092A20460ED77E080E090E078
:104F30000E94993380ED93E00E94AD2B8FEF93E0B8
:104F400066E479E228E730E040E050E000E00E94CB
:104F500081310E94E3268DEE93E00E94A3048FEF3F
:104F600093E00E94E731DF91CF911F910F91089557
:104F70002F923F924F925F926F927F928F929F9269
:104F8000AF92BF92CF92DF92EF92FF920F931F9357
:104F9000DF93CF9300D000D0CDB7DEB7E0901E04F2
:104FA000F0901F040091200410912104C801B70162
:104FB0002091E1043091E2044091E3045091E40433
:104FC0000E947F3560935D0470935E0480935F045C
:104FD00090936004A090CE04AA2049F580911D040E
:104FE000833009F03CC18091150490911604A09182
:104FF0001704B09118048093E5049093E604A093FD
:10500000E704B093E8048091190490911A04A091E8
:105010001B04B0911C048093E9049093EA04A093CC
:10502000EB04B093EC0481E08093CE0418C181E0DE
:10503000A81609F014C16090ED04E8E1E61580F1CE
:105040006091EE047091EF048091F0049091F1046E
:10505000A80197010E947F359F7720E030E040E073
:105060005FE30E94FF3718165CF41092ED04E092A3
:10507000EE04F092EF040093F0041093F10410C0DA
:10508000862D8F5F8093ED04893151F4E092E10425
:10509000F092E2040093E3041093E404A092DC0491
:1050A000E090E504F090E6040091E7041091E80434
:1050B000C801B7019F7725E33AEF4EE85CE30E9411
:1050C0000A380E944A3669837A838B839C83C8019D
:1050D000B7012091150430911604409117045091A6
:1050E00018040E947F351B012C019F7720EC3BE6C2
:1050F00049ED57E40E940A385B016C016091E904B4
:105100007091EA048091EB049091EC0420911904D1
:1051100030911A0440911B0450911C040E947F3569
:105120003B014C019F7720EC3BE649ED57E40E94A0
:105130000A3829813A814B815C810E940A387B01BF
:105140008C01C601B501A60195010E940A385B01D8
:105150006C01C801B701A80197010E940A389B01A0
:10516000AC01C601B5010E9480350E9491380E94B1
:10517000B5366093610470936204809363049093E6
:10518000640460E070E080E89FE329813A814B810C
:105190005C810E944D369B01AC01C201B1010E94AD
:1051A0000A3897FA909497F89094A40193010E947A
:1051B000F33520EE3EE245E652E40E940A3820E054
:1051C00030E044EB52E40E9480350E94B5369B01EA
:1051D000AC0197FF04C028593E4F4F4F5F4FCA01A3
:1051E000B901645B70408040904097FF06C0CA01DF
:1051F000B9016C547F4F8F4F9F4F0E94E83620912A
:105200002B0430912C0440912D0450912E040E94C7
:105210007F350E94B53697FF04C068597E4F8F4F87
:105220009F4F0E94E83620E030E044EB53E40E94B8
:105230004D3620E030E040E851E40E940A380E94F8
:105240006D3820E030E040E85FE30E9480350E9446
:10525000BA3660936504613110F0109265040F90C6
:105260000F900F900F90CF91DF911F910F91FF90B2
:10527000EF90DF90CF90BF90AF909F908F907F90F6
:105280006F905F904F903F902F9008950E945F0C19
:105290008DEE93E00E94B8270E94A7250E9469190D
:1052A0000E94BB0608950F931F9386EF94E06CE273
:1052B00070E00E942C038C010F5F1F4F1093F304CA
:1052C0000093F204C8016CE270E00E942C03FC0120
:1052D0009093F5048093F404012B41F0009731F092
:1052E00010822091F2043091F30402C028EE32E0E3
:1052F000C9011F910F9108958091F4049091F504D4
:10530000009781F001969093F3048093F2046CE28D
:1053100070E00E942C03FC019093F5048093F40448
:10532000009719F428EE32E005C010822091F204B3
:105330003091F304C9010895EF92FF920F931F93E8
:10534000CF93DF93EB01843209F0DAC080ED93E074
:105350006AE046EF54E020E830E00E944A358823B6
:1053600009F4CEC0E82FF0E0EB50FB4F80818D3088
:1053700009F0C6C010828091F6048D3409F46EC025
:105380008E344CF4833409F481C08934E1F08134E3
:1053900009F0B6C02AC0823509F4ADC0833524F4C3
:1053A000803509F0ADC007C0853509F492C08A3553
:1053B00009F0A6C097C0198218820E9453290E9442
:1053C000DC028A8310C082E090E0998388830E9487
:1053D00053290E94DC029D838C830E947C290E94B9
:1053E000DC029B838A8381E08CC081E090E099831A
:1053F00088830E9453290E94FA026A837B838C83EC
:105400009D830E947C290E94FA026E837F83888795
:1054100099870E947C290E94DC028F870E947C2948
:105420000E94FA026A877B878C879D870E947C296D
:105430000E94DC02888B198A0E947C290E94DC026F
:105440008A8B1B8A0E947C290E94DC029D8B8C8B9C
:105450000E947C290E94DC028E87C5CF83E090E009
:10546000998388830E9453290E94FA027B836A836E
:105470000E947C290E94FA026C837D838E839F8325
:105480000E947C290E94DC028887ADCF84E090E0F6
:10549000998388830E9453290E94DC029B838A831C
:1054A0007E0101E010E00E947C290E94DC02F701ED
:1054B000958384830F5F1F4F82E090E0E80EF91E12
:1054C0000530110581F70E947C290E94DC028A8B3D
:1054D0008ACF85E090E0998388830E9453290E94B7
:1054E000DC027FCF86E090E0998388830E94532975
:1054F0000E94DC0276CF87E090E09983888373CFA7
:1055000080E0DF91CF911F910F91FF90EF90089570
:105510006EBD0DB407FEFDCF8EB508958DE061E040
:105520000E9452348BE061E00E9452348CE060E0D3
:105530000E9452348AE061E00E9452341CBC80E533
:105540008CBD8DB58EB5089586E795E00E948E2AB4
:1055500008958FEF9FE70895DF93CF93CDB7DEB720
:10556000FE0139968D819E8161E04F8158859F01B2
:105570000E944D2DCF91DF910895DF93CF93CDB74A
:10558000DEB7FE0139968D819E8160E04F8158859E
:105590009F010E944D2DCF91DF9108950F931F938E
:1055A000DC01ED91FC910288F389E02D20E030E0F0
:1055B00000E010E009951F910F9108958F92AF922E
:1055C000CF92EF92FF920F931F93DF93CF93CDB7BC
:1055D000DEB7FC011382128288EE93E0A0E0B0E017
:1055E00084839583A683B7838CE393E09183808340
:1055F0005587448737872687118B008BF38AE28A89
:10560000C48AA58A868A70E0CB0123E0880F991F9F
:105610002A95E1F79C0129583A4F308F278B815802
:105620009A4F928F818F81E090E002C0880F991F7E
:105630006A95E2F720918705282B20938705CF01F3
:1056400040E051EE60E070E00E94CE2ACF91DF9101
:105650001F910F91FF90EF90CF90AF908F90089592
:10566000FC01838D882319F42FEF3FEF0DC00788CD
:10567000F08DE02D2081318182819381281B390BAF
:105680008481958128233923C9010895FC01838DE4
:10569000882319F42FEF3FEF11C0018CF28DE02D1C
:1056A0002081318182819381281B390B209530958F
:1056B00084819581282339232F5F3F4FC9010895A5
:1056C000FC01838D882361F0A789B08D2D913C91D9
:1056D000119712968D919C9113972817390721F4F1
:1056E0004FEF5FEFCA01089512968D919C91139729
:1056F0001696ED91FC911797E80FF91F40811296CD
:105700008D919C911397019614962D913C9115972C
:105710008223932313969C938E93129750E0E2CFAB
:10572000FC01838D882351F00788F08DE02D2081C6
:105730003181828193812817390721F42FEF3FEFC0
:10574000C9010895828193810680F781E02DE80FD9
:10575000F91F8081282F30E0F3CFDC015796ED91BF
:10576000FC91589782819381918380835996ED9122
:10577000FC915A9780819181938382830895DC0103
:105780005B968C915B978823A9F15996ED91FC91DA
:105790005A97208131812F5F3F4F84819581282343
:1057A00039235C968C915C97882329F082819381C0
:1057B00028173907F9F08281938128173907D9F31F
:1057C000808191810680F781E02DE80FF91F6083C9
:1057D0005996ED91FC915A97318320835296ED9121
:1057E000FC915397808156969C91892B808321E070
:1057F00030E002C020E030E0C9010895CF93DF938C
:10580000EC011B821A828A819B81998388831D8285
:105810001C828E819F81009721F00E94AB321F82F3
:105820001E82DF91CF9108950F931F938C01DC01AD
:105830005296ED91FC915397208156968C915697F4
:1058400055969C915597892B8095822380835796F6
:105850008D919C9158970E94FE2BF801818D928D1D
:105860000E94FE2BD8015B961C921F910F91089508
:105870000F931F93CF93DF938C01FC01138212824D
:10588000828193819183808341E0A1E0B0E001C0F7
:105890004F5FFD01042E02C0EE0FFF1F0A94E2F7D6
:1058A0009B0182E06130780710F020E032E0E217DF
:1058B000F30770F3C1E0D0E002C0CC0FDD1F4A95C2
:1058C000E2F72197F801268137812115310541F052
:1058D000848195818C179D0789F0C9010E94AB32A4
:1058E000F801D583C483CE0101960E940E329C013B
:1058F000F8019783868380E0232B09F081E0DF9114
:10590000CF911F910F910895AF92BF92CF92DF92E6
:10591000EF92FF920F931F93CF93DF937C015A0175
:105920006B01E901DC015B968C915B978823F1F0B8
:105930002115310539F45796ED91FC915897C481A2
:10594000D58121960115110549F4D7015996ED919C
:10595000FC915A97048115810F5F1F4FD701ED917C
:10596000FC910088F189E02DC7010995F70187892D
:10597000908D209711F4C0E8D0E0BE010E94382C31
:10598000882381F0D70159968D919C915A970115E2
:10599000110511F400E110E0B8010E94382C8823B1
:1059A00009F04DC0D701ED91FC910088F189E02DFF
:1059B000C701099567C0D7015096ED91FC915197A9
:1059C000B0E0AB16B1EEBB06B0E0CB06B0E0DB0654
:1059D00009F454C081E090E0D70154960C9002C0C5
:1059E000880F991F0A94E2F7808360E079E08DE3E5
:1059F00090E0A60195010E94963921503040404028
:105A00005040CA01B90122E030E040E050E00E947D
:105A10009639D7011C96ED91FC911D9730831E9607
:105A2000ED91FC911F972083D7015296ED91FC9147
:105A30005397808155969C91892B808323C0D701F1
:105A40005996ED91FC915A9713821282828193812B
:105A5000918380835796ED91FC915897138212821F
:105A6000828193819183808381E05B968C931A1469
:105A70001B041C041D040CF49ECFD6CF108220E121
:105A800030E0C7CFDF91CF911F910F91FF90EF9042
:105A9000DF90CF90BF90AF9008952F923F924F929A
:105AA0005F926F927F928F929F92AF92BF92CF92AE
:105AB000DF92EF92FF920F931F93DF93CF93CDB7B7
:105AC000DEB764970FB6F894DEBF0FBECDBF3C01C2
:105AD000688B5A8B498B69011C01AE014F5F5F4F88
