:100000000C947C010C94A4010C94A4010C94A40104
:100010000C94A4010C94A4010C94A4010C94A401CC
:100020000C94A4010C94A4010C94A4010C94A401BC
:100030000C94A4010C94A4010C94A4010C94A401AC
:100040000C94FF330C94A4010C946F060C94AB0633
:100050000C94A4010C94A4010C94A4010C94A4018C
:100060000C94A4010C94A401084AD73B3BCE016E2A
:1000700084BCBFFDC12F3D6C74319ABD56833DDAFF
:100080003D00C77F11BED9E4BB4C3E916BAAAABE0E
:10009000000000803F05A84CCDB2D44EB93836A937
:1000A000020C50B9918688083CA6AAAA2ABE000074
:1000B00000803F0664EC1B3C04BC163E3BE5B93CAB
:1000C000C93C37C29E5A3D660498083EEA69AAAA0E
:1000D0003E000000803F2020202020202020002003
:1000E0002020202020202020202020207C202020B4
:1000F000202020202020202020207CC620202020FE
:100100002020202020202020C57C202020202020EE
:10011000202020202020207C202020202020202083
:1001200020202020207C00B0B1B2B3B47CB5B6B79B
:10013000B8B97C4D696E696D4F53442D4578747222
:100140006120322E34207C2072363232204D507C99
:10015000004F534420496E697469616C697A656423
:100160002C207265626F6F74004368617220446F67
:100170006E650A00526561647920666F7220466F71
:100180006E740A004D697373696E672F4F6C64203B
:10019000436F6E6669670000407A10F35A00A072E0
:1001A0004E18090010A5D4E80000E87648170000B2
:1001B000E40B54020000CA9A3B000000E1F5050080
:1001C0000080969800000040420F000000A08601C9
:1001D000000000102700000000E803000000006499
:1001E00000000000000A0000000000010000000004
:1001F000002C76D888DC674F0823DFC1DFAE59E1D9
:10020000B1B796E5E3E453C63AE651997696E8E647
:10021000C28426EB898C9B62ED407C6FFCEFBC9C1A
:100220009F40F2BAA56FA5F490055A2AF75C936B2C
:100230006CF9676DC11BFCE0E40D47FEF520E6B5E7
:1002400000D0ED902E0300943577050080841E08C1
:100250000000204E0A000000C80C333333330F98DF
:100260006E12831141EF8D2114893BE65516CFFEA6
:10027000E6DB18D1844B381BF77C1D901DA4BBE432
:1002800024203284725E228100C9F124ECA1E53D74
:10029000276E616E00696E66000000000024002772
:1002A000002A0000000000250028002B00000000AC
:1002B00000230026002900040404040404040402AA
:1002C00002020202020303030303030102040810F3
:1002D00020408001020408102001020408102000C0
:1002E00000000700020100000304060000000000F7
:1002F00000000000F906872C11241FBECFEFD8E0C4
:10030000DEBFCDBF13E0A0E0B1E0EAEEF4E702C04B
:1003100005900D92AE35B107D9F715E0AEE5B3E023
:1003200001C01D92A33BB107E1F712E0C8EFD2E094
:1003300004C02297FE010E946F3AC43FD107C9F75B
:100340000E94A1350C94733A0C940000283008F0F8
:1003500027E03327DA01990F311D87FD9160009660
:100360006105710539F432602E5F3D9330E32A95C3
:10037000E1F708959F3F30F080387105610509F07D
:100380003C5F3C5F3D93913008F08068911DDF93A6
:10039000CF931F930F93FF92EF92192F987F96950B
:1003A000E92F96959695E90FFF27EF50FE4F992775
:1003B0003327EE24FF24A701E70105900894079452
:1003C00028F4360FE71EF81E491F511D660F771FD0
:1003D000881F991F0694A1F70590079428F4E70E4B
:1003E000F81E491F561FC11D770F881F991F661FD2
:1003F0000694A1F70590079428F4F80E491F561F9C
:10040000C71FD11D880F991F661F771F0694A1F77C
:100410000590079420F4490F561FC71FD81F990F46
:10042000661F771F881F0694A9F78491109517708F
:1004300041F0D695C79557954795F794E7941A9547
:10044000C1F7E7E9F1E06894159015913591659150
:10045000959105907FE27395E118F10A430B560BD5
:10046000C90BD009C0F7E10CF11E431F561FC91F6D
:10047000D01D7EF4703311F48A95E6CFE8940150D4
:1004800030F0080F0AF40027021708F4202F2395F4
:10049000022F7A3328F079E37D932A95E9F710C08B
:1004A0007D932A9589F606949795679537951795C4
:1004B0001794E118F10A430B560BC90BD00998F0B9
:1004C00023957E9173957A3308F070E37C93201323
:1004D000B8F77E9170617D9330F0839571E37D93E1
:1004E00070E32A95E1F71124EF90FF900F911F918F
:1004F000CF91DF91992787FD90950895FA01AA275A
:10050000283051F1203181F1E8946F936E7F6E5F56
:100510007F4F8F4F9F4FAF4FB1E03ED0B4E03CD004
:10052000670F781F891F9A1FA11D680F791F8A1FE7
:10053000911DA11D6A0F711D811D911DA11D20D04E
:1005400009F468943F912AE0269F11243019305D08
:100550003193DEF6CF010895462F4770405D4193F9
:10056000B3E00FD0C9F7F6CF462F4F70405D4A3346
:1005700018F0495D31FD4052419302D0A9F7EACF0E
:10058000B4E0A6959795879577956795BA95C9F73D
:1005900000976105710508959B01AC010A2E069430
:1005A0005795479537952795BA95C9F7620F731FE9
:1005B000841F951FA01D0895CF93DF93BC01823047
:1005C000910510F462E070E0A091B105B091B20520
:1005D000ED01E0E0F0E040E050E021C08881998149
:1005E0008617970769F48A819B81309719F0938366
:1005F000828304C09093B2058093B105FE0134C09C
:100600006817790738F44115510519F084179507D3
:1006100008F4AC01FE018A819B819C01E9012097CD
:10062000E9F641155105A9F1CA01861B970B0497FC
:1006300008F4BA01E0E0F0E02AC08D919C91119796
:1006400084179507F9F46417750781F412968D9154
:100650009C911397309719F09383828304C09093F1
:10066000B2058093B105FD0132964CC0CA01861BCC
:10067000970BFD01E80FF91F6193719302978D931A
:100680009C9340C0FD01828193819C01D901109708
:10069000A1F68091AF059091B005892B41F480912E
:1006A000C8029091C9029093B0058093AF05409124
:1006B000CA025091CB024115510541F44DB75EB7C6
:1006C0008091C6029091C702481B590B2091AF053B
:1006D0003091B005CA01821B930B8617970780F0F3
:1006E000AB014E5F5F4F8417950750F0420F531FC9
:1006F0005093B0054093AF05F9016193719302C027
:10070000E0E0F0E0CF01DF91CF910895CF93DF9348
:10071000009709F450C0EC0122971B821A82A09125
:10072000B105B091B205109709F140E050E0AC1767
:10073000BD0708F1BB83AA83FE0121913191E20F2D
:10074000F31FAE17BF0779F48D919C911197280F75
:10075000391F2E5F3F4F3983288312968D919C91CC
:1007600013979B838A834115510571F4D093B20589
:10077000C093B10520C012968D919C911397AD0145
:10078000009711F0DC01D3CFFA01D383C28321910A
:100790003191E20FF31FCE17DF0769F48881998149
:1007A000280F391F2E5F3F4FFA01318320838A8142
:1007B0009B8193838283DF91CF910895FC018827E9
:1007C0009927E89421912032E9F3293010F02E3056
:1007D000C8F32B3241F02D3239F4689404C00E94E2
:1007E0005904820F911D219120532A30C0F31EF429
:1007F000909581959F4F08951F93FC019927882715
:10080000BC01E89411911032E9F3193010F01E3058
:10081000C8F31B3251F01D3249F4689406C00E949F
:100820004404610F711D811D911D119110531A30E7
:10083000B0F33EF490958095709561957F4F8F4F02
:100840009F4F1F910895FC01059061507040011069
:10085000D8F7809590958E0F9F1F0895FC01819188
:10086000861721F08823D9F7992708953197CF016A
:100870000895FC016150704001900110D8F78095F7
:1008800090958E0F9F1F0895592F482F372F262F91
:10089000660F771F881F991F660F771F881F991F84
:1008A000620F731F841F951F660F771F881F991F84
:1008B00008957AE0979F902D879F802D910D1124A8
:1008C0000895FC011382128288EE93E0A0E0B0E06C
:1008D00084839583A683B78384E093E091838083A8
:1008E0000895FC018089803419F421E030E002C0D1
:1008F00020E030E0C9010895FC01818990E008956D
:10090000FC016487458766874787089580E090E00B
:10091000089580E090E0089580E090E008950895C3
:10092000EF92FF921F93CF93DF93162F7A0186E009
:1009300060E00E944D3583E995E060E00E946B2CF9
:1009400083E995E060E00E946B2C83E995E069E023
:100950000E946B2C83E995E0612F0E946B2CC0E014
:10096000D0E0F701EC0FFD1F108183E995E06AE00C
:100970000E946B2C83E995E06C2F0E946B2C83E91D
:1009800095E06BE00E946B2C83E995E0612F0E945B
:100990006B2C2196C633D10521F783E995E068E0F9
:1009A0000E946B2C83E995E060EA0E946B2C83E93E
:1009B00095E060EA0E946B2C85FDF9CF83E995E014
:1009C00060E00E946B2C83E995E06CE00E946B2C48
:1009D00086E061E00E944D35DF91CF911F91FF903D
:1009E000EF9008951F93CF93DF93EC01162F86E0CD
:1009F00060E00E944D3583E995E060E00E946B2C39
:100A0000112319F0113059F404C083E995E0688985
:100A100004C068896C6183E995E00E946B2C86E0D4
:100A200061E00E944D35DF91CF911F910895EF92C3
:100A3000FF920F931F938EE1489F70011124E60EE1
:100A4000F11C86E060E00E944D3503E915E0C80125
:100A500065E00E946B2CC8016F2D0E946B2CC801B1
:100A600066E00E946B2CC8016E2D0E946B2C1F91BA
:100A70000F91FF90EF900895EF92FF920F931F93C5
:100A80007C0103E915E0C80167E00E946B2CC801F6
:100A90006FEF0E946B2C86E061E00E944D35F701FC
:100AA00087858F5F87871F910F91FF90EF90089543
:100AB000EF92FF920F931F93FC01E7848EE1E89E73
:100AC000700111248685E80EF11C86E060E00E942A
:100AD0004D3503E915E0C80164E00E946B2CC801A4
:100AE00063E00E946B2CC80165E00E946B2CC8017A
:100AF0006F2D0E946B2CC80166E00E946B2CC80110
:100B00006E2D0E946B2C1F910F91FF90EF90089516
:100B10001F93CF93DF93EC01162F6C3731F40E94B3
:100B20003C05CE010E9458050AC083E995E067E0C4
:100B30000E946B2C83E995E0612F0E946B2C81E071
:100B400090E0DF91CF911F9108950F931F9386E05E
:100B500060E00E944D3503E915E0C80164E00E94A1
:100B60006B2CC80164E00E946B2C86E061E00E945F
:100B70004D351F910F9108951F9385EA95E066E921
:100B800073E00E945F33882361F0813011F412E03A
:100B900009C0823011F411E005C0833011F410E077
:100BA00001C013E010925F0310925E0317C06091C2
:100BB0005E0370915F03605F83E995E00E946B2C98
:100BC00083E995E0612F0E946B2C80915E039091E8
:100BD0005F03019690935F0380935E0380915E03B1
:100BE00090915F0340971CF31F910895CF93DF937B
:100BF000EC0186E060E00E944D3583E995E060EA13
:100C00000E946B2C83E995E06FEF0E946B2C80FFB4
:100C100005C080E4888B88E0898B13C085EA95E065
:100C200060E973E00E945F33882319F4188A86E034
:100C300003C080E4888B88E0898B86E060E00E94B6
:100C40004D35DF91CF910895CF92DF92FF920F93B0
:100C50001F936C0186E061E00E940E3582E060E047
:100C60000E940E3582E061E00E944D35C6010E946F
:100C7000F60586E060E00E944D3503E915E0C80105
:100C80006CEE0E946B2CC8016FEF0E946B2CF82E4B
:100C9000C80160E00E946B2CF60160896260C801A7
:100CA0000E946B2C62E370E080E090E00E9455347B
:100CB000C8016CE60E946B2CFFEEFF22C8016F2D6D
:100CC0000E946B2CC6010E94BC05C60161E00E9417
:100CD000F2041F910F91FF90DF90CF9008951F9223
:100CE0000F920FB60F9211242F933F934F938F9330
:100CF0009F93EF93FF934091C6002091940530910C
:100D000095052F5F3F4F8091980590919905282375
:100D1000392380919605909197052817390779F026
:100D20008091940590919505E0919A05F0919B052D
:100D3000E80FF91F40833093950520939405FF91A8
:100D4000EF919F918F914F913F912F910F900FBEF7
:100D50000F901F9018951F920F920FB60F921124AB
:100D60002F933F938F939F93EF93FF9320919E0533
:100D700030919F0580919C0590919D05281739071A
:100D8000E9F080919E0590919F05E091A205F09178
:100D9000A305E80FF91F80818093C60080919E050E
:100DA00090919F0501962091A0053091A105822385
:100DB000932390939F0580939E0510C020919C05DE
:100DC00030919D0580919E0590919F0528173907C8
:100DD00029F48091C1008F7D8093C100FF91EF9134
:100DE0009F918F913F912F910F900FBE0F901F9069
:100DF00018958F92AF92CF92EF92FF920F931F931D
:100E000082EE93E060E045EC50E024EC30E000EC52
:100E100010E0F1ECEF2EF12CCC24C394E8E9AE2ED7
:100E200070E2872E0E94C12C8FEF93E00E94610434
:100E300010921204109213041092140410921504CC
:100E400010921604109217041092180410921904AC
:100E500010921B0410921A04109211041F910F910A
:100E6000FF90EF90CF90AF908F90089580915804AD
:100E70008130C1F40E94473468517C4F8F4F9F4F9F
:100E80006093590470935A0480935B0490935C04BC
:100E90001092580490E080915D04882309F491E059
:100EA00090935D040E9447342091590430915A0474
:100EB00040915B0450915C04261737074807590797
:100EC00018F481E0809358040895AF92BF92CF92B6
:100ED000DF92EF92FF920F931F931091F90411305C
:100EE00009F03EC08091A2048823D1F560916F047F
:100EF00070917004809171049091720420E030E050
:100F000040EA50E40E94CC38181654F580914A0407
:100F10008B3030F11093A20480E090E0A0E0B0E0CC
:100F20008093D3049093D404A093D504B093D604B3
:100F30001092E7041092E8041092E9041092EA0477
:100F40000E94473428EE33E040E050E00E94303AFF
:100F50002093930430939404409395045093960403
:100F600060916F047091700480917104909172048B
:100F700020E030E040EA51E40E94023718168CF17C
:100F80006091350470913604809137049091380453
:100F900020E030E040E050E40E94023718160CF1E7
:100FA00080914A048B30E8F48091A2048130C9F426
:100FB0008091730490917404A0917504B0917604AB
:100FC00085369105A105B10564F41092A2040E9432
:100FD00047346093E7047093E8048093E9049093A6
:100FE000EA04A0903504B0903604C0903704D09045
:100FF0003804C601B50120E030E040E85FE30E941C
:10100000CC38181694F5E090D304F090D4040091F5
:10101000D5041091D6040E9447342091FA043091EF
:10102000FB044091FC045091FD04621B730B840B84
:10103000950B0E94A2379B01AC01C601B5010E942D
:10104000D73820E030E04AE754E40E9409379B019A
:10105000AC01C801B7010E943C366093D304709381
:10106000D4048093D5049093D604A0909704B090B4
:101070009804C0909904D0909A046091AB04709148
:10108000AC04882777FD8095982F0E94A43720E034
:1010900030E040E251E40E94D7387B018C010E948D
:1010A00047342091FA043091FB044091FC045091A4
:1010B000FD04621B730B840B950B0E94A2379B01EE
:1010C000AC01C801B7010E94D73820E03AEB4BE5EC
:1010D0005AE40E9409379B01AC01C601B5010E9488
:1010E0003C3660939704709398048093990490938E
:1010F0009A040E9447346093FA047093FB0480932F
:10110000FC049093FD048091A204813009F096C004
:1011100060917304709174048091750490917604C9
:101120000E94A4377B018C012091CF043091D00420
:101130004091D1045091D2040E94CC38181644F446
:10114000E092CF04F092D0040093D1041093D20423
:10115000E0903904F0903A0400913B0410913C0473
:10116000C801B7012091D7043091D8044091D90427
:101170005091DA040E94CC38181644F4E092D70457
:10118000F092D8040093D9041093DA04E090350467
:10119000F09036040091370410913804C801B7016B
:1011A0002091DB043091DC044091DD045091DE0499
:1011B0000E94CC38181644F4E092DB04F092DC0470
:1011C0000093DD041093DE04E0906F04F09070044F
:1011D0000091710410917204C801B7012091DF04DD
:1011E0003091E0044091E1045091E2040E94CC3837
:1011F000181644F4E092DF04F092E0040093E10456
:101200001093E2046091E3047091E4048091E5049A
:101210009091E60420E030E040E050E00E94023788
:10122000882364F480E090E0A0E0B0E08093E304E1
:101230009093E404A093E504B093E6041F910F910A
:10124000FF90EF90DF90CF90BF90AF90089585EA28
:1012500095E06AE773E00E945F33882381F586E6B4
:1012600096E6A6E6B0E480935E0490935F04A093B4
:101270006004B093610480E090E0A0E8BFE3809355
:10128000620490936304A0936404B093650480E1C6
:10129000809366048CE0809367048AEB80936804F3
:1012A0008BE190E090936A048093690488EE93E068
:1012B00090936C0480936B048AE190E02FC082E5E8
:1012C00098EBAEE0B0E480935E0490935F04A0934B
:1012D0006004B093610485E89BEEA1E5B0E48093DF
:1012E000620490936304A0936404B093650489E15D
:1012F0008093660486E6809367048BEB8093680492
:101300008CE190E090936A048093690480EA94E110
:1013100090936C0480936B048EE190E090936E0444
:1013200080936D040895DF92EF92FF920F931F93C5
:101330008C01A5EAEA2EA5E0FA2EC701B8010E94A9
:101340005F33D82E0F5F1F4FC701B8010E945F3374
:101350003D2D20E0280F311DC9011F910F91FF90F5
:10136000EF90DF900895DF92EF92FF920F931F931B
:10137000CF93DF9385EA95E06CE773E00E945F33DB
:101380008093A40485EA95E06EE773E00E945F33E2
:101390008093A30485EA95E060E873E00E945F33E0
:1013A00090E0A0E0B0E0BC01CD010E94A23720E0B7
:1013B00030E040E251E40E9409376093D20270931A
:1013C000D3028093D4029093D50285EA95E062E837
:1013D00073E00E945F3390E0A0E0B0E0BC01CD017B
:1013E0000E94A23720E030E040E251E40E94093739
:1013F0006093D8027093D9028093DA029093DB0253
:1014000085EA95E06EE873E00E945F338093B9044B
:1014100085EA95E06AE873E00E945F338093AE044A
:1014200085EA95E064E873E00E945F338093CB0423
:1014300085EA95E066E873E00E945F338093CA0412
:1014400085EA95E06CE873E00E945F331092A60491
:10145000882319F081E08093A60485EA95E064E989
:1014600073E00E945F338093A50484EA93E00E94B6
:101470009309A0E0B0E0BC01CD010E94A23720E0BA
:1014800030E040E251E40E9409376093E702709334
:10149000E8028093E9029093EA028AEA93E00E94CC
:1014A0009309A0E0B0E0BC01CD010E94A23720E08A
:1014B00030E040E251E40E9409376093EB02709300
:1014C000EC028093ED029093EE0286EA93E00E9494
:1014D00093097C0185EA95E068EA73E00E945F3336
:1014E000D82E00E010E0C801B7010E94A23720E02A
:1014F00030E040E251E40E9409377B018C018D2DE0
:1015000064E60E94FD3990E0AA2797FDA095BA2FC6
:10151000BC01CD010E94A4379B01AC01C801B701F9
:101520000E943C366093EF027093F0028093F102C8
:101530009093F2028CEA93E00E949309A0E0B0E05D
:10154000BC01CD010E94A23720E030E040E251E42E
:101550000E9409376093EC047093ED048093EE04CD
:101560009093EF0485EA95E06EEA73E00E945F33A2
:101570008093E60285EA95E060EB73E00E945F33BA
:101580008093CE04C0E0D0E0BE0168567C4F85EA6F
:1015900095E00E945F33FE01EF53FB4F8083882369
:1015A00021F02196C830D10579F7CF53DB4F19824E
:1015B000DF91CF911F910F91FF90EF90DF900895F1
:1015C000BC0185EA95E00E945F330895DF92EF92B7
:1015D000FF920F931F93CF93DF93882309F481E049
:1015E000182F110F1257613009F04CC060915E0442
:1015F00070915F04809160049091610420E030E07C
:1016000040E050E00E94D738A12FBB27A7FDB0953E
:10161000D09066042DB73EB7265130400FB6F894EF
:101620003EBF0FBE2DBFEDB7FEB731962FEF33E0B3
:10163000CDB7DEB73A83298323E031E033832283B9
:101640002DE130E035832483262F372F482F592F63
:101650002683378340875187D2861386B587A48730
:101660001196B787A687C901DA01808B918BA28B6F
:10167000B38BD48A158A0E94A02C2DB73EB72A5E60
:101680003F4F4BC0A12FBB27A7FDB0958FEF93E035
:10169000623039F5CDB7DEB72C970FB6F894DEBFC0
:1016A0000FBECDBFEDB7FEB731969A83898389E12E
:1016B00091E093838283B583A4831196B783A68335
:1016C00080917804909179049187808785E090E0FB
:1016D000938782870E94A02C2DB73EB7245F3F4F8F
:1016E0001CC0CDB7DEB728970FB6F894DEBF0FBE8B
:1016F000CDBFEDB7FEB731969A83898383E291E03F
:1017000093838283B583A4831196B783A6830E94B3
:10171000A02C2DB73EB7285F3F4F0FB6F8943EBFC1
:101720000FBE2DBFDF91CF911F910F91FF90EF90D2
:10173000DF9008952F923F924F925F926F927F9227
:101740008F929F92AF92BF92CF92DF92EF92FF92D1
:101750000F931F93DF93CF9300D000D000D0CDB76D
:10176000DEB7182F662E20914304309144042A35A9
:10177000310530F0C9018D549F4F89359105E8F44A
:1017800037FF02C02D543F4FC90137FF03C090956A
:1017900081959F4F8A3191053CF0B9ED8B2E912CAC
:1017A000A8EF2A2E312C1DC00A975CF1F0ED8F2E88
:1017B000912CE3EF2E2E312C20C02B35310514F067
:1017C000235B3040C90137FF03C0909581959F4F3F
:1017D0008A31910554F07BEE872E912C6BEF262EEB
:1017E000312C57E0A52EB12C15C00A9754F042EECB
:1017F000842E912C35EF232E312C28E0A22EB12CF3
:1018000009C096EC892E912C8DEC282E312C09E004
:10181000A02EB12C6091410470914204882777FD7D
:101820008095982F0E94A43727EA32E94BE25CEBBF
:101830000E94D7380E94AB3920E030E040EA50E403
:101840000E94D73820E030E040E951E40E94D738C8
:101850000E943A3920E030E044E352E40E943C36F2
:101860000E947137712E1EEBC12E1FEFD12E9B01EE
:10187000442737FD4095542F29833A834B835C835B
:10188000BFEF4B2EB3E05B2E4AEF5FEF240E351E09
:101890006091430470914404882777FD8095982FC8
:1018A0000E94A43725E33AEF4EE85CE30E94D73864
:1018B0000E94AB397B018C01B601882777FD8095AA
:1018C000982F0E94A4379B01AC01C801B7010E9468
:1018D000D7387B018C0169817A818B819C810E9440
:1018E000A4379B01AC01C801B7010E943C360E949D
:1018F00071379B01CB0101978A35910508F071C0C2
:1019000062E170E00E941D3A8B012F5F3F4FAEEE07
:10191000BFEF6A9FC0016B9F900D7A9F900D1124BD
:10192000820F931F62E070E00E941D3A6D837E83F8
:10193000E62CE01A4E2D4C5F8FEF93E0672D0E944E
:10194000170500D000D000D0EDB7FEB73196ADB787
:10195000BEB712965C924E92119720E031E033832D
:1019600022838D819E81880D991D958384830E9499
:10197000A02C4DB75EB74A5F5F4F0FB6F8945EBFBD
:101980000FBE4DBF8D819E818A159B0554F1043099
:1019900011053CF593E0E90EC201672D4E2D0E9422
:1019A000170500D000D000D0EDB7FEB73196ADB727
:1019B000BEB712965C924E92119720E031E03383CD
:1019C00022834D815E81420D531D558344830E94C5
:1019D000A02C8DB79EB706960FB6F8949EBF0FBE8B
:1019E0008DBFACE0B0E0CA0EDB1E7394BEE4CB1634
:1019F000D10409F04DCF26960FB6F894DEBF0FBE86
:101A0000CDBFCF91DF911F910F91FF90EF90DF90AD
:101A1000CF90BF90AF909F908F907F906F905F908E
:101A20004F903F902F90089560913D0470913E0437
:101A300080913F049091400420E030E040EC51E47C
:101A40000E94D73820E030E044EB53E40E9409378D
:101A50000E943A390E9471379B012350304037FF72
:101A600003C09B012B5E3F4FAFE7B4E0F901EE5D91
:101A7000FC4F80818C932F5F3F4F2831310514F04C
:101A800020E030E0119684E0AA38B80779F7109288
:101A9000860408950F931F93282F462F8FEF93E00E
:101AA000622F0E9480048FEF93E00E94580580917E
:101AB0002504882319F428E231E01AC0823019F491
:101AC0002DE231E015C0853019F422E331E010C079
:101AD00027E331E08A3019F42CE331E009C08B3080
:101AE00019F421E431E004C08F3011F425E431E031
:101AF0008DB79EB708970FB6F8949EBF0FBE8DBFE7
:101B0000EDB7FEB731960FEF13E0ADB7BEB7129643
:101B10001C930E9311978AE491E0938382838FE75D
:101B200090E095838483378326830E94A02C8DB711
:101B30009EB708960FB6F8949EBF0FBE8DBFC80122
:101B40000E943C051F910F9108950F931F93282F1A
:101B5000462F0FEF13E0C801622F0E948004C801D6
:101B60000E9458058091770460E00E94E60AC8014F
:101B70000E943C051F910F9108950F931F93282FEA
:101B8000462F0FEF13E0C801622F0E948004C801A6
:101B90000E9458058DB79EB70A970FB6F8949EBF5E
:101BA0000FBE8DBFEDB7FEB73196ADB7BEB712967B
:101BB0001C930E9311978FE491E09383828383ECBF
:101BC00090E0958384838FE794E09783868387E80A
:101BD00090E0918780870E94A02C8DB79EB70A96CF
:101BE0000FB6F8949EBF0FBE8DBFC8010E943C0582
:101BF0001F910F9108950F931F93282F462F0FEFDA
:101C000013E0C801622F0E948004C8010E94580599
:101C10008DB79EB70A970FB6F8949EBF0FBE8DBFC3
:101C2000EDB7FEB73196ADB7BEB712961C930E93C3
:101C3000119786E591E09383828380913D04909192
:101C40003E04A0913F04B091400484839583A68311
:101C5000B78385E090E0918780870E94A02C8DB7A4
:101C60009EB70A960FB6F8949EBF0FBE8DBFC801EF
:101C70000E943C051F910F9108950F931F93282FE9
:101C8000462F0FEF13E0C801622F0E948004C801A5
:101C90000E9458058DB79EB740970FB6F8949EBF27
:101CA0000FBE8DBFEDB7FEB73196ADB7BEB712967A
:101CB0001C930E9311978EE591E09383828383E0CA
:101CC00090E0958384838091270490912804A091CB
:101CD0002904B0912A0486839783A087B18784E082
:101CE00090E09387828780912B0490912C04A0919F
:101CF0002D04B0912E0484879587A687B7870E940C
:101D0000A02C8DB79EB740960FB6F8949EBF0FBE1D
:101D10008DBFC8010E943C051F910F9108950F933C
:101D20001F93282F462F0FEF13E0C801622F0E9448
:101D30008004C8010E9458058DB79EB708970FB65A
:101D4000F8949EBF0FBE8DBFEDB7FEB73196ADB70D
:101D5000BEB712961C930E93119780E791E0938380
:101D6000828380912F04805D848315828091340466
:101D7000868317820E94A02C8DB79EB708960FB657
:101D8000F8949EBF0FBE8DBFC8010E943C051F91F5
:101D90000F9108950F931F93282F462F0FEF13E0F5
:101DA000C801622F0E948004C8010E9458058DB7A7
:101DB0009EB70C970FB6F8949EBF0FBE8DBFEDB7C0
:101DC000FEB73196ADB7BEB712961C930E9311971E
:101DD00086E791E09383828380E690E09583848315
:101DE00080918B0490918C04A0918D04B0918E040D
:101DF00086839783A087B1878DE090E09387828761
:101E00000E94A02C8DB79EB70C960FB6F8949EBF7B
:101E10000FBE8DBFC8010E943C051F910F91089510
:101E20000F931F93282F462F0FEF13E0C801622F47
:101E30000E948004C8010E9458058DB79EB70C9778
:101E40000FB6F8949EBF0FBE8DBFEDB7FEB73196AB
:101E5000ADB7BEB712961C930E93119786E791E02B
:101E6000938382838CEB90E09583848380918F04AD
:101E700090919004A0919104B091920486839783ED
:101E8000A087B1878DE090E0938782870E94A02C85
:101E90008DB79EB70C960FB6F8949EBF0FBE8DBF40
:101EA000C8010E943C051F910F9108950F931F9345
:101EB000282F462F0FEF13E0C801622F0E948004E5
:101EC000C8010E9458058DB79EB70A970FB6F894BF
:101ED0009EBF0FBE8DBFEDB7FEB73196ADB7BEB793
:101EE00012961C930E93119780E891E0938382835E
:101EF00080914304909144049583848385E090E02D
:101F00009783868386E090E0918780870E94A02C4B
:101F10008DB79EB70A960FB6F8949EBF0FBE8DBFC1
:101F2000C8010E943C051F910F9108950F931F93C4
:101F3000282F462F0FEF13E0C801622F0E94800464
:101F4000C8010E9458058DB79EB70A970FB6F8943E
:101F50009EBF0FBE8DBFEDB7FEB73196ADB7BEB712
:101F600012961C930E93119780E891E093838283DD
:101F700080914104909142049583848385E090E0B0
:101F80009783868387E090E0918780870E94A02CCA
:101F90008DB79EB70A960FB6F8949EBF0FBE8DBF41
:101FA000C8010E943C051F910F910895EF92FF9286
:101FB0000F931F93282F462F1FEFE12E13E0F12ED2
:101FC000C701622F0E948004C7010E9458058DB787
:101FD0009EB70C970FB6F8949EBF0FBE8DBF0DB77E
:101FE0001EB70F5F1F4FEDB7FEB7F282E18288E8A0
:101FF00091E0F801938382838BE090E09583848362
:1020000060917304709174048091750490917604CA
:102010000E94A437209162043091630440916404CB
:10202000509165040E94D738F801668377838087D2
:10203000918780916704828713860E94A02C8DB7B8
:102040009EB70C960FB6F8949EBF0FBE8DBFC7010A
:102050000E943C051F910F91FF90EF900895EF9221
:10206000FF920F931F93282F462F0FEFE02E03E0D0
:10207000F02EC701622F0E948004C7010E945805FC
:102080000E94473428EE33E040E050E00E94303AAE
:102090008091930490919404A0919504B09196043A
:1020A000281B390B4A0B5B0BCA01B9010E94A237EE
:1020B0006093CE027093CF028093D0029093D102AE
:1020C0000E9471378B019C018DB79EB70C970FB69C
:1020D000F8949EBF0FBE8DBFEDB7FEB73196ADB77A
:1020E000BEB71296FC92EE92119782E991E093832B
:1020F000828388E090E095838483C8016CE370E07C
:102100000E941D3ACB016CE370E00E941D3A978358
:1021100086838AE390E091878087C8016CE370E052
:102120000E941D3A938782870E94A02C8DB79EB78C
:102130000C960FB6F8949EBF0FBE8DBFC7010E94CC
:102140003C051F910F91FF90EF9008950F931F93FF
:10215000282F462F0FEF13E0C801622F0E94800442
:10216000C8010E9458058DB79EB70C970FB6F8941A
:102170009EBF0FBE8DBFEDB7FEB73196ADB7BEB7F0
:1021800012961C930E9311978EE991E093838283AC
:1021900087E190E0958384838091970490919804DF
:1021A000A0919904B0919A0486839783A087B18700
:1021B00081E090E0938782870E94A02C8DB79EB724
:1021C0000C960FB6F8949EBF0FBE8DBFC8010E943B
:1021D0003C051F910F9108950F931F93282F462FB1
:1021E0000FEF13E0C801622F0E948004C8010E9413
:1021F00058058DB79EB70A970FB6F8949EBF0FBECD
:102200008DBFEDB7FEB73196ADB7BEB712961C9332
:102210000E93119788EA91E09383828382E090E0A5
:102220009583848380914A048683178285E290E0B7
:10223000918780870E94A02C8DB79EB70A960FB613
:10224000F8949EBF0FBE8DBFC8010E943C051F9130
:102250000F9108952F923F924F925F926F927F92CB
:102260008F929F92AF92BF92CF92DF92EF92FF92A6
:102270000F931F93DF93CF93CDB7DEB760970FB661
:10228000F894DEBF0FBECDBF282F462FDE0111967A
:10229000E2E1F3E080E101900D928150E1F78FEFF0
:1022A00093E0622F0E9480048FEF93E00E94580514
:1022B0000E944734611571058105910509F47EC1BD
:1022C00080919B04882391F080939C0410929B043E
:1022D00081E080939D040E94473460939E04709334
:1022E0009F048093A0049093A10440C10E944734AE
:1022F000605177428040904020919E0430919F042D
:102300004091A0045091A1042617370748075907A8
:1023100010F410929D0480919C04882E992477E0FB
:10232000372E66E0262E55E0552E44E0442E33E04D
:10233000632E22E0722E15C10894811C911C88E046
:102340008816910424F091E0892E912C04C0E1E0DC
:102350008E16910449F480912F04823008F0FBC05E
:10236000F1E0F0939B04F7C08091A204813009F062
:1023700065C082E088169104B1F5A0903904B09050
:102380003A04C0903B04D0903C04C601B5012091B2
:102390005E0430915F0440916004509161040E949A
:1023A000D7387B018C016091A30470E0882777FD0A
:1023B0008095982F0E94A4379B01AC01C801B701FA
:1023C0000E94023788230CF0C6C0C601B50129E27D
:1023D0003CE54FE85FE30E94CC3818160CF0BBC018
:1023E00070929B04B8C0E3E08E16910439F56091B9
:1023F000390470913A0480913B0490913C042091FF
:102400005E0430915F0440916004509161040E9429
:10241000D7387B018C016091A40470E080E090E0EB
:102420000E94A2379B01AC01C801B7010E94CC38C1
:1024300018160CF090C060929B048DC0F4E08F16CB
:10244000910429F5E090D202F090D3020091D402D9
:102450001091D502C801B70120E030E040E85FE309
:102460000E94CC3818160CF076C060918F047091E1
:1024700090048091910490919204A80197010E9488
:10248000023788230CF067C040929B0464C085E04B
:1024900088169104B9F42091D6023091D702809128
:1024A000A50490E0281739070CF055C02D593F4F6F
:1024B00009F451C08091A604882309F04CC05092C1
:1024C0009B0449C0F6E08F16910419F5E090D802FC
:1024D000F090D9020091DA021091DB02C801B70135
:1024E00020E030E040E85FE30E94CC3818169CF50D
:1024F00060918B0470918C0480918D0490918E0476
:10250000A80197010E94023788232CF520929B0492
:1025100022C087E088169104F1F40E9447340E949B
:10252000A2377B018C01609121047091220480917B
:1025300023049091240420E030E849E055E40E940F
:102540003C369B01AC01C801B7010E9402378823C9
:1025500014F430929B0480919C0490E088169906B4
:1025600029F080919B04882309F4E6CE80915D04D4
:102570002FEF33E0882349F000D000D0EDB7FEB74D
:102580003283218389819A8111C000D000D0EDB7B8
:10259000FEB732832183E0919B04F0E0EE0FFF1F32
:1025A000EC0FFD1F81819281EDB7FEB79483838389
:1025B0000E94A02C0F900F900F900F908FEF93E040
:1025C0000E943C0560960FB6F894DEBF0FBECDBFEB
:1025D000CF91DF911F910F91FF90EF90DF90CF90FF
:1025E000BF90AF909F908F907F906F905F904F9033
:1025F0003F902F900895EF92FF920F931F93282FF3
:10260000462FEFEFEE2EE3E0FE2EC701622F0E9471
:102610008004C7010E9458058DB79EB70C970FB66E
:10262000F8949EBF0FBE8DBF0DB71EB70F5F1F4F33
:10263000EDB7FEB7F282E18282EB91E0F80193837D
:10264000828383E190E09583848360913904709163
:102650003A0480913B0490913C0420915E043091B7
:102660005F0440916004509161040E94D738F801E2
:10267000668377838087918780916604828713863B
:102680000E94A02C8DB79EB70C960FB6F8949EBFF3
:102690000FBE8DBFC7010E943C051F910F91FF9097
:1026A000EF900895EF92FF920F931F93282F462FDC
:1026B000FFEFEF2EF3E0FF2EC701622F0E94800490
:1026C000C7010E9458058DB79EB70C970FB6F894B6
:1026D0009EBF0FBE8DBF0DB71EB70F5F1F4FEDB76B
:1026E000FEB7F282E18282EB91E0F801938382836C
:1026F00084E190E095838483609135047091360481
:10270000809137049091380420915E0430915F04E9
:1027100040916004509161040E94D738F8016683AB
:1027200077838087918780916604828713860E94D1
:10273000A02C8DB79EB70C960FB6F8949EBF0FBE17
:102740008DBFC7010E943C051F910F91FF90EF9034
:102750000895CF92DF92EF92FF920F931F93282F4D
:10276000462FAFEFCA2EA3E0DA2EC601622F0E94D9
:102770008004C6010E94580560915404709155046C
:102780008091560490915704209162043091630423
:1027900040916404509165040E94D7382DEC3CECC4
:1027A0004CEC5DE30E94D7387B018C016091A7045B
:1027B0007091A8048091A9049091AA0426E636E6B7
:1027C00046E65FE30E94D7389B01AC01C801B70120
:1027D0000E943C366093A7047093A8048093A904D8
:1027E0009093AA042DB73EB72C5030400FB6F89402
:1027F0003EBF0FBE2DBF0DB71EB70F5F1F4FEDB70A
:10280000FEB7D282C1822EE931E0F8013383228300
:1028100025E130E03583248320E030E040E251E4DC
:102820000E9409370E947137882777FD8095982F7D
:102830000E94A43720E030E040E251E40E94D73803
:10284000F801668377838087918780916D049091EA
:102850006E04938782870E94A02C2DB73EB7245F19
:102860003F4F0FB6F8943EBF0FBE2DBFC6010E946A
:102870003C051F910F91FF90EF90DF90CF9008954E
:10288000EF92FF920F931F93282F462FBFEFEB2E4F
:10289000B3E0FB2EC701622F0E948004C7010E9493
:1028A00058058DB79EB70C970FB6F8949EBF0FBE14
:1028B0008DBF0DB71EB70F5F1F4FEDB7FEB7F2828A
:1028C000E18288E891E0F8019383828381E190E0DE
:1028D0009583848360913004709131048091320437
:1028E0009091330420916204309163044091640418
:1028F000509165040E94D738F801668377838087FA
:10290000918780916704828713860E94A02C8DB7DF
:102910009EB70C960FB6F8949EBF0FBE8DBFC70131
:102920000E943C051F910F91FF90EF900895EF9248
:10293000FF920F931F93282F462F1FEFE12E13E0D6
:10294000F12EC701622F0E948004C7010E94580522
:102950008DB79EB70C970FB6F8949EBF0FBE8DBF74
:102960000DB71EB70F5F1F4FEDB7FEB7F282E182C2
:1029700086E791E0F801938382838DEB90E0958365
:1029800084836091AB047091AC04882777FD8095B7
:10299000982F0E94A4372AE037ED43E25CE30E94BF
:1029A000D738F80166837783808791878EE090E03F
:1029B000938782870E94A02C8DB79EB70C960FB686
:1029C000F8949EBF0FBE8DBFC7010E943C051F91AA
:1029D0000F91FF90EF900895CF93DF93282F462F0C
:1029E000CFEFD3E0CE01622F0E948004CE010E947F
:1029F00058050E94473428EE33E040E050E00E9442
:102A0000303ACA01B9012CE330E040E050E00E94C6
:102A1000303A623071058105910548F400D000D04C
:102A2000EDB7FEB7D283C18381EC94E008C000D03B
:102A300000D0EDB7FEB7D283C1838DED92E09483D1
:102A400083830E94A02C0F900F900F900F908FEF18
:102A500093E00E943C05DF91CF910895CF92DF92E1
:102A6000EF92FF920F931F93282F462F8FEF93E043
:102A7000622F0E9480048FEF93E00E94580580919E
:102A80005304282F30E03093D7022093D602809150
:102A9000A604882359F50091CA0410E0201B310BCD
:102AA000B901882777FD8095982F0E94A4376B0184
:102AB0007C016091CB0470E0601B710B882777FD6F
:102AC0008095982F0E94A4379B01AC01C701B601E5
:102AD0000E94093720E030E048EC52E40E94D738E9
:102AE0000E9471377093D7026093D6028DB79EB75C
:102AF0000A970FB6F8949EBF0FBE8DBFEDB7FEB715
:102B000031960FEF13E0ADB7BEB712961C930E933C
:102B100011978CEB91E09383828389E090E0958319
:102B200084838091D6029091D7029783868385E231
:102B300090E0918780870E94A02C8DB79EB70A965F
:102B40000FB6F8949EBF0FBE8DBFC8010E943C0512
:102B50001F910F91FF90EF90DF90CF9008950F930A
:102B60001F93282F462F8FEF93E0622F0E9480043F
:102B70008FEF93E00E9458054091AE04453029F450
:102B800020914B0430914C0414C0463029F420911C
:102B90004D0430914E040DC0473029F420914F046C
:102BA0003091500406C0483021F4209151043091F6
:102BB00052048DB79EB70A970FB6F8949EBF0FBE0A
:102BC0008DBFEDB7FEB731960FEF13E0ADB7BEB7CF
:102BD00012961C930E93119784EC91E09383828359
:102BE00083E490E095838483842F90E0C09697835C
:102BF0008683318720870E94A02C8DB79EB70A96C6
:102C00000FB6F8949EBF0FBE8DBFC8010E943C0551
:102C10001F910F910895EF92FF920F931F93282F0A
:102C2000462F0FEFE02E03E0F02EC701622F0E9427
:102C30008004C7010E9458058DB79EB70C970FB648
:102C4000F8949EBF0FBE8DBF0DB71EB70F5F1F4F0D
:102C5000EDB7FEB7F282E1828CEC91E0F80193834C
:102C600082838AE090E0958384838091E60290E0FD
:102C70002091CC043091CD04829FB001839F700DD0
:102C8000929F700D11242091CE04620F711D80E07F
:102C900090E00E94A23720E030E048EC52E40E942D
:102CA0000937F8016683778380879187809168046C
:102CB000828713860E94A02C8DB79EB70C960FB604
:102CC000F8949EBF0FBE8DBFC7010E943C051F91A7
:102CD0000F91FF90EF9008952F923F924F925F9245
:102CE0006F927F928F929F92AF92BF92CF92DF921C
:102CF000EF92FF920F931F938FEF282E83E0382ED1
:102D0000C1016BE045E00E948004C1010E945805AA
:102D10006091CE027091CF028091D0029091D10249
:102D20000E9471376B017C01809062049090630473
:102D3000A0906404B090650440905E0450905F04DD
:102D40006090600470906104F0906704E090660405
:102D50008DB79EB7845490400FB6F8949EBF0FBEB7
:102D60008DBF0DB71EB70F5F1F4FEDB7FEB7328295
:102D7000218286ED91E0F8019383828388E090E0E0
:102D800095838483C6016CE370E00E941D3ACB01F9
:102D90006CE370E00E941D3A978386838AE390E09B
:102DA00091878087C6016CE370E00E941D3A93878B
:102DB00082878BE090E095878487C501B4012091DC
:102DC000CF043091D0044091D1045091D2040E949C
:102DD000D7380E947137F80177876687F08A118AA1
:102DE0008FE890E0938B828BC501B4012091D304CE
:102DF0003091D4044091D5045091D6040E94D73824
:102E00000E947137F801758B648BF68A178A83E10B
:102E100090E0918F808FC301B2012091D70430914F
:102E2000D8044091D9045091DA040E94D7380E9406
:102E30007137F801738F628FE48E158E84E190E014
:102E4000978F868FC301B2012091DB043091DC049F
:102E50004091DD045091DE040E94D7380E94713702
:102E6000F80171A360A3E2A213A282E190E095A30E
:102E700084A3C501B4012091DF043091E0044091A6
:102E8000E1045091E2040E94D7380E947137F801A2
:102E900077A366A3F0A611A68DE190E093A782A781
:102EA000C301B2012091E3043091E4044091E504B0
:102EB0005091E6040E94D7380E947137F80175A737
:102EC00064A7E6A617A687E190E091AB80AB80915E
:102ED000970490919804A0919904B0919A0482ABC0
:102EE00093ABA4ABB5AB81E090E097AB86AB83E04E
:102EF00090E091AF80AF8091270490912804A09139
:102F00002904B0912A0482AF93AFA4AFB5AF84E097
:102F100090E097AF86AF005C1F4F80912B0490919B
:102F20002C04A0912D04B0912E04F801808391838C
:102F3000A283B3830E94A02C8DB79EB78C5B9F4F5A
:102F40000FB6F8949EBF0FBE8DBFC1010E943C0515
:102F50001F910F91FF90EF90DF90CF90BF90AF90B7
:102F60009F908F907F906F905F904F903F902F90A9
:102F70000895CF92DF92EF92FF920F931F93CF931A
:102F8000DF93282F462FCFEFD3E0CE01622F0E9490
:102F90008004CE010E9458056091D3047091D4043E
:102FA0008091D5049091D6042091620430916304FD
:102FB00040916404509165040E94D7386B017C01F4
:102FC00020E030E04AE754E40E94CC381816CCF5F3
:102FD0008DB79EB70C970FB6F8949EBF0FBE8DBFEE
:102FE0000DB71EB70F5F1F4FADB7BEB71296DC937C
:102FF000CE93119786E791E0F801938382838FE85F
:1030000090E09583848360916B0470916C0480E000
:1030100090E00E94A2379B01AC01C701B6010E945B
:103020000937D80116966D937D938D939C931997CC
:103030008091690490916A041B969C938E931A97D1
:1030400021C08DB79EB70C970FB6F8949EBF0FBEE8
:103050008DBFEDB7FEB73196ADB7BEB71296DC9314
:10306000CE93119788E891E0938382838FE890E074
:1030700095838483C682D782E086F1868091670437
:10308000828713860E94A02CEDB7FEB73C960FB640
:10309000F894FEBF0FBEEDBF8FEF93E00E943C059A
:1030A000DF91CF911F910F91FF90EF90DF90CF9024
:1030B0000895EF92FF920F931F93CF93DF93282FE2
:1030C000462F8FEF93E0622F0E9480048FEF93E0F2
:1030D0000E9458056091450470914604882777FD49
:1030E0008095982F0E94A43720913D0430913E0492
:1030F00040913F04509140040E943B3620E030E074
:1031000044EB53E40E94093720E030E040E851E40A
:103110000E94D7380E943A3920E030E040E85FE36F
:103120000E943C360E947137862F60937A0467FFB5
:1031300002C0805F03C061311CF0805180937A042B
:10314000E0907B04F0907C0400917D0410917E045B
:10315000C801B70120E030EC49E754E40E94CC38C4
:1031600018162CF480E090ECA9E7B4E40EC0C80176
:10317000B70120E030EC49E754EC0E940237882385
:1031800064F480E090ECA9E7B4EC80937B04909326
:103190007C04A0937D04B0937E048DB79EB74297C4
:1031A0000FB6F8949EBF0FBE8DBF0DB71EB70F5F51
:1031B0001F4FCFEFD3E0EDB7FEB7D283C1838EE2CE
:1031C00092E0F8019383828387E590E0958384837E
:1031D00080E790E0978386838091490480871186F9
:1031E00013861286609147047091480480E090E055
:1031F0000E94A237209162043091630440916404DC
:10320000509165040E94D738F801648775878687D6
:10321000978780916704808B118A0E94A02C8DB7BC
:103220009EB742960FB6F8949EBF0FBE8DBF809199
:103230007A0460E00E94E60A80912504853039F026
:103240008A3029F08B3019F08F3009F047C0EDB784
:10325000FEB770970FB6F894FEBF0FBEEDBF0DB767
:103260001EB70F5F1F4F8FEF93E09283818380E43F
:1032700092E0F8019383828380E290E095838483D7
:1032800088E590E09783868385E690E09187808744
:1032900060917B0470917C0480917D0490917E0408
:1032A000209162043091630440916404509165045C
:1032B0000E94D738F8016287738784879587809149
:1032C0006704868717860E94A02C8DB79EB740960C
:1032D0000FB6F8949EBF0FBE8DBF10C000D000D0B7
:1032E000EDB7FEB7D283C18386ED90E094838383EC
:1032F0000E948F2C0F900F900F900F908FEF93E004
:103300000E943C05DF91CF911F910F91FF90EF90AC
:103310000895CF92DF92EF92FF920F931F937C015B
:10332000D62EC72E0FEF13E0C8016E2D4D2D0E9433
:103330008004C8010E94580500D000D0EDB7FEB748
:10334000128301838FED90E0948383830E948F2CFE
:103350000F900F900F900F90C8010E943C05C7017D
:1033600001966D2D7C2D0E949A0B1F910F91FF905D
:10337000EF90DF90CF9008950F931F930FEF13E01E
:10338000C80165E045E00E948004C8010E9458051C
:1033900000D000D0EDB7FEB71283018387E291E041
:1033A000948383830E948F2C0F900F900F900F9027
:1033B000C8010E943C051F910F9108950E94BC19FD
:1033C0000E9427090895EF92FF920F931F93909107
:1033D0009D04913051F48091AD04882309F4B4C068
:1033E0009093DC021092AD04AFC08091AE048430A3
:1033F000C9F580912F04833009F09BC08091AF0400
:10340000882321F58FEA94E00E945133892BF1F053
:1034100060917304709174048091750490917604A6
:103420000E94A4372091300430913104409132043D
:10343000509133040E9409370E9476377093BF047D
:103440006093BE048FEA94E00E945B332091BE0437
:103450003091BF048091CC029091CD0282179307E6
:10346000A0F52BC0853029F480914B0490914C0439
:1034700014C0863029F480914D0490914E040DC003
:10348000873029F480914F049091500406C0883011
:1034900041F480915104909152049093B804809328
:1034A000B7048091B9042091B7043091B8048823FF
:1034B00081F484E0203B380718F41092C00439C02E
:1034C0002950374010F082E001C081E08093C004B1
:1034D00030C0215B344068F1E090BA04F090BB0446
:1034E0000091BC041091BD0488EE93E0A0E0B0E030
:1034F000E80EF91E0A1F1B1F0E944734E616F70646
:1035000008071907B0F481E08093DC028091AD04D4
:103510008F5F8093C004833010F01092C0040E942B
:1035200047346093BA047093BB048093BC049093B7
:10353000BD049091C0048091AD04891729F081E009
:103540008093DC029093AD041F910F91FF90EF9058
:1035500008958091A204882309F07CC28091E70439
:103560009091E804A091E904B091EA040097A105C4
:10357000B10509F46FC20E9447342091E7043091ED
:10358000E8044091E9045091EA04621B730B840B38
:10359000950B695873418040904008F45BC280915C
:1035A000DC02882321F48FEF93E00E94A5050E949E
:1035B0006C160895FD01EC53FC4F6081AE53BC4F77
:1035C0008C9190E070E00E942A118091DC028823A7
:1035D00031F08FEF93E00E94A5051092DC028091FC
:1035E000AE04843010F00E94E3198091AD04823063
:1035F00009F43BC2A82FB0E0FD01E05AFC4F8081E6
:1036000081FF0BC0FD01E459FC4F6081A659BC4FFE
:103610008C9190E070E00E94960F8091AD04A82FED
:10362000B0E0FD01E05AFC4F808182FF0BC0FD013C
:10363000E059FC4F6081A259BC4F8C9190E070E042
:103640000E94560F8091AD04A82FB0E0FD01E05A12
:10365000FC4F808183FF0BC0FD01EC58FC4F608163
:10366000AE58BC4F8C9190E070E00E94100F80919A
:10367000AD04A82FB0E0FD01E05AFC4F808180FF2F
:103680000BC0FD01E858FC4F6081AA58BC4F8C91DB
:1036900090E070E00E94CA0E8091AD04A82FB0E0C7
:1036A000FD01E05AFC4F808185FF0BC0FD01E4580D
:1036B000FC4F6081A658BC4F8C9190E070E00E9456
:1036C0008F0E8091AD04A82FB0E0FD01E05AFC4FB1
:1036D000808187FF0BC0FD01EC57FC4F6081AE5726
:1036E000BC4F8C9190E070E00E943D0E8091AD0443
:1036F000A82FB0E0FD01E05AFC4F808184FF0BC091
:10370000FD01E857FC4F6081AA57BC4F8C9190E0B7
:1037100070E00E94A6108091AD04A82FB0E0FD01DA
:10372000EE59FC4F808180FF0BC0FD01E457FC4F38
:103730006081A657BC4F8C9190E070E00E94BD0D57
:103740008091AD04A82FB0E0FD01EE59FC4F8081BF
:1037500081FF0BC0FD01E057FC4F6081A257BC4FB9
:103760008C9190E070E00E94FB0D8091EB04813021
:1037700051F58091AD04A82FB0E0FD01EE59FC4F4A
:10378000808184FF0BC0FD01E856FC4F6081AA5682
:10379000BC4F8C9190E070E00E94D60F8091AD04F8
:1037A000A82FB0E0FD01EE59FC4F808183FF0BC0D4
:1037B000FD01EC56FC4F6081AE56BC4F8C9190E001
:1037C00070E00E94A50D8091AD04A82FB0E0FD012E
:1037D000EE59FC4F808187FF0BC0FD01EC55FC4F7B
:1037E0006081AE55BC4F8C9190E070E00E942F102C
:1037F000809149048823A9F08091AD04A82FB0E0FE
:10380000FD01EE59FC4F808186FF0BC0FD01E056A3
:10381000FC4F6081A256BC4F8C9190E070E00E94FA
:1038200059188091EB04813009F03FC08091AD04BC
:10383000A82FB0E0FD01EC59FC4F808182FF0BC046
:10384000FD01E455FC4F6081A655BC4F8C9190E082
:1038500070E00E9440148091AD04A82FB0E0FD01FB
:10386000EC59FC4F808183FF0BC0FD01E055FC4FFC
:103870006081A255BC4F8C9190E070E00E94521381
:103880008091AD04A82FB0E0FD01EC59FC4F808180
:1038900081FF0BC0FD01EC54FC4F6081AE54BC4F66
:1038A0008C9190E070E00E94FB128091AD04A82FF3
:1038B000B0E0FD01EC59FC4F808184FF0BC0FD019D
:1038C000E854FC4F6081AA54BC4F8C9190E070E0AA
:1038D0000E94EC108091AD04A82FB0E0FD01EC59DE
:1038E000FC4F808185FF0BC0FD01E454FC4F6081DB
:1038F000A654BC4F8C9190E070E00E944A0D8091DC
:10390000AD04A82FB0E0FD01EC59FC4F808186FF8B
:103910000BC0FD01E054FC4F6081A254BC4F8C9160
:1039200090E070E00E9489198091AD04A82FB0E06A
:10393000FD01EC59FC4F808180FF0BC0FD01E85573
:10394000FC4F6081AA55BC4F8C9190E070E00E94C2
:1039500097148091AD04A82FB0E0FD01EA59FC4F07
:10396000808183FF0BC0FD01E453FC4F6081A653AF
:10397000BC4F8C9190E070E00E94A9138091AD043F
:10398000A82FB0E0FD01EA59FC4F808186FF0BC0F3
:10399000FD01E053FC4F6081A253BC4F8C9190E03D
:1039A00070E00E942E158091AD04A82FB0E0FD01BB
:1039B000EA59FC4F808185FF0BC0FD01EC52FC4FA2
:1039C0006081AE52BC4F8C9190E070E00E94EC148C
:1039D0008091AD04A82FB0E0FD01E859FC4F808133
:1039E00081FF0BC0FD01E452FC4F6081A652BC4F29
:1039F0008C9190E070E00E940B168091AD04A82F8E
:103A0000B0E0FD01E859FC4F808180FF0BC0FD0153
:103A1000E852FC4F6081AA52BC4F8C9190E070E05C
:103A20000E94AF158091AD04A82FB0E0FD01E859C8
:103A3000FC4F808182FF0BC0FD01E052FC4F608192
:103A4000A252BC4F8C9190E070E00E94B9170E9486
:103A5000360708958091AD04A82FB0E0FD01EA5922
:103A6000FC4F808180FFB1CDA5CD0895CF93DF932A
:103A7000EC018FEF93E00E947C04C817D9073CF05B
:103A80008FEF93E00E947104892B09F42397CE01F4
:103A9000DF91CF9108958F929F92AF92BF92CF9274
:103AA000DF92EF92FF920F931F93CF93DF930091DA
:103AB000AD0410E08AEF90E0089F7001099FF00CC0
:103AC000189FF00C1124C70188569F4F0E94E00AEE
:103AD000F801E05AFC4F882319F08081806102C010
:103AE00080818F7E80838091AD04C82FD0E0C70194
:103AF00086569F4F0E94E00ACA57DC4F8883809108
:103B0000AD04C82FD0E0C70184569F4F0E94E00A41
:103B100090E00E94361DC857DC4F88830091AD04A9
:103B200010E0C70106960E94E00AF801E05AFC4F37
:103B3000882319F08081826002C080818D7F80831C
:103B40008091AD04C82FD0E0C70108960E94E00A1A
:103B5000C659DC4F88838091AD04C82FD0E0C701DF
:103B60000A960E94E00A90E00E94361DC459DC4F7C
:103B700088830091AD0410E0C7010C960E94E00A12
:103B8000F801E05AFC4F882319F08081846002C05C
:103B900080818B7F80838091AD04C82FD0E0C701E6
:103BA0000E960E94E00AC259DC4F88838091AD04D2
:103BB000C82FD0E0C70140960E94E00A90E00E9422
:103BC000361DC059DC4F88830091AD0410E0C70159
:103BD00042960E94E00AF801E05AFC4F882319F04F
:103BE0008081886002C08081877F80838091AD045E
:103BF000C82FD0E0C70144960E94E00ACE58DC4F9F
:103C000088838091AD04C82FD0E0C70146960E94FA
:103C1000E00A90E00E94361DCC58DC4F888300916A
:103C2000AD0410E0C70148960E94E00AF801E05A8E
:103C3000FC4F882319F08081816002C080818E7FD3
:103C400080838091AD04C82FD0E0C7014A960E94BE
:103C5000E00ACA58DC4F88838091AD04C82FD0E0B9
:103C6000C7014C960E94E00A90E00E94361DC85899
:103C7000DC4F88830091AD0410E0C7014E960E948E
:103C8000E00AF801E05AFC4F882319F08081806235
:103C900002C080818F7D80838091AD04C82FD0E0E9
:103CA000C70180960E94E00AC658DC4F8883809145
:103CB000AD04C82FD0E0C70182960E94E00A90E0D0
:103CC0000E94361DC458DC4F88830091AD0410E07B
:103CD000C70184960E94E00AF801E05AFC4F88234D
:103CE00019F08081806402C080818F7B8083809105
:103CF000AD04C82FD0E0C70186960E94E00AC258E2
:103D0000DC4F88838091AD04C82FD0E0C70188962E
:103D10000E94E00A90E00E94361DC058DC4F888364
:103D20000091AD0410E0C7018A960E94E00AF801F4
:103D3000E05AFC4F882319F08081806802C080819E
:103D40008F7780838091AD04C82FD0E0C7018C9617
:103D50000E94E00ACE57DC4F88838091AD04C82FC3
:103D6000D0E0C7018E960E94E00A90E00E94361DC6
:103D7000CC57DC4F88830091AD0410E0C701C0969A
:103D80000E94E00AF801EE59FC4F882319F0808167
:103D9000816002C080818E7F80838091AD04C82FB6
:103DA000D0E0C701C2960E94E00AC657DC4F888364
:103DB0008091AD04C82FD0E0C701C4960E94E00AEC
:103DC00090E00E94361DC457DC4F88830091AD04FB
:103DD00010E0C701C6960E94E00AF801EE59FC4FB8
:103DE000882319F08081826002C080818D7F80836A
:103DF0008091AD04C82FD0E0C701C8960E94E00AA8
:103E0000C257DC4F88838091AD04C82FD0E0C70132
:103E1000CA960E94E00A90E00E94361DC057DC4F0F
:103E200088830091AD0410E0C701885B9F4F0E941A
:103E3000E00AF801EE59FC4F882319F08081806177
:103E400002C080818F7E80838091AD04C82FD0E036
:103E5000C701865B9F4F0E94E00ACA56DC4F8883E9
:103E60008091AD04C82FD0E0C701845B9F4F0E94B2
:103E7000E00A90E00E94361DC856DC4F888300910E
:103E8000AD0410E0C7018E5B9F4F0E94E00AF8016D
:103E9000EE59FC4F882319F08081886002C0808130
:103EA000877F80838091AD04C82FD0E0C7018C5BF1
:103EB0009F4F0E94E00ACE56DC4F88838091AD046C
:103EC000C82FD0E0C7018A5B9F4F0E94E00A90E0B4
:103ED0000E94361DCC56DC4F88830091AD0410E063
:103EE000C701805B9F4F0E94E00AF801EE59FC4F2A
:103EF000882319F08081806202C080818F7D808359
:103F00008091AD04C82FD0E0C7018E5A9F4F0E9408
:103F1000E00AC656DC4F88838091AD04C82FD0E0FC
:103F2000C7018C5A9F4F0E94E00A90E00E94361D04
:103F3000C456DC4F88830091AD0410E0C7018A5A53
:103F40009F4F0E94E00AF801EE59FC4F882319F0B8
:103F50008081806402C080818F7B80838091AD04EA
:103F6000C82FD0E0C701885A9F4F0E94E00AC2566E
:103F7000DC4F88838091AD04C82FD0E0C701865AFA
:103F80009F4F0E94E00A90E00E94361DC056DC4F11
:103F900088830091AD0410E0C70182569F4F0E94B4
:103FA000E00AF801EE59FC4F882319F080818068FF
:103FB00002C080818F7780838091AD04C82FD0E0CC
:103FC000C70180569F4F0E94E00ACE55DC4F888380
:103FD0008091AD04C82FD0E0C7018E559F4F0E943D
:103FE000E00A90E00E94361DCC55DC4F888300919A
:103FF000AD0410E03CE5832E912C8E0C9F1CC40177
:104000000E94E00AF801EE59FC4F882319F08081E4
:10401000806402C080818F7B80838091AD04C82F33
:10402000D0E02EE5A22EB12CAE0CBF1CC5010E9423
:10403000E00AC253DC4F88838091AD04C82FD0E0E2
:1040400090E6C92ED12CCE0CDF1CC6010E94E00ADE
:1040500090E00E94361DC053DC4F88830091AD0470
:1040600010E0C7018E599F4F0E94E00AF801EC59F9
:10407000FC4F882319F08081816002C080818E7F8F
:1040800080838091AD04C82FD0E0C7018C599F4F29
:104090000E94E00ACA55DC4F88838091AD04C82F86
:1040A000D0E0C7018A599F4F0E94E00A90E00E9429
:1040B000361DC855DC4F88830091AD0410E0C70160
:1040C00082599F4F0E94E00AF801EC59FC4F882367
:1040D00019F08081846002C080818B7F8083809111
:1040E000AD04C82FD0E0C70180599F4F0E94E00A5D
:1040F000C655DC4F88838091AD04C82FD0E0C7013E
:104100008E589F4F0E94E00A90E00E94361DC455D1
:10411000DC4F88830091AD0410E0C7018E569F4F9D
:104120000E94E00AF801EC59FC4F882319F08081C5
:10413000826002C080818D7F80838091AD04C82F12
:10414000D0E0C7018C569F4F0E94E00ACE54DC4F4E
:1041500088838091AD04C82FD0E0C7018A569F4F55
:104160000E94E00A90E00E94361DCC54DC4F888308
:104170000091AD0410E0C7018C589F4F0E94E00AE7
:10418000F801EC59FC4F882319F08081886002C047
:104190008081877F80838091AD04C82FD0E0C701E4
:1041A0008A589F4F0E94E00AC255DC4F8883809155
:1041B000AD04C82FD0E0C70188589F4F0E94E00A85
:1041C00090E00E94361DC055DC4F88830091AD04FD
:1041D00010E0C70186589F4F0E94E00AF801EC5991
:1041E000FC4F882319F08081806102C080818F7E1E
:1041F00080838091AD04C82FD0E0C70184589F4FC1
:104200000E94E00ACA54DC4F88838091AD04C82F15
:10421000D0E0C70182589F4F0E94E00A90E00E94C0
:10422000361DC854DC4F88830091AD0410E0C701EF
:1042300080589F4F0E94E00AF801EC59FC4F8823F8
:1042400019F08081806202C080818F7D808380919F
:10425000AD04C82FD0E0C7018E579F4F0E94E00ADF
:10426000C654DC4F88838091AD04C82FD0E0C701CD
:104270008C579F4F0E94E00A90E00E94361DC45464
:10428000DC4F88830091AD0410E0C7018A579F4F2F
:104290000E94E00AF801EC59FC4F882319F0808154
:1042A000806402C080818F7B80838091AD04C82FA1
:1042B000D0E0C70188579F4F0E94E00AC254DC4FEC
:1042C00088838091AD04C82FD0E0C70186579F4FE7
:1042D0000E94E00A90E00E94361DC054DC4F8883A3
:1042E0000091AD0410E0C7018C559F4F0E94E00A79
:1042F000F801EA59FC4F882319F08081816002C0DF
:1043000080818E7F80838091AD04C82FD0E0C7016B
:104310008A559F4F0E94E00ACE53DC4F88838091DC
:10432000AD04C82FD0E0C70188559F4F0E94E00A16
:1043300090E00E94361DCC53DC4F88830091AD0481
:1043400010E0C70180559F4F0E94E00AF801EA592A
:10435000FC4F882319F08081846002C080818B7FAC
:1043600080838091AD04C82FD0E0C7018E549F4F49
:104370000E94E00ACA53DC4F88838091AD04C82FA5
:10438000D0E0C7018C549F4F0E94E00A90E00E9449
:10439000361DC853DC4F88830091AD0410E0C7017F
:1043A0008A549F4F0E94E00AF801EA59FC4F882383
:1043B00019F08081886002C08081877F808380912E
:1043C000AD04C82FD0E0C70188549F4F0E94E00A77
:1043D000C653DC4F88838091AD04C82FD0E0C7015D
:1043E00086549F4F0E94E00A90E00E94361DC453FD
:1043F000DC4F88830091AD0410E0C4010E94E00A04
:10440000F801EA59FC4F882319F08081806402C0CA
:1044100080818F7B80838091AD04C82FD0E0C5015F
:104420000E94E00AC253DC4F88838091AD04C82FFC
:10443000D0E0C6010E94E00A90E00E94361DC05301
:10444000DC4F88830091AD0410E0C70188539F4F73
:104450000E94E00AF801EA59FC4F882319F0808194
:10446000806202C080818F7D80838091AD04C82FDF
:10447000D0E0C70186539F4F0E94E00ACE52DC4F26
:1044800088838091AD04C82FD0E0C70184539F4F2B
:104490000E94E00A90E00E94361DCC52DC4F8883D7
:1044A0000091AD0410E0C70182539F4F0E94E00AC3
:1044B000F801E859FC4F882319F08081816002C01F
:1044C00080818E7F80838091AD04C82FD0E0C701AA
:1044D00080539F4F0E94E00ACA52DC4F888380912C
:1044E000AD04C82FD0E0C7018E529F4F0E94E00A52
:1044F00090E00E94361DC852DC4F88830091AD04C5
:1045000010E0C7018C529F4F0E94E00AF801E85961
:10451000FC4F882319F08081826002C080818D7FEA
:1045200080838091AD04C82FD0E0C7018A529F4F8D
:104530000E94E00AC652DC4F88838091AD04C82FE8
:10454000D0E0C70188529F4F0E94E00A90E00E948D
:10455000361DC452DC4F88830091AD0410E0C701C2
:1045600080529F4F0E94E00AF801E859FC4F8823CF
:1045700019F08081846002C080818B7F808380916C
:10458000AD04C82FD0E0C7018E519F4F0E94E00AB2
:10459000C252DC4F88838091AD04C82FD0E0C701A0
:1045A0008C519F4F0E94E00A90E00E94361DC0523D
:1045B000DC4F8883DF91CF911F910F91FF90EF9097
:1045C000DF90CF90BF90AF909F908F900895482F2D
:1045D00085EA95E00E94663308950F931F9300913A
:1045E000AD048AEF089F800111240A5F1F4F81E00C
:1045F000B8010E94E7220E5F1F4F87E1B8010E94B9
:10460000E7220E5F1F4F8BE0B8010E94E7220E5F8A
:104610001F4F81E0B8010E94E7220E5F1F4F8CE020
:10462000B8010E94E7220E5F1F4F81E0B8010E948F
:10463000E7220E5F1F4F81E0B8010E94E7220E5F64
:104640001F4F8EE0B8010E94E7220E5F1F4F8EE0E1
:10465000B8010E94E7220E5F1F4F81E0B8010E945F
:10466000E7220E5F1F4F85E1B8010E94E7220E5F2F
:104670001F4F83E0B8010E94E7220E5F1F4F81E0C9
:10468000B8010E94E7220E5F1F4F81E0B8010E942F
:10469000E7220E5F1F4F8BE0B8010E94E7220E5FFA
:1046A0001F4F81E0B8010E94E7220E5F1F4F85E097
:1046B000B8010E94E7220E5F1F4F8BE0B8010E94F5
:1046C000E7220E5F1F4F81E0B8010E94E7220E5FD4
:1046D0001F4F81E0B8010E94E7220E5F1F4F8EE05E
:1046E000B8010E94E7220E5F1F4F81E0B8010E94CF
:1046F000E7220E5F1F4F85E1B8010E94E7220E5F9F
:104700001F4F8FE0B8010E94E7220E5F1F4F81E02C
:10471000B8010E94E7220E5F1F4F88E1B8010E9496
:10472000E7220E5F1F4F8EE0B8010E94E722085F6C
:104730001F4F81E0B8010E94E7220E5F1F4F8EE0FD
:10474000B8010E94E7220E5F1F4F83E0B8010E946C
:10475000E7220E5F1F4F81E0B8010E94E7220E5F43
:104760001F4F86E1B8010E94E7220E5F1F4F81E0D4
:10477000B8010E94E72280E066E570E00E94E7222F
:1047800089E068E570E00E94E7228EE06AE570E06B
:104790000E94E722005F1F4F81E0B8010E94E722DC
:1047A0000E5F1F4F88E0B8010E94E7220E5F1F4F87
:1047B0008DE0B8010E94E7220E5F1F4F81E0B80133
:1047C0000E94E7220E5F1F4F8EE0B8010E94E72291
:1047D0000E5F1F4F8FE0B8010E94E722085F1F4F56
:1047E00081E0B8010E94E7220E5F1F4F86E1B80109
:1047F0000E94E7220E5F1F4F83E0B8010E94E7226C
:104800000E5F1F4F81E0B8010E94E7220E5F1F4F2D
:1048100081E0B8010E94E7220E5F1F4F82E0B801DD
:104820000E94E722065E1F4F81E0B8010E94E72246
:104830000E5F1F4F81E0B8010E94E7220E5F1F4FFD
:1048400081E0B8010E94E7220E5F1F4F81E0B801AE
:104850000E94E7220E5F1F4F81E0B8010E94E7220D
:104860000E5F1F4F84E0B8010E94E7220E5F1F4FCA
:1048700081E0B8010E94E7220E5F1F4F87E1B80177
:104880000E94E7220E5F1F4F8DE0B8010E94E722D1
:104890000852104081E0B8010E94E7220E5F1F4FCE
:1048A00081E0B8010E94E7220E5F1F4F83E0B8014C
:1048B0000E94E7220E5F1F4F81E0B8010E94E722AD
:1048C0000E5F1F4F81E0B8010E94E7220E5F1F4F6D
:1048D0008DE0B8010E94E7220E5F1F4F81E0B80112
:1048E0000E94E7220E5F1F4F88E0B8010E94E72276
:1048F0000E5F1F4F86E0B8010E94E722065E1F4F41
:1049000081E0B8010E94E7220E5F1F4F89E0B801E5
:104910000E94E7220E5F1F4F84E0B8010E94E72249
:10492000085F1F4F80E0B8010E94E7220E5F1F4F13
:1049300088E1B8010E94E7220E5F1F4F87E0B801AF
:104940000E94E7220E5F1F4F81E0B8010E94E7221C
:104950000E5F1F4F81E0B8010E94E7220E5F1F4FDC
:1049600088E0B8010E94E7220C5E1F4F80E0B8018A
:104970000E94E7220E5F1F4F8AE0B8010E94E722E3
:104980000E5F1F4F84E0B8010E94E7220E5F1F4FA9
:1049900080E0B8010E94E7220E5F1F4F86E1B80158
:1049A0000E94E7220E5F1F4F8EE0B8010E94E722AF
:1049B000085F1F4F80E0B8010E94E7220E5F1F4F83
:1049C00086E1B8010E94E7220E5F1F4F82E0B80126
:1049D0000E94E7228EE16CE773E00E94E72280E00C
:1049E0006EE773E00E94E72284E660E873E00E94CD
:1049F000E72284E662E873E00E94E72286E06AE844
:104A000073E00E94E72281E064EA73E00E94E722FB
:104A100081E065EA73E00E94E72281E06AEA73E0E0
:104A20000E94E72281E06BEA73E00E94E72281E0C6
:104A300066EA73E00E94E72281E068EA73E00E9480
:104A4000E72280E06CEA73E00E94E72281E06EEAF0
:104A500073E00E94E72280E060EB73E00E94E722AF
:104A60001F910F9108950F931F938AE268EE73E0F0
:104A70000E94E72284E26EEE73E00E94E722109229
:104A8000AD0407C00E94ED228091AD048F5F80933A
:104A9000AD048091AD048230A8F30FEF13E0C8019C
:104AA00064E049E00E948004C8010E94580500D0DB
:104AB00000D0EDB7FEB71283018381E591E09483C6
:104AC00083830E948F2C0F900F900F900F90C8013E
:104AD0000E943C05FFCF4F925F927F928F929F92F0
:104AE000AF92BF92CF92DF92EF92FF920F931F93FC
:104AF000DF93CF93CDB7DEB7C854D0400FB6F8944C
:104B0000DEBF0FBECDBF8FEF93E00E94A50500D0A2
:104B100000D002EE13E0EDB7FEB71283018384E705
:104B200091E0948383830E948F2CE9E64E2EE1E08E
:104B30005E2EEE24FF24CC24DD240F900F900F90E6
:104B40000F90702E012F79E0A72EB12CAC0EBD1E58
:104B50004E010894811C911C82EE93E00E94432D2B
:104B6000982F8D3031F08D30DCF180538230C0F5DC
:104B700030C01830A1F59981892F8053823078F5A3
:104B8000913311F490E801C090E08A81813309F4F7
:104B9000905C8B81813309F4905E8C81813309F4C0
:104BA000905F8D81813309F4985F8E81813309F4A0
:104BB0009C5F8F81813309F49E5F8885813309F47E
:104BC0009F5FF501EE0DFF1D90830894E11CF11C21
:104BD00006C0F401E10FF11D90831F5F01C010E0DA
:104BE000F0E4EF16F104C9F48FEF93E0B601A501EC
:104BF0000E9490040894C11CD11C00D000D0EDB7D5
:104C0000FEB771820283548243820E948F2CEE246D
:104C1000FF240F900F900F900F90FFEFCF16D1044D
:104C200009F00CF499CFC85BDF4F0FB6F894DEBFE4
:104C30000FBECDBFCF91DF911F910F91FF90EF90ED
:104C4000DF90CF90BF90AF909F908F907F905F90BC
:104C50004F900895EF92FF920F931F93DF93CF939E
:104C6000CDB7DEB766970FB6F894DEBF0FBECDBFE7
:104C70007E010894E11CF11C01E02FC182EE93E05B
:104C80000E94432D182F80911E04882301F50E9455
:104C9000473460527E4480409040C8F40E944734BC
:104CA000695873418040904090F01A3011F01D30E7
:104CB00031F480911F048F5F80931F0402C0109213
:104CC0001F0480911F04833011F40E946B25812FF3
:104CD000B7010E947F2B882309F4FFC000931E04B4
:104CE000009320040E9447340E94A237609321045D
:104CF00070932204809323049093240489819A81E1
:104D00008330910509F493C08430910554F48130C7
:104D10009105C9F0823091050CF07CC0892B69F0B7
:104D2000DCC08630910509F4B8C08730910509F4DC
:104D3000C9C0049709F0D1C08AC08B818093250433
:104D400010922604CAC06B817C818D819E810E9455
:104D5000A43720E836E948E15BE40E940937609314
:104D60002704709328048093290490932A046F8168
:104D7000788589859A850E94A43720E836E948E13C
:104D80005BE40E94093760932B0470932C0480939A
:104D90002D0490932E048F8580932F046B857C8542
:104DA0008D859E850E94A4376093300470933104F2
:104DB0008093320490933304888980933404698902
:104DC0007A8980E090E00E94A23760933504709366
:104DD000360480933704909338046B897C8980E093
:104DE00090E00E94A2376093390470933A04809354
:104DF0003B0490933C046D897E8980E090E00E94A2
:104E0000A23760933D0470933E0480933F049093D7
:104E1000400463C08B819C81909342048093410441
:104E20008D819E81909344048093430456C08B816E
:104E30009C8190934604809345048D819E8190933C
:104E400048048093470489858093490446C08B8138
:104E50009C81885E93406AE070E00E94093A60930A
:104E60004A048D819E8190934C0480934B048F81E2
:104E7000988590934E0480934D0489859A859093EC
:104E8000500480934F048B859C85909352048093AB
:104E900051048B898093530420C08B819C816AE0EC
:104EA00070E00E941D3A882777FD8095982F0E9418
:104EB000A4376093540470935504809356049093E0
:104EC00057040BC064EF71E080E090E00E9455341D
:104ED000E0911C04F0911D04099582EE93E00E947C
:104EE000132D181619060CF4C9CE66960FB6F89451
:104EF000DEBF0FBECDBFCF91DF911F910F91FF900D
:104F0000EF900895EF92FF920F931F93E090F004BB
:104F1000F090F1040091F2041091F3048FE590E019
:104F2000A0E0B0E0E80EF91E0A1F1B1F0E944734E4
:104F30006E157F058007910708F41BC10E94473456
:104F40000E9447346093F0047093F1048093F2045C
:104F50009093F30487E00E94EC34AA2797FDA09574
:104F6000BA2FBC01CD010E94A43720E030E849E807
:104F70005FE30E94D7382091E7023091E802409128
:104F8000E9025091EA020E9409372DEC3CEC4CE416
:104F90005EE30E94D7387B018C016091F30270912F
:104FA000F4028091F5029091F6022DEC3CEC4CE479
:104FB0005FE30E94D7389B01AC01C801B7010E9492
:104FC0003C36DC019B01AC012093F3023093F402E8
:104FD0004093F5025093F602CB0180938F04909397
:104FE0009004A0939104B093920486E00E94EC3464
:104FF000AA2797FDA095BA2FBC01CD010E94A43726
:1050000020E030E849E85FE30E94D7382091EB02C6
:105010003091EC024091ED025091EE020E9409376E
:105020002DEC3CEC4CE45EE30E94D7387B018C0114
:105030006091F7027091F8028091F9029091FA0262
:105040002DEC3CEC4CE45FE30E94D7389B01AC01B3
:10505000C801B7010E943C36DC019B01AC012093E2
:10506000F7023093F8024093F9025093FA02CB0111
:1050700080938B0490938C04A0938D04B0938E0442
:1050800081E00E94EC349093CD048093CC04609135
:10509000EF027091F0028091F1029091F20220E013
:1050A00030E040E050E00E94CC3818160CF061C0AF
:1050B00082E00E94EC34AA2797FDA095BA2FBC018C
:1050C000CD010E94A43720E030E849E85FE30E9468
:1050D000D7387B018C016091EC047091ED048091D4
:1050E000EE049091EF0420E030E040E251EC0E94A9
:1050F00009379B01AC01C801B7010E943C362091E1
:10510000EF023091F0024091F1025091F2020E94C0
:1051100009372DEC3CEC4CEC5DE30E94D7387B0169
:105120008C016091F4047091F5048091F6049091E3
:10513000F70426E636E646E65FE30E94D7389B0191
:10514000AC01C801B7010E943C366093F40470932F
:10515000F5048093F6049093F70420E030E048ECE7
:1051600052E40E94D7380E9471377093AC04609368
:10517000AB041F910F91FF90EF90089583E00E9480
:10518000E9346091D2027091D3028091D40290915F
:10519000D5022DEC3CEC4CE85FE30E94D7386093DD
:1051A000F3027093F4028093F5029093F6026091FB
:1051B000D8027091D9028091DA029091DB022DEC35
:1051C0003CEC4CE85FE30E94D7386093F7027093A1
:1051D000F8028093F9029093FA02089586E061E064
:1051E0000E944D3508958091F8048130A1F4109209
:1051F000F8048FEF93E00E94A5051092FB020E9435
:1052000047340E94A2376093210470932204809354
:105210002304909324040E942A2681E194E00E94B2
:10522000C03308950F931F93CF93DF9386E061E01F
:105230000E940E3582EE93E040E051EE60E070E0B7
:105240000E94B12C0E94EE28CFEFD3E0CE010E9445
:1052500024060E94DE1964EF71E080E090E00E9475
:10526000553488EE93E00E94E00A082F8EEE93E01A
:105270000E94E00A10E0080F111D0E341105E9F03C
:10528000CE0166E049E00E948004CE010E945805EC
:1052900000D000D0EDB7FEB7D283C18384E891E09F
:1052A000948383830E948F2C0F900F900F900F9008
:1052B000CE010E943C050E9433250E94B309109242
:1052C000AD0407C00E944B1D8091AD048F5F809399
:1052D000AD048091AD048230A8F31092AD0460ED6E
:1052E00077E080E090E00E94553482EE93E00E94E7
:1052F000902D81E194E069E27BE228E730E040E034
:1053000050E000E00E9472330E94BE288FEF93E0CD
:105310000E94A50581E194E00E94D833DF91CF91EE
:105320001F910F9108952F923F924F925F926F922B
:105330007F928F929F92AF92BF92CF92DF92EF9225
:10534000FF920F931F93DF93CF9300D000D0CDB780
:10535000DEB7E0903004F0903104009132041091F7
:105360003304C801B7012091FE043091FF0440913D
:105370000005509101050E943B3660936F047093C5
:1053800070048093710490937204A090EB04AA209F
:1053900089F580912F04833009F044C1809127045E
:1053A00090912804A0912904B0912A0480930205C9
:1053B00090930305A0930405B093050580912B04F9
:1053C00090912C04A0912D04B0912E048093060599
:1053D00090930705A0930805B0930905E092FE0499
:1053E000F092FF04009300051093010581E0809383
:1053F000EB0418C181E0A81609F014C160900A05F9
:10540000E8E1E61580F160910B0570910C05809143
:105410000D0590910E05A80197010E943B369F77DC
:1054200020E030E040E05FE30E94CC3818165CF4E6
:1054300010920A05E0920B05F0920C0500930D0501
:1054400010930E0510C0862D8F5F80930A05893159
:1054500051F4E092FE04F092FF04009300051093D3
:105460000105A092F904E0900205F0900305009177
:10547000040510910505C801B7019F7725E33AEFB0
:105480004EE85CE30E94D7380E94063769837A832E
:105490008B839C83C801B701209127043091280495
:1054A0004091290450912A040E943B361B012C0193
:1054B0009F7720EC3BE649ED57E40E94D7385B012B
:1054C0006C01609106057091070580910805909127
:1054D000090520912B0430912C0440912D0450910A
:1054E0002E040E943B363B014C019F7720EC3BE6AB
:1054F00049ED57E40E94D73829813A814B815C817C
:105500000E94D7387B018C01C601B501A601950127
:105510000E94D7385B016C01C801B701A80197014F
:105520000E94D7389B01AC01C601B5010E943C36F0
:105530000E945E390E947137609373047093740403
:10554000809375049093760460E070E080E89FE3B8
:1055500029813A814B815C810E9409379B01AC0112
:10556000C201B1010E94D73897FA909497F89094AD
:10557000A40193010E94AF3620EE3EE245E652E4DC
:105580000E94D73820E030E044EB52E40E943C36E1
:105590000E9471379B01AC0197FF04C028593E4F10
:1055A0004F4F5F4FCA01B901645B7040804090402B
:1055B00097FF06C0CA01B9016C547F4F8F4F9F4FB0
:1055C0000E94A43720913D0430913E0440913F0455
:1055D000509140040E943B360E94713797FF04C0EF
:1055E00068597E4F8F4F9F4F0E94A43720E030E0D4
:1055F00044EB53E40E94093720E030E040E851E4F6
:105600000E94D7380E943A3920E030E040E85FE35A
:105610000E943C360E94763760937704613110F027
:10562000109277040F900F900F900F90CF91DF9111
:105630001F910F91FF90EF90DF90CF90BF90AF90B0
:105640009F908F907F906F905F904F903F902F90A2
:1056500008950E94140D8FEF93E00E9493290E94F9
:1056600082270E94A91A0E94650708950F931F932D
:1056700083E195E06CE270E00E942E048C010F5FE4
:105680001F4F1093100500930F05C8016CE270E0E6
:105690000E942E04FC019093120580931105012BAA
:1056A00041F0009731F0108220910F0530911005E4
:1056B00002C02CEF32E0C9011F910F910895809133
:1056C000110590911205009781F0019690931005B5
:1056D00080930F056CE270E00E942E04FC01909311
:1056E000120580931105009719F42CEF32E005C0E4
:1056F000108220910F0530911005C9010895EF9295
:10570000FF920F931F93CF93DF93EB01843209F045
:10571000DAC082EE93E06AE043E155E020E830E051
:105720000E940636882309F4CEC0E82FF0E0EE5E32
:10573000FA4F80818D3009F0C6C010828091130528
:105740008D3409F46EC08E344CF4833409F481C076
:105750008934E1F0813409F0B6C02AC0823509F4F9
:10576000ADC0833524F4803509F0ADC007C0853560
:1057700009F492C08A3509F0A6C097C01982188230
:105780000E94362B0E94DE038A8310C082E090E0E4
:10579000998388830E94362B0E94DE039D838C832D
:1057A0000E945F2B0E94DE039B838A8381E08CC072
:1057B00081E090E0998388830E94362B0E94FC034D
:1057C0006A837B838C839D830E945F2B0E94FC03F2
:1057D0006E837F83888799870E945F2B0E94DE03F8
:1057E0008F870E945F2B0E94FC036A877B878C87D0
:1057F0009D870E945F2B0E94DE03888B198A0E947E
:105800005F2B0E94DE038A8B1B8A0E945F2B0E9403
:10581000DE039D8B8C8B0E945F2B0E94DE038E87A4
:10582000C5CF83E090E0998388830E94362B0E9445
:10583000FC037B836A830E945F2B0E94FC036C83C2
:105840007D838E839F830E945F2B0E94DE03888767
:10585000ADCF84E090E0998388830E94362B0E942C
:10586000DE039B838A837E0101E010E00E945F2BB0
:105870000E94DE03F701958384830F5F1F4F82E050
:1058800090E0E80EF91E0530110581F70E945F2BAC
:105890000E94DE038A8B8ACF85E090E0998388831B
:1058A0000E94362B0E94DE037FCF86E090E0998332
:1058B00088830E94362B0E94DE0376CF87E090E03B
:1058C0009983888373CF80E0DF91CF911F910F91EF
:1058D000FF90EF9008956EBD0DB407FEFDCF8EB51D
:1058E00008958DE061E00E940E358BE061E00E943A
:1058F0000E358CE060E00E940E358AE061E00E9487
:105900000E351CBC80E58CBD8DB58EB5089583E940
:1059100095E00E94712C08958FEF9FE70895DF9323
:10592000CF93CDB7DEB7FE0139968D819E8161E0C0
:105930004F8158859F010E94302FCF91DF910895AC
:10594000DF93CF93CDB7DEB7FE0139968D819E816F
:1059500060E04F8158859F010E94302FCF91DF91E9
:1059600008950F931F93DC01ED91FC910288F38958
:10597000E02D20E030E000E010E009951F910F914C
:1059800008958F92AF92CF92EF92FF920F931F9351
:10599000DF93CF93CDB7DEB7FC011382128288EE7E
:1059A00093E0A0E0B0E084839583A683B7838AE484
:1059B00093E0918380835587448737872687118BAF
:1059C000008BF38AE28AC48AA58A868A70E0CB01BA
:1059D00023E0880F991F2A95E1F79C012C563A4F36
:1059E000308F278B84569A4F928F818F81E090E081
:1059F00002C0880F991F6A95E2F72091A405282B11
:105A00002093A405CF0140E051EE60E070E00E94D9
:105A1000B12CCF91DF911F910F91FF90EF90CF901C
:105A2000AF908F900895FC01838D882319F42FEF98
:105A30003FEF0DC00788F08DE02D208131818281FC
:105A40009381281B390B8481958128233923C9012F
:105A50000895FC01838D882319F42FEF3FEF11C0C7
:105A6000018CF28DE02D2081318182819381281B70
:105A7000390B2095309584819581282339232F5F18
:105A80003F4FC9010895FC01838D882361F0A789E8
:105A9000B08D2D913C91119712968D919C911397F9
:105AA0002817390721F44FEF5FEFCA0108951296C6
:105AB0008D919C9113971696ED91FC911797E80F95
:105AC000F91F408112968D919C911397019614961F
:105AD0002D913C9115978223932313969C938E933B
