:100000000C947D010C94A5010C94A5010C94A50100
:100010000C94A5010C94A5010C94A5010C94A501C8
:100020000C94A5010C94A5010C94A5010C94A501B8
:100030000C94A5010C94A5010C94A5010C94A501A8
:100040000C9498330C94A5010C946E050C94AA059D
:100050000C94A5010C94A5010C94A5010C94A50188
:100060000C94A5010C94A501084AD73B3BCE016E28
:1000700084BCBFFDC12F3D6C74319ABD56833DDAFF
:100080003D00C77F11BED9E4BB4C3E916BAAAABE0E
:10009000000000803F05A84CCDB2D44EB93836A937
:1000A000020C50B9918688083CA6AAAA2ABE000074
:1000B00000803F0664EC1B3C04BC163E3BE5B93CAB
:1000C000C93C37C29E5A3D660498083EEA69AAAA0E
:1000D0003E000000803F20202020202020202020E3
:1000E0002000202020202020202020202020207CD4
:1000F000202020202020202020202020207CC620FE
:100100002020202020202020202020C57C202020EE
:10011000202020202020202020207C202020202083
:1001200020202020202020207C00B0B1B2B3B47C5D
:10013000B5B6B7B8B97C4D696E696D4F53442D455E
:100140007874726120322E34207C20723632332053
:100150004D507C004F534420496E697469616C694D
:100160007A65642C207265626F6F740043686172F7
:1001700020446F6E650A00526561647920666F7273
:1001800020466F6E740A004D697373696E672F4F56
:100190006C6420436F6E6669670000407A10F35A02
:1001A00000A0724E18090010A5D4E80000E87648B7
:1001B000170000E40B54020000CA9A3B000000E163
:1001C000F505000080969800000040420F000000F6
:1001D000A08601000000102700000000E8030000D6
:1001E00000006400000000000A00000000000100A0
:1001F000000000002C76D888DC674F0823DFC1DFC1
:10020000AE59E1B1B796E5E3E453C63AE6519976C3
:1002100096E8E6C28426EB898C9B62ED407C6FFCFD
:10022000EFBC9C9F40F2BAA56FA5F490055A2AF73F
:100230005C936B6CF9676DC11BFCE0E40D47FEF548
:1002400020E6B500D0ED902E0300943577050080B0
:10025000841E080000204E0A000000C80C3333330F
:10026000330F986E12831141EF8D2114893BE655AF
:1002700016CFFEE6DB18D1844B381BF77C1D901D92
:10028000A4BBE424203284725E228100C9F124ECF4
:10029000A1E53D276E616E00696E660000000000FA
:1002A000240027002A0000000000250028002B0061
:1002B00000000000230026002900040404040404B4
:1002C0000404020202020202030303030303010205
:1002D00004081020408001020408102001020408D4
:1002E00010200000000700020100000304060000C7
:1002F000000000000000F805EB2A11241FBECFEF1C
:10030000D8E0DEBFCDBF13E0A0E0B1E0ECE1F4E760
:1003100002C005900D92A435B107D9F715E0A4E508
:10032000B3E001C01D92A83AB107E1F712E0CAEFAD
:10033000D2E004C02297FE010E94083AC63FD107CE
:10034000C9F70E943A350C940C3A0C9400002830FE
:1003500008F027E03327DA01990F311D87FD9160FE
:1003600000966105710539F432602E5F3D9330E3EC
:100370002A95E1F708959F3F30F0803871056105B7
:1003800009F03C5F3C5F3D93913008F08068911D1F
:10039000DF93CF931F930F93FF92EF92192F987FC4
:1003A0009695E92F96959695E90FFF27EC50FE4F0D
:1003B00099273327EE24FF24A701E701059008942D
:1003C000079428F4360FE71EF81E491F511D660FCB
:1003D000771F881F991F0694A1F70590079428F4AA
:1003E000E70EF81E491F561FC11D770F881F991F62
:1003F000661F0694A1F70590079428F4F80E491F8C
:10040000561FC71FD11D880F991F661F771F06949F
:10041000A1F70590079420F4490F561FC71FD81F56
:10042000990F661F771F881F0694A9F7849110956E
:10043000177041F0D695C79557954795F794E7946F
:100440001A95C1F7EAE9F1E0689415901591359194
:100450006591959105907FE27395E118F10A430B40
:10046000560BC90BD009C0F7E10CF11E431F561FF4
:10047000C91FD01D7EF4703311F48A95E6CFE8943D
:10048000015030F0080F0AF40027021708F4202F5B
:100490002395022F7A3328F079E37D932A95E9F7A3
:1004A00010C07D932A9589F60694979567953795A0
:1004B00017951794E118F10A430B560BC90BD00995
:1004C00098F023957E9173957A3308F070E37C93CE
:1004D0002013B8F77E9170617D9330F0839571E3BE
:1004E0007D9370E32A95E1F71124EF90FF900F912F
:1004F0001F91CF91DF91992787FD90950895FA017B
:10050000AA27283051F1203181F1E8946F936E7F52
:100510006E5F7F4F8F4F9F4FAF4FB1E03ED0B4E043
:100520003CD0670F781F891F9A1FA11D680F791F84
:100530008A1F911DA11D6A0F711D811D911DA11D95
:1005400020D009F468943F912AE0269F11243019A5
:10055000305D3193DEF6CF010895462F4770405D40
:100560004193B3E00FD0C9F7F6CF462F4F70405DEF
:100570004A3318F0495D31FD4052419302D0A9F74A
:10058000EACFB4E0A6959795879577956795BA9544
:10059000C9F700976105710508959B01AC010A2E0A
:1005A00006945795479537952795BA95C9F7620FE1
:1005B000731F841F951FA01D0895FC01882799278C
:1005C000E89421912032E9F3293010F02E30C8F35D
:1005D0002B3241F02D3239F4689404C00E94580344
:1005E000820F911D219120532A30C0F31EF4909563
:1005F00081959F4F08951F93FC0199278827BC017F
:10060000E89411911032E9F3193010F01E30C8F35C
:100610001B3251F01D3249F4689406C00E94430316
:10062000610F711D811D911D119110531A30B0F38E
:100630003EF490958095709561957F4F8F4F9F4FB9
:100640001F910895FC010590615070400110D8F78A
:10065000809590958E0F9F1F0895FC0181918617BC
:1006600021F08823D9F7992708953197CF0108956C
:10067000FC016150704001900110D8F78095909571
:100680008E0F9F1F0895592F482F372F262F660F43
:10069000771F881F991F660F771F881F991F620F8A
:1006A000731F841F951F660F771F881F991F08955A
:1006B0007AE0979F902D879F802D910D11240895AA
:1006C000FC011382128288EE93E0A0E0B0E0848304
:1006D0009583A683B78389EF92E091838083089501
:1006E000FC018089803419F421E030E002C020E070
:1006F00030E0C9010895FC01818990E00895FC0172
:100700006487458766874787089580E090E008956D
:1007100080E090E0089580E090E008950895EF92E1
:10072000FF921F93CF93DF93162F7A0186E060E04C
:100730000E94E63488E895E060E00E94CF2A88E8CD
:1007400095E060E00E94CF2A88E895E069E00E9489
:10075000CF2A88E895E0612F0E94CF2AC0E0D0E040
:10076000F701EC0FFD1F108188E895E06AE00E9418
:10077000CF2A88E895E06C2F0E94CF2A88E895E080
:100780006BE00E94CF2A88E895E0612F0E94CF2A73
:100790002196C633D10521F788E895E068E00E94EC
:1007A000CF2A88E895E060EA0E94CF2A88E895E0A1
:1007B00060EA0E94CF2A85FDF9CF88E895E060E0E5
:1007C0000E94CF2A88E895E06CE00E94CF2A86E05C
:1007D00061E00E94E634DF91CF911F91FF90EF908E
:1007E00008951F93CF93DF93EC01162F86E060E00E
:1007F0000E94E63488E895E060E00E94CF2A112349
:1008000019F0113059F404C088E895E0688904C0F3
:1008100068896C6188E895E00E94CF2A86E061E0F3
:100820000E94E634DF91CF911F910895EF92FF92DD
:100830000F931F938EE1489F70011124E60EF11C67
:1008400086E060E00E94E63408E815E0C80165E053
:100850000E94CF2AC8016F2D0E94CF2AC80166E0EE
:100860000E94CF2AC8016E2D0E94CF2A1F910F919E
:10087000FF90EF900895EF92FF920F931F937C01EA
:1008800008E815E0C80167E00E94CF2AC8016FEFB1
:100890000E94CF2A86E061E00E94E634F701878556
:1008A0008F5F87871F910F91FF90EF900895EF92D0
:1008B000FF920F931F93FC01E7848EE1E89E700185
:1008C00011248685E80EF11C86E060E00E94E63483
:1008D00008E815E0C80164E00E94CF2AC80163E07F
:1008E0000E94CF2AC80165E00E94CF2AC8016F2D5F
:1008F0000E94CF2AC80166E00E94CF2AC8016E2D4F
:100900000E94CF2A1F910F91FF90EF9008951F939F
:10091000CF93DF93EC01162F6C3731F40E943B0428
:10092000CE010E9457040AC088E895E067E00E9463
:10093000CF2A88E895E0612F0E94CF2A81E090E0DD
:10094000DF91CF911F9108950F931F9386E060E090
:100950000E94E63408E815E0C80164E00E94CF2A4E
:10096000C80164E00E94CF2A86E061E00E94E6347C
:100970001F910F9108951F938AE995E066E973E04E
:100980000E94C331882361F0813011F412E009C064
:10099000823011F411E005C0833011F410E001C081
:1009A00013E0109255031092540317C06091540342
:1009B00070915503605F88E895E00E94CF2A88E82F
:1009C00095E0612F0E94CF2A8091540390915503A6
:1009D0000196909355038093540380915403909112
:1009E000550340971CF31F910895CF93DF93EC01BB
:1009F00086E060E00E94E63488E895E060EA0E94C4
:100A0000CF2A88E895E06FEF0E94CF2A80FF05C0CB
:100A100080E4888B88E0898B13C08AE995E060E9DF
:100A200073E00E94C331882319F4188A86E003C05A
:100A300080E4888B88E0898B86E060E00E94E63461
:100A4000DF91CF910895CF92DF92FF920F931F9382
:100A50006C0186E061E00E94A73482E060E00E94C1
:100A6000A73482E061E00E94E634C6010E94F504EA
:100A700086E060E00E94E63408E815E0C8016CEE0C
:100A80000E94CF2AC8016FEF0E94CF2AF82EC8011A
:100A900060E00E94CF2AF60160896260C8010E946E
:100AA000CF2A62E370E080E090E00E94EE33C8015C
:100AB0006CE60E94CF2AFFEEFF22C8016F2D0E9434
:100AC000CF2AC6010E94BB04C60161E00E94F10367
:100AD0001F910F91FF90DF90CF9008951F920F927A
:100AE0000FB60F9211242F933F934F938F939F93A1
:100AF000EF93FF934091C6002091890530918A05BC
:100B00002F5F3F4F80918D0590918E0528233923CB
:100B100080918B0590918C052817390779F0809189
:100B2000890590918A05E0918F05F0919005E80F75
:100B3000F91F408330938A0520938905FF91EF9137
:100B40009F918F914F913F912F910F900FBE0F90DA
:100B50001F9018951F920F920FB60F9211242F938A
:100B60003F938F939F93EF93FF9320919305309141
:100B70009405809191059091920528173907E9F025
:100B80008091930590919405E0919705F0919805D7
:100B9000E80FF91F80818093C600809193059091A2
:100BA0009405019620919505309196058223932313
:100BB000909394058093930510C0209191053091F6
:100BC000920580919305909194052817390729F48F
:100BD0008091C1008F7D8093C100FF91EF919F9123
:100BE0008F913F912F910F900FBE0F901F901895EE
:100BF0008F92AF92CF92EF92FF920F931F9388ED57
:100C000093E060E045EC50E024EC30E000EC10E0D4
:100C1000F1ECEF2EF12CCC24C394E8E9AE2E70E277
:100C2000872E0E94252B85EF93E00E94600310928F
:100C300008041092090410920A0410920B041092F6
:100C40000C0410920D0410920E0410920F041092D6
:100C5000110410921004109207041F910F91FF903D
:100C6000EF90CF90AF908F90089580914E04813097
:100C7000C1F40E94E03368517C4F8F4F9F4F6093C7
:100C80004F04709350048093510490935204109237
:100C90004E0490E080915304882309F491E09093EE
:100CA00053040E94E03320914F043091500440914E
:100CB000510450915204261737074807590718F472
:100CC00081E080934E040895AF92BF92CF92DF925D
:100CD000EF92FF920F931F931091EE04113009F0E1
:100CE0003EC0809194048823D1F560916504709191
:100CF0006604809167049091680420E030E040EA47
:100D000050E40E946538181654F5809140048B30E9
:100D100030F11093940480E090E0A0E0B0E0809384
:100D2000C8049093C904A093CA04B093CB04109252
:100D3000DC041092DD041092DE041092DF040E94A5
:100D4000E03328EE33E040E050E00E94C9392093C0
:100D500085043093860440938704509388046091FF
:100D6000650470916604809167049091680420E0A6
:100D700030E040EA51E40E949B3618168CF16091F5
:100D80002B0470912C0480912D0490912E0420E06E
:100D900030E040E050E40E949B3618160CF1809140
:100DA00040048B30E8F4809194048130C9F4809140
:100DB000690490916A04A0916B04B0916C0485362B
:100DC0009105A105B10564F4109294040E94E033EA
:100DD0006093DC047093DD048093DE049093DF0461
:100DE000A0902B04B0902C04C0902D04D0902E0421
:100DF000C601B50120E030E040E85FE30E946538BD
:100E0000181694F5E090C804F090C9040091CA0443
:100E10001091CB040E94E0332091EF043091F00454
:100E20004091F1045091F204621B730B840B950BFB
:100E30000E943B379B01AC01C601B5010E9470388E
:100E400020E030E04AE754E40E94A2369B01AC0166
:100E5000C801B7010E94D5356093C8047093C904D6
:100E60008093CA049093CB04A0908904B0908A0424
:100E7000C0908B04D0908C046091990470919A0476
:100E8000882777FD8095982F0E943D3720E030E03D
:100E900040E251E40E9470387B018C010E94E033F3
:100EA0002091EF043091F0044091F1045091F2044C
:100EB000621B730B840B950B0E943B379B01AC01AB
:100EC000C801B7010E94703820E03AEB4BE55AE4C4
:100ED0000E94A2369B01AC01C601B5010E94D53526
:100EE0006093890470938A0480938B0490938C049C
:100EF0000E94E0336093EF047093F0048093F10458
:100F00009093F20480919404813009F096C060912E
:100F1000690470916A0480916B0490916C040E9442
:100F20003D377B018C012091C4043091C504409170
:100F3000C6045091C7040E946538181644F4E09224
:100F4000C404F092C5040093C6041093C704E09053
:100F50002F04F09030040091310410913204C80144
:100F6000B7012091CC043091CD044091CE04509132
:100F7000CF040E946538181644F4E092CC04F09235
:100F8000CD040093CE041093CF04E0902B04F09096
:100F90002C0400912D0410912E04C801B70120915A
:100FA000D0043091D1044091D2045091D3040E94D6
:100FB0006538181644F4E092D004F092D1040093FE
:100FC000D2041093D304E0906504F090660400917D
:100FD000670410916804C801B7012091D4043091CE
:100FE000D5044091D6045091D7040E946538181654
:100FF00044F4E092D404F092D5040093D604109304
:10100000D7046091D8047091D9048091DA0490914A
:10101000DB0420E030E040E050E00E949B36882373
:1010200064F480E090E0A0E0B0E08093D804909376
:10103000D904A093DA04B093DB041F910F91FF90C1
:10104000EF90DF90CF90BF90AF9008958AE995E040
:101050006AE773E00E94C331882381F586E696E64D
:10106000A6E6B0E48093540490935504A0935604EC
:10107000B093570480E090E0A0E8BFE38093580469
:1010800090935904A0935A04B0935B0480E1809339
:101090005C048CE080935D048AEB80935E048BE1BA
:1010A00090E09093600480935F0488EE93E09093C7
:1010B0006204809361048AE190E02FC082E598EB9E
:1010C000AEE0B0E48093540490935504A09356048A
:1010D000B093570485E89BEEA1E5B0E480935804F3
:1010E00090935904A0935A04B0935B0489E18093D0
:1010F0005C0486E680935D048BEB80935E048CE158
:1011000090E09093600480935F0480EA94E1909370
:101110006204809361048EE190E090936404809374
:1011200063040895DF92EF92FF920F931F938C0157
:10113000AAE9EA2EA5E0FA2EC701B8010E94C33140
:10114000D82E0F5F1F4FC701B8010E94C3313D2D3C
:1011500020E0280F311DC9011F910F91FF90EF90E2
:10116000DF900895DF92EF92FF920F931F93CF933A
:10117000DF938AE995E06CE773E00E94C3318093C6
:1011800096048AE995E06EE773E00E94C33180938C
:1011900095048AE995E060E873E00E94C33190E02D
:1011A000A0E0B0E0BC01CD010E943B3720E030E080
:1011B00040E251E40E94A2366093C2027093C302DF
:1011C0008093C4029093C5028AE995E062E873E0D7
:1011D0000E94C33190E0A0E0B0E0BC01CD010E94CC
:1011E0003B3720E030E040E251E40E94A2366093B9
:1011F000C8027093C9028093CA029093CB028AE915
:1012000095E06EE873E00E94C3318093A8048AE9F8
:1012100095E06AE873E00E94C33180939C048AE9F8
:1012200095E064E873E00E94C3318093C0048AE9CA
:1012300095E066E873E00E94C3318093BF048AE9B9
:1012400095E06CE873E00E94C33110929804882303
:1012500019F081E0809398048AE995E064E973E0ED
:101260000E94C3318093970484EA93E00E9492081D
:10127000A0E0B0E0BC01CD010E943B3720E030E0AF
:1012800040E251E40E94A2366093D7027093D802E4
:101290008093D9029093DA028AEA93E00E9492083E
:1012A000A0E0B0E0BC01CD010E943B3720E030E07F
:1012B00040E251E40E94A2366093DB027093DC02AC
:1012C0008093DD029093DE0286EA93E00E9492080A
:1012D0007C018AE995E068EA73E00E94C331D82E68
:1012E00000E010E0C801B7010E943B3720E030E089
:1012F00040E251E40E94A2367B018C018D2D64E610
:101300000E94963990E0AA2797FDA095BA2FBC01BC
:10131000CD010E943D379B01AC01C801B7010E947D
:10132000D5356093DF027093E0028093E1029093E1
:10133000E2028CEA93E00E949208A0E0B0E0BC01D7
:10134000CD010E943B3720E030E040E251E40E94B2
:10135000A2366093E0047093E1048093E2049093DA
:10136000E3048AE995E06EEA73E00E94C33180935A
:10137000D6028AE995E060EB73E00E94C331809366
:10138000C3048AE995E060EB73E00E94C331809367
:10139000BC021092BD02C0E0D0E0BE0168567C4F96
:1013A0008AE995E00E94C331FE01EA54FB4F808335
:1013B000882321F02196C830D10579F7CA54DB4F34
:1013C0001982DF91CF911F910F91FF90EF90DF90E5
:1013D0000895BC018AE995E00E94C3310895DF9227
:1013E000EF92FF920F931F93CF93DF93882309F41B
:1013F00081E0182F110F1257613009F04CC0609135
:10140000540470915504809156049091570420E043
:1014100030E040E050E00E947038A12FBB27A7FDCC
:10142000B095D0905C042DB73EB7265130400FB632
:10143000F8943EBF0FBE2DBFEDB7FEB7319625EF36
:1014400033E0CDB7DEB73A83298323E031E033833D
:1014500022832DE130E035832483262F372F482F38
:10146000592F2683378340875187D2861386B587C5
:10147000A4871196B787A687C901DA01808B918B63
:10148000A28BB38BD48A158A0E94042B2DB73EB74A
:101490002A5E3F4F4BC0A12FBB27A7FDB09585EF1C
:1014A00093E0623039F5CDB7DEB72C970FB6F894DC
:1014B000DEBF0FBECDBFEDB7FEB731969A838983ED
:1014C00089E191E093838283B583A4831196B783E6
:1014D000A68380916E0490916F049187808785E048
:1014E00090E0938782870E94042B2DB73EB7245F3C
:1014F0003F4F1CC0CDB7DEB728970FB6F894DEBFBC
:101500000FBECDBFEDB7FEB731969A83898383E2D4
:1015100091E093838283B583A4831196B783A683D6
:101520000E94042B2DB73EB7285F3F4F0FB6F894AB
:101530003EBF0FBE2DBFDF91CF911F910F91FF9046
:10154000EF90DF9008952F923F924F925F926F92AB
:101550007F928F929F92AF92BF92CF92DF92EF9243
:10156000FF920F931F93DF93CF9300D000D000D052
:10157000CDB7DEB7182F662E2091390430913A048A
:101580002A35310530F0C9018D549F4F89359105B9
:10159000E8F437FF02C02D543F4FC90137FF03C0A5
:1015A000909581959F4F8A3191053CF0B9ED8B2E36
:1015B000912CA8EF2A2E312C1DC00A975CF1F0ED7A
:1015C0008F2E912CE3EF2E2E312C20C02B353105A0
:1015D00014F0235B3040C90137FF03C0909581951B
:1015E0009F4F8A31910554F07BEE872E912C6BEF43
:1015F000262E312C57E0A52EB12C15C00A9754F099
:1016000042EE842E912C35EF232E312C28E0A22E91
:10161000B12C09C096EC892E912C8DEC282E312C02
:1016200009E0A02EB12C609137047091380488270E
:1016300077FD8095982F0E943D3727EA32E94BE2EB
:101640005CEB0E9470380E94443920E030E040EAB0
:1016500050E40E94703820E030E040E951E40E94FC
:1016600070380E94D33820E030E044E352E40E9416
:10167000D5350E940A37712E1EEBC12E1FEFD12ED9
:101680009B01442737FD4095542F29833A834B8390
:101690005C83B5EF4B2EB3E05B2E4AEF5FEF240E79
:1016A000351E6091390470913A04882777FD809542
:1016B000982F0E943D3725E33AEF4EE85CE30E9405
:1016C00070380E9444397B018C01B601882777FD70
:1016D0008095982F0E943D379B01AC01C801B7014E
:1016E0000E9470387B018C0169817A818B819C8199
:1016F0000E943D379B01AC01C801B7010E94D5355E
:101700000E940A379B01CB0101978A35910508F0A9
:1017100071C062E170E00E94B6398B012F5F3F4FCC
:10172000AEEEBFEF6A9FC0016B9F900D7A9F900D48
:101730001124820F931F62E070E00E94B6396D831E
:101740007E83E62CE01A4E2D4C5F85EF93E0672DEB
:101750000E94160400D000D000D0EDB7FEB731963D
:10176000ADB7BEB712965C924E92119720E031E071
:10177000338322838D819E81880D991D9583848377
:101780000E94042B4DB75EB74A5F5F4F0FB6F894C7
:101790005EBF0FBE4DBF8D819E818A159B0554F1A2
:1017A000043011053CF593E0E90EC201672D4E2D82
:1017B0000E94160400D000D000D0EDB7FEB73196DD
:1017C000ADB7BEB712965C924E92119720E031E011
:1017D000338322834D815E81420D531D55834483A3
:1017E0000E94042B8DB79EB706960FB6F8949EBF45
:1017F0000FBE8DBFACE0B0E0CA0EDB1E7394BEE43A
:10180000CB16D10409F04DCF26960FB6F894DEBF63
:101810000FBECDBFCF91DF911F910F91FF90EF9041
:10182000DF90CF90BF90AF909F908F907F906F9000
:101830005F904F903F902F90089560913304709186
:101840003404809135049091360420E030E040EC7F
:1018500051E40E94703820E030E044EB53E40E94F1
:10186000A2360E94D3380E940A379B012350304091
:1018700037FF03C09B012B5E3F4FA1E7B4E0F901A6
:10188000E95EFC4F80818C932F5F3F4F28313105FB
:1018900014F020E030E0119684E0AC37B80779F717
:1018A0001092780408950F931F93282F462F85EFE9
:1018B00093E0622F0E947F0385EF93E00E9457041C
:1018C00080911B04882319F428E231E01AC0823089
:1018D00019F42DE231E015C0853019F422E331E02E
:1018E00010C027E331E08A3019F42CE331E009C05D
:1018F0008B3019F421E431E004C08F3011F426E478
:1019000031E08DB79EB708970FB6F8949EBF0FBE13
:101910008DBFEDB7FEB7319605EF13E0ADB7BEB79B
:1019200012961C930E9311978BE491E0938382831C
:101930008FE790E095838483378326830E94042B6E
:101940008DB79EB708960FB6F8949EBF0FBE8DBF99
:10195000C8010E943B041F910F9108950F931F939C
:10196000282F462F05EF13E0C801622F0E947F0346
:10197000C8010E94570480916D0460E00E94EF0945
:10198000C8010E943B041F910F9108950F931F936C
:10199000282F462F05EF13E0C801622F0E947F0316
:1019A000C8010E9457048DB79EB70A970FB6F894E6
:1019B0009EBF0FBE8DBFEDB7FEB73196ADB7BEB7B8
:1019C00012961C930E93119780E591E09383828386
:1019D00083EC90E09583848381E794E0978386830A
:1019E00087E890E0918780870E94042B8DB79EB78F
:1019F0000A960FB6F8949EBF0FBE8DBFC8010E9415
:101A00003B041F910F9108950F931F93282F462F8A
:101A100005EF13E0C801622F0E947F03C8010E94F6
:101A200057048DB79EB70A970FB6F8949EBF0FBEA6
:101A30008DBFEDB7FEB73196ADB7BEB712961C930A
:101A40000E93119787E591E093838283809133040D
:101A500090913404A0913504B09136048483958329
:101A6000A683B78385E090E0918780870E94042B4E
:101A70008DB79EB70A960FB6F8949EBF0FBE8DBF66
:101A8000C8010E943B041F910F9108950F931F936B
:101A9000282F462F05EF13E0C801622F0E947F0315
:101AA000C8010E9457048DB79EB740970FB6F894AF
:101AB0009EBF0FBE8DBFEDB7FEB73196ADB7BEB7B7
:101AC00012961C930E9311978FE591E09383828376
:101AD00083E090E09583848380911D0490911E049F
:101AE000A0911F04B091200486839783A087B187BB
:101AF00084E090E093878287809121049091220472
:101B0000A0912304B091240484879587A687B78782
:101B10000E94042B8DB79EB740960FB6F8949EBFD7
:101B20000FBE8DBFC8010E943B041F910F91089505
:101B30000F931F93282F462F85EF93E0622F0E946B
:101B40007F0385EF93E00E94570490912504923023
:101B500011F42FE105C0933011F42FE001C026E805
:101B600080915304882319F0933009F020E28DB757
:101B70009EB708970FB6F8949EBF0FBE8DBFEDB706
:101B8000FEB7319605EF13E0ADB7BEB712961C93C2
:101B90000E93119781E791E09383828324831582CA
:101BA00080912A04868317820E94042B8DB79EB7EA
:101BB00008960FB6F8949EBF0FBE8DBFC8010E9455
:101BC0003B041F910F9108950F931F93282F462FC9
:101BD00005EF13E0C801622F0E947F03C8010E9435
:101BE00057048DB79EB70C970FB6F8949EBF0FBEE3
:101BF0008DBFEDB7FEB73196ADB7BEB712961C9349
:101C00000E93119787E791E09383828380E690E0BB
:101C10009583848380917D0490917E04A0917F04BC
:101C2000B091800486839783A087B1878DE090E090
:101C3000938782870E94042B8DB79EB70C960FB6B0
:101C4000F8949EBF0FBE8DBFC8010E943B041F9138
:101C50000F9108950F931F93282F462F05EF13E040
:101C6000C801622F0E947F03C8010E9457048DB7EC
:101C70009EB70C970FB6F8949EBF0FBE8DBFEDB701
:101C8000FEB73196ADB7BEB712961C930E9311975F
:101C900087E791E0938382838CEB90E09583848344
:101CA0008091810490918204A0918304B091840476
:101CB00086839783A087B1878DE090E093878287A2
:101CC0000E94042B8DB79EB70C960FB6F8949EBF5A
:101CD0000FBE8DBFC8010E943B041F910F91089554
:101CE0000F931F93282F462F05EF13E0C801622F93
:101CF0000E947F03C8010E9457048DB79EB70A97C0
:101D00000FB6F8949EBF0FBE8DBFEDB7FEB73196EC
:101D1000ADB7BEB712961C930E93119781E891E070
:101D2000938382838091390490913A0495838483CC
:101D300085E090E09783868386E090E091878087B6
:101D40000E94042B8DB79EB70A960FB6F8949EBFDB
:101D50000FBE8DBFC8010E943B041F910F910895D3
:101D60000F931F93282F462F05EF13E0C801622F12
:101D70000E947F03C8010E9457048DB79EB70A973F
:101D80000FB6F8949EBF0FBE8DBFEDB7FEB731966C
:101D9000ADB7BEB712961C930E93119781E891E0F0
:101DA0009383828380913704909138049583848350
:101DB00085E090E09783868387E090E09187808735
:101DC0000E94042B8DB79EB70A960FB6F8949EBF5B
:101DD0000FBE8DBFC8010E943B041F910F91089553
:101DE000EF92FF920F931F93282F462F15EFE12EAE
:101DF00013E0F12EC701622F0E947F03C7010E94EA
:101E000057048DB79EB70C970FB6F8949EBF0FBEC0
:101E10008DBF0DB71EB70F5F1F4FEDB7FEB7F28234
:101E2000E18289E891E0F801938382838BE090E07E
:101E3000958384836091690470916A0480916B0436
:101E400090916C040E943D372091580430915904C0
:101E500040915A0450915B040E947038F8016683E7
:101E600077838087918780915D04828713860E94A3
:101E7000042B8DB79EB70C960FB6F8949EBF0FBE7D
:101E80008DBFC7010E943B041F910F91FF90EF90FF
:101E90000895EF92FF920F931F93282F462F05EF7F
:101EA000E02E03E0F02EC701622F0E947F03C701DE
:101EB0000E9457040E94E03328EE33E040E050E0F7
:101EC0000E94C9398091850490918604A09187046D
:101ED000B0918804281B390B4A0B5B0BCA01B9016E
:101EE0000E943B376093BE027093BF028093C00292
:101EF0009093C1020E940A378B019C018DB79EB757
:101F00000C970FB6F8949EBF0FBE8DBFEDB7FEB70E
:101F10003196ADB7BEB71296FC92EE92119783E957
:101F200091E09383828388E090E095838483C80165
:101F30006CE370E00E94B639CB016CE370E00E9464
:101F4000B639978386838AE390E091878087C801BA
:101F50006CE370E00E94B639938782870E94042B5D
:101F60008DB79EB70C960FB6F8949EBF0FBE8DBF6F
:101F7000C7010E943B041F910F91FF90EF900895BD
:101F80000F931F93282F462F05EF13E0C801622FF0
:101F90000E947F03C8010E9457048DB79EB70C971B
:101FA0000FB6F8949EBF0FBE8DBFEDB7FEB731964A
:101FB000ADB7BEB712961C930E9311978FE991E0BF
:101FC0009383828387E190E0958384838091890461
:101FD00090918A04A0918B04B0918C04868397839E
:101FE000A087B18781E090E0938782870E94042BCD
:101FF0008DB79EB70C960FB6F8949EBF0FBE8DBFDF
:10200000C8010E943B041F910F9108950F931F93E5
:10201000282F462F05EF13E0C801622F0E947F038F
:10202000C8010E9457048DB79EB70A970FB6F8945F
:102030009EBF0FBE8DBFEDB7FEB73196ADB7BEB731
:1020400012961C930E93119789EA91E093838283F1
:1020500082E090E095838483809140048683178298
:1020600085E290E0918780870E94042B8DB79EB710
:102070000A960FB6F8949EBF0FBE8DBFC8010E948E
:102080003B041F910F9108952F923F924F925F92C0
:102090006F927F928F929F92AF92BF92CF92DF9278
:1020A000EF92FF920F931F93DF93CF93CDB7DEB7DD
:1020B00060970FB6F894DEBF0FBECDBF282F462F16
:1020C000DE011196E7E0F3E080E101900D9281508E
:1020D000E1F785EF93E0622F0E947F0385EF93E0A5
:1020E0000E9457040E94E033611571058105910536
:1020F00009F47EC180918D04882391F080938E0431
:1021000010928D0481E080938F040E94E0336093ED
:10211000900470939104809392049093930440C12F
:102120000E94E033605177428040904020919004BB
:1021300030919104409192045091930426173707EF
:102140004807590710F410928F0480918E04882E4E
:10215000992477E0372E66E0262E55E0552E44E090
:10216000442E33E0632E22E0722E15C10894811CA8
:10217000911C88E08816910424F091E0892E912C1E
:1021800004C0E1E08E16910449F480912504823068
:1021900008F0FBC0F1E0F0938D04F7C08091940447
:1021A000813009F065C082E088169104B1F5A090F5
:1021B0002F04B0903004C0903104D0903204C60196
:1021C000B50120915404309155044091560450912A
:1021D00057040E9470387B018C016091950470E077
:1021E000882777FD8095982F0E943D379B01AC0191
:1021F000C801B7010E949B3688230CF0C6C0C601F7
:10220000B50129E23CE54FE85FE30E946538181606
:102210000CF0BBC070928D04B8C0E3E08E16910440
:1022200039F560912F0470913004809131049091C0
:102230003204209154043091550440915604509139
:1022400057040E9470387B018C016091960470E005
:1022500080E090E00E943B379B01AC01C801B701D0
:102260000E94653818160CF090C060928D048DC0E5
:10227000F4E08F16910429F5E090C202F090C302B9
:102280000091C4021091C502C801B70120E030E0FE
:1022900040E85FE30E94653818160CF076C0609144
:1022A0008104709182048091830490918404A80138
:1022B00097010E949B3688230CF067C040928D04E2
:1022C00064C085E088169104B9F42091C60230916B
:1022D000C7028091970490E0281739070CF055C089
:1022E0002D593F4F09F451C080919804882309F07B
:1022F0004CC050928D0449C0F6E08F16910419F538
:10230000E090C802F090C9020091CA021091CB027D
:10231000C801B70120E030E040E85FE30E94653883
:1023200018169CF560917D0470917E0480917F0465
:1023300090918004A80197010E949B3688232CF578
:1023400020928D0422C087E088169104F1F40E9447
:10235000E0330E943B377B018C0160911704709140
:1023600018048091190490911A0420E030E84BE39E
:1023700055E40E94D5359B01AC01C801B7010E940C
:102380006538181614F430928D0480918E0490E014
:102390008816990629F080918D04882309F4E6CEE9
:1023A0008091530425EF33E0882349F000D000D01A
:1023B000EDB7FEB73283218389819A8111C000D0A5
:1023C00000D0EDB7FEB732832183E0918D04F0E0B9
:1023D000EE0FFF1FEC0FFD1F81819281EDB7FEB75D
:1023E000948383830E94042B0F900F900F900F9083
:1023F00085EF93E00E943B0460960FB6F894DEBF31
:102400000FBECDBFCF91DF911F910F91FF90EF9045
:10241000DF90CF90BF90AF909F908F907F906F9004
:102420005F904F903F902F900895EF92FF920F93FF
:102430001F93282F462FE5EFEE2EE3E0FE2EC70177
:10244000622F0E947F03C7010E9457048DB79EB779
:102450000C970FB6F8949EBF0FBE8DBF0DB71EB779
:102460000F5F1F4FEDB7FEB7F282E18283EB91E081
:10247000F8019383828383E190E095838483609164
:102480002F04709130048091310490913204209196
:1024900054043091550440915604509157040E94C1
:1024A0007038F801668377838087918780915C0418
:1024B000828713860E94042B8DB79EB70C960FB6A9
:1024C000F8949EBF0FBE8DBFC7010E943B041F91B1
:1024D0000F91FF90EF900895EF92FF920F931F934B
:1024E000282F462FF5EFEF2EF3E0FF2EC701622FC6
:1024F0000E947F03C7010E9457048DB79EB70C97B7
:102500000FB6F8949EBF0FBE8DBF0DB71EB70F5FFD
:102510001F4FEDB7FEB7F282E18283EB91E0F80145
:102520009383828384E190E09583848360912B047C
:1025300070912C0480912D0490912E0420915404CC
:102540003091550440915604509157040E947038C0
:10255000F801668377838087918780915C04828706
:1025600013860E94042B8DB79EB70C960FB6F89475
:102570009EBF0FBE8DBFC7010E943B041F910F91EC
:10258000FF90EF9008950F931F93282F462F05EF8C
:1025900013E0C801622F0E947F03C8010E94570404
:1025A0008DB79EB70C970FB6F8949EBF0FBE8DBF28
:1025B000EDB7FEB73196ADB7BEB712961C930E932A
:1025C00011978FE991E09383828385E190E0958371
:1025D000848380914A0490914B04A0914C04B09163
:1025E0004D0486839783A087B1878091630490917F
:1025F0006404938782870E94042B8DB79EB70C9644
:102600000FB6F8949EBF0FBE8DBFC8010E943B0459
:102610001F910F910895EF92FF920F931F93282F10
:10262000462FA5EFEA2EA3E0FA2EC701622F0E94E3
:102630007F03C7010E9457048DB79EB70C970FB652
:10264000F8949EBF0FBE8DBF0DB71EB70F5F1F4F13
:10265000EDB7FEB7F282E18289E891E0F801938359
:10266000828381E190E09583848360912604709158
:1026700027048091280490912904209158043091D6
:10268000590440915A0450915B040E947038F8013B
:10269000668377838087918780915D048287138624
:1026A0000E94042B8DB79EB70C960FB6F8949EBF70
:1026B0000FBE8DBFC7010E943B041F910F91FF9079
:1026C000EF900895EF92FF920F931F93282F462FBC
:1026D000B5EFEB2EB3E0FB2EC701622F0E947F0304
:1026E000C7010E9457048DB79EB70C970FB6F89498
:1026F0009EBF0FBE8DBF0DB71EB70F5F1F4FEDB74B
:10270000FEB7F282E18287E791E0F801938382834A
:102710008DEB90E0958384836091990470919A0485
:10272000882777FD8095982F0E943D372AE037ED66
:1027300043E25CE30E947038F80166837783808708
:1027400091878EE090E0938782870E94042B8DB75B
:102750009EB70C960FB6F8949EBF0FBE8DBFC701F3
:102760000E943B041F910F91FF90EF900895CF932B
:10277000DF93282F462FC5EFD3E0CE01622F0E94B2
:102780007F03CE010E9457040E94E03328EE33E01D
:1027900040E050E00E94C939CA01B9012CE330E0A1
:1027A00040E050E00E94C939623071058105910511
:1027B00048F400D000D0EDB7FEB7D283C18386EBDA
:1027C00094E008C000D000D0EDB7FEB7D283C1833B
:1027D0008DEC92E0948383830E94042B0F900F90E2
:1027E0000F900F9085EF93E00E943B04DF91CF9113
:1027F0000895CF92DF92EF92FF920F931F93CF93A2
:10280000DF93282F462FC5EFD3E0CE01622F0E9421
:102810007F03CE010E94570480914904282F30E0A5
:102820003093C7022093C60280919804882309F050
:1028300048C00091BF0410E0201B310BB90188276C
:1028400077FD8095982F0E943D376B017C01609148
:10285000C00470E0601B710B882777FD8095982F6E
:102860000E943D379B01AC01C701B6010E94A23610
:1028700020E030E048EC52E40E9470380E940A37B1
:102880007093C7026093C6022DB73EB72850304000
:102890000FB6F8943EBF0FBE2DBFEDB7FEB7319611
:1028A000ADB7BEB71296DC93CE9311972DEB31E006
:1028B0003383228329E030E0358324837783668362
:1028C0001BC08DB79EB708970FB6F8949EBF0FBE7A
:1028D0008DBFEDB7FEB73196ADB7BEB71296DC939C
:1028E000CE93119785EC91E09383828389E090E009
:1028F00095838483378326830E94042B2DB73EB7AC
:10290000285F3F4F0FB6F8943EBF0FBE2DBF85EF37
:1029100093E00E943B04DF91CF911F910F91FF90B4
:10292000EF90DF90CF9008950F931F93282F462F9D
:1029300085EF93E0622F0E947F0385EF93E00E9472
:10294000570440919C04453029F420914104309172
:10295000420414C0463029F42091430430914404C9
:102960000DC0473029F4209145043091460406C03B
:10297000483021F420914704309148048DB79EB728
:102980000A970FB6F8949EBF0FBE8DBFEDB7FEB786
:10299000319605EF13E0ADB7BEB712961C930E93B8
:1029A00011978BEC91E09383828383E490E095838D
:1029B0008483842F90E0C096978386833187208715
:1029C0000E94042B8DB79EB70A960FB6F8949EBF4F
:1029D0000FBE8DBFC8010E943B041F910F91089547
:1029E000EF92FF920F931F93282F462F15EFE12EA2
:1029F00013E0F12EC701622F0E947F03C7010E94DE
:102A000057048DB79EB70C970FB6F8949EBF0FBEB4
:102A10008DBF0DB71EB70F5F1F4FEDB7FEB7F28228
:102A2000E18283ED91E0F801938382838AE090E074
:102A3000958384838091D60290E02091C1043091E7
:102A4000C204829FB001839F700D929F700D11246C
:102A50002091C304620F711D80E090E00E943B371B
:102A600020E030E048EC52E40E94A236F801668390
:102A700077838087918780915E04828713860E9486
:102A8000042B8DB79EB70C960FB6F8949EBF0FBE61
:102A90008DBFC7010E943B041F910F91FF90EF90E3
:102AA00008952F923F924F925F926F927F928F92F2
:102AB0009F92AF92BF92CF92DF92EF92FF920F93CD
:102AC0001F9305EF202E03E0302EC1016BE045E09F
:102AD0000E947F03C1010E9457046091BE02709161
:102AE000BF028091C0029091C1020E940A376B011F
:102AF0007C018090580490905904A0905A04B090A2
:102B00005B044090540450905504609056047090BB
:102B10005704F0905D04E0905C048DB79EB7845438
:102B200090400FB6F8949EBF0FBE8DBF0DB71EB775
:102B30000F5F1F4FEDB7FEB7328221828DED91E01E
:102B4000F8019383828388E090E095838483C601B3
:102B50006CE370E00E94B639CB016CE370E00E9438
:102B6000B639978386838AE390E091878087C60190
:102B70006CE370E00E94B639938782878BE090E027
:102B800095878487C501B4012091C4043091C504A0
:102B90004091C6045091C7040E9470380E940A37C1
:102BA000F80177876687F08A118A8FE890E0938B27
:102BB000828BC501B4012091C8043091C9044091B1
:102BC000CA045091CB040E9470380E940A37F80161
:102BD000758B648BF68A178A83E190E0918F808FE2
:102BE000C301B2012091CC043091CD044091CE04B8
:102BF0005091CF040E9470380E940A37F801738FF9
:102C0000628FE48E158E84E190E0978F868FC301EA
:102C1000B2012091D0043091D1044091D20450915E
:102C2000D3040E9470380E940A37F80171A360A390
:102C3000E2A213A282E190E095A384A3C501B401AE
:102C40002091D4043091D5044091D6045091D704FA
:102C50000E9470380E940A37F80177A366A3F0A695
:102C600011A68DE190E093A782A7C301B201209144
:102C7000D8043091D9044091DA045091DB040E94C9
:102C800070380E940A37F80175A764A7E6A617A650
:102C900087E190E091AB80AB8091890490918A04A8
:102CA000A0918B04B0918C0482AB93ABA4ABB5AB79
:102CB00081E090E097AB86AB83E090E091AF80AF8E
:102CC00080911D0490911E04A0911F04B0912004D6
:102CD00082AF93AFA4AFB5AF84E090E097AF86AF7B
:102CE000005C1F4F8091210490912204A091230445
:102CF000B0912404F80180839183A283B3830E945E
:102D0000042B8DB79EB78C5B9F4F0FB6F8949EBF78
:102D10000FBE8DBFC1010E943B041F910F91FF9018
:102D2000EF90DF90CF90BF90AF909F908F907F906B
:102D30006F905F904F903F902F900895CF92DF92C9
:102D4000EF92FF920F931F93CF93DF93282F462F7D
:102D5000C5EFD3E0CE01622F0E947F03CE010E9417
:102D600057046091C8047091C9048091CA0490917D
:102D7000CB04209158043091590440915A04509149
:102D80005B040E9470386B017C0120E030E04AE770
:102D900054E40E9465381816CCF58DB79EB70C9791
:102DA0000FB6F8949EBF0FBE8DBF0DB71EB70F5F55
:102DB0001F4FADB7BEB71296DC93CE93119787E73E
:102DC00091E0F801938382838FE890E09583848378
:102DD000609161047091620480E090E00E943B3752
:102DE0009B01AC01C701B6010E94A236D80116961C
:102DF0006D937D938D939C93199780915F0490912F
:102E000060041B969C938E931A9721C08DB79EB732
:102E10000C970FB6F8949EBF0FBE8DBFEDB7FEB7EF
:102E20003196ADB7BEB71296DC93CE93119789E871
:102E300091E0938382838FE890E095838483C682B8
:102E4000D782E086F18680915D04828713860E9496
:102E5000042BEDB7FEB73C960FB6F894FEBF0FBE3D
:102E6000EDBF85EF93E00E943B04DF91CF911F916E
:102E70000F91FF90EF90DF90CF9008950F931F93E5
:102E8000CF93DF93282F462FC5EFD3E0CE01622FDB
:102E90000E947F03CE010E94570490911B0495303D
:102EA00029F09B3019F09F3009F04DC086EB8093DC
:102EB0007004953019F487EB809370048DB79EB73A
:102EC0000E970FB6F8949EBF0FBE8DBF0DB71EB7FD
:102ED0000F5F1F4F85EF93E0EDB7FEB792838183BD
:102EE00085E392E0F8019383828380917004848368
:102EF000158280913F048683178260913D04709112
:102F00003E0480E090E00E943B37209158043091CD
:102F1000590440915A0450915B040E947038F801A2
:102F2000608771878287938780915D048487158687
:102F30000E94042B8DB79EB70E960FB6F8949EBFD5
:102F40000FBE8DBF10C000D000D0EDB7FEB7D2834A
:102F5000C18386ED90E0948383830E94F32A0F90CF
:102F60000F900F900F9085EF93E00E943B04DF914C
:102F7000CF911F910F910895CF92DF92EF92FF9220
:102F80000F931F937C01D62EC72E05EF13E0C801C7
:102F90006E2D4D2D0E947F03C8010E94570400D062
:102FA00000D0EDB7FEB71283018382EE90E09483E8
:102FB00083830E94F32A0F900F900F900F90C80107
:102FC0000E943B04C70101966D2D7C2D0E94A30A2F
:102FD0001F910F91FF90EF90DF90CF9008950F9386
:102FE0001F9305EF13E0C80165E045E00E947F03F1
:102FF000C8010E94570400D000D0EDB7FEB712837D
:1030000001838AE291E0948383830E94F32A0F90E4
:103010000F900F900F90C8010E943B041F910F91D9
:1030200008950E94EF170E9426080895EF92FF92DC
:103030000F931F9380919B048093B50480918F041C
:10304000813009F489C080919C04843009F059C012
:1030500080919D04813009F0B8C080919E0488233E
:1030600041F58EE994E00E94B531892B11F1609110
:10307000690470916A0480916B0490916C040E94C1
:103080003D37209126043091270440912804509127
:1030900029040E94A2360E940A376093AD047093FF
:1030A000AE048093AF049093B0048EE994E00E9444
:1030B000BF310E94E0332091B1043091B2044091BD
:1030C000B3045091B4042C503E4F4F4F5F4F26171E
:1030D00037074807590708F078C08091BC029091E3
:1030E000BD02A0E0B0E02091AD043091AE0440916B
:1030F000AF045091B00482179307A407B507A4F555
:103100002BC0853029F4809141049091420414C071
:10311000863029F480914304909144040DC0873097
:1031200029F4809145049091460406C0883041F40A
:1031300080914704909148049093A7048093A6043B
:103140008091A8042091A6043091A704882381F4DB
:1031500084E0203B380718F41092B50436C029509B
:10316000374010F082E001C081E08093B5042DC0AB
:10317000215B344050F1E090A904F090AA04009142
:10318000AB041091AC0488EE93E0A0E0B0E0E80E50
:10319000F91E0A1F1B1F0E94E033E616F7060807F8
:1031A000190798F480919B048F5F8093B504833056
:1031B00010F01092B5040E94E0336093A90470935C
:1031C000AA048093AB049093AC049091B5048091D1
:1031D0009B04891779F081E08093CC0290939B0443
:1031E0000E94E0336093B1047093B2048093B304FF
:1031F0009093B4041F910F91FF90EF9008958091E8
:103200009404882309F078C28091DC049091DD0455
:10321000A091DE04B091DF040097A105B10509F487
:103220006BC20E94E0332091DC043091DD044091B8
:10323000DE045091DF04621B730B840B950B6958FD
:1032400073418040904008F457C28091CC0288239B
:1032500021F485EF93E00E94A4040E945115089583
:10326000FD01E654FC4F6081A854BC4F8C9190E066
:1032700070E00E9444108091CC02882331F085EFE9
:1032800093E00E94A4041092CC0280919C048430AC
:1032900010F00E94161880919B04823009F437C206
:1032A000A82FB0E0FD01EA5AFC4F808181FF0BC0DE
:1032B000FD01EE59FC4F6081A05ABC4F8C9190E00B
:1032C00070E00E94B00E80919B04A82FB0E0FD0139
:1032D000EA5AFC4F808182FF0BC0FD01EA59FC4F86
:1032E0006081AC59BC4F8C9190E070E00E94700EF0
:1032F00080919B04A82FB0E0FD01EA5AFC4F808129
:1033000083FF0BC0FD01E659FC4F6081A859BC4FFB
:103310008C9190E070E00E942A0E80919B04A82F6F
:10332000B0E0FD01EA5AFC4F808180FF0BC0FD0137
:10333000E259FC4F6081A459BC4F8C9190E070E041
:103340000E94E40D80919B04A82FB0E0FD01EA5A91
:10335000FC4F808185FF0BC0FD01EE58FC4F608162
:10336000A059BC4F8C9190E070E00E94980D809124
:103370009B04A82FB0E0FD01EA5AFC4F808187FF33
:103380000BC0FD01E658FC4F6081A858BC4F8C91E2
:1033900090E070E00E94460D80919B04A82FB0E061
:1033A000FD01EA5AFC4F808184FF0BC0FD01E25809
:1033B000FC4F6081A458BC4F8C9190E070E00E945B
:1033C000C00F80919B04A82FB0E0FD01E85AFC4F8C
:1033D000808180FF0BC0FD01EE57FC4F6081A0583B
:1033E000BC4F8C9190E070E00E94C60C80919B04D1
:1033F000A82FB0E0FD01E85AFC4F808181FF0BC08F
:10340000FD01EA57FC4F6081AC57BC4F8C9190E0B6
:1034100070E00E94040D80919D04813051F58091EF
:103420009B04A82FB0E0FD01E85AFC4F808184FF87
:103430000BC0FD01E257FC4F6081A457BC4F8C913B
:1034400090E070E00E94F00E80919B04A82FB0E005
:10345000FD01E85AFC4F808183FF0BC0FD01E65758
:10346000FC4F6081A857BC4F8C9190E070E00E94A7
:10347000AE0C80919B04A82FB0E0FD01E85AFC4FF0
:10348000808187FF0BC0FD01E656FC4F6081A85686
:10349000BC4F8C9190E070E00E94490F80919B049A
:1034A000A82FB0E0FD01E85AFC4F808186FF0BC0D9
:1034B000FD01EA56FC4F6081AC56BC4F8C9190E008
:1034C00070E00E943E1780919D04813009F03FC05A
:1034D00080919B04A82FB0E0FD01E65AFC4F80814B
:1034E00082FF0BC0FD01EE55FC4F6081A056BC4F22
:1034F0008C9190E070E00E940B1380919B04A82FA8
:10350000B0E0FD01E65AFC4F808183FF0BC0FD0156
:10351000EA55FC4F6081AC55BC4F8C9190E070E057
:103520000E946C1280919B04A82FB0E0FD01E65A26
:10353000FC4F808181FF0BC0FD01E655FC4F60818F
:10354000A855BC4F8C9190E070E00E9415128091BC
:103550009B04A82FB0E0FD01E65AFC4F808184FF58
:103560000BC0FD01E255FC4F6081A455BC4F8C910E
:1035700090E070E00E94061080919B04A82FB0E0BC
:10358000FD01E65AFC4F808185FF0BC0FD01EE5422
:10359000FC4F6081A055BC4F8C9190E070E00E9480
:1035A000530C80919B04A82FB0E0FD01E65AFC4F1C
:1035B000808186FF0BC0FD01EA54FC4F6081AC5452
:1035C000BC4F8C9190E070E00E94BC1780919B04EE
:1035D000A82FB0E0FD01E65AFC4F808180FF0BC0B0
:1035E000FD01E256FC4F6081A456BC4F8C9190E0E7
:1035F00070E00E94621380919B04A82FB0E0FD014F
:10360000E45AFC4F808183FF0BC0FD01EE53FC4F59
:103610006081A054BC4F8C9190E070E00E94C31276
:1036200080919B04A82FB0E0FD01E45AFC4F8081FB
:1036300086FF0BC0FD01EA53FC4F6081AC53BC4FC9
:103640008C9190E070E00E94F91380919B04A82F68
:10365000B0E0FD01E45AFC4F808185FF0BC0FD0105
:10366000E653FC4F6081A853BC4F8C9190E070E012
:103670000E94B71380919B04A82FB0E0FD01E25A8D
:10368000FC4F808181FF0BC0FD01EE52FC4F608139
:10369000A053BC4F8C9190E070E00E94F014809198
:1036A0009B04A82FB0E0FD01E25AFC4F808180FF0F
:1036B0000BC0FD01E253FC4F6081A453BC4F8C91C1
:1036C00090E070E00E94941480919B04A82FB0E0D9
:1036D000FD01E25AFC4F808182FF0BC0FD01EA52DE
:1036E000FC4F6081AC52BC4F8C9190E070E00E9426
:1036F0009E160E943506089580919B04A82FB0E085
:10370000FD01E45AFC4F808180FFB5CDA9CD08951D
:10371000CF93DF93EC0185EF93E00E947B03C81702
:10372000D9073CF085EF93E00E947003892B09F4E0
:103730002397CE01DF91CF9108958F929F92AF9200
:10374000BF92CF92DF92EF92FF920F931F93CF938E
:10375000DF9300919B0410E08AEF90E0089F7001D6
:10376000099FF00C189FF00C1124C70188569F4F39
:103770000E94E909F801EA5AFC4F882319F0808178
:10378000806102C080818F7E808380919B04C82FDE
:10379000D0E0C70186569F4F0E94E909C458DC4F0C
:1037A000888380919B04C82FD0E0C70184569F4F27
:1037B0000E94E90990E00E94881BC258DC4F888370
:1037C00000919B0410E0C70106960E94E909F801E8
:1037D000EA5AFC4F882319F08081826002C0808100
:1037E0008D7F808380919B04C82FD0E0C70108960D
:1037F0000E94E909C05ADC4F888380919B04C82F3E
:10380000D0E0C7010A960E94E90990E00E94881B57
:10381000CE59DC4F888300919B0410E0C7010C96C1
:103820000E94E909F801EA5AFC4F882319F08081C7
:10383000846002C080818B7F808380919B04C82F2D
:10384000D0E0C7010E960E94E909CC59DC4F88836D
:1038500080919B04C82FD0E0C70140960E94E909DF
:1038600090E00E94881BCA59DC4F888300919B041A
:1038700010E0C70142960E94E909F801EA5AFC4F9C
:10388000882319F08081886002C08081877F8083CF
:1038900080919B04C82FD0E0C70144960E94E9099B
:1038A000C859DC4F888380919B04C82FD0E0C701A2
:1038B00046960E94E90990E00E94881BC659DC4F99
:1038C000888300919B0410E0C70148960E94E90993
:1038D000F801EA5AFC4F882319F08081816002C008
:1038E00080818E7F808380919B04C82FD0E0C701A8
:1038F0004A960E94E909C459DC4F888380919B0451
:10390000C82FD0E0C7014C960E94E90990E00E94C0
:10391000881BC259DC4F888300919B0410E0C701CB
:103920004E960E94E909F801EA5AFC4F882319F0E3
:103930008081806202C080818F7D808380919B0422
:10394000C82FD0E0C70180960E94E909C059DC4F1A
:10395000888380919B04C82FD0E0C70182960E9483
:10396000E90990E00E94881BCE58DC4F88830091C3
:103970009B0410E0C70184960E94E909F801EA5A05
:10398000FC4F882319F08081806402C080818F7B86
:10399000808380919B04C82FD0E0C70186960E9447
:1039A000E909CC58DC4F888380919B04C82FD0E074
:1039B000C70188960E94E90990E00E94881BCA58B6
:1039C000DC4F888300919B0410E0C7018A960E9417
:1039D000E909F801EA5AFC4F882319F080818068D0
:1039E00002C080818F77808380919B04C82FD0E0B4
:1039F000C7018C960E94E909C858DC4F88838091E2
:103A00009B04C82FD0E0C7018E960E94E90990E080
:103A10000E94881BC658DC4F888300919B0410E0ED
:103A2000C701C0960E94E909F801E85AFC4F8823B3
:103A300019F08081816002C080818E7F80838091B7
:103A40009B04C82FD0E0C701C2960E94E909C05864
:103A5000DC4F888380919B04C82FD0E0C701C496B7
:103A60000E94E90990E00E94881BCE57DC4F8883B2
:103A700000919B0410E0C701C6960E94E909F80175
:103A8000E85AFC4F882319F08081826002C080814F
:103A90008D7F808380919B04C82FD0E0C701C8969A
:103AA0000E94E909CC57DC4F888380919B04C82F82
:103AB000D0E0C701CA960E94E90990E00E94881BE5
:103AC000CA57DC4F888300919B0410E0C701885BD4
:103AD0009F4F0E94E909F801E85AFC4F882319F02A
:103AE0008081806102C080818F7E808380919B0471
:103AF000C82FD0E0C701865B9F4F0E94E909C457D9
:103B0000DC4F888380919B04C82FD0E0C701845B81
:103B10009F4F0E94E90990E00E94881BC257DC4F2A
:103B2000888300919B0410E0C7018E5B9F4F0E9429
:103B3000E909F801E85AFC4F882319F08081886070
:103B400002C08081877F808380919B04C82FD0E052
:103B5000C7018C5B9F4F0E94E909C857DC4F8883DF
:103B600080919B04C82FD0E0C7018A5B9F4F0E94C1
:103B7000E90990E00E94881BC657DC4F88830091BA
:103B80009B0410E0C701805B9F4F0E94E909F80188
:103B9000E85AFC4F882319F08081806202C080813E
:103BA0008F7D808380919B04C82FD0E0C7018E5AFF
:103BB0009F4F0E94E909C057DC4F888380919B0486
:103BC000C82FD0E0C7018C5A9F4F0E94E90990E0AE
:103BD0000E94881BCE56DC4F888300919B0410E026
:103BE000C7018A5A9F4F0E94E909F801E85AFC4F21
:103BF000882319F08081806402C080818F7B80835C
:103C000080919B04C82FD0E0C701885A9F4F0E9423
:103C1000E909CC56DC4F888380919B04C82FD0E003
:103C2000C701865A9F4F0E94E90990E00E94881BB5
:103C3000CA56DC4F888300919B0410E0C70182566E
:103C40009F4F0E94E909F801E85AFC4F882319F0B8
:103C50008081806802C080818F77808380919B04FF
:103C6000C82FD0E0C70180569F4F0E94E909C8566F
:103C7000DC4F888380919B04C82FD0E0C7018E550C
:103C80009F4F0E94E90990E00E94881BC656DC4FB6
:103C9000888300919B0410E02CE5822E912C8E0CE1
:103CA0009F1CC4010E94E909F801E85AFC4F8823CF
:103CB00019F08081806402C080818F7B8083809135
:103CC0009B04C82FD0E09EE5A92EB12CAE0CBF1CE2
:103CD000C5010E94E909CC53DC4F888380919B0485
:103CE000C82FD0E080E6C82ED12CCE0CDF1CC60138
:103CF0000E94E90990E00E94881BCA53DC4F888328
:103D000000919B0410E0C7018E599F4F0E94E90962
:103D1000F801E65AFC4F882319F08081816002C0C7
:103D200080818E7F808380919B04C82FD0E0C70163
:103D30008C599F4F0E94E909C456DC4F88838091BB
:103D40009B04C82FD0E0C7018A599F4F0E94E90900
:103D500090E00E94881BC256DC4F888300919B0430
:103D600010E0C70182599F4F0E94E909F801E65A05
:103D7000FC4F882319F08081846002C080818B7F92
:103D8000808380919B04C82FD0E0C70180599F4F4A
:103D90000E94E909C056DC4F888380919B04C82F9C
:103DA000D0E0C7018E589F4F0E94E90990E00E9421
:103DB000881BCE55DC4F888300919B0410E0C7011F
:103DC0008E569F4F0E94E909F801E65AFC4F88235E
:103DD00019F08081826002C080818D7F8083809114
:103DE0009B04C82FD0E0C7018C569F4F0E94E90961
:103DF000C855DC4F888380919B04C82FD0E0C70151
:103E00008A569F4F0E94E90990E00E94881BC65580
:103E1000DC4F888300919B0410E0C7018C589F4FB2
:103E20000E94E909F801E65AFC4F882319F08081C5
:103E3000886002C08081877F808380919B04C82F27
:103E4000D0E0C7018A589F4F0E94E909CC55DC4F4A
:103E5000888380919B04C82FD0E0C70188589F4F6A
:103E60000E94E90990E00E94881BCA55DC4F8883B4
:103E700000919B0410E0C70186589F4F0E94E909FA
:103E8000F801E65AFC4F882319F08081806102C056
:103E900080818F7E808380919B04C82FD0E0C701F2
:103EA00084589F4F0E94E909C455DC4F8883809154
:103EB0009B04C82FD0E0C70182589F4F0E94E90998
:103EC00090E00E94881BC255DC4F888300919B04C0
:103ED00010E0C70180589F4F0E94E909F801E65A97
:103EE000FC4F882319F08081806202C080818F7D21
:103EF000808380919B04C82FD0E0C7018E579F4FCD
:103F00000E94E909C055DC4F888380919B04C82F2B
:103F1000D0E0C7018C579F4F0E94E90990E00E94B2
:103F2000881BCE54DC4F888300919B0410E0C701AE
:103F30008A579F4F0E94E909F801E65AFC4F8823EF
:103F400019F08081806402C080818F7B80838091A2
:103F50009B04C82FD0E0C70188579F4F0E94E909F2
:103F6000CC54DC4F888380919B04C82FD0E0C701DC
:103F700086579F4F0E94E90990E00E94881BCA540F
:103F8000DC4F888300919B0410E0C7018C559F4F44
:103F90000E94E909F801E45AFC4F882319F0808156
:103FA000816002C080818E7F808380919B04C82FB6
:103FB000D0E0C7018A559F4F0E94E909C854DC4FE1
:103FC000888380919B04C82FD0E0C70188559F4FFC
:103FD0000E94E90990E00E94881BC654DC4F888348
:103FE00000919B0410E0C70180559F4F0E94E90992
:103FF000F801E45AFC4F882319F08081846002C0E4
:1040000080818B7F808380919B04C82FD0E0C70183
:104010008E549F4F0E94E909C454DC4F88838091DD
:104020009B04C82FD0E0C7018C549F4F0E94E90920
:1040300090E00E94881BC254DC4F888300919B044F
:1040400010E0C7018A549F4F0E94E909F801E45A21
:10405000FC4F882319F08081886002C08081877FAF
:10406000808380919B04C82FD0E0C70188549F4F64
:104070000E94E909C054DC4F888380919B04C82FBB
:10408000D0E0C70186549F4F0E94E90990E00E944A
:10409000881BCE53DC4F888300919B0410E0C40141
:1040A0000E94E909F801E45AFC4F882319F0808145
:1040B000806402C080818F7B808380919B04C82FA5
:1040C000D0E0C5010E94E909CC53DC4F8883809180
:1040D0009B04C82FD0E0C6010E94E90990E00E942D
:1040E000881BCA53DC4F888300919B0410E0C701F2
:1040F00088539F4F0E94E909F801E45AFC4F882336
:1041000019F08081806202C080818F7D80838091E0
:104110009B04C82FD0E0C70186539F4F0E94E90936
:10412000C853DC4F888380919B04C82FD0E0C7011F
:1041300084539F4F0E94E90990E00E94881BC65358
:10414000DC4F888300919B0410E0C70182539F4F8E
:104150000E94E909F801E25AFC4F882319F0808196
:10416000816002C080818E7F808380919B04C82FF4
:10417000D0E0C70180539F4F0E94E909C453DC4F30
:10418000888380919B04C82FD0E0C7018E529F4F37
:104190000E94E90990E00E94881BC253DC4F88838B
:1041A00000919B0410E0C7018C529F4F0E94E909C7
:1041B000F801E25AFC4F882319F08081826002C026
:1041C00080818D7F808380919B04C82FD0E0C701C0
:1041D0008A529F4F0E94E909C053DC4F8883809127
:1041E0009B04C82FD0E0C70188529F4F0E94E90965
:1041F00090E00E94881BCE52DC4F888300919B0484
:1042000010E0C70180529F4F0E94E909F801E25A6D
:10421000FC4F882319F08081846002C080818B7FED
:10422000808380919B04C82FD0E0C7018E519F4F9F
:104230000E94E909CC52DC4F888380919B04C82FEF
:10424000D0E0C7018C519F4F0E94E90990E00E9485
:10425000881BCA52DC4F8883DF91CF911F910F9149
:10426000FF90EF90DF90CF90BF90AF909F908F9096
:104270000895482F8AE995E00E94CA310895CF93A6
:10428000DF9390919B048AEF989FE0011124109294
:10429000E5041092E4040EC06C0F7D1F80E00E94C4
:1042A00039218091E4049091E50401969093E5040E
:1042B0008093E4046091E4047091E504653E710527
:1042C0005CF3BE016A5F7F4F81E00E943921BE012D
:1042D000685F7F4F87E10E943921BE01665F7F4F93
:1042E0008BE00E943921BE01645F7F4F81E00E9414
:1042F0003921BE01625F7F4F8CE00E943921BE01EF
:10430000605F7F4F81E00E943921BE016E5E7F4F6A
:1043100081E00E943921BE016C5E7F4F8EE00E94D9
:104320003921BE016A5E7F4F8EE00E943921BE01B5
:10433000685E7F4F81E00E943921BE01665E7F4F3B
:1043400085E10E943921BE01645E7F4F83E00E94B7
:104350003921BE01625E7F4F81E00E943921BE019A
:10436000605E7F4F81E00E943921BE016E5D7F4F0C
:104370008BE00E943921BE016C5D7F4F81E00E947D
:104380003921BE016A5D7F4F85E00E943921BE015F
:10439000685D7F4F8BE00E943921BE01665D7F4FD3
:1043A00081E00E943921BE01645D7F4F81E00E945F
:1043B0003921BE01625D7F4F8EE00E943921BE012E
:1043C000605D7F4F81E00E943921BE016E5C7F4FAE
:1043D00085E10E943921BE016C5C7F4F8FE00E9415
:1043E0003921BE016A5C7F4F81E00E943921BE0104
:1043F000685C7F4F88E10E943921BE01665C7F4F77
:104400008EE00E943921BE016E5B7F4F81E00E94E9
:104410003921BE016C5B7F4F8EE00E943921BE01C5
:104420006A5B7F4F83E00E943921BE01685B7F4F4A
:1044300081E00E943921BE01665B7F4F86E10E94C8
:104440003921BE01645B7F4F81E00E94392180E009
:1044500060E570E00E9439218BE162E570E00E9426
:1044600039218CE064E570E00E94392180E066E546
:1044700070E00E94392189E068E570E00E943921EE
:104480008EE06AE570E00E943921BE01645A7F4FD8
:1044900081E00E943921BE01625A7F4F88E00E946C
:1044A0003921BE01605A7F4F8DE00E943921BE0143
:1044B0006E597F4F81E00E943921BE016C597F4FB8
:1044C0008EE00E943921BE016A597F4F8FE00E9421
:1044D0003921BE0162597F4F81E00E943921BE011E
:1044E00060597F4F86E10E943921BE016E587F4F8F
:1044F00083E00E943921BE016C587F4F81E00E9409
:104500003921BE016A587F4F81E00E943921BE01E6
:1045100068587F4F82E00E943921BE016E567F4F5E
:1045200081E00E943921BE016C567F4F81E00E94DC
:104530003921BE016A567F4F81E00E943921BE01B8
:1045400068567F4F81E00E943921BE0166567F4F39
:1045500081E00E943921BE0164567F4F84E00E94B1
:104560003921BE0162567F4F81E00E943921BE0190
:1045700060567F4F87E10E943921BE016E557F4F03
:104580008DE00E943921BE0166587F4F81E00E9474
:104590003921BE0164587F4F81E00E943921BE015C
:1045A00062587F4F83E00E943921BE0160587F4FDF
:1045B00081E00E943921BE016E577F4F81E00E9449
:1045C0003921BE016C577F4F8DE00E943921BE0119
:1045D0006A577F4F81E00E943921BE0168577F4FA3
:1045E00088E00E943921BE0166577F4F86E00E9415
:1045F0003921BE016C557F4F81E00E943921BE01F7
:104600006A557F4F89E00E943921BE0168557F4F6E
:1046100084E00E943921BE0160557F4F80E00E94F6
:104620003921BE016E547F4F88E10E943921BE01BD
:104630006C547F4F87E00E943921BE016A547F4F3E
:1046400081E00E943921BE0168547F4F81E00E94C1
:104650003921BE0166547F4F88E00E943921BE0196
:1046600062537F4F80E00E943921BE0160537F4F2B
:104670008AE00E943921BE016E527F4F84E00E9481
:104680003921BE016C527F4F80E00E943921BE016A
:104690006A527F4F86E10E943921BE0168527F4FE6
:1046A0008EE00E943921BE0160527F4F80E00E945F
:1046B0003921BE016E517F4F86E10E943921BE0132
:1046C0006C517F4F82E00E9439218EE16CE773E0EC
:1046D0000E94392180E06EE773E00E94392184E670
:1046E00060E873E00E94392184E662E873E00E948A
:1046F000392186E06AE873E00E94392181E064EAAA
:1047000073E00E94392181E065EA73E00E9439215B
:1047100081E06AEA73E00E94392181E06BEA73E08C
:104720000E94392181E066EA73E00E94392181E02C
:1047300068EA73E00E94392180E06CEA73E00E942D
:10474000392181E06EEA73E00E94392180E060EB5C
:1047500073E00E9439218AE062EB73E00E94392104
:10476000DF91CF9108950F931F938AE268EE73E073
:104770000E94392185E26EEE73E00E943921109289
:104780009B0407C00E943F2180919B048F5F809310
:104790009B0480919B048230A8F305EF13E0C801CD
:1047A00064E049E00E947F03C8010E94570400D0E2
:1047B00000D0EDB7FEB71283018384E591E09483C6
:1047C00083830E94F32A0F900F900F900F90C801DF
:1047D0000E943B04FFCF4F925F927F928F929F92F5
:1047E000AF92BF92CF92DF92EF92FF920F931F93FF
:1047F000DF93CF93CDB7DEB7C854D0400FB6F8944F
:10480000DEBF0FBECDBF85EF93E00E94A40400D0B1
:1048100000D008ED13E0EDB7FEB71283018387E700
:1048200091E0948383830E94F32A7CE6472E71E013
:10483000572EEE24FF24CC24DD240F900F900F90F0
:104840000F90702E012F69E0A62EB12CAC0EBD1E6C
:104850004E010894811C911C88ED93E00E94A72BC7
:10486000982F8D3031F08D30DCF180538230C0F5DF
:1048700030C01830A1F59981892F8053823078F5A6
:10488000913311F490E801C090E08A81813309F4FA
:10489000905C8B81813309F4905E8C81813309F4C3
:1048A000905F8D81813309F4985F8E81813309F4A3
:1048B0009C5F8F81813309F49E5F8885813309F481
:1048C0009F5FF501EE0DFF1D90830894E11CF11C24
:1048D00006C0F401E10FF11D90831F5F01C010E0DD
:1048E000F0E4EF16F104C9F485EF93E0B601A501F9
:1048F0000E948F030894C11CD11C00D000D0EDB7DA
:10490000FEB771820283548243820E94F32AEE240E
:10491000FF240F900F900F900F90FFEFCF16D10450
:1049200009F00CF499CFC85BDF4F0FB6F894DEBFE7
:104930000FBECDBFCF91DF911F910F91FF90EF90F0
:10494000DF90CF90BF90AF909F908F907F905F90BF
:104950004F900895EF92FF920F931F93DF93CF93A1
:10496000CDB7DEB766970FB6F894DEBF0FBECDBFEA
:104970007E010894E11CF11C01E02BC188ED93E05D
:104980000E94A72B182F80911404882301F50E9400
:10499000E03360527E4480409040C8F40E94E0338F
:1049A000695873418040904090F01A3011F01D30EA
:1049B00031F4809115048F5F8093150402C010922A
:1049C000150480911504833011F40E94EB23812F8C
:1049D000B7010E94E329882309F4FBC00093140463
:1049E000009316040E94E0330E943B376093170443
:1049F000709318048093190490931A0489819A8102
:104A00008330910509F493C08430910554F48130CA
:104A10009105C9F0823091050CF07CC0892B69F0BA
:104A2000D8C08630910509F4B8C08730910509F4E3
:104A3000C5C0049709F0CDC08AC08B8180931B0448
:104A400010921C04C6C06B817C818D819E810E9466
:104A50003D3720E836E948E15BE40E94A2366093E6
:104A60001D0470931E0480931F04909320046F8193
:104A7000788589859A850E943D3720E836E948E1A6
:104A80005BE40E94A2366093210470932204809319
:104A90002304909324048F85809325046B857C8563
:104AA0008D859E850E943D37609326047093270470
:104AB0008093280490932904888980932A04698923
:104AC0007A8980E090E00E943B3760932B047093DA
:104AD0002C0480932D0490932E046B897C8980E0B4
:104AE00090E00E943B3760932F04709330048093D2
:104AF0003104909332046D897E8980E090E00E94B9
:104B00003B3760933304709334048093350490935F
:104B100036045FC08B819C81909338048093370466
:104B20008D819E8190933A048093390452C08B8189
:104B30009C8190933C0480933B048D819E81909353
:104B40003E0480933D04898580933F0442C08B815D
:104B50009C81885E93406AE070E00E94A239609375
:104B600040048D819E8190934204809341048F8103
:104B70009885909344048093430489859A85909303
:104B80004604809345048B859C85909348048093CC
:104B900047048B89809349041CC06B817C818827E2
:104BA00077FD8095982F0E943D3760934A0470935B
:104BB0004B0480934C0490934D040BC064EF71E060
:104BC00080E090E00E94EE33E0911204F091130433
:104BD000099588ED93E00E94772B181619060CF4BE
:104BE000CDCE66960FB6F894DEBF0FBECDBFCF9187
:104BF000DF911F910F91FF90EF900895EF92FF9238
:104C00000F931F93E090E604F090E7040091E8040E
:104C10001091E9048FE590E0A0E0B0E0E80EF91E05
:104C20000A1F1B1F0E94E0336E157F058007910746
:104C300008F41BC10E94E0330E94E0336093E60455
:104C40007093E7048093E8049093E90487E00E945E
:104C50008534AA2797FDA095BA2FBC01CD010E94EB
:104C60003D3720E030E849E85FE30E94703820914A
:104C7000D7023091D8024091D9025091DA020E94B5
:104C8000A2362DEC3CEC4CE45EE30E9470387B01D4
:104C90008C016091E3027091E4028091E5029091B1
:104CA000E6022DEC3CEC4CE45FE30E9470389B0183
:104CB000AC01C801B7010E94D535DC019B01AC01F4
:104CC0002093E3023093E4024093E5025093E6021E
:104CD000CB018093810490938204A0938304B093CA
:104CE000840486E00E948534AA2797FDA095BA2FF8
:104CF000BC01CD010E943D3720E030E849E85FE388
:104D00000E9470382091DB023091DC024091DD027C
:104D10005091DE020E94A2362DEC3CEC4CE45EE3A6
:104D20000E9470387B018C016091E7027091E8026B
:104D30008091E9029091EA022DEC3CEC4CE45FE3B7
:104D40000E9470389B01AC01C801B7010E94D535A3
:104D5000DC019B01AC012093E7023093E802409311
:104D6000E9025093EA02CB0180937D0490937E0484
:104D7000A0937F04B093800481E00E9485349093D7
:104D8000C2048093C1046091DF027091E0028091BF
:104D9000E1029091E20220E030E040E050E00E9429
:104DA000653818160CF061C082E00E948534AA278D
:104DB00097FDA095BA2FBC01CD010E943D3720E0A0
:104DC00030E849E85FE30E9470387B018C01609114
:104DD000E0047091E1048091E2049091E30420E00A
:104DE00030E040E251EC0E94A2369B01AC01C801C8
:104DF000B7010E94D5352091DF023091E002409149
:104E0000E1025091E2020E94A2362DEC3CEC4CEC07
:104E10005DE30E9470387B018C016091EA0470911F
:104E2000EB048091EC049091ED0426E636E646E62C
:104E30005FE30E9470389B01AC01C801B7010E947A
:104E4000D5356093EA047093EB048093EC0490935F
:104E5000ED0420E030E048EC52E40E9470380E94FB
:104E60000A3770939A04609399041F910F91FF90F1
:104E7000EF90089583E00E9482346091C2027091A5
:104E8000C3028091C4029091C5022DEC3CEC4CE829
:104E90005FE30E9470386093E3027093E4028093B2
:104EA000E5029093E6026091C8027091C902809178
:104EB000CA029091CB022DEC3CEC4CE85FE30E94DF
:104EC00070386093E7027093E8028093E902909350
:104ED000EA02089586E061E00E94E63408950E94A7
:104EE000AA2487E094E00E94243208950F931F9330
:104EF000CF93DF9386E061E00E94A73488ED93E0D2
:104F000040E051EE60E070E00E94152B0E946A279D
:104F1000C5EFD3E0CE010E9423050E94111864EF73
:104F200071E080E090E00E94EE3388EE93E00E9412
:104F3000E909082F8EEE93E00E94E90910E0080FBE
:104F4000111D0F341105E9F0CE0166E049E00E9421
:104F50007F03CE010E94570400D000D0EDB7FEB70A
:104F6000D283C18387E891E0948383830E94F32AEC
:104F70000F900F900F900F90CE010E943B040E9463
:104F8000B3230E94B20810929B0407C00E949D1B8D
:104F900080919B048F5F80939B0480919B0482305F
:104FA000A8F310929B0460ED77E080E090E00E940F
:104FB000EE3388ED93E00E94F42B87E094E06DE8F7
:104FC00079E228E730E040E050E000E00E94D6318E
:104FD0000E943A2785EF93E00E94A40487E094E0C2
:104FE0000E943C32DF91CF911F910F9108952F9233
:104FF0003F924F925F926F927F928F929F92AF9269
:10500000BF92CF92DF92EF92FF920F931F93DF93A5
:10501000CF9300D000D0CDB7DEB7E0902604F0905B
:1050200027040091280410912904C801B701209198
:10503000F3043091F4044091F5045091F6040E9479
:10504000D4356093650470936604809367049093ED
:105050006804A0909D04AA2089F5809125048330DE
:1050600009F044C180911D0490911E04A0911F0479
:10507000B09120048093F7049093F804A093F9046E
:10508000B093FA048091210490912204A09123040A
:10509000B09124048093FB049093FC04A093FD043E
:1050A000B093FE04E092F304F092F4040093F5044C
:1050B0001093F60481E080939D0418C181E0A81646
:1050C00009F014C16090FF04E8E1E61580F16091F9
:1050D0000005709101058091020590910305A801DA
:1050E00097010E94D4359F7720E030E040E05FE3F5
:1050F0000E94653818165CF41092FF04E0920005D7
:10510000F0920105009302051093030510C0862D4F
:105110008F5F8093FF04893151F4E092F304F092A1
:10512000F4040093F5041093F604A092EE04E090CA
:10513000F704F090F8040091F9041091FA04C80102
:10514000B7019F7725E33AEF4EE85CE30E947038A1
:105150000E949F3669837A838B839C83C801B70141
:1051600020911D0430911E0440911F045091200491
:105170000E94D4351B012C019F7720EC3BE649EDC2
:1051800057E40E9470385B016C016091FB047091E0
:10519000FC048091FD049091FE0420912104309143
:1051A000220440912304509124040E94D4353B01F1
:1051B0004C019F7720EC3BE649ED57E40E947038A4
:1051C00029813A814B815C810E9470387B018C017E
:1051D000C601B501A60195010E9470385B016C0102
:1051E000C801B701A80197010E9470389B01AC016A
:1051F000C601B5010E94D5350E94F7380E940A37D2
:105200006093690470936A0480936B0490936C04B8
:1052100060E070E080E89FE329813A814B815C8106
:105220000E94A2369B01AC01C201B1010E947038FC
:1052300097FA909497F89094A40193010E944836AD
:1052400020EE3EE245E652E40E94703820E030E075
:1052500044EB52E40E94D5350E940A379B01AC0111
:1052600097FF04C028593E4F4F4F5F4FCA01B90105
:10527000645B70408040904097FF06C0CA01B9014E
:105280006C547F4F8F4F9F4F0E943D3720913304C6
:105290003091340440913504509136040E94D43545
:1052A0000E940A3797FF04C068597E4F8F4F9F4F67
:1052B0000E943D3720E030E044EB53E40E94A236E8
:1052C00020E030E040E851E40E9470380E94D3387A
:1052D00020E030E040E85FE30E94D5350E940F37C0
:1052E00060936D04613110F010926D040F900F9077
:1052F0000F900F90CF91DF911F910F91FF90EF9042
:10530000DF90CF90BF90AF909F908F907F906F90E5
:105310005F904F903F902F9008950E941D0C85EF55
:1053200093E00E94F7270E94FE250E94FF180E942A
:10533000640608950F931F9388E095E06CE270E097
:105340000E942D038C010F5F1F4F109305050093E2
:105350000405C8016CE270E00E942D03FC019093EB
:10536000070580930605012B41F0009731F010826C
:10537000209104053091050502C02BEE32E0C901F1
:105380001F910F9108958091060590910705009750
:1053900081F0019690930505809304056CE270E01E
:1053A0000E942D03FC01909307058093060500974A
:1053B00019F42BEE32E005C01082209104053091E3
:1053C0000505C9010895EF92FF920F931F93CF93A4
:1053D000DF93EB01843209F0DAC088ED93E06AE0F4
:1053E00048E055E020E830E00E949F35882309F42A
:1053F000CEC0E82FF0E0E95FFA4F80818D3009F0F0
:10540000C6C01082809108058D3409F46EC08E34B8
:105410004CF4833409F481C08934E1F0813409F01B
:10542000B6C02AC0823509F4ADC0833524F4803576
:1054300009F0ADC007C0853509F492C08A3509F07E
:10544000A6C097C0198218820E949A290E94DD0284
:105450008A8310C082E090E0998388830E949A2911
:105460000E94DD029D838C830E94C3290E94DD027D
:105470009B838A8381E08CC081E090E0998388835C
:105480000E949A290E94FB026A837B838C839D83FE
:105490000E94C3290E94FB026E837F8388879987BD
:1054A0000E94C3290E94DD028F870E94C3290E94A7
:1054B000FB026A877B878C879D870E94C3290E9495
:1054C000DD02888B198A0E94C3290E94DD028A8B23
:1054D0001B8A0E94C3290E94DD029D8B8C8B0E9437
:1054E000C3290E94DD028E87C5CF83E090E09983B7
:1054F00088830E949A290E94DD029B838A830E94EE
:10550000C3290E94FB026C837D838E839F830E944C
:10551000C3290E94DD028887ADCF84E090E09983A3
:1055200088830E949A290E94DD029B838A837E01E0
:1055300001E010E00E94C3290E94DD02F70195837B
:1055400084830F5F1F4F82E090E0E80EF91E053064
:10555000110581F70E94C3290E94DD028A8B8ACF40
:1055600085E090E0998388830E949A290E94DD0259
:105570007FCF86E090E0998388830E949A290E94D9
:10558000DD0276CF87E090E09983888373CF80E057
:10559000DF91CF911F910F91FF90EF9008956EBD15
:1055A0000DB407FEFDCF8EB508958DE061E00E9439
:1055B000A7348BE061E00E94A7348CE060E00E9499
:1055C000A7348AE061E00E94A7341CBC80E58CBD52
:1055D0008DB58EB5089588E895E00E94D52A089586
:1055E0008FEF9FE70895DF93CF93CDB7DEB7FE012E
:1055F00039968D819E8161E04F8158859F010E947F
:10560000942DCF91DF910895DF93CF93CDB7DEB77F
:10561000FE0139968D819E8160E04F8158859F0102
:105620000E94942DCF91DF9108950F931F93DC0179
:10563000ED91FC910288F389E02D20E030E000E05C
:1056400010E009951F910F9108958F92AF92CF921C
:10565000EF92FF920F931F93DF93CF93CDB7DEB7F7
:10566000FC011382128288EE93E0A0E0B0E0848314
:105670009583A683B7838FE393E0918380835587D7
:10568000448737872687118B008BF38AE28AC48A86
:10569000A58A868A70E0CB0123E0880F991F2A959E
:1056A000E1F79C0127573A4F308F278B8F569A4F3F
:1056B000928F818F81E090E002C0880F991F6A95D8
:1056C000E2F720919905282B20939905CF0140E01E
:1056D00051EE60E070E00E94152BCF91DF911F9199
:1056E0000F91FF90EF90CF90AF908F900895FC01B5
:1056F000838D882319F42FEF3FEF0DC00788F08DBD
:10570000E02D2081318182819381281B390B848196
:10571000958128233923C9010895FC01838D8823AD
:1057200019F42FEF3FEF11C0018CF28DE02D208195
:10573000318182819381281B390B2095309584819A
:105740009581282339232F5F3F4FC9010895FC011C
:10575000838D882361F0A789B08D2D913C9111979D
:1057600012968D919C9113972817390721F44FEFCA
:105770005FEFCA01089512968D919C91139716962A
:10578000ED91FC911797E80FF91F408112968D91CA
:105790009C911397019614962D913C911597822315
:1057A000932313969C938E93129750E0E2CFFC01C3
:1057B000838D882351F00788F08DE02D2081318181
:1057C000828193812817390721F42FEF3FEFC90118
:1057D0000895828193810680F781E02DE80FF91FFB
:1057E0008081282F30E0F3CFDC015796ED91FC91BA
:1057F000589782819381918380835996ED91FC9192
:105800005A9780819181938382830895DC015B960E
:105810008C915B978823A9F15996ED91FC915A9749
:10582000208131812F5F3F4F848195812823392347
:105830005C968C915C97882329F08281938128174C
:105840003907F9F08281938128173907D9F38081CC
:1058500091810680F781E02DE80FF91F608359964A
:10586000ED91FC915A97318320835296ED91FC91F2
:105870005397808156969C91892B808321E030E05C
:1058800002C020E030E0C9010895CF93DF93EC011E
:105890001B821A828A819B81998388831D821C8244
:1058A0008E819F81009721F00E9400331F821E820B
:1058B000DF91CF9108950F931F938C01DC015296D5
:1058C000ED91FC915397208156968C915697559661
:1058D0009C915597892B80958223808357968D9133
:1058E0009C9158970E94452CF801818D928D0E94C1
:1058F000452CD8015B961C921F910F9108950F9330
:105900001F93CF93DF938C01FC011382128282815B
:1059100093819183808341E0A1E0B0E001C04F5FBB
:10592000FD01042E02C0EE0FFF1F0A94E2F79B0157
:1059300082E06130780710F020E032E0E217F307F0
:1059400070F3C1E0D0E002C0CC0FDD1F4A95E2F752
:105950002197F801268137812115310541F0848195
:1059600095818C179D0789F0C9010E940033F801C9
:10597000D583C483CE0101960E9463329C01F80155
:105980009783868380E0232B09F081E0DF91CF911C
:105990001F910F910895AF92BF92CF92DF92EF9235
:1059A000FF920F931F93CF93DF937C015A016B01FA
:1059B000E901DC015B968C915B978823F1F021155E
:1059C000310539F45796ED91FC915897C481D581F2
:1059D00021960115110549F4D7015996ED91FC91D5
:1059E0005A97048115810F5F1F4FD701ED91FC91EC
:1059F0000088F189E02DC7010995F7018789908D0D
:105A0000209711F4C0E8D0E0BE010E947F2C8823CB
:105A100081F0D70159968D919C915A9701151105E6
:105A200011F400E110E0B8010E947F2C882309F0F6
:105A30004DC0D701ED91FC910088F189E02DC7019F
:105A4000099567C0D7015096ED91FC915197B0E050
:105A5000AB16B1EEBB06B0E0CB06B0E0DB0609F456
:105A600054C081E090E0D70154960C9002C0880F9A
:105A7000991F0A94E2F7808360E079E08DE390E07B
:105A8000A60195010E94EB39215030404040504022
:105A9000CA01B90122E030E040E050E00E94EB3959
:105AA000D7011C96ED91FC911D9730831E96ED91C8
:105AB000FC911F972083D7015296ED91FC9153974B
:105AC000808155969C91892B808323C0D70159965C
:105AD000ED91FC915A971382128282819381918376
