:100000000C947C010C94A4010C94A4010C94A40104
:100010000C94A4010C94A4010C94A4010C94A401CC
:100020000C94A4010C94A4010C94A4010C94A401BC
:100030000C94A4010C94A4010C94A4010C94A401AC
:100040000C9499330C94A4010C946D050C94A9059F
:100050000C94A4010C94A4010C94A4010C94A4018C
:100060000C94A4010C94A401084AD73B3BCE016E2A
:1000700084BCBFFDC12F3D6C74319ABD56833DDAFF
:100080003D00C77F11BED9E4BB4C3E916BAAAABE0E
:10009000000000803F05A84CCDB2D44EB93836A937
:1000A000020C50B9918688083CA6AAAA2ABE000074
:1000B00000803F0664EC1B3C04BC163E3BE5B93CAB
:1000C000C93C37C29E5A3D660498083EEA69AAAA0E
:1000D0003E000000803F20202020202020202020E3
:1000E0002000202020202020202020202020207CD4
:1000F000202020202020202020202020207CC620FE
:100100002020202020202020202020C57C202020EE
:10011000202020202020202020207C202020202083
:1001200020202020202020207C004D6174726978DE
:1001300050696C6F747C4D696E696D4F53442D45E9
:100140007874726120322E34207C20723632347CF6
:10015000004F534420496E697469616C697A656423
:100160002C207265626F6F74004368617220446F67
:100170006E650A00526561647920666F7220466F71
:100180006E740A004D697373696E672F4F6C64203B
:10019000436F6E6669670000407A10F35A00A072E0
:1001A0004E18090010A5D4E80000E87648170000B2
:1001B000E40B54020000CA9A3B000000E1F5050080
:1001C0000080969800000040420F000000A08601C9
:1001D000000000102700000000E803000000006499
:1001E00000000000000A0000000000010000000004
:1001F000002C76D888DC674F0823DFC1DFAE59E1D9
:10020000B1B796E5E3E453C63AE651997696E8E647
:10021000C28426EB898C9B62ED407C6FFCEFBC9C1A
:100220009F40F2BAA56FA5F490055A2AF75C936B2C
:100230006CF9676DC11BFCE0E40D47FEF520E6B5E7
:1002400000D0ED902E0300943577050080841E08C1
:100250000000204E0A000000C80C333333330F98DF
:100260006E12831141EF8D2114893BE65516CFFEA6
:10027000E6DB18D1844B381BF77C1D901DA4BBE432
:1002800024203284725E228100C9F124ECA1E53D74
:10029000276E616E00696E66000000000024002772
:1002A000002A0000000000250028002B00000000AC
:1002B00000230026002900040404040404040402AA
:1002C00002020202020303030303030102040810F3
:1002D00020408001020408102001020408102000C0
:1002E00000000700020100000304060000000000F7
:1002F00000000000F705EC2A11241FBECFEFD8E064
:10030000DEBFCDBF13E0A0E0B1E0EEE1F4E702C054
:1003100005900D92AE35B107D9F715E0AEE5B3E023
:1003200001C01D92A83AB107E1F712E0C8EFD2E090
:1003300004C02297FE010E94093AC43FD107C9F7C1
:100340000E943B350C940D3A0C940000283008F0C4
:1003500027E03327DA01990F311D87FD9160009660
:100360006105710539F432602E5F3D9330E32A95C3
:10037000E1F708959F3F30F080387105610509F07D
:100380003C5F3C5F3D93913008F08068911DDF93A6
:10039000CF931F930F93FF92EF92192F987F96950B
:1003A000E92F96959695E90FFF27EF50FE4F992775
:1003B0003327EE24FF24A701E70105900894079452
:1003C00028F4360FE71EF81E491F511D660F771FD0
:1003D000881F991F0694A1F70590079428F4E70E4B
:1003E000F81E491F561FC11D770F881F991F661FD2
:1003F0000694A1F70590079428F4F80E491F561F9C
:10040000C71FD11D880F991F661F771F0694A1F77C
:100410000590079420F4490F561FC71FD81F990F46
:10042000661F771F881F0694A9F78491109517708F
:1004300041F0D695C79557954795F794E7941A9547
:10044000C1F7E7E9F1E06894159015913591659150
:10045000959105907FE27395E118F10A430B560BD5
:10046000C90BD009C0F7E10CF11E431F561FC91F6D
:10047000D01D7EF4703311F48A95E6CFE8940150D4
:1004800030F0080F0AF40027021708F4202F2395F4
:10049000022F7A3328F079E37D932A95E9F710C08B
:1004A0007D932A9589F606949795679537951795C4
:1004B0001794E118F10A430B560BC90BD00998F0B9
:1004C00023957E9173957A3308F070E37C93201323
:1004D000B8F77E9170617D9330F0839571E37D93E1
:1004E00070E32A95E1F71124EF90FF900F911F918F
:1004F000CF91DF91992787FD90950895FA01AA275A
:10050000283051F1203181F1E8946F936E7F6E5F56
:100510007F4F8F4F9F4FAF4FB1E03ED0B4E03CD004
:10052000670F781F891F9A1FA11D680F791F8A1FE7
:10053000911DA11D6A0F711D811D911DA11D20D04E
:1005400009F468943F912AE0269F11243019305D08
:100550003193DEF6CF010895462F4770405D4193F9
:10056000B3E00FD0C9F7F6CF462F4F70405D4A3346
:1005700018F0495D31FD4052419302D0A9F7EACF0E
:10058000B4E0A6959795879577956795BA95C9F73D
:1005900000976105710508959B01AC010A2E069430
:1005A0005795479537952795BA95C9F7620F731FE9
:1005B000841F951FA01D0895FC0188279927E894A2
:1005C00021912032E9F3293010F02E30C8F32B327C
:1005D00041F02D3239F4689404C00E945703820F11
:1005E000911D219120532A30C0F31EF490958195DE
:1005F0009F4F08951F93FC0199278827BC01E89419
:1006000011911032E9F3193010F01E30C8F31B328B
:1006100051F01D3249F4689406C00E944203610FF4
:10062000711D811D911D119110531A30B0F33EF4CC
:1006300090958095709561957F4F8F4F9F4F1F913B
:100640000895FC010590615070400110D8F7809525
:1006500090958E0F9F1F0895FC018191861721F0C0
:100660008823D9F7992708953197CF010895FC0180
:100670006150704001900110D8F7809590958E0FD1
:100680009F1F0895592F482F372F262F660F771F4A
:10069000881F991F660F771F881F991F620F731F8E
:1006A000841F951F660F771F881F991F08957AE092
:1006B000979F902D879F802D910D11240895FC0107
:1006C0001382128288EE93E0A0E0B0E084839583E9
:1006D000A683B78383E093E0918380830895FC0130
:1006E0008089803419F421E030E002C020E030E05D
:1006F000C9010895FC01818990E00895FC01648797
:10070000458766874787089580E090E0089580E0F8
:1007100090E0089580E090E008950895EF92FF92B0
:100720001F93CF93DF93162F7A0186E060E00E943B
:10073000E73488E895E060E00E94D02A88E895E0F8
:1007400060E00E94D02A88E895E069E00E94D02A03
:1007500088E895E0612F0E94D02AC0E0D0E0F70140
:10076000EC0FFD1F108188E895E06AE00E94D02A16
:1007700088E895E06C2F0E94D02A88E895E06BE02D
:100780000E94D02A88E895E0612F0E94D02A219605
:10079000C633D10521F788E895E068E00E94D02AA9
:1007A00088E895E060EA0E94D02A88E895E060EA4F
:1007B0000E94D02A85FDF9CF88E895E060E00E948C
:1007C000D02A88E895E06CE00E94D02A86E061E0BB
:1007D0000E94E734DF91CF911F91FF90EF90089531
:1007E0001F93CF93DF93EC01162F86E060E00E9409
:1007F000E73488E895E060E00E94D02A112319F0E0
:10080000113059F404C088E895E0688904C068890B
:100810006C6188E895E00E94D02A86E061E00E9441
:10082000E734DF91CF911F910895EF92FF920F93DC
:100830001F938EE1489F70011124E60EF11C86E0A3
:1008400060E00E94E73408E815E0C80165E00E9416
:10085000D02AC8016F2D0E94D02AC80166E00E94EC
:10086000D02AC8016E2D0E94D02A1F910F91FF90AF
:10087000EF900895EF92FF920F931F937C0108E889
:1008800015E0C80167E00E94D02AC8016FEF0E94FE
:10089000D02A86E061E00E94E734F70187858F5F08
:1008A00087871F910F91FF90EF900895EF92FF922D
:1008B0000F931F93FC01E7848EE1E89E70011124E1
:1008C0008685E80EF11C86E060E00E94E73408E8C7
:1008D00015E0C80164E00E94D02AC80163E00E94CC
:1008E000D02AC80165E00E94D02AC8016F2D0E945D
:1008F000D02AC80166E00E94D02AC8016E2D0E944D
:10090000D02A1F910F91FF90EF9008951F93CF93DE
:10091000DF93EC01162F6C3731F40E943A04CE01BC
:100920000E9456040AC088E895E067E00E94D02A39
:1009300088E895E0612F0E94D02A81E090E0DF9165
:10094000CF911F9108950F931F9386E060E00E945E
:10095000E73408E815E0C80164E00E94D02AC80125
:1009600064E00E94D02A86E061E00E94E7341F9193
:100970000F9108951F938AE995E066E973E00E945C
:10098000C431882361F0813011F412E009C0823053
:1009900011F411E005C0833011F410E001C013E040
:1009A00010925F0310925E0317C060915E03709116
:1009B0005F03605F88E895E00E94D02A88E895E0B0
:1009C000612F0E94D02A80915E0390915F0301966F
:1009D00090935F0380935E0380915E0390915F0329
:1009E00040971CF31F910895CF93DF93EC0186E0AD
:1009F00060E00E94E73488E895E060EA0E94D02A2F
:100A000088E895E06FEF0E94D02A80FF05C080E45F
:100A1000888B88E0898B13C08AE995E060E973E0F0
:100A20000E94C431882319F4188A86E003C080E448
:100A3000888B88E0898B86E060E00E94E734DF9154
:100A4000CF910895CF92DF92FF920F931F936C0185
:100A500086E061E00E94A83482E060E00E94A83451
:100A600082E061E00E94E734C6010E94F40486E05F
:100A700060E00E94E73408E815E0C8016CEE0E94CF
:100A8000D02AC8016FEF0E94D02AF82EC80160E07A
:100A90000E94D02AF60160896260C8010E94D02AB3
:100AA00062E370E080E090E00E94EF33C8016CE602
:100AB0000E94D02AFFEEFF22C8016F2D0E94D02A8B
:100AC000C6010E94BA04C60161E00E94F0031F91B2
:100AD0000F91FF90DF90CF9008951F920F920FB665
:100AE0000F9211242F933F934F938F939F93EF93E4
:100AF000FF934091C6002091890530918A052F5FB0
:100B00003F4F80918D0590918E0528233923809148
:100B10008B0590918C052817390779F0809189050C
:100B200090918A05E0918F05F0919005E80FF91FEB
:100B3000408330938A0520938905FF91EF919F911F
:100B40008F914F913F912F910F900FBE0F901F905B
:100B500018951F920F920FB60F9211242F933F9367
:100B60008F939F93EF93FF9320919305309194057A
:100B7000809191059091920528173907E9F08091AD
:100B8000930590919405E0919705F0919805E80FF1
:100B9000F91F80818093C600809193059091940500
:100BA0000196209195053091960582239323909389
:100BB00094058093930510C0209191053091920582
:100BC00080919305909194052817390729F4809115
:100BD000C1008F7D8093C100FF91EF919F918F9114
:100BE0003F912F910F900FBE0F901F9018958F92ED
:100BF000AF92CF92EF92FF920F931F9382EE93E00A
:100C000060E045EC50E024EC30E000EC10E0F1EC6A
:100C1000EF2EF12CCC24C394E8E9AE2E70E2872E9F
:100C20000E94262B8FEF93E00E945F031092120424
:100C300010921304109214041092150410921604CA
:100C400010921704109218041092190410921B04A9
:100C500010921A04109211041F910F91FF90EF90BF
:100C6000CF90AF908F900895809150048130C1F45F
:100C70000E94E13368517C4F8F4F9F4F6093510426
:100C80007093520480935304909354041092500430
:100C900090E080915504882309F491E090935504E5
:100CA0000E94E13320915104309152044091530449
:100CB00050915404261737074807590718F481E064
:100CC000809350040895AF92BF92CF92DF92EF923B
:100CD000FF920F931F931091EE04113009F03EC064
:100CE000809191048823D1F5609167047091680424
:100CF0008091690490916A0420E030E040EA50E479
:100D00000E946638181654F580914A048B3030F1F1
:100D10001093910480E090E0A0E0B0E08093C704DD
:100D20009093C804A093C904B093CA041092DB0442
:100D30001092DC041092DD041092DE040E94E13374
:100D400028EE33E040E050E00E94CA392093870447
:100D5000309388044093890450938A046091670417
:100D6000709168048091690490916A0420E030E0F9
:100D700040EA51E40E949C3618168CF160913504CB
:100D800070913604809137049091380420E030E06F
:100D900040E050E40E949C3618160CF180914A0401
:100DA0008B30E8F4809191048130C9F480916B0418
:100DB00090916C04A0916D04B0916E0485369105FC
:100DC000A105B10564F4109291040E94E13360938F
:100DD000DB047093DC048093DD049093DE04A09028
:100DE0003504B0903604C0903704D0903804C60162
:100DF000B50120E030E040E85FE30E946638181655
:100E000094F5E090C704F090C8040091C9041091D3
:100E1000CA040E94E1332091EF043091F004409124
:100E2000F1045091F204621B730B840B950B0E942A
:100E30003C379B01AC01C601B5010E94713820E02E
:100E400030E04AE754E40E94A3369B01AC01C8019C
:100E5000B7010E94D6356093C7047093C80480938D
:100E6000C9049093CA04A0908B04B0908C04C090E5
:100E70008D04D0908E0460919A0470919B04882711
:100E800077FD8095982F0E943E3720E030E040E2C9
:100E900051E40E9471387B018C010E94E133209162
:100EA000EF043091F0044091F1045091F204621B80
:100EB000730B840B950B0E943C379B01AC01C8015E
:100EC000B7010E94713820E03AEB4BE55AE40E94EA
:100ED000A3369B01AC01C601B5010E94D6356093D3
:100EE0008B0470938C0480938D0490938E040E94E5
:100EF000E1336093EF047093F0048093F1049093D6
:100F0000F20480919104813009F096C060916B04E5
:100F100070916C0480916D0490916E040E943E3734
:100F20007B018C012091C3043091C4044091C5041D
:100F30005091C6040E946638181644F4E092C30427
:100F4000F092C4040093C5041093C604E0903904E1
:100F5000F0903A0400913B0410913C04C801B701A1
:100F60002091CB043091CC044091CD045091CE041B
:100F70000E946638181644F4E092CB04F092CC0438
:100F80000093CD041093CE04E0903504F090360425
:100F90000091370410913804C801B7012091CF04A3
:100FA0003091D0044091D1045091D2040E9466380F
:100FB000181644F4E092CF04F092D0040093D104C8
:100FC0001093D204E0906704F090680400916904E3
:100FD00010916A04C801B7012091D3043091D40460
:100FE0004091D5045091D6040E946638181644F4F6
:100FF000E092D304F092D4040093D5041093D60465
:101000006091D7047091D8048091D9049091DA044A
:1010100020E030E040E050E00E949C36882364F4F9
:1010200080E090E0A0E0B0E08093D7049093D804F3
:10103000A093D904B093DA041F910F91FF90EF9021
:10104000DF90CF90BF90AF9008958AE995E06AE76E
:1010500073E00E94C431882381F586E696E6A6E611
:10106000B0E48093560490935704A0935804B0932F
:10107000590480E090E0A0E8BFE380935A04909385
:101080005B04A0935C04B0935D0480E180935E04F4
:101090008CE080935F048AEB809360048BE190E0A6
:1010A000909362048093610488EE93E090936404CB
:1010B000809363048AE190E02FC082E598EBAEE074
:1010C000B0E48093560490935704A0935804B093CF
:1010D000590485E89BEEA1E5B0E480935A0490930F
:1010E0005B04A0935C04B0935D0489E180935E048B
:1010F00086E680935F048BEB809360048CE190E044
:10110000909362048093610480EA94E19093640474
:10111000809363048EE190E090936604809365046D
:101120000895DF92EF92FF920F931F938C01AAE92B
:10113000EA2EA5E0FA2EC701B8010E94C431D82ECC
:101140000F5F1F4FC701B8010E94C4313D2D20E041
:10115000280F311DC9011F910F91FF90EF90DF9073
:101160000895DF92EF92FF920F931F93CF93DF9337
:101170008AE995E06CE773E00E94C43180939304A0
:101180008AE995E06EE773E00E94C431809392048F
:101190008AE995E060E873E00E94C43190E0A0E045
:1011A000B0E0BC01CD010E943C3720E030E040E2DD
:1011B00051E40E94A3366093CA027093CB028093DD
:1011C000CC029093CD028AE995E062E873E00E9438
:1011D000C43190E0A0E0B0E0BC01CD010E943C37FA
:1011E00020E030E040E251E40E94A3366093D00258
:1011F0007093D1028093D2029093D3028AE995E052
:101200006EE873E00E94C4318093A7048AE995E0F8
:101210006AE873E00E94C43180939D048AE995E0F6
:1012200064E873E00E94C4318093BE048AE995E0CB
:1012300066E873E00E94C4318093BF048AE995E0B8
:101240006CE873E00E94C43110929504882319F071
:1012500081E0809395048AE995E064E973E00E9457
:10126000C4318093940484EA93E00E949108A0E042
:10127000B0E0BC01CD010E943C3720E030E040E20C
:1012800051E40E94A3366093E1027093E2028093DE
:10129000E3029093E4028AEA93E00E949108A0E0BE
:1012A000B0E0BC01CD010E943C3720E030E040E2DC
:1012B00051E40E94A3366093E5027093E6028093A6
:1012C000E7029093E80286EA93E00E9491087C018D
:1012D0008AE995E068EA73E00E94C431D82E00E004
:1012E00010E0C801B7010E943C3720E030E040E246
:1012F00051E40E94A3367B018C018D2D64E60E948F
:10130000973990E0AA2797FDA095BA2FBC01CD018F
:101310000E943E379B01AC01C801B7010E94D6353F
:101320006093E9027093EA028093EB029093EC02DF
:101330008CEA93E00E949108A0E0B0E0BC01CD01EE
:101340000E943C3720E030E040E251E40E94A336A6
:101350006093E0047093E1048093E2049093E304CB
:101360008AE995E06EEA73E00E94C4318093E0025E
:101370008AE995E060EB73E00E94C4318093C20477
:101380008AE995E060EB73E00E94C4318093BC026F
:101390001092BD02C0E0D0E0BE0168567C4F8AE9E1
:1013A00095E00E94C431FE01EB54FB4F80838823FB
:1013B00021F02196C830D10579F7CB54DB4F198243
:1013C000DF91CF911F910F91FF90EF90DF900895E3
:1013D000BC018AE995E00E94C4310895DF92EF9242
:1013E000FF920F931F93CF93DF93882309F481E03B
:1013F000182F110F1257613009F04CC0609156043C
:1014000070915704809158049091590420E030E085
:1014100040E050E00E947138A12FBB27A7FDB09596
:10142000D0905E042DB73EB7265130400FB6F894E9
:101430003EBF0FBE2DBFEDB7FEB731962FEF33E0A5
:10144000CDB7DEB73A83298323E031E033832283AB
:101450002DE130E035832483262F372F482F592F55
:101460002683378340875187D2861386B587A48722
:101470001196B787A687C901DA01808B918BA28B61
:10148000B38BD48A158A0E94052B2DB73EB72A5EEE
:101490003F4F4BC0A12FBB27A7FDB0958FEF93E027
:1014A000623039F5CDB7DEB72C970FB6F894DEBFB2
:1014B0000FBECDBFEDB7FEB731969A83898389E120
:1014C00091E093838283B583A4831196B783A68327
:1014D00080917004909171049187808785E090E0FD
:1014E000938782870E94052B2DB73EB7245F3F4F1D
:1014F0001CC0CDB7DEB728970FB6F894DEBF0FBE7D
:10150000CDBFEDB7FEB731969A83898383E291E030
:1015100093838283B583A4831196B783A6830E94A5
:10152000052B2DB73EB7285F3F4F0FB6F8943EBF4F
:101530000FBE2DBFDF91CF911F910F91FF90EF90C4
:10154000DF9008952F923F924F925F926F927F9219
:101550008F929F92AF92BF92CF92DF92EF92FF92C3
:101560000F931F93DF93CF9300D000D000D0CDB75F
:10157000DEB7182F662E20914304309144042A359B
:10158000310530F0C9018D549F4F89359105E8F43C
:1015900037FF02C02D543F4FC90137FF03C090955C
:1015A00081959F4F8A3191053CF0B9ED8B2E912C9E
:1015B000A8EF2A2E312C1DC00A975CF1F0ED8F2E7A
:1015C000912CE3EF2E2E312C20C02B35310514F059
:1015D000235B3040C90137FF03C0909581959F4F31
:1015E0008A31910554F07BEE872E912C6BEF262EDD
:1015F000312C57E0A52EB12C15C00A9754F042EEBD
:10160000842E912C35EF232E312C28E0A22EB12CE4
:1016100009C096EC892E912C8DEC282E312C09E0F6
:10162000A02EB12C6091410470914204882777FD6F
:101630008095982F0E943E3727EA32E94BE25CEB17
:101640000E9471380E94453920E030E040EA50E4C1
:101650000E94713820E030E040E951E40E94713886
:101660000E94D43820E030E044E352E40E94D635B2
:101670000E940B37712E1EEBC12E1FEFD12E9B0146
:10168000442737FD4095542F29833A834B835C834D
:10169000BFEF4B2EB3E05B2E4AEF5FEF240E351EFB
:1016A0006091430470914404882777FD8095982FBA
:1016B0000E943E3725E33AEF4EE85CE30E94713822
:1016C0000E9445397B018C01B601882777FD809502
:1016D000982F0E943E379B01AC01C801B7010E94C0
:1016E00071387B018C0169817A818B819C810E9498
:1016F0003E379B01AC01C801B7010E94D6350E945C
:101700000B379B01CB0101978A35910508F071C019
:1017100062E170E00E94B7398B012F5F3F4FAEEE60
:10172000BFEF6A9FC0016B9F900D7A9F900D1124AF
:10173000820F931F62E070E00E94B7396D837E8351
:10174000E62CE01A4E2D4C5F8FEF93E0672D0E9440
:10175000150400D000D000D0EDB7FEB73196ADB77C
:10176000BEB712965C924E92119720E031E033831F
:1017700022838D819E81880D991D958384830E948B
:10178000052B4DB75EB74A5F5F4F0FB6F8945EBF4B
:101790000FBE4DBF8D819E818A159B0554F104308B
:1017A00011053CF593E0E90EC201672D4E2D0E9414
:1017B000150400D000D000D0EDB7FEB73196ADB71C
:1017C000BEB712965C924E92119720E031E03383BF
:1017D00022834D815E81420D531D558344830E94B7
:1017E000052B8DB79EB706960FB6F8949EBF0FBE19
:1017F0008DBFACE0B0E0CA0EDB1E7394BEE4CB1626
:10180000D10409F04DCF26960FB6F894DEBF0FBE77
:10181000CDBFCF91DF911F910F91FF90EF90DF909F
:10182000CF90BF90AF909F908F907F906F905F9080
:101830004F903F902F90089560913D0470913E0429
:1018400080913F049091400420E030E040EC51E46E
:101850000E94713820E030E044EB53E40E94A3364C
:101860000E94D4380E940B379B012350304037FF31
:1018700003C09B012B5E3F4FA3E7B4E0F901EF5D8E
:10188000FC4F80818C932F5F3F4F2831310514F03E
:1018900020E030E0119684E0AE37B80779F7109277
:1018A0007A0408950F931F93282F462F8FEF93E00C
:1018B000622F0E947E038FEF93E00E945604809176
:1018C0002504882319F428E231E01AC0823019F483
:1018D0002DE231E015C0853019F422E331E010C06B
:1018E00027E331E08A3019F42CE331E009C08B3072
:1018F00019F421E431E004C08F3011F426E431E022
:101900008DB79EB708970FB6F8949EBF0FBE8DBFD8
:10191000EDB7FEB731960FEF13E0ADB7BEB7129635
:101920001C930E9311978BE491E0938382838FE74E
:1019300090E095838483378326830E94052B8DB79F
:101940009EB708960FB6F8949EBF0FBE8DBFC80114
:101950000E943A041F910F9108950F931F93282F0F
:10196000462F0FEF13E0C801622F0E947E03C801CB
:101970000E94560480916F0460E00E94EE09C80145
:101980000E943A041F910F9108950F931F93282FDF
:10199000462F0FEF13E0C801622F0E947E03C8019B
:1019A0000E9456048DB79EB70A970FB6F8949EBF53
:1019B0000FBE8DBFEDB7FEB73196ADB7BEB712966D
:1019C0001C930E93119780E591E09383828383ECBF
:1019D00090E09583848383E794E09783868387E808
:1019E00090E0918780870E94052B8DB79EB70A965D
:1019F0000FB6F8949EBF0FBE8DBFC8010E943A0477
:101A00001F910F9108950F931F93282F462F0FEFCB
:101A100013E0C801622F0E947E03C8010E94560491
:101A20008DB79EB70A970FB6F8949EBF0FBE8DBFB5
:101A3000EDB7FEB73196ADB7BEB712961C930E93B5
:101A4000119787E591E09383828380913D04909183
:101A50003E04A0913F04B091400484839583A68303
:101A6000B78385E090E0918780870E94052B8DB732
:101A70009EB70A960FB6F8949EBF0FBE8DBFC801E1
:101A80000E943A041F910F9108950F931F93282FDE
:101A9000462F0FEF13E0C801622F0E947E03C8019A
:101AA0000E9456048DB79EB740970FB6F8949EBF1C
:101AB0000FBE8DBFEDB7FEB73196ADB7BEB712966C
:101AC0001C930E9311978FE591E09383828383E0BB
:101AD00090E0958384838091270490912804A091BD
:101AE0002904B0912A0486839783A087B18784E074
:101AF00090E09387828780912B0490912C04A09191
:101B00002D04B0912E0484879587A687B7870E94FD
:101B1000052B8DB79EB740960FB6F8949EBF0FBEAB
:101B20008DBFC8010E943A041F910F9108950F9331
:101B30001F93282F462F8FEF93E0622F0E947E0382
:101B40008FEF93E00E94560490912F04923011F48D
:101B50002FE105C0933011F42FE001C026E88091F9
:101B60005504882319F0933009F020E28DB79EB711
:101B700008970FB6F8949EBF0FBE8DBFEDB7FEB7A6
:101B800031960FEF13E0ADB7BEB712961C930E93CC
:101B9000119781E791E0938382832483158280915A
:101BA0003404868317820E94052B8DB79EB7089652
:101BB0000FB6F8949EBF0FBE8DBFC8010E943A04B5
:101BC0001F910F9108950F931F93282F462F0FEF0A
:101BD00013E0C801622F0E947E03C8010E945604D0
:101BE0008DB79EB70C970FB6F8949EBF0FBE8DBFF2
:101BF000EDB7FEB73196ADB7BEB712961C930E93F4
:101C0000119787E791E09383828380E690E0958344
:101C1000848380917F0490918004A0918104B0918D
:101C2000820486839783A087B1878DE090E09387B5
:101C300082870E94052B8DB79EB70C960FB6F8943D
:101C40009EBF0FBE8DBFC8010E943A041F910F9125
:101C500008950F931F93282F462F0FEF13E0C8010D
:101C6000622F0E947E03C8010E9456048DB79EB762
:101C70000C970FB6F8949EBF0FBE8DBFEDB7FEB7A1
:101C80003196ADB7BEB712961C930E93119787E7A6
:101C900091E0938382838CEB90E0958384838091A1
:101CA000830490918404A0918504B0918604868376
:101CB0009783A087B1878DE090E0938782870E9409
:101CC000052B8DB79EB70C960FB6F8949EBF0FBE2E
:101CD0008DBFC8010E943A041F910F9108950F9380
:101CE0001F93282F462F0FEF13E0C801622F0E9489
:101CF0007E03C8010E9456048DB79EB70A970FB69F
:101D0000F8949EBF0FBE8DBFEDB7FEB73196ADB74D
:101D1000BEB712961C930E93119781E891E09383BE
:101D2000828380914304909144049583848385E069
:101D300090E09783868386E090E0918780870E9479
:101D4000052B8DB79EB70A960FB6F8949EBF0FBEAF
:101D50008DBFC8010E943A041F910F9108950F93FF
:101D60001F93282F462F0FEF13E0C801622F0E9408
:101D70007E03C8010E9456048DB79EB70A970FB61E
:101D8000F8949EBF0FBE8DBFEDB7FEB73196ADB7CD
:101D9000BEB712961C930E93119781E891E093833E
:101DA000828380914104909142049583848385E0ED
:101DB00090E09783868387E090E0918780870E94F8
:101DC000052B8DB79EB70A960FB6F8949EBF0FBE2F
:101DD0008DBFC8010E943A041F910F910895EF92A0
:101DE000FF920F931F93282F462F1FEFE12E13E032
:101DF000F12EC701622F0E947E03C7010E94560484
:101E00008DB79EB70C970FB6F8949EBF0FBE8DBFCF
:101E10000DB71EB70F5F1F4FEDB7FEB7F282E1821D
:101E200089E891E0F801938382838BE090E09583C9
:101E3000848360916B0470916C0480916D04909127
:101E40006E040E943E3720915A0430915B04409109
:101E50005C0450915D040E947138F80166837783B9
:101E60008087918780915F04828713860E94052B6B
:101E70008DB79EB70C960FB6F8949EBF0FBE8DBF60
:101E8000C7010E943A041F910F91FF90EF900895AF
:101E9000EF92FF920F931F93282F462F0FEFE02E04
:101EA00003E0F02EC701622F0E947E03C7010E944B
:101EB00056040E94E13328EE33E040E050E00E94F7
:101EC000CA398091870490918804A0918904B091C7
:101ED0008A04281B390B4A0B5B0BCA01B9010E940B
:101EE0003C376093C6027093C7028093C8029093F8
:101EF000C9020E940B378B019C018DB79EB70C97CE
:101F00000FB6F8949EBF0FBE8DBFEDB7FEB73196EA
:101F1000ADB7BEB71296FC92EE92119783E991E0AD
:101F20009383828388E090E095838483C8016CE387
:101F300070E00E94B739CB016CE370E00E94B739C2
:101F4000978386838AE390E091878087C8016CE35A
:101F500070E00E94B739938782870E94052B8DB766
:101F60009EB70C960FB6F8949EBF0FBE8DBFC701EB
:101F70000E943A041F910F91FF90EF9008950F93E4
:101F80001F93282F462F0FEF13E0C801622F0E94E6
:101F90007E03C8010E9456048DB79EB70C970FB6FA
:101FA000F8949EBF0FBE8DBFEDB7FEB73196ADB7AB
:101FB000BEB712961C930E9311978FE991E093830D
:101FC000828387E190E09583848380918B04909154
:101FD0008C04A0918D04B0918E0486839783A08792
:101FE000B18781E090E0938782870E94052B8DB7AF
:101FF0009EB70C960FB6F8949EBF0FBE8DBFC8015A
:102000000E943A041F910F9108950F931F93282F58
:10201000462F0FEF13E0C801622F0E947E03C80114
:102020000E9456048DB79EB70A970FB6F8949EBFCC
:102030000FBE8DBFEDB7FEB73196ADB7BEB71296E6
:102040001C930E93119789EA91E09383828382E037
:1020500090E09583848380914A048683178285E289
:1020600090E0918780870E94052B8DB79EB70A96D6
:102070000FB6F8949EBF0FBE8DBFC8010E943A04F0
:102080001F910F910895BF92CF92DF92EF92FF922E
:102090000F931F93282F462F8FEF93E0622F0E94FC
:1020A0007E038FEF93E00E9456040E94E13320915B
:1020B0009604309197044091980450919904261702
:1020C00037074807590708F00BC1D0908F041092CA
:1020D0009004BB24B394D39484E0D81609F479C057
:1020E0008D1550F0E2E0DE16E1F0ED1508F444C085
:1020F000F1E0DF1661F40DC086E0D81609F496C051
:10210000D81608F482C0E7E0DE1609F4B0C0DD247A
:10211000CCC080912F04823008F0C7C0D0929004C8
:10212000C4C0C0909104F1E0CF1609F0BEC0609128
:10213000390470913A0480913B0490913C042091C1
:1021400056043091570440915804509159040E940C
:1021500071387B018C016091920470E080E090E026
:102160000E943C379B01AC01C801B7010E949C361C
:1021700088230CF09AC02AC0C090910481E0C81650
:1021800009F093C06091390470913A0480913B0446
:1021900090913C042091560430915704409158048A
:1021A000509159040E9471387B018C016091930415
:1021B00070E080E090E00E943C379B01AC01C801D8
:1021C000B7010E94663818160CF06FC0C0929004D8
:1021D0006CC0E090CA02F090CB020091CC0210914A
:1021E000CD02C801B70120E030E040E85FE30E9483
:1021F000663818160CF059C06091830470918404FD
:1022000080918504909186042BC08091940490E085
:102210002091CE023091CF02281739070CF045C02B
:1022200080919504882309F040C03DC0E090D00221
:10223000F090D1020091D2021091D302C801B701EF
:1022400020E030E040E85FE30E94663818166CF545
:1022500060917F0470918004809181049091820448
:10226000A80197010E949C368823FCF41CC00E94A0
:10227000E1330E943C377B018C0160912104709115
:102280002204809123049091240420E030E84BE361
:1022900055E40E94D6359B01AC01C801B7010E94EC
:1022A0006638181614F4B092900480919004882334
:1022B00019F0D0928F0406C080918F04D81609F0CF
:1022C0000ACF42C00E94E1336C52784E8F4F9F4F2D
:1022D0006093960470939704809398049093990464
:1022E000809155042FEF33E0882391F000D000D087
:1022F000EDB7FEB732832183E0918F04F0E0EE0F5B
:10230000FF1FEF5EFC4F80819181EDB7FEB708C0E3
:1023100000D000D0EDB7FEB73283218383EB91E08C
:10232000948383830E94052B0F900F900F900F9042
:102330008FEF93E00E943A041F910F91FF90EF906E
:10234000DF90CF90BF90089510928F04BBCFEF9293
:10235000FF920F931F93282F462F9FEFE92E93E0B4
:10236000F92EC701622F0E947E03C7010E94560406
:102370008DB79EB70C970FB6F8949EBF0FBE8DBF5A
:102380000DB71EB70F5F1F4FEDB7FEB7F282E182A8
:1023900082EC91E0F8019383828383E190E095835E
:1023A00084836091390470913A0480913B04909148
:1023B0003C042091560430915704409158045091A8
:1023C00059040E947138F80166837783808791876A
:1023D00080915E04828713860E94052B8DB79EB77D
:1023E0000C960FB6F8949EBF0FBE8DBFC7010E941A
:1023F0003A041F910F91FF90EF900895EF92FF9292
:102400000F931F93282F462F3FEFE32E33E0F32E39
:10241000C701622F0E947E03C7010E9456048DB738
:102420009EB70C970FB6F8949EBF0FBE8DBF0DB729
:102430001EB70F5F1F4FEDB7FEB7F282E18282EC4D
:1024400091E0F8019383828384E190E09583848313
:10245000609135047091360480913704909138046E
:1024600020915604309157044091580450915904DA
:102470000E947138F8016683778380879187809105
:102480005E04828713860E94052B8DB79EB70C963B
:102490000FB6F8949EBF0FBE8DBFC7010E943A04CD
:1024A0001F910F91FF90EF9008950F931F93282F86
:1024B000462F0FEF13E0C801622F0E947E03C80170
:1024C0000E9456048DB79EB70C970FB6F8949EBF26
:1024D0000FBE8DBFEDB7FEB73196ADB7BEB7129642
:1024E0001C930E9311978FE991E09383828385E18A
:1024F00090E09583848380914C0490914D04A09149
:102500004E04B0914F0486839783A087B187809152
:10251000650490916604938782870E94052B8DB78E
:102520009EB70C960FB6F8949EBF0FBE8DBFC80124
:102530000E943A041F910F910895EF92FF920F931A
:102540001F93282F462F5FEFE52E53E0F52EC7018E
:10255000622F0E947E03C7010E9456048DB79EB76A
:102560000C970FB6F8949EBF0FBE8DBF0DB71EB768
:102570000F5F1F4FEDB7FEB7F282E18289E891E06D
:10258000F8019383828381E190E095838483609155
:102590003004709131048091320490913304209181
:1025A0005A0430915B0440915C0450915D040E9498
:1025B0007138F801668377838087918780915F0403
:1025C000828713860E94052B8DB79EB70C960FB697
:1025D000F8949EBF0FBE8DBFC7010E943A041F91A1
:1025E0000F91FF90EF900895EF92FF920F931F933A
:1025F000282F462F6FEFE62E63E0F62EC701622FDD
:102600000E947E03C7010E9456048DB79EB70C97A7
:102610000FB6F8949EBF0FBE8DBF0DB71EB70F5FEC
:102620001F4FEDB7FEB7F282E18287E791E0F80134
:10263000938382838DEB90E09583848360919A04E9
:1026400070919B04882777FD8095982F0E943E37D4
:102650002AE037ED43E25CE30E947138F8016683BB
:102660007783808791878EE090E0938782870E94AE
:10267000052B8DB79EB70C960FB6F8949EBF0FBE74
:102680008DBFC7010E943A041F910F91FF90EF90F8
:102690000895CF93DF93282F462FCFEFD3E0CE01BD
:1026A000622F0E947E03CE010E9456040E94E133F5
:1026B00028EE33E040E050E00E94CA39CA01B90177
:1026C0002CE330E040E050E00E94CA3962307105EE
:1026D0008105910548F400D000D0EDB7FEB7D28354
:1026E000C18385EB94E008C000D000D0EDB7FEB701
:1026F000D283C18387ED92E0948383830E94052B6C
:102700000F900F900F900F908FEF93E00E943A047C
:10271000DF91CF910895AF92BF92CF92DF92EF9267
:10272000FF920F931F93CF93DF93282F462F8FEFA6
:1027300093E0622F0E947E038FEF93E00E94560485
:1027400080914B04282F30E03093CF022093CE02AB
:102750008091BE04C82FD0E0C217D3072CF4D093C9
:10276000CF02C093CE020AC08091BF0490E0281728
:10277000390724F49093CF028093CE028091950480
:102780007FEFA72E73E0B72E882309F049C0009190
:10279000BF0410E06091CE027091CF02601B710BFC
:1027A000882777FD8095982F0E943E376B017C012A
:1027B000C01BD10BBE01882777FD8095982F0E9402
:1027C0003E379B01AC01C701B6010E94A33620E051
:1027D00030E048EC52E40E9471380E940B3770934D
:1027E000CF026093CE022DB73EB7285030400FB6CF
:1027F000F8943EBF0FBE2DBFEDB7FEB73196ADB713
:10280000BEB71296BC92AE9211972CEC31E0338396
:10281000228329E030E035832483778366831FC0D9
:102820008DB79EB708970FB6F8949EBF0FBE8DBFA9
:10283000EDB7FEB73196ADB7BEB71296BC92AE9269
:10284000119784ED91E09383828389E090E09583F2
:1028500084838091CE029091CF02978386830E94D9
:10286000052B2DB73EB7285F3F4F0FB6F8943EBFFC
:102870000FBE2DBF8FEF93E00E943A04DF91CF91FE
:102880001F910F91FF90EF90DF90CF90BF90AF908E
:1028900008950F931F93282F462F8FEF93E0622FF9
:1028A0000E947E038FEF93E00E94560440919D04A6
:1028B000453029F42091BE023091BF0214C0463049
:1028C00029F42091C0023091C1020DC0473029F493
:1028D0002091C2023091C30206C0483021F42091F9
:1028E000C4023091C5028DB79EB70A970FB6F8940F
:1028F0009EBF0FBE8DBFEDB7FEB731960FEF13E051
:10290000ADB7BEB712961C930E9311978AED91E066
:102910009383828383E490E095838483842F90E083
:10292000C09697838683318720870E94052B8DB7B9
:102930009EB70A960FB6F8949EBF0FBE8DBFC80112
:102940000E943A041F910F910895EF92FF920F9306
:102950001F93282F462FEFEFEE2EE3E0FE2EC70148
:10296000622F0E947E03C7010E9456048DB79EB756
:102970000C970FB6F8949EBF0FBE8DBF0DB71EB754
:102980000F5F1F4FEDB7FEB7F282E18282EE91E05A
:10299000F801938382838AE090E095838483809119
:1029A000E00290E02091C0043091C104829FB00108
:1029B000839F700D929F700D11242091C204620FAD
:1029C000711D80E090E00E943C3720E030E048EC50
:1029D00052E40E94A336F80166837783808791874B
:1029E00080916004828713860E94052B8DB79EB765
:1029F0000C960FB6F8949EBF0FBE8DBFC7010E9404
:102A00003A041F910F91FF90EF9008952F923F92FB
:102A10004F925F926F927F928F929F92AF92BF92EE
:102A2000CF92DF92EF92FF920F931F93FFEF2F2E23
:102A3000F3E03F2EC1016BE045E00E947E03C1013F
:102A40000E9456046091C6027091C7028091C8022C
:102A50009091C9020E940B376B017C0180905A044F
:102A600090905B04A0905C04B0905D04409056048C
:102A7000509057046090580470905904F0905F048F
:102A8000E0905E048DB79EB7845490400FB6F894E2
:102A90009EBF0FBE8DBF0DB71EB70F5F1F4FEDB7A7
:102AA000FEB7328221828CEE91E0F801938382831B
:102AB00088E090E095838483C6016CE370E00E9417
:102AC000B739CB016CE370E00E94B73997838683F6
:102AD0008AE390E091878087C6016CE370E00E94F2
:102AE000B739938782878BE090E095878487C5010B
:102AF000B4012091C3043091C4044091C5045091A5
:102B0000C6040E9471380E940B37F80177876687E8
:102B1000F08A118A8FE890E0938B828BC501B40113
:102B20002091C7043091C8044091C9045091CA044F
:102B30000E9471380E940B37F801758B648BF68AFE
:102B4000178A83E190E0918F808FC301B2012091B9
:102B5000CB043091CC044091CD045091CE040E941E
:102B600071380E940B37F801738F628FE48E158ED7
:102B700084E190E0978F868FC301B2012091CF044A
:102B80003091D0044091D1045091D2040E94713808
:102B90000E940B37F80171A360A3E2A213A282E1A5
:102BA00090E095A384A3C501B4012091D304309192
:102BB000D4044091D5045091D6040E9471380E94EB
:102BC0000B37F80177A366A3F0A611A68DE190E07C
:102BD00093A782A7C301B2012091D7043091D804F2
:102BE0004091D9045091DA040E9471380E940B3749
:102BF000F80175A764A7E6A617A687E190E091AB58
:102C000080AB80918B0490918C04A0918D04B09145
:102C10008E0482AB93ABA4ABB5AB81E090E097ABF5
:102C200086AB83E090E091AF80AF809127049091D4
:102C30002804A0912904B0912A0482AF93AFA4AFD5
:102C4000B5AF84E090E097AF86AF005C1F4F8091F6
:102C50002B0490912C04A0912D04B0912E04F80126
:102C600080839183A283B3830E94052B8DB79EB787
:102C70008C5B9F4F0FB6F8949EBF0FBE8DBFC101F6
:102C80000E943A041F910F91FF90EF90DF90CF9038
:102C9000BF90AF909F908F907F906F905F904F907C
:102CA0003F902F900895CF92DF92EF92FF920F9373
:102CB0001F93CF93DF93282F462FCFEFD3E0CE0182
:102CC000622F0E947E03CE010E9456046091C704C9
:102CD0007091C8048091C9049091CA0420915A044B
:102CE00030915B0440915C0450915D040E94713806
:102CF0006B017C0120E030E04AE754E40E94663832
:102D00001816CCF58DB79EB70C970FB6F8949EBFEA
:102D10000FBE8DBF0DB71EB70F5F1F4FADB7BEB74C
:102D20001296DC93CE93119787E791E0F801938395
:102D300082838FE890E0958384836091630470912F
:102D4000640480E090E00E943C379B01AC01C70125
:102D5000B6010E94A336D80116966D937D938D938C
:102D60009C93199780916104909162041B969C93A7
:102D70008E931A9721C08DB79EB70C970FB6F89413
:102D80009EBF0FBE8DBFEDB7FEB73196ADB7BEB7D4
:102D90001296DC93CE93119789E891E09383828316
:102DA0008FE890E095838483C682D782E086F1869F
:102DB00080915F04828713860E94052BEDB7FEB7D2
:102DC0003C960FB6F894FEBF0FBEEDBF8FEF93E0B9
:102DD0000E943A04DF91CF911F910F91FF90EF90E5
:102DE000DF90CF9008950F931F93CF93DF93282FF9
:102DF000462FCFEFD3E0CE01622F0E947E03CE019B
:102E00000E94560490912504953029F09B3019F0CA
:102E10009F3009F04DC086EB80937204953019F411
:102E200087EB809372048DB79EB70E970FB6F89418
:102E30009EBF0FBE8DBF0DB71EB70F5F1F4F8FEF29
:102E400093E0EDB7FEB79283818384E492E0F801CA
:102E500093838283809172048483158280914904D4
:102E600086831782609147047091480480E090E067
:102E70000E943C3720915A0430915B0440915C04DD
:102E800050915D040E947138F801608771878287D4
:102E9000938780915F04848715860E94052B8DB7E8
:102EA0009EB70E960FB6F8949EBF0FBE8DBF10C092
:102EB00000D000D0EDB7FEB7D283C18386ED90E09D
:102EC000948383830E94F42A0F900F900F900F90A9
:102ED0008FEF93E00E943A04DF91CF911F910F9101
:102EE0000895CF92DF92EF92FF920F931F937C0190
:102EF000D62EC72E0FEF13E0C8016E2D4D2D0E9468
:102F00007E03C8010E94560400D000D0EDB7FEB782
:102F10001283018382EE90E0948383830E94F42ADB
:102F20000F900F900F900F90C8010E943A04C701B4
:102F300001966D2D7C2D0E94A20A1F910F91FF908A
:102F4000EF90DF90CF9008950F931F930FEF13E052
:102F5000C80165E045E00E947E03C8010E94560456
:102F600000D000D0EDB7FEB7128301838AE291E072
:102F7000948383830E94F42A0F900F900F900F90F8
:102F8000C8010E943A041F910F9108950E94A4174E
:102F90000E9425080895EF92FF920F931F9380914E
:102FA0009C048093B40480919004813009F499C00A
:102FB00080919D04843009F05AC080919E04813034
:102FC00009F0C8C080919F04882341F58FE994E0FF
:102FD0000E94B631892B11F160916B0470916C04E1
:102FE00080916D0490916E040E943E3720913004D0
:102FF0003091310440913204509133040E94A33641
:103000000E940B376093AC047093AD048093AE04C0
:103010009093AF048FE994E00E94C0310E94E133A5
:103020002091B0043091B1044091B2045091B304A6
:103030002C503E4F4F4F5F4F261737074807590711
:1030400008F088C08091BC029091BD02A0E0B0E081
:103050002091AC043091AD044091AE045091AF0486
:1030600082179307A407B5070CF043C03AC0853018
:1030700029F48091BE029091BF0214C0863029F4D9
:103080008091C0029091C1020DC0873029F48091D7
:10309000C2029091C30206C0883041F48091C402FC
:1030A0009091C5029093D5028093D4028091D4026E
:1030B0009091D502805293408957954030F088EE28
:1030C00093E09093D5028093D4028091A70420913D
:1030D000D4023091D502882381F484E0203B380764
:1030E00018F41092B40436C02950374010F082E032
:1030F00001C081E08093B4042DC0215B344050F1C5
:10310000E090A804F090A9040091AA041091AB04E7
:1031100088EE93E0A0E0B0E0E80EF91E0A1F1B1F46
:103120000E94E133E616F7060807190798F4809124
:103130009C048F5F8093B404833010F01092B40429
:103140000E94E1336093A8047093A9048093AA04B9
:103150009093AB049091B40480919C04891779F00A
:1031600081E08093D60290939C040E94E1336093A7
:10317000B0047093B1048093B2049093B3041F9190
:103180000F91FF90EF90089580919104882309F0AA
:1031900089C28091DB049091DC04A091DD04B091A0
:1031A000DE040097A105B10509F47CC20E94E13359
:1031B0002091DB043091DC044091DD045091DE0469
:1031C000621B730B840B950B6958734180409040D0
:1031D00008F468C28091D602882321F48FEF93E02F
:1031E0000E94A3040E94061508958093DF041092A4
:1031F0009C0481E08093D60280919C04A82FB0E0CB
:10320000FD01EA59FC4F808180FF0BC0FD01EC53AA
:10321000FC4F6081AE53BC4F8C9190E070E00E94F7
:1032200043108091D602882331F08FEF93E00E9403
:10323000A3041092D60280919D04843010F00E9465
:10324000CB1780919C04823009F432C2A82FB0E0E1
:10325000FD01E05AFC4F808181FF0BC0FD01E45964
:10326000FC4F6081A659BC4F8C9190E070E00E94A9
:10327000AF0E80919C04A82FB0E0FD01E05AFC4FF6
:10328000808182FF0BC0FD01E059FC4F6081A25993
:10329000BC4F8C9190E070E00E946F0E80919C0476
:1032A000A82FB0E0FD01E05AFC4F808183FF0BC0E6
:1032B000FD01EC58FC4F6081AE58BC4F8C9190E002
:1032C00070E00E94290E80919C04A82FB0E0FD01BF
:1032D000E05AFC4F808180FF0BC0FD01E858FC4F95
:1032E0006081AA58BC4F8C9190E070E00E94E30D81
:1032F00080919C04A82FB0E0FD01E05AFC4F808132
:1033000085FF0BC0FD01E458FC4F6081A658BC4FFF
:103310008C9190E070E00E94970D80919C04A82F02
:10332000B0E0FD01E05AFC4F808187FF0BC0FD013A
:10333000EC57FC4F6081AE57BC4F8C9190E070E031
:103340000E94450D80919C04A82FB0E0FD01E05A39
:10335000FC4F808184FF0BC0FD01E857FC4F60816A
:10336000AA57BC4F8C9190E070E00E94BF0F8091F3
:103370009C04A82FB0E0FD01EE59FC4F808180FF36
:103380000BC0FD01E457FC4F6081A657BC4F8C91E8
:1033900090E070E00E94C50C80919C04A82FB0E0E2
:1033A000FD01EE59FC4F808181FF0BC0FD01E0570C
:1033B000FC4F6081A257BC4F8C9190E070E00E945E
:1033C000030D80919E04813051F580919C04A82FBB
:1033D000B0E0FD01EE59FC4F808184FF0BC0FD0180
:1033E000E856FC4F6081AA56BC4F8C9190E070E08B
:1033F0000E94EF0E80919C04A82FB0E0FD01EE59D1
:10340000FC4F808183FF0BC0FD01EC56FC4F6081B7
:10341000AE56BC4F8C9190E070E00E94AD0C809154
:103420009C04A82FB0E0FD01EE59FC4F808187FF7E
:103430000BC0FD01EC55FC4F6081AE55BC4F8C912B
:1034400090E070E00E94480F80919C04A82FB0E0AB
:10345000FD01EE59FC4F808186FF0BC0FD01E05657
:10346000FC4F6081A256BC4F8C9190E070E00E94AE
:10347000F31680919E04813009F03FC080919C0436
:10348000A82FB0E0FD01EC59FC4F808182FF0BC0FA
:10349000FD01E455FC4F6081A655BC4F8C9190E036
:1034A00070E00E949D1280919C04A82FB0E0FD0165
:1034B000EC59FC4F808183FF0BC0FD01E055FC4FB0
:1034C0006081A255BC4F8C9190E070E00E94FE118B
:1034D00080919C04A82FB0E0FD01EC59FC4F808145
:1034E00081FF0BC0FD01EC54FC4F6081AE54BC4F1A
:1034F0008C9190E070E00E94A71180919C04A82F0D
:10350000B0E0FD01EC59FC4F808184FF0BC0FD0150
:10351000E854FC4F6081AA54BC4F8C9190E070E05D
:103520000E94051080919C04A82FB0E0FD01EC5989
:10353000FC4F808185FF0BC0FD01E454FC4F60818E
:10354000A654BC4F8C9190E070E00E94520C809188
:103550009C04A82FB0E0FD01EC59FC4F808186FF50
:103560000BC0FD01E054FC4F6081A254BC4F8C9114
:1035700090E070E00E94711780919C04A82FB0E049
:10358000FD01EC59FC4F808180FF0BC0FD01E85527
:10359000FC4F6081AA55BC4F8C9190E070E00E9476
:1035A000F41280919C04A82FB0E0FD01EA59FC4F71
:1035B000808183FF0BC0FD01E453FC4F6081A65363
:1035C000BC4F8C9190E070E00E94551280919C0459
:1035D000A82FB0E0FD01EA59FC4F808186FF0BC0A7
:1035E000FD01E053FC4F6081A253BC4F8C9190E0F1
:1035F00070E00E948B1380919C04A82FB0E0FD0125
:10360000EA59FC4F808185FF0BC0FD01EC52FC4F55
:103610006081AE52BC4F8C9190E070E00E944913E3
:1036200080919C04A82FB0E0FD01E859FC4F8081F7
:1036300081FF0BC0FD01E452FC4F6081A652BC4FDC
:103640008C9190E070E00E94A51480919C04A82FBA
:10365000B0E0FD01E859FC4F808180FF0BC0FD0107
:10366000E852FC4F6081AA52BC4F8C9190E070E010
:103670000E94491480919C04A82FB0E0FD01E859F4
:10368000FC4F808182FF0BC0FD01E052FC4F608146
:10369000A252BC4F8C9190E070E00E9453160E94A1
:1036A0003406089580919C04833008F09ECDA4CD0B
:1036B0000895CF93DF93EC018FEF93E00E947A039C
:1036C000C817D9073CF08FEF93E00E946F03892B56
:1036D00009F42397CE01DF91CF9108958F929F92A5
:1036E000AF92BF92CF92DF92EF92FF920F931F9310
:1036F000CF93DF9300919C0410E08AEF90E0089F45
:103700007001099FF00C189FF00C1124C701885616
:103710009F4F0E94E809F801E05AFC4F882319F0F6
:103720008081806102C080818F7E808380919C0433
:10373000C82FD0E0C70186569F4F0E94E809CA579C
:10374000DC4F888380919C04C82FD0E0C701845649
:103750009F4F0E94E80990E00E94591BC857DC4F18
:10376000888300919C0410E0C70106960E94E80936
:10377000F801E05AFC4F882319F08081826002C072
:1037800080818D7F808380919C04C82FD0E0C70109
:1037900008960E94E809C659DC4F888380919C04F2
:1037A000C82FD0E0C7010A960E94E80990E00E9465
:1037B000591BC459DC4F888300919C0410E0C70159
:1037C0000C960E94E809F801E05AFC4F882319F092
:1037D0008081846002C080818B7F808380919C0483
:1037E000C82FD0E0C7010E960E94E809C259DC4FED
:1037F000888380919C04C82FD0E0C70140960E9426
:10380000E80990E00E94591BC059DC4F8883009161
:103810009C0410E0C70142960E94E809F801E05AB2
:10382000FC4F882319F08081886002C08081877FE7
:10383000808380919C04C82FD0E0C70144960E94E9
:10384000E809CE58DC4F888380919C04C82FD0E0D3
:10385000C70146960E94E80990E00E94591BCC5887
:10386000DC4F888300919C0410E0C70148960E94B9
:10387000E809F801E05AFC4F882319F08081816043
:1038800002C080818E7F808380919C04C82FD0E00D
:10389000C7014A960E94E809CA58DC4F8883809184
:1038A0009C04C82FD0E0C7014C960E94E80990E024
:1038B0000E94591BC858DC4F888300919C0410E07B
:1038C000C7014E960E94E809F801E05AFC4F882390
:1038D00019F08081806202C080818F7D8083809119
:1038E0009C04C82FD0E0C70180960E94E809C65802
:1038F000DC4F888380919C04C82FD0E0C70182965A
:103900000E94E80990E00E94591BC458DC4F88834C
:1039100000919C0410E0C70184960E94E809F80118
:10392000E05AFC4F882319F08081806402C08081B6
:103930008F7B808380919C04C82FD0E0C70186963E
:103940000E94E809C258DC4F888380919C04C82FEC
:10395000D0E0C70188960E94E80990E00E94591BB8
:10396000C058DC4F888300919C0410E0C7018A9600
:103970000E94E809F801E05AFC4F882319F0808181
:10398000806802C080818F77808380919C04C82FDB
:10399000D0E0C7018C960E94E809CE57DC4F88839F
:1039A00080919C04C82FD0E0C7018E960E94E80940
:1039B00090E00E94591BCC57DC4F888300919C04F7
:1039C00010E0C701C0960E94E809F801EE59FC4FCB
:1039D000882319F08081816002C080818E7F80837E
:1039E00080919C04C82FD0E0C701C2960E94E809CC
:1039F000C657DC4F888380919C04C82FD0E0C70154
:103A0000C4960E94E80990E00E94591BC457DC4FFD
:103A1000888300919C0410E0C701C6960E94E809C3
:103A2000F801EE59FC4F882319F08081826002C0B2
:103A300080818D7F808380919C04C82FD0E0C70156
:103A4000C8960E94E809C257DC4F888380919C0485
:103A5000C82FD0E0C701CA960E94E80990E00E94F2
:103A6000591BC057DC4F888300919C0410E0C701AC
:103A7000885B9F4F0E94E809F801EE59FC4F8823AC
:103A800019F08081806102C080818F7E8083809167
:103A90009C04C82FD0E0C701865B9F4F0E94E809B5
:103AA000CA56DC4F888380919C04C82FD0E0C701A0
:103AB000845B9F4F0E94E80990E00E94591BC85602
:103AC000DC4F888300919C0410E0C7018E5B9F4F00
:103AD0000E94E809F801EE59FC4F882319F0808113
:103AE000886002C08081877F808380919C04C82F7A
:103AF000D0E0C7018C5B9F4F0E94E809CE56DC4F97
:103B0000888380919C04C82FD0E0C7018A5B9F4FB7
:103B10000E94E80990E00E94591BCC56DC4F888334
:103B200000919C0410E0C701805B9F4F0E94E80950
:103B3000F801EE59FC4F882319F08081806202C0A1
:103B400080818F7D808380919C04C82FD0E0C70145
:103B50008E5A9F4F0E94E809C656DC4F8883809199
:103B60009C04C82FD0E0C7018C5A9F4F0E94E809DF
:103B700090E00E94591BC456DC4F888300919C043E
:103B800010E0C7018A5A9F4F0E94E809F801EE59D8
:103B9000FC4F882319F08081806402C080818F7B74
:103BA000808380919C04C82FD0E0C701885A9F4F22
:103BB0000E94E809C256DC4F888380919C04C82F7C
:103BC000D0E0C701865A9F4F0E94E80990E00E940A
:103BD000591BC056DC4F888300919C0410E0C7013C
:103BE00082569F4F0E94E809F801EE59FC4F882346
:103BF00019F08081806802C080818F7780838091F6
:103C00009C04C82FD0E0C70180569F4F0E94E8094E
:103C1000CE55DC4F888380919C04C82FD0E0C7012B
:103C20008E559F4F0E94E80990E00E94591BCC5589
:103C3000DC4F888300919C0410E08CE5882E912C49
:103C40008E0C9F1CC4010E94E809F801EE59FC4F3C
:103C5000882319F08081806402C080818F7B8083FB
:103C600080919C04C82FD0E0BEE5AB2EB12CAE0CE9
:103C7000BF1CC5010E94E809C253DC4F88838091B4
:103C80009C04C82FD0E0A0E6CA2ED12CCE0CDF1C9D
:103C9000C6010E94E80990E00E94591BC053DC4F06
:103CA000888300919C0410E0C7018E599F4F0E94A9
:103CB000E809F801EC59FC4F882319F080818160F4
:103CC00002C080818E7F808380919C04C82FD0E0C9
:103CD000C7018C599F4F0E94E809CA55DC4F888361
:103CE00080919C04C82FD0E0C7018A599F4F0E9441
:103CF000E80990E00E94591BC855DC4F8883009169
:103D00009C0410E0C70182599F4F0E94E809F80106
:103D1000EC59FC4F882319F08081846002C08081B7
:103D20008B7F808380919C04C82FD0E0C70180598D
:103D30009F4F0E94E809C655DC4F888380919C0400
:103D4000C82FD0E0C7018E589F4F0E94E80990E02D
:103D50000E94591BC455DC4F888300919C0410E0DD
:103D6000C7018E569F4F0E94E809F801EC59FC4F9D
:103D7000882319F08081826002C080818D7F8083DA
:103D800080919C04C82FD0E0C7018C569F4F0E94A1
:103D9000E809CE54DC4F888380919C04C82FD0E082
:103DA000C7018A569F4F0E94E80990E00E94591B64
:103DB000CC54DC4F888300919C0410E0C7018C58E0
:103DC0009F4F0E94E809F801EC59FC4F882319F035
:103DD0008081886002C08081877F808380919C047D
:103DE000C82FD0E0C7018A589F4F0E94E809C255EA
:103DF000DC4F888380919C04C82FD0E0C70188588D
:103E00009F4F0E94E80990E00E94591BC055DC4F6B
:103E1000888300919C0410E0C70186589F4F0E9440
:103E2000E809F801EC59FC4F882319F08081806182
:103E300002C080818F7E808380919C04C82FD0E057
:103E4000C70184589F4F0E94E809CA54DC4F8883F9
:103E500080919C04C82FD0E0C70182589F4F0E94D8
:103E6000E80990E00E94591BC854DC4F88830091F8
:103E70009C0410E0C70180589F4F0E94E809F80198
:103E8000EC59FC4F882319F08081806202C0808148
:103E90008F7D808380919C04C82FD0E0C7018E570E
:103EA0009F4F0E94E809C654DC4F888380919C0490
:103EB000C82FD0E0C7018C579F4F0E94E80990E0BF
:103EC0000E94591BC454DC4F888300919C0410E06D
:103ED000C7018A579F4F0E94E809F801EC59FC4F2F
:103EE000882319F08081806402C080818F7B808369
:103EF00080919C04C82FD0E0C70188579F4F0E9433
:103F0000E809C254DC4F888380919C04C82FD0E01C
:103F1000C70186579F4F0E94E80990E00E94591BF5
:103F2000C054DC4F888300919C0410E0C7018C557D
:103F30009F4F0E94E809F801EA59FC4F882319F0C5
:103F40008081816002C080818E7F808380919C040B
:103F5000C82FD0E0C7018A559F4F0E94E809CE5371
:103F6000DC4F888380919C04C82FD0E0C70188551E
:103F70009F4F0E94E80990E00E94591BCC53DC4FF0
:103F8000888300919C0410E0C70180559F4F0E94D8
:103F9000E809F801EA59FC4F882319F08081846010
:103FA00002C080818B7F808380919C04C82FD0E0E9
:103FB000C7018E549F4F0E94E809CA53DC4F888383
:103FC00080919C04C82FD0E0C7018C549F4F0E9461
:103FD000E80990E00E94591BC853DC4F8883009188
:103FE0009C0410E0C7018A549F4F0E94E809F80121
:103FF000EA59FC4F882319F08081886002C08081D3
:10400000877F808380919C04C82FD0E0C7018854AB
:104010009F4F0E94E809C653DC4F888380919C041F
:10402000C82FD0E0C70186549F4F0E94E80990E056
:104030000E94591BC453DC4F888300919C0410E0FC
:10404000C4010E94E809F801EA59FC4F882319F0DD
:104050008081806402C080818F7B808380919C04FA
:10406000C82FD0E0C5010E94E809C253DC4F888305
:1040700080919C04C82FD0E0C6010E94E80990E01E
:104080000E94591BC053DC4F888300919C0410E0B0
:10409000C70188539F4F0E94E809F801EA59FC4F75
:1040A000882319F08081806202C080818F7D8083A7
:1040B00080919C04C82FD0E0C70186539F4F0E9477
:1040C000E809CE52DC4F888380919C04C82FD0E051
:1040D000C70184539F4F0E94E80990E00E94591B3A
:1040E000CC52DC4F888300919C0410E0C7018253BE
:1040F0009F4F0E94E809F801E859FC4F882319F006
:104100008081816002C080818E7F808380919C0449
:10411000C82FD0E0C70180539F4F0E94E809CA52C0
:10412000DC4F888380919C04C82FD0E0C7018E5259
:104130009F4F0E94E80990E00E94591BC852DC4F33
:10414000888300919C0410E0C7018C529F4F0E940D
:10415000E809F801E859FC4F882319F08081826052
:1041600002C080818D7F808380919C04C82FD0E025
:10417000C7018A529F4F0E94E809C652DC4F8883CC
:1041800080919C04C82FD0E0C70188529F4F0E94A5
:10419000E80990E00E94591BC452DC4F88830091CB
:1041A0009C0410E0C70180529F4F0E94E809F8016B
:1041B000E859FC4F882319F08081846002C0808117
:1041C0008B7F808380919C04C82FD0E0C7018E51E3
:1041D0009F4F0E94E809C252DC4F888380919C0463
:1041E000C82FD0E0C7018C519F4F0E94E80990E092
:1041F0000E94591BC052DC4F8883DF91CF911F91E1
:104200000F91FF90EF90DF90CF90BF90AF909F9075
:104210008F900895482F8AE995E00E94CB31089548
:10422000CF93DF9390919C048AEF989FE001112433
:104230001092E5041092E4040EC06C0F7D1F80E024
:104240000E940A218091E4049091E50401969093E4
:10425000E5048093E4046091E4047091E504653E14
:1042600071055CF3BE016A5F7F4F81E00E940A2105
:10427000BE01685F7F4F87E10E940A21BE01665F31
:104280007F4F8BE00E940A21BE01645F7F4F81E077
:104290000E940A21BE01625F7F4F8CE00E940A21CA
:1042A000BE01605F7F4F81E00E940A21BE016E5E09
:1042B0007F4F81E00E940A21BE016C5E7F4F8EE03D
:1042C0000E940A21BE016A5E7F4F8EE00E940A2191
:1042D000BE01685E7F4F81E00E940A21BE01665EDA
:1042E0007F4F85E10E940A21BE01645E7F4F83E01B
:1042F0000E940A21BE01625E7F4F81E00E940A2176
:10430000BE01605E7F4F81E00E940A21BE016E5DAA
:104310007F4F8BE00E940A21BE016C5D7F4F81E0E0
:104320000E940A21BE016A5D7F4F85E00E940A213A
:10433000BE01685D7F4F8BE00E940A21BE01665D71
:104340007F4F81E00E940A21BE01645D7F4F81E0C2
:104350000E940A21BE01625D7F4F8EE00E940A2109
:10436000BE01605D7F4F81E00E940A21BE016E5C4C
:104370007F4F85E10E940A21BE016C5C7F4F8FE078
:104380000E940A21BE016A5C7F4F81E00E940A21DF
:10439000BE01685C7F4F88E10E940A21BE01665C15
:1043A0007F4F8EE00E940A21BE016E5B7F4F81E04D
:1043B0000E940A21BE016C5B7F4F8EE00E940A21A1
:1043C000BE016A5B7F4F83E00E940A21BE01685BE9
:1043D0007F4F81E00E940A21BE01665B7F4F86E12C
:1043E0000E940A21BE01645B7F4F81E00E940A2186
:1043F00080E060E570E00E940A218BE162E570E0F8
:104400000E940A218CE064E570E00E940A2180E0AD
:1044100066E570E00E940A2189E068E570E00E948C
:104420000A218EE06AE570E00E940A21BE01645A0A
:104430007F4F81E00E940A21BE01625A7F4F88E0CF
:104440000E940A21BE01605A7F4F8DE00E940A211E
:10445000BE016E597F4F81E00E940A21BE016C5956
:104460007F4F8EE00E940A21BE016A597F4F8FE084
:104470000E940A21BE0162597F4F81E00E940A21F9
:10448000BE0160597F4F86E10E940A21BE016E582D
:104490007F4F83E00E940A21BE016C587F4F81E06C
:1044A0000E940A21BE016A587F4F81E00E940A21C2
:1044B000BE0168587F4F82E00E940A21BE016E56FD
:1044C0007F4F81E00E940A21BE016C567F4F81E040
:1044D0000E940A21BE016A567F4F81E00E940A2194
:1044E000BE0168567F4F81E00E940A21BE016656D8
:1044F0007F4F81E00E940A21BE0164567F4F84E015
:104500000E940A21BE0162567F4F81E00E940A216B
:10451000BE0160567F4F87E10E940A21BE016E55A1
:104520007F4F8DE00E940A21BE0166587F4F81E0D7
:104530000E940A21BE0164587F4F81E00E940A2137
:10454000BE0162587F4F83E00E940A21BE0160587D
:104550007F4F81E00E940A21BE016E577F4F81E0AC
:104560000E940A21BE016C577F4F8DE00E940A21F4
:10457000BE016A577F4F81E00E940A21BE01685741
:104580007F4F88E00E940A21BE0166577F4F86E078
:104590000E940A21BE016C557F4F81E00E940A21D2
:1045A000BE016A557F4F89E00E940A21BE0168550D
:1045B0007F4F84E00E940A21BE0160557F4F80E05A
:1045C0000E940A21BE016E547F4F88E10E940A2199
:1045D000BE016C547F4F87E00E940A21BE016A54DD
:1045E0007F4F81E00E940A21BE0168547F4F81E025
:1045F0000E940A21BE0166547F4F88E00E940A2172
:10460000BE0162537F4F80E00E940A21BE016053C9
:104610007F4F8AE00E940A21BE016E527F4F84E0E4
:104620000E940A21BE016C527F4F80E00E940A2145
:10463000BE016A527F4F86E10E940A21BE01685284
:104640007F4F8EE00E940A21BE0160527F4F80E0C2
:104650000E940A21BE016E517F4F86E10E940A210D
:10466000BE016C517F4F82E00E940A218EE16CE70F
:1046700073E00E940A2180E06EE773E00E940A2145
:1046800084E660E873E00E940A2184E662E873E051
:104690000E940A2186E06AE873E00E940A2181E014
:1046A00064EA73E00E940A2181E065EA73E00E94F7
:1046B0000A2181E06AEA73E00E940A2181E06BEA44
:1046C00073E00E940A2181E066EA73E00E940A21F9
:1046D00081E068EA73E00E940A2180E06CEA73E0FE
:1046E0000E940A2181E06EEA73E00E940A2180E0C4
:1046F00060EB73E00E940A218AE062EB73E00E94A3
:104700000A2180E064EB73E00E940A218FEF66EBE0
:1047100073E00E940A21DF91CF9108950F931F93B8
:104720008AE268EE73E00E940A2185E26EEE73E091
:104730000E940A2110929C0407C00E9410218091BF
:104740009C048F5F80939C0480919C048230A8F32A
:104750000FEF13E0C80164E049E00E947E03C80146
:104760000E94560400D000D0EDB7FEB7128301833B
:1047700081E591E0948383830E94F42A0F900F9047
:104780000F900F90C8010E943A04FFCF4F925F92A2
:104790007F928F929F92AF92BF92CF92DF92EF92D1
:1047A000FF920F931F93DF93CF93CDB7DEB7C8541B
:1047B000D0400FB6F894DEBF0FBECDBF8FEF93E0B1
:1047C0000E94A30400D000D002EE13E0EDB7FEB7C4
:1047D0001283018384E791E0948383830E94F42A07
:1047E00059E6452E51E0552EEE24FF24CC24DD243D
:1047F0000F900F900F900F90702E012F49E0A42E74
:10480000B12CAC0EBD1E4E010894811C911C82EE91
:1048100093E00E94A82B982F8D3031F08D30DCF181
:1048200080538230C0F530C01830A1F59981892FAE
:104830008053823078F5913311F490E801C090E014
:104840008A81813309F4905C8B81813309F4905E15
:104850008C81813309F4905F8D81813309F4985FF5
:104860008E81813309F49C5F8F81813309F49E5FCF
:104870008885813309F49F5FF501EE0DFF1D90835C
:104880000894E11CF11C06C0F401E10FF11D9083B6
:104890001F5F01C010E0F0E4EF16F104C9F48FEFE0
:1048A00093E0B601A5010E948E030894C11CD11C9F
:1048B00000D000D0EDB7FEB77182028354824382EC
:1048C0000E94F42AEE24FF240F900F900F900F9077
:1048D000FFEFCF16D10409F00CF499CFC85BDF4F7E
:1048E0000FB6F894DEBF0FBECDBFCF91DF911F9101
:1048F0000F91FF90EF90DF90CF90BF90AF909F907F
:104900008F907F905F904F900895EF92FF920F935A
:104910001F93DF93CF93CDB7DEB766970FB6F894AA
:10492000DEBF0FBECDBF7E010894E11CF11C01E08B
:104930002BC182EE93E00E94A82B182F80911E04B9
:10494000882301F50E94E13360527E44804090400C
:10495000C8F40E94E133695873418040904090F060
:104960001A3011F01D3031F480911F048F5F809355
:104970001F0402C010921F0480911F04833011F4A1
:104980000E94C623812FB7010E94E429882309F4DD
:10499000FBC000931E04009320040E94E1330E9498
:1049A0003C376093210470932204809323049093F6
:1049B000240489819A818330910509F493C084305D
:1049C000910554F481309105C9F0823091050CF0C5
:1049D0007CC0892B69F0D8C08630910509F4B8C035
:1049E0008730910509F4C5C0049709F0CDC08AC08D
:1049F0008B818093250410922604C6C06B817C8134
:104A00008D819E810E943E3720E836E948E15BE4D3
:104A10000E94A3366093270470932804809329048E
:104A200090932A046F81788589859A850E943E3704
:104A300020E836E948E15BE40E94A33660932B044A
:104A400070932C0480932D0490932E048F85809373
:104A50002F046B857C858D859E850E943E376093F3
:104A60003004709331048093320490933304888926
:104A70008093340469897A8980E090E00E943C3711
:104A80006093350470933604809337049093380410
:104A90006B897C8980E090E00E943C376093390408
:104AA00070933A0480933B0490933C046D897E8913
:104AB00080E090E00E943C3760933D0470933E0498
:104AC00080933F04909340045FC08B819C819093BE
:104AD0004204809341048D819E819093440480938D
:104AE000430452C08B819C8190934604809345047B
:104AF0008D819E819093480480934704898580939B
:104B0000490442C08B819C81885E93406AE070E0DA
:104B10000E94A33960934A048D819E819093BF02C5
:104B20008093BE028F8198859093C1028093C002CA
:104B300089859A859093C3028093C2028B859C8558
:104B40009093C5028093C4028B8980934B041CC050
:104B50006B817C81882777FD8095982F0E943E3756
:104B600060934C0470934D0480934E0490934F04D3
:104B70000BC064EF71E080E090E00E94EF33E091C1
:104B80001C04F0911D04099582EE93E00E94782B9D
:104B9000181619060CF4CDCE66960FB6F894DEBF43
:104BA0000FBECDBFCF91DF911F910F91FF90EF907E
:104BB0000895EF92FF920F931F93E090E604F09018
:104BC000E7040091E8041091E9048FE590E0A0E08B
:104BD000B0E0E80EF91E0A1F1B1F0E94E1336E159C
:104BE0007F058007910708F441C10E94E1330E94CC
:104BF000E1336093E6047093E7048093E8049093B4
:104C0000E90487E00E948634AA2797FDA095BA2F71
:104C1000BC01CD010E943E3720E030E849E85FE367
:104C20000E9471382091E1023091E2024091E3024A
:104C30005091E4020E94A3362DEC3CEC4CE45EE380
:104C40000E9471387B018C016091ED027091EE023F
:104C50008091EF029091F0022DEC3CEC4CE45FE38C
:104C60000E9471389B01AC01C801B7010E94D63582
:104C7000DC019B01AC012093ED023093EE024093E6
:104C8000EF025093F002CB0180938304909384044D
:104C9000A0938504B093860486E00E948634AA27F8
:104CA00097FDA095BA2FBC01CD010E943E3720E0B0
:104CB00030E849E85FE30E9471382091E5023091C5
:104CC000E6024091E7025091E8020E94A3362DECE3
:104CD0003CEC4CE45EE30E9471387B018C016091F6
:104CE000F1027091F2028091F3029091F4022DECA6
:104CF0003CEC4CE45FE30E9471389B01AC01C801BD
:104D0000B7010E94D635DC019B01AC012093F10272
:104D10003093F2024093F3025093F402CB0180935C
:104D20007F0490938004A0938104B093820481E077
:104D30000E948634AA2797FDA095BA2FBC01CD0109
:104D40000E943E372DEC3CEC4CE45EE30E9471384F
:104D50007B018C016091C0047091C10480E090E0FF
:104D60000E943C372DEC3CEC4CE45FE30E94713830
:104D70009B01AC01C801B7010E94D6350E941037D3
:104D80007093C1046093C0046091E9027091EA02DB
:104D90008091EB029091EC0220E030E040E050E0A6
:104DA0000E94663818160CF061C082E00E948634BA
:104DB000AA2797FDA095BA2FBC01CD010E943E37CE
:104DC00020E030E849E85FE30E9471387B018C0104
:104DD0006091E0047091E1048091E2049091E30419
:104DE00020E030E040E251EC0E94A3369B01AC0190
:104DF000C801B7010E94D6352091E9023091EA023C
:104E00004091EB025091EC020E94A3362DEC3CEC59
:104E10004CEC5DE30E9471387B018C016091EA04E7
:104E20007091EB048091EC049091ED0426E636E657
:104E300046E65FE30E9471389B01AC01C801B701EF
:104E40000E94D6356093EA047093EB048093EC04DF
:104E50009093ED0420E030E048EC52E40E94713879
:104E60000E940B3770939B0460939A041F910F91DB
:104E7000FF90EF90089583E00E9483346091CA020E
:104E80007091CB028091CC029091CD022DEC3CEC44
:104E90004CE85FE30E9471386093ED027093EE027C
:104EA0008093EF029093F0026091D0027091D10252
:104EB0008091D2029091D3022DEC3CEC4CE85FE360
:104EC0000E9471386093F1027093F2028093F302B2
:104ED0009093F402089586E061E00E94E73408951B
:104EE0000E94852481E194E00E94253208950F9369
:104EF0001F93CF93DF9386E061E00E94A83482EE97
:104F000093E040E051EE60E070E00E94162B0E94BA
:104F10006B27CFEFD3E0CE010E9422050E94C61777
:104F200064EF71E080E090E00E94EF3388EE93E060
:104F30000E94E809082F8EEE93E00E94E80910E035
:104F4000080F111D0F341105E9F0CE0166E049E0AC
:104F50000E947E03CE010E94560400D000D0EDB71F
:104F6000FEB7D283C18384E891E0948383830E9457
:104F7000F42A0F900F900F900F90CE010E943A04E8
:104F80000E948E230E94B10810929C0407C00E94C8
:104F90006E1B80919C048F5F80939C0480919C0485
:104FA0008230A8F310929C0460ED77E080E090E0FE
:104FB0000E94EF3382EE93E00E94F52B81E194E0B2
:104FC0006EE879E228E730E040E050E000E00E943F
:104FD000D7310E943B278FEF93E00E94A30481E129
:104FE00094E00E943D32DF91CF911F910F9108957F
:104FF0002F923F924F925F926F927F928F929F92E9
:10500000AF92BF92CF92DF92EF92FF920F931F93D6
:10501000DF93CF9300D000D0CDB7DEB7E09030045F
:10502000F09031040091320410913304C801B701AB
:105030002091F3043091F4044091F5045091F6046A
:105040000E94D53560936704709368048093690467
:1050500090936A04A0909E04AA2089F580912F0461
:10506000833009F044C18091270490912804A091D5
:105070002904B0912A048093F7049093F804A09334
:10508000F904B093FA0480912B0490912C04A09120
:105090002D04B0912E048093FB049093FC04A09304
:1050A000FD04B093FE04E092F304F092F404009344
:1050B000F5041093F60481E080939E0418C181E00A
:1050C000A81609F014C16090FF04E8E1E61580F12C
:1050D0006091000570910105809102059091030592
:1050E000A80197010E94D5359F7720E030E040E08D
:1050F0005FE30E94663818165CF41092FF04E09299
:105100000005F0920105009302051093030510C0FD
:10511000862D8F5F8093FF04893151F4E092F30470
:10512000F092F4040093F5041093F604A092EE04B8
:10513000E090F704F090F8040091F9041091FA045B
:10514000C801B7019F7725E33AEF4EE85CE30E9480
:1051500071380E94A03669837A838B839C83C8014F
:10516000B7012091270430912804409129045091DF
:105170002A040E94D5351B012C019F7720EC3BE6C9
:1051800049ED57E40E9471385B016C016091FB04AA
:105190007091FC048091FD049091FE0420912B04F9
:1051A00030912C0440912D0450912E040E94D5354D
:1051B0003B014C019F7720EC3BE649ED57E40E9410
:1051C000713829813A814B815C810E9471387B0161
:1051D0008C01C601B501A60195010E9471385B01E1
:1051E0006C01C801B701A80197010E9471389B01A9
:1051F000AC01C601B5010E94D6350E94F8380E9464
:105200000B3760936B0470936C0480936D049093E0
:105210006E0460E070E080E89FE329813A814B8171
:105220005C810E94A3369B01AC01C201B1010E94C6
:10523000713897FA909497F89094A40193010E9482
:10524000493620EE3EE245E652E40E94713820E005
:1052500030E044EB52E40E94D6350E940B379B01AC
:10526000AC0197FF04C028593E4F4F4F5F4FCA0112
:10527000B901645B70408040904097FF06C0CA014E
:10528000B9016C547F4F8F4F9F4F0E943E37209142
:105290003D0430913E0440913F04509140040E94EF
:1052A000D5350E940B3797FF04C068597E4F8F4F4A
:1052B0009F4F0E943E3720E030E044EB53E40E94D1
:1052C000A33620E030E040E851E40E9471380E94AB
:1052D000D43820E030E040E85FE30E94D6350E94F9
:1052E000103760936F04613110F010926F040F90CB
:1052F0000F900F900F90CF91DF911F910F91FF9022
:10530000EF90DF90CF90BF90AF909F908F907F9065
:105310006F905F904F903F902F9008950E941C0CCB
:105320008FEF93E00E94F8270E94D9250E94C418AD
:105330000E94630608950F931F9388E095E06CE246
:1053400070E00E942C038C010F5F1F4F1093050526
:1053500000930405C8016CE270E00E942C03FC017C
:105360009093070580930605012B41F0009731F0DB
:105370001082209104053091050502C025EF32E02E
:10538000C9011F910F91089580910605909107051D
:10539000009781F0019690930505809304056CE2D7
:1053A00070E00E942C03FC01909307058093060592
:1053B000009719F425EF32E005C010822091040512
:1053C00030910505C9010895EF92FF920F931F9345
:1053D000CF93DF93EB01843209F0DAC082EE93E0E1
:1053E0006AE048E055E020E830E00E94A0358823DC
:1053F00009F4CEC0E82FF0E0E95FFA4F80818D30EC
:1054000009F0C6C01082809108058D3409F46EC081
:105410008E344CF4833409F481C08934E1F0813452
:1054200009F0B6C02AC0823509F4ADC0833524F432
:10543000803509F0ADC007C0853509F492C08A35C2
:1054400009F0A6C097C0198218820E949B290E9469
:10545000DC028A8310C082E090E0998388830E94F6
:105460009B290E94DC029D838C830E94C4290E9498
:10547000DC029B838A8381E08CC081E090E0998389
:1054800088830E949B290E94FA026A837B838C8313
:105490009D830E94C4290E94FA026E837F838887BD
:1054A00099870E94C4290E94DC028F870E94C42928
:1054B0000E94FA026A877B878C879D870E94C42995
:1054C0000E94DC02888B198A0E94C4290E94DC0297
:1054D0008A8B1B8A0E94C4290E94DC029D8B8C8BC4
:1054E0000E94C4290E94DC028E87C5CF83E090E031
:1054F000998388830E949B290E94DC029B838A8374
:105500000E94C4290E94FA026C837D838E839F834C
:105510000E94C4290E94DC028887ADCF84E090E01D
:10552000998388830E949B290E94DC029B838A8343
:105530007E0101E010E00E94C4290E94DC02F70114
:10554000958384830F5F1F4F82E090E0E80EF91E81
:105550000530110581F70E94C4290E94DC028A8B64
:105560008ACF85E090E0998388830E949B290E94DE
:10557000DC027FCF86E090E0998388830E949B299C
:105580000E94DC0276CF87E090E09983888373CF16
:1055900080E0DF91CF911F910F91FF90EF900895E0
:1055A0006EBD0DB407FEFDCF8EB508958DE061E0B0
:1055B0000E94A8348BE061E00E94A8348CE060E097
:1055C0000E94A8348AE061E00E94A8341CBC80E5F7
:1055D0008CBD8DB58EB5089588E895E00E94D62AD9
:1055E00008958FEF9FE70895DF93CF93CDB7DEB790
:1055F000FE0139968D819E8161E04F8158859F0122
:105600000E94952DCF91DF910895DF93CF93CDB771
:10561000DEB7FE0139968D819E8160E04F8158850D
:105620009F010E94952DCF91DF9108950F931F93B5
:10563000DC01ED91FC910288F389E02D20E030E05F
:1056400000E010E009951F910F9108958F92AF929D
:10565000CF92EF92FF920F931F93DF93CF93CDB72B
:10566000DEB7FC011382128288EE93E0A0E0B0E086
:1056700084839583A683B78389E493E091838083B1
:105680005587448737872687118B008BF38AE28AF8
:10569000C48AA58A868A70E0CB0123E0880F991F0F
:1056A0002A95E1F79C0127573A4F308F278B8F5669
:1056B0009A4F928F818F81E090E002C0880F991FEE
:1056C0006A95E2F720919905282B20939905CF013F
:1056D00040E051EE60E070E00E94162BCF91DF9128
:1056E0001F910F91FF90EF90CF90AF908F90089502
:1056F000FC01838D882319F42FEF3FEF0DC007883D
:10570000F08DE02D2081318182819381281B390B1E
:105710008481958128233923C9010895FC01838D53
:10572000882319F42FEF3FEF11C0018CF28DE02D8B
:105730002081318182819381281B390B20953095FE
:1057400084819581282339232F5F3F4FC901089514
:10575000FC01838D882361F0A789B08D2D913C9148
:10576000119712968D919C9113972817390721F460
:105770004FEF5FEFCA01089512968D919C91139798
:105780001696ED91FC911797E80FF91F408112963C
:105790008D919C911397019614962D913C9115979C
:1057A0008223932313969C938E93129750E0E2CF1B
:1057B000FC01838D882351F00788F08DE02D208136
:1057C0003181828193812817390721F42FEF3FEF30
:1057D000C9010895828193810680F781E02DE80F49
:1057E000F91F8081282F30E0F3CFDC015796ED912F
:1057F000FC91589782819381918380835996ED9192
:10580000FC915A9780819181938382830895DC0172
:105810005B968C915B978823A9F15996ED91FC9149
:105820005A97208131812F5F3F4F848195812823B2
:1058300039235C968C915C97882329F0828193812F
:1058400028173907F9F08281938128173907D9F38E
:10585000808191810680F781E02DE80FF91F608338
:105860005996ED91FC915A97318320835296ED9190
:10587000FC915397808156969C91892B808321E0DF
:1058800030E002C020E030E0C9010895CF93DF93FB
:10589000EC011B821A828A819B81998388831D82F5
:1058A0001C828E819F81009721F00E9401331F820C
:1058B0001E82DF91CF9108950F931F938C01DC011D
:1058C0005296ED91FC915397208156968C91569764
:1058D00055969C915597892B809582238083579666
:1058E0008D919C9158970E94462CF801818D928D44
:1058F0000E94462CD8015B961C921F910F9108952F
:105900000F931F93CF93DF938C01FC0113821282BC
:10591000828193819183808341E0A1E0B0E001C066
:105920004F5FFD01042E02C0EE0FFF1F0A94E2F745
:105930009B0182E06130780710F020E032E0E2174E
:10594000F30770F3C1E0D0E002C0CC0FDD1F4A9531
:10595000E2F72197F801268137812115310541F0C1
:10596000848195818C179D0789F0C9010E940133BC
:10597000F801D583C483CE0101960E9464329C0154
:10598000F8019783868380E0232B09F081E0DF9183
:10599000CF911F910F910895AF92BF92CF92DF9256
:1059A000EF92FF920F931F93CF93DF937C015A01E5
:1059B0006B01E901DC015B968C915B978823F1F028
:1059C0002115310539F45796ED91FC915897C48112
:1059D000D58121960115110549F4D7015996ED910C
:1059E000FC915A97048115810F5F1F4FD701ED91EC
:1059F000FC910088F189E02DC7010995F70187899D
:105A0000908D209711F4C0E8D0E0BE010E94802C58
:105A1000882381F0D70159968D919C915A97011551
:105A2000110511F400E110E0B8010E94802C8823D8
:105A300009F04DC0D701ED91FC910088F189E02D6E
:105A4000C701099567C0D7015096ED91FC91519718
:105A5000B0E0AB16B1EEBB06B0E0CB06B0E0DB06C3
:105A600009F454C081E090E0D70154960C9002C034
:105A7000880F991F0A94E2F7808360E079E08DE354
:105A800090E0A60195010E94EC3921503040404041
:105A90005040CA01B90122E030E040E050E00E94ED
:105AA000EC39D7011C96ED91FC911D9730831E9621
:105AB000ED91FC911F972083D7015296ED91FC91B7
:105AC0005397808155969C91892B808323C0D70161
:105AD0005996ED91FC915A9713821282828193819B
