:100000000C947C010C94A4010C94A4010C94A40104
:100010000C94A4010C94A4010C94A4010C94A401CC
:100020000C94A4010C94A4010C94A4010C94A401BC
:100030000C94A4010C94A4010C94A4010C94A401AC
:100040000C9457320C94A4010C946D050C94A905E2
:100050000C94A4010C94A4010C94A4010C94A4018C
:100060000C94A4010C94A401084AD73B3BCE016E2A
:1000700084BCBFFDC12F3D6C74319ABD56833DDAFF
:100080003D00C77F11BED9E4BB4C3E916BAAAABE0E
:10009000000000803F05A84CCDB2D44EB93836A937
:1000A000020C50B9918688083CA6AAAA2ABE000074
:1000B00000803F0664EC1B3C04BC163E3BE5B93CAB
:1000C000C93C37C29E5A3D660498083EEA69AAAA0E
:1000D0003E000000803F2020202020202020002003
:1000E0002020202020202020202020207C202020B4
:1000F000202020202020202020207CC620202020FE
:100100002020202020202020C57C202020202020EE
:10011000202020202020207C202020202020202083
:1001200020202020207C00B0B1B2B3B47CB5B6B79B
:10013000B8B97C4D696E696D4F53442D4578747222
:100140006120322E34207C2072363232204D507C99
:10015000004F534420496E697469616C697A656423
:100160002C207265626F6F74004368617220446F67
:100170006E650A00526561647920666F7220466F71
:100180006E740A004D697373696E672F4F6C64203B
:10019000436F6E6669670000407A10F35A00A072E0
:1001A0004E18090010A5D4E80000E87648170000B2
:1001B000E40B54020000CA9A3B000000E1F5050080
:1001C0000080969800000040420F000000A08601C9
:1001D000000000102700000000E803000000006499
:1001E00000000000000A0000000000010000000004
:1001F000002C76D888DC674F0823DFC1DFAE59E1D9
:10020000B1B796E5E3E453C63AE651997696E8E647
:10021000C28426EB898C9B62ED407C6FFCEFBC9C1A
:100220009F40F2BAA56FA5F490055A2AF75C936B2C
:100230006CF9676DC11BFCE0E40D47FEF520E6B5E7
:1002400000D0ED902E0300943577050080841E08C1
:100250000000204E0A000000C80C333333330F98DF
:100260006E12831141EF8D2114893BE65516CFFEA6
:10027000E6DB18D1844B381BF77C1D901DA4BBE432
:1002800024203284725E228100C9F124ECA1E53D74
:10029000276E616E00696E66000000000024002772
:1002A000002A0000000000250028002B00000000AC
:1002B00000230026002900040404040404040402AA
:1002C00002020202020303030303030102040810F3
:1002D00020408001020408102001020408102000C0
:1002E00000000700020100000304060000000000F7
:1002F00000000000F705AA2911241FBECFEFD8E0A7
:10030000DEBFCDBF13E0A0E0B1E0ECE2F4E702C055
:1003100005900D92A837B107D9F715E0A8E7B3E02B
:1003200001C01D92A93CB107E1F712E0C8EFD2E08D
:1003300004C02297FE010E94103AC43FD107C9F7BA
:100340000E94F9330C94143A0C940000283008F001
:1003500027E03327DA01990F311D87FD9160009660
:100360006105710539F432602E5F3D9330E32A95C3
:10037000E1F708959F3F30F080387105610509F07D
:100380003C5F3C5F3D93913008F08068911DDF93A6
:10039000CF931F930F93FF92EF92192F987F96950B
:1003A000E92F96959695E90FFF27EF50FE4F992775
:1003B0003327EE24FF24A701E70105900894079452
:1003C00028F4360FE71EF81E491F511D660F771FD0
:1003D000881F991F0694A1F70590079428F4E70E4B
:1003E000F81E491F561FC11D770F881F991F661FD2
:1003F0000694A1F70590079428F4F80E491F561F9C
:10040000C71FD11D880F991F661F771F0694A1F77C
:100410000590079420F4490F561FC71FD81F990F46
:10042000661F771F881F0694A9F78491109517708F
:1004300041F0D695C79557954795F794E7941A9547
:10044000C1F7E7E9F1E06894159015913591659150
:10045000959105907FE27395E118F10A430B560BD5
:10046000C90BD009C0F7E10CF11E431F561FC91F6D
:10047000D01D7EF4703311F48A95E6CFE8940150D4
:1004800030F0080F0AF40027021708F4202F2395F4
:10049000022F7A3328F079E37D932A95E9F710C08B
:1004A0007D932A9589F606949795679537951795C4
:1004B0001794E118F10A430B560BC90BD00998F0B9
:1004C00023957E9173957A3308F070E37C93201323
:1004D000B8F77E9170617D9330F0839571E37D93E1
:1004E00070E32A95E1F71124EF90FF900F911F918F
:1004F000CF91DF91992787FD90950895FA01AA275A
:10050000283051F1203181F1E8946F936E7F6E5F56
:100510007F4F8F4F9F4FAF4FB1E03ED0B4E03CD004
:10052000670F781F891F9A1FA11D680F791F8A1FE7
:10053000911DA11D6A0F711D811D911DA11D20D04E
:1005400009F468943F912AE0269F11243019305D08
:100550003193DEF6CF010895462F4770405D4193F9
:10056000B3E00FD0C9F7F6CF462F4F70405D4A3346
:1005700018F0495D31FD4052419302D0A9F7EACF0E
:10058000B4E0A6959795879577956795BA95C9F73D
:1005900000976105710508959B01AC010A2E069430
:1005A0005795479537952795BA95C9F7620F731FE9
:1005B000841F951FA01D0895FC0188279927E894A2
:1005C00021912032E9F3293010F02E30C8F32B327C
:1005D00041F02D3239F4689404C00E945703820F11
:1005E000911D219120532A30C0F31EF490958195DE
:1005F0009F4F08951F93FC0199278827BC01E89419
:1006000011911032E9F3193010F01E30C8F31B328B
:1006100051F01D3249F4689406C00E944203610FF4
:10062000711D811D911D119110531A30B0F33EF4CC
:1006300090958095709561957F4F8F4F9F4F1F913B
:100640000895FC010590615070400110D8F7809525
:1006500090958E0F9F1F0895FC018191861721F0C0
:100660008823D9F7992708953197CF010895FC0180
:100670006150704001900110D8F7809590958E0FD1
:100680009F1F0895592F482F372F262F660F771F4A
:10069000881F991F660F771F881F991F620F731F8E
:1006A000841F951F660F771F881F991F08957AE092
:1006B000979F902D879F802D910D11240895FC0107
:1006C0001382128288EE93E0A0E0B0E084839583E9
:1006D000A683B7838EE193E0918380830895FC0124
:1006E0008089803419F421E030E002C020E030E05D
:1006F000C9010895FC01818990E00895FC01648797
:10070000458766874787089580E090E0089580E0F8
:1007100090E0089580E090E008950895EF92FF92B0
:100720001F93CF93DF93162F7A0186E060E00E943B
:10073000A53389EA95E060E00E948E2989EA95E078
:1007400060E00E948E2989EA95E069E00E948E2986
:1007500089EA95E0612F0E948E29C0E0D0E0F70180
:10076000EC0FFD1F108189EA95E06AE00E948E2956
:1007700089EA95E06C2F0E948E2989EA95E06BE06A
:100780000E948E2989EA95E0612F0E948E29219688
:10079000C633D10521F789EA95E068E00E948E29E9
:1007A00089EA95E060EA0E948E2989EA95E060EA8C
:1007B0000E948E2985FDF9CF89EA95E060E00E94CC
:1007C0008E2989EA95E06CE00E948E2986E061E03E
:1007D0000E94A533DF91CF911F91FF90EF90089574
:1007E0001F93CF93DF93EC01162F86E060E00E9409
:1007F000A53389EA95E060E00E948E29112319F063
:10080000113059F404C089EA95E0688904C0688908
:100810006C6189EA95E00E948E2986E061E00E9481
:10082000A533DF91CF911F910895EF92FF920F931F
:100830001F938EE1489F70011124E60EF11C86E0A3
:1008400060E00E94A53309EA15E0C80165E00E9456
:100850008E29C8016F2D0E948E29C80166E00E9472
:100860008E29C8016E2D0E948E291F910F91FF9035
:10087000EF900895EF92FF920F931F937C0109EA86
:1008800015E0C80167E00E948E29C8016FEF0E9441
:100890008E2986E061E00E94A533F70187858F5F8E
:1008A00087871F910F91FF90EF900895EF92FF922D
:1008B0000F931F93FC01E7848EE1E89E70011124E1
:1008C0008685E80EF11C86E060E00E94A53309EA07
:1008D00015E0C80164E00E948E29C80163E00E940F
:1008E0008E29C80165E00E948E29C8016F2D0E94E3
:1008F0008E29C80166E00E948E29C8016E2D0E94D3
:100900008E291F910F91FF90EF9008951F93CF9321
:10091000DF93EC01162F6C3731F40E943A04CE01BC
:100920000E9456040AC089EA95E067E00E948E2979
:1009300089EA95E0612F0E948E2981E090E0DF91A5
:10094000CF911F9108950F931F9386E060E00E945E
:10095000A53309EA15E0C80164E00E948E29C801A8
:1009600064E00E948E2986E061E00E94A5331F9119
:100970000F9108951F938BEB95E066E973E00E9459
:100980008230882361F0813011F412E009C0823096
:1009900011F411E005C0833011F410E001C013E040
:1009A000109279031092780317C0609178037091C8
:1009B0007903605F89EA95E00E948E2989EA95E0D3
:1009C000612F0E948E29809178039091790301967E
:1009D00090937903809378038091780390917903C1
:1009E00040971CF31F910895CF93DF93EC0186E0AD
:1009F00060E00E94A53389EA95E060EA0E948E29B2
:100A000089EA95E06FEF0E948E2980FF05C080E49F
:100A1000888B88E0898B13C08BEB95E060E973E0ED
:100A20000E948230882319F4188A86E003C080E48B
:100A3000888B88E0898B86E060E00E94A533DF9197
:100A4000CF910895CF92DF92FF920F931F936C0185
:100A500086E061E00E94663382E060E00E946633D7
:100A600082E061E00E94A533C6010E94F40486E0A2
:100A700060E00E94A53309EA15E0C8016CEE0E940F
:100A80008E29C8016FEF0E948E29F82EC80160E000
:100A90000E948E29F60160896260C8010E948E2939
:100AA00062E370E080E090E00E94AD32C8016CE645
:100AB0000E948E29FFEEFF22C8016F2D0E948E2911
:100AC000C6010E94BA04C60161E00E94F0031F91B2
:100AD0000F91FF90DF90CF9008951F920F920FB665
:100AE0000F9211242F933F934F938F939F93EF93E4
:100AF000FF934091C6002091AA053091AB052F5F6E
:100B00003F4F8091AE059091AF0528233923809106
:100B1000AC059091AD052817390779F08091AA05A9
:100B20009091AB05E091B005F091B105E80FF91F88
:100B300040833093AB052093AA05FF91EF919F91DD
:100B40008F914F913F912F910F900FBE0F901F905B
:100B500018951F920F920FB60F9211242F933F9367
:100B60008F939F93EF93FF932091B4053091B50538
:100B70008091B2059091B30528173907E9F080916B
:100B8000B4059091B505E091B805F091B905E80F6D
:100B9000F91F80818093C6008091B4059091B505BE
:100BA00001962091B6053091B70582239323909347
:100BB000B5058093B40510C02091B2053091B305FE
:100BC0008091B4059091B5052817390729F48091D3
:100BD000C1008F7D8093C100FF91EF919F918F9114
:100BE0003F912F910F900FBE0F901F9018958F92ED
:100BF000AF92CF92EF92FF920F931F9388EF93E003
:100C000060E045EC50E024EC30E000EC10E0F1EC6A
:100C1000EF2EF12CCC24C394E8E9AE2E70E2872E9F
:100C20000E94E42985E194E00E945F031092280469
:100C30001092290410922A0410922B0410922C0472
:100C400010922D0410922E0410922F041092310451
:100C500010923004109227041F910F91FF90EF9093
:100C6000CF90AF908F90089580916E048130C1F441
:100C70000E949F3268517C4F8F4F9F4F60936F044B
:100C800070937004809371049093720410926E04B8
:100C900090E080917304882309F491E090937304A9
:100CA0000E949F3220916F04309170044091710432
:100CB00050917204261737074807590718F481E046
:100CC00080936E040895AF92BF92CF92DF92EF921D
:100CD000FF920F931F9310910A051130B1F5809187
:100CE000B804882391F56091850470918604809101
:100CF00087049091880420E030E040EA50E40E94AC
:100D00004E38181614F5809160048B30F0F0109373
:100D1000B80480E090E0A0E0B0E08093E904909314
:100D2000EA04A093EB04B093EC040E949F3228EEF7
:100D300033E040E050E00E94D1392093A904309381
:100D4000AA044093AB045093AC0460918504709165
:100D50008604809187049091880420E030E040EA86
:100D600051E40E94843618167CF160914B04709116
:100D70004C0480914D0490914E0420E030E040E01E
:100D800050E40E9484361816FCF0809160048B3089
:100D9000D8F48091B8048130B9F48091890490919D
:100DA0008A04A0918B04B0918C0485369105A1052D
:100DB000B10554F40E949F3260930B0570930C05AB
:100DC00080930D0590930E05A0904B04B0904C04B9
:100DD000C0904D04D0904E04C601B50120E030E033
:100DE00040E85FE30E944E38181694F5E090E9045D
:100DF000F090EA040091EB041091EC040E949F3201
:100E000020910F0530911005409111055091120568
:100E1000621B730B840B950B0E9424379B01AC0162
:100E2000C601B5010E94593820E030E04AE754E499
:100E30000E948B369B01AC01C801B7010E94BE35F0
:100E40006093E9047093EA048093EB049093EC04BC
:100E5000A090AD04B090AE04C090AF04D090B004A8
:100E60006091C1047091C204882777FD8095982F06
:100E70000E94263720E030E040E251E40E945938D9
:100E80007B018C010E949F3220910F05309110054B
:100E90004091110550911205621B730B840B950B49
:100EA0000E9424379B01AC01C801B7010E94593848
:100EB00020E03AEB4BE55AE40E948B369B01AC01F3
:100EC000C601B5010E94BE356093AD047093AE04B7
:100ED0008093AF049093B0040E949F3260930F05FB
:100EE0007093100580931105909312058091B804BA
:100EF000813009F096C06091890470918A048091D4
:100F00008B0490918C040E9426377B018C012091E8
:100F1000E5043091E6044091E7045091E8040E9412
:100F20004E38181644F4E092E504F092E60400937B
:100F3000E7041093E804E0904F04F090500400910F
:100F4000510410915204C801B7012091ED04309171
:100F5000EE044091EF045091F0040E944E381816B0
:100F600044F4E092ED04F092EE040093EF04109349
:100F7000F004E0904B04F0904C0400914D0410916B
:100F80004E04C801B7012091F1043091F204409160
:100F9000F3045091F4040E944E38181644F4E09281
:100FA000F104F092F2040093F3041093F404E0903F
:100FB0008504F09086040091870410918804C8018C
:100FC000B7012091F5043091F6044091F704509157
:100FD000F8040E944E38181644F4E092F504F0929A
:100FE000F6040093F7041093F8046091F9047091EB
:100FF000FA048091FB049091FC0420E030E040E092
:1010000050E00E948436882364F480E090E0A0E001
:10101000B0E08093F9049093FA04A093FB04B0939A
:10102000FC041F910F91FF90EF90DF90CF90BF9045
:10103000AF9008958BEB95E06AE773E00E948230F1
:10104000882381F586E696E6A6E6B0E480937404EC
:1010500090937504A0937604B093770480E090E0B9
:10106000A0E8BFE38093780490937904A0937A0476
:10107000B0937B0480E180937C048CE080937D04BA
:101080008AEB80937E048BE190E0909380048093C0
:101090007F0488EE93E090938204809381048AE138
:1010A00090E02FC082E598EBAEE0B0E4809374044A
:1010B00090937504A0937604B093770485E89BEE33
:1010C000A1E5B0E48093780490937904A0937A0426
:1010D000B0937B0489E180937C0486E680937D0451
:1010E0008BEB80937E048CE190E09093800480935E
:1010F0007F0480EA94E190938204809381048EE1DE
:1011000090E090938404809383040895DF92EF929B
:10111000FF920F931F938C01ABEBEA2EA5E0FA2E02
:10112000C701B8010E948230D82E0F5F1F4FC70140
:10113000B8010E9482303D2D20E0280F311DC901E9
:101140001F910F91FF90EF90DF900895DF92EF9243
:10115000FF920F931F93CF93DF938BEB95E06CE798
:1011600073E00E9482308093BA048BEB95E06EE7C7
:1011700073E00E9482308093B9048BEB95E060E8C5
:1011800073E00E94823090E0A0E0B0E0BC01CD01AD
:101190000E94243720E030E040E251E40E948B3688
:1011A0006093E6027093E7028093E8029093E9026D
:1011B0008BEB95E062E873E00E94823090E0A0E063
:1011C000B0E0BC01CD010E94243720E030E040E2D5
:1011D00051E40E948B366093EC027093ED02809391
:1011E000EE029093EF028BEB95E06EE873E00E94C5
:1011F00082308093CF048BEB95E06AE873E00E9425
:1012000082308093C4048BEB95E064E873E00E9425
:1012100082308093E1048BEB95E066E873E00E94F6
:1012200082308093E0048BEB95E06CE873E00E94E1
:1012300082301092BC04882319F081E08093BC04B2
:101240008BEB95E064E973E00E9482308093BB04ED
:1012500084EA93E00E948608A0E0B0E0BC01CD01E2
:101260000E94243720E030E040E251E40E948B36B7
:101270006093FB027093FC028093FD029093FE0248
:101280008AEA93E00E948608A0E0B0E0BC01CD01AC
:101290000E94243720E030E040E251E40E948B3687
:1012A0006093FF0270930003809301039093020305
:1012B00086EA93E00E9486087C018BEB95E068EA61
:1012C00073E00E948230D82E00E010E0C801B70120
:1012D0000E94243720E030E040E251E40E948B3647
:1012E0007B018C018D2D64E60E949E3990E0AA2737
:1012F00097FDA095BA2FBC01CD010E9426379B0116
:10130000AC01C801B7010E94BE356093030370931E
:10131000040380930503909306038CEA93E00E94F4
:101320008608A0E0B0E0BC01CD010E94243720E097
:1013300030E040E251E40E948B366093FD047093EC
:10134000FE048093FF04909300058BEB95E06EEA1A
:1013500073E00E9482308093FA028BEB95E060EBA1
:1013600073E00E9482308093E404C0E0D0E0BE01CC
:1013700068567C4F8BEB95E00E948230FE01E9526B
:10138000FB4F8083882321F02196C830D10579F75F
:10139000C952DB4F1982DF91CF911F910F91FF90BE
:1013A000EF90DF900895BC018BEB95E00E948230B6
:1013B0000895DF92EF92FF920F931F93CF93DF93E5
:1013C000882309F481E0182F110F1257613009F0BA
:1013D0004CC0609174047091750480917604909172
:1013E000770420E030E040E050E00E945938A12F1F
:1013F000BB27A7FDB095D0907C042DB73EB72651F2
:1014000030400FB6F8943EBF0FBE2DBFEDB7FEB70C
:10141000319625E134E0CDB7DEB73A83298323E066
:1014200031E0338322832DE130E035832483262F7E
:10143000372F482F592F2683378340875187D286ED
:101440001386B587A4871196B787A687C901DA01E5
:10145000808B918BA28BB38BD48A158A0E94C3296F
:101460002DB73EB72A5E3F4F4BC0A12FBB27A7FD2C
:10147000B09585E194E0623039F5CDB7DEB72C97B1
:101480000FB6F894DEBF0FBECDBFEDB7FEB73196F5
:101490009A83898389E191E093838283B583A483CE
:1014A0001196B783A68380918E0490918F049187C3
:1014B000808785E090E0938782870E94C3292DB7BB
:1014C0003EB7245F3F4F1CC0CDB7DEB728970FB69D
:1014D000F894DEBF0FBECDBFEDB7FEB731969A834D
:1014E000898383E291E093838283B583A4831196F9
:1014F000B783A6830E94C3292DB73EB7285F3F4F0D
:101500000FB6F8943EBF0FBE2DBFDF91CF911F9154
:101510000F91FF90EF90DF9008952F923F924F929E
:101520005F926F927F928F929F92AF92BF92CF9273
:10153000DF92EF92FF920F931F93DF93CF9300D030
:1015400000D000D0CDB7DEB7182F662E20915904F9
:1015500030915A042A35310530F0C9018D549F4F1E
:1015600089359105E8F437FF02C02D543F4FC9017A
:1015700037FF03C0909581959F4F8A3191053CF0CC
:10158000B9ED8B2E912CA8EF2A2E312C1DC00A9775
:101590005CF1F0ED8F2E912CE3EF2E2E312C20C03C
:1015A0002B35310514F0235B3040C90137FF03C0F0
:1015B000909581959F4F8A31910554F07BEE872E4F
:1015C000912C6BEF262E312C57E0A52EB12C15C097
:1015D0000A9754F042EE842E912C35EF232E312CB5
:1015E00028E0A22EB12C09C096EC892E912C8DEC0E
:1015F000282E312C09E0A02EB12C60915704709157
:101600005804882777FD8095982F0E94263727EA6F
:1016100032E94BE25CEB0E9459380E942D3920E000
:1016200030E040EA50E40E94593820E030E040E9E0
:1016300051E40E9459380E94BC3820E030E044E375
:1016400052E40E94BE350E94F336712E1EEBC12E6D
:101650001FEFD12E9B01442737FD4095542F29833E
:101660003A834B835C83B5E14B2EB4E05B2E4AEFAB
:101670005FEF240E351E6091590470915A0488273B
:1016800077FD8095982F0E94263725E33AEF4EE8A4
:101690005CE30E9459380E942D397B018C01B60110
:1016A000882777FD8095982F0E9426379B01AC01F3
:1016B000C801B7010E9459387B018C0169817A8188
:1016C0008B819C810E9426379B01AC01C801B70128
:1016D0000E94BE350E94F3369B01CB0101978A35EB
:1016E000910508F071C062E170E00E94BE398B0183
:1016F0002F5F3F4FAEEEBFEF6A9FC0016B9F900D13
:101700007A9F900D1124820F931F62E070E00E9477
:10171000BE396D837E83E62CE01A4E2D4C5F85E149
:1017200094E0672D0E94150400D000D000D0EDB7E2
:10173000FEB73196ADB7BEB712965C924E92119736
:1017400020E031E0338322838D819E81880D991DB5
:10175000958384830E94C3294DB75EB74A5F5F4F6C
:101760000FB6F8945EBF0FBE4DBF8D819E818A1566
:101770009B0554F1043011053CF593E0E90EC201DC
:10178000672D4E2D0E94150400D000D000D0EDB77B
:10179000FEB73196ADB7BEB712965C924E921197D6
:1017A00020E031E0338322834D815E81420D531D61
:1017B000558344830E94C3298DB79EB706960FB602
:1017C000F8949EBF0FBE8DBFACE0B0E0CA0EDB1E2A
:1017D0007394BEE4CB16D10409F04DCF26960FB614
:1017E000F894DEBF0FBECDBFCF91DF911F910F9157
:1017F000FF90EF90DF90CF90BF90AF909F908F9031
:101800007F906F905F904F903F902F9008956091E0
:10181000530470915404809155049091560420E033
:1018200030E040EC51E40E94593820E030E044EBD5
:1018300053E40E948B360E94BC380E94F3369B0111
:101840002350304037FF03C09B012B5E3F4FA5E97B
:10185000B4E0F901E45CFC4F80818C932F5F3F4F33
:101860002831310514F020E030E0119684E0A03AF0
:10187000B80779F710929C0408950F931F93282FAF
:10188000462F85E194E0622F0E947E0385E194E07B
:101890000E94560480913B04882319F428E231E029
:1018A0001AC0823019F42DE231E015C0853019F4E8
:1018B00022E331E010C027E331E08A3019F42CE351
:1018C00031E009C08B3019F421E431E004C08F30DD
:1018D00011F425E431E08DB79EB708970FB6F89460
:1018E0009EBF0FBE8DBFEDB7FEB7319605E114E088
:1018F000ADB7BEB712961C930E9311978AE491E090
:10190000938382838FE790E0958384833783268354
:101910000E94C3298DB79EB708960FB6F8949EBF54
:101920000FBE8DBFC8010E943A041F910F91089508
:101930000F931F93282F462F05E114E0C801622F53
:101940000E947E03C8010E94560480918D0460E0CD
:101950000E94D909C8010E943A041F910F9108956D
:101960000F931F93282F462F05E114E0C801622F23
:101970000E947E03C8010E9456048DB79EB70A9745
:101980000FB6F8949EBF0FBE8DBFEDB7FEB7319670
:10199000ADB7BEB712961C930E9311978FE491E0EA
:1019A0009383828383EC90E09583848385E994E03C
:1019B0009783868387E890E0918780870E94C32978
:1019C0008DB79EB70A960FB6F8949EBF0FBE8DBF17
:1019D000C8010E943A041F910F9108950F931F931D
:1019E000282F462F05E114E0C801622F0E947E03D4
:1019F000C8010E9456048DB79EB70A970FB6F89497
:101A00009EBF0FBE8DBFEDB7FEB73196ADB7BEB767
:101A100012961C930E93119786E591E0938382832F
:101A20008091530490915404A0915504B0915604B0
:101A300084839583A683B78385E090E09187808730
:101A40000E94C3298DB79EB70A960FB6F8949EBF21
:101A50000FBE8DBFC8010E943A041F910F910895D7
:101A60000F931F93282F462F05E114E0C801622F22
:101A70000E947E03C8010E9456048DB79EB740970E
:101A80000FB6F8949EBF0FBE8DBFEDB7FEB731966F
:101A9000ADB7BEB712961C930E9311978EE591E0E9
:101AA0009383828383E090E09583848380913D04D7
:101AB00090913E04A0913F04B091400486839783A7
:101AC000A087B18784E090E093878287809141046A
:101AD00090914204A0914304B09144048487958777
:101AE000A687B7870E94C3298DB79EB740960FB6C9
:101AF000F8949EBF0FBE8DBFC8010E943A041F918B
:101B00000F9108950F931F93282F462F85E194E09E
:101B1000622F0E947E0385E194E00E94560490911A
:101B20004504923011F42FE105C0933011F42FE0F9
:101B300001C02AE280917304882319F0933009F0E0
:101B400020E28DB79EB708970FB6F8949EBF0FBEE0
:101B50008DBFEDB7FEB7319605E114E0ADB7BEB766
:101B600012961C930E93119780E791E093838283E2
:101B70002483158280914A04868317820E94C32998
:101B80008DB79EB708960FB6F8949EBF0FBE8DBF57
:101B9000C8010E943A041F910F9108950F931F935B
:101BA000282F462F05E114E0C801622F0E947E0312
:101BB000C8010E9456048DB79EB70C970FB6F894D3
:101BC0009EBF0FBE8DBFEDB7FEB73196ADB7BEB7A6
:101BD00012961C930E93119786E791E0938382836C
:101BE00080E690E0958384838091A1049091A20483
:101BF000A091A304B091A40486839783A087B187A2
:101C00008DE090E0938782870E94C3298DB79EB7AD
:101C10000C960FB6F8949EBF0FBE8DBFC8010E94F0
:101C20003A041F910F9108950F931F93282F462F69
:101C300005E114E0C801622F0E947E03C8010E94E2
:101C400056048DB79EB70C970FB6F8949EBF0FBE83
:101C50008DBFEDB7FEB73196ADB7BEB712961C93E8
:101C60000E93119786E791E0938382838CEB90E04B
:101C7000958384838091A5049091A604A091A704E4
:101C8000B091A80486839783A087B1878DE090E008
:101C9000938782870E94C3298DB79EB70C960FB693
:101CA000F8949EBF0FBE8DBFC8010E943A041F91D9
:101CB0000F9108950F931F93282F462F05E114E0ED
:101CC000C801622F0E947E03C8010E9456048DB78E
:101CD0009EB70A970FB6F8949EBF0FBE8DBFEDB7A3
:101CE000FEB73196ADB7BEB712961C930E931197FF
:101CF00080E891E0938382838091590490915A0403
:101D00009583848385E090E09783868386E090E0E6
:101D1000918780870E94C3298DB79EB70A960FB618
:101D2000F8949EBF0FBE8DBFC8010E943A041F9158
:101D30000F9108950F931F93282F462F05E114E06C
:101D4000C801622F0E947E03C8010E9456048DB70D
:101D50009EB70A970FB6F8949EBF0FBE8DBFEDB722
:101D6000FEB73196ADB7BEB712961C930E9311977E
:101D700080E891E093838283809157049091580486
:101D80009583848385E090E09783868387E090E065
:101D9000918780870E94C3298DB79EB70A960FB698
:101DA000F8949EBF0FBE8DBFC8010E943A041F91D8
:101DB0000F910895EF92FF920F931F93282F462FB4
:101DC00015E1E12E14E0F12EC701622F0E947E037F
:101DD000C7010E9456048DB79EB70C970FB6F894B2
:101DE0009EBF0FBE8DBF0DB71EB70F5F1F4FEDB764
:101DF000FEB7F282E18288E891E0F8019383828362
:101E00008BE090E0958384836091890470918A04CB
:101E100080918B0490918C040E9426372091780445
:101E20003091790440917A0450917B040E94593892
:101E3000F801668377838087918780917D0482870C
:101E400013860E94C3298DB79EB70C960FB6F894DF
:101E50009EBF0FBE8DBFC7010E943A041F910F9114
:101E6000FF90EF900895EF92FF920F931F93282F0A
:101E7000462F05E1E02E04E0F02EC701622F0E94FC
:101E80007E03C7010E9456040E949F3228EE33E071
:101E900040E050E00E94D1398091A9049091AA04B9
:101EA000A091AB04B091AC04281B390B4A0B5B0B1F
:101EB000CA01B9010E9424376093E2027093E302E1
:101EC0008093E4029093E5020E94F3368B019C011B
:101ED0008DB79EB70C970FB6F8949EBF0FBE8DBFFF
:101EE000EDB7FEB73196ADB7BEB71296FC92EE9243
:101EF000119782E991E09383828388E090E0958353
:101F00008483C8016CE370E00E94BE39CB016CE3AE
:101F100070E00E94BE39978386838AE390E09187C0
:101F20008087C8016CE370E00E94BE399387828786
:101F30000E94C3298DB79EB70C960FB6F8949EBF2A
:101F40000FBE8DBFC7010E943A041F910F91FF90F1
:101F5000EF9008950F931F93282F462F05E114E06B
:101F6000C801622F0E947E03C8010E9456048DB7EB
:101F70009EB70C970FB6F8949EBF0FBE8DBFEDB7FE
:101F8000FEB73196ADB7BEB712961C930E9311975C
:101F90008EE991E09383828387E190E09583848347
:101FA0008091AD049091AE04A091AF04B091B004C3
:101FB00086839783A087B18781E090E093878287AB
:101FC0000E94C3298DB79EB70C960FB6F8949EBF9A
:101FD0000FBE8DBFC8010E943A041F910F91089552
:101FE0000F931F93282F462F05E114E0C801622F9D
:101FF0000E947E03C8010E9456048DB79EB70A97BF
:102000000FB6F8949EBF0FBE8DBFEDB7FEB73196E9
:10201000ADB7BEB712961C930E93119788EA91E064
:102020009383828382E090E095838483809160042F
:102030008683178285E290E0918780870E94C3297A
:102040008DB79EB70A960FB6F8949EBF0FBE8DBF90
:10205000C8010E943A041F910F9108952F923F9258
:102060004F925F926F927F928F929F92AF92BF92A8
:10207000CF92DF92EF92FF920F931F93DF93CF9354
:10208000CDB7DEB760970FB6F894DEBF0FBECDBFF9
:10209000282F462FDE011196ECE2F3E080E101905B
:1020A0000D928150E1F785E194E0622F0E947E035A
:1020B00085E194E00E9456040E949F3261157105EB
:1020C0008105910509F47EC18091B104882391F0C6
:1020D0008093B2041092B10481E08093B3040E9413
:1020E0009F326093B4047093B5048093B6049093C8
:1020F000B70440C10E949F326051774280409040B7
:102100002091B4043091B5044091B6045091B704C5
:10211000261737074807590710F41092B304809127
:10212000B204882E992477E0372E66E0262E55E0FB
:10213000552E44E0442E33E0632E22E0722E15C16A
:102140000894811C911C88E08816910424F091E089
:10215000892E912C04C0E1E08E16910449F48091FF
:102160004504823008F0FBC0F1E0F093B104F7C001
:102170008091B804813009F065C082E0881691042E
:10218000B1F5A0904F04B0905004C0905104D0908D
:102190005204C601B5012091740430917504409138
:1021A0007604509177040E9459387B018C0160912C
:1021B000B90470E0882777FD8095982F0E94263714
:1021C0009B01AC01C801B7010E94843688230CF042
:1021D000C6C0C601B50129E23CE54FE85FE30E94B5
:1021E0004E3818160CF0BBC07092B104B8C0E3E0D2
:1021F0008E16910439F560914F04709150048091CE
:1022000051049091520420917404309175044091CE
:102210007604509177040E9459387B018C016091BB
:10222000BA0470E080E090E00E9424379B01AC018A
:10223000C801B7010E944E3818160CF090C0609289
:10224000B1048DC0F4E08F16910429F5E090E60208
:10225000F090E7020091E8021091E902C801B7018D
:1022600020E030E040E85FE30E944E3818160CF0A2
:1022700076C06091A5047091A6048091A704909106
:10228000A804A80197010E94843688230CF067C037
:102290004092B10464C085E088169104B9F420919D
:1022A000EA023091EB028091BB0490E028173907D5
:1022B0000CF055C02D593F4F09F451C08091BC041A
:1022C000882309F04CC05092B10449C0F6E08F1643
:1022D000910419F5E090EC02F090ED020091EE020D
:1022E0001091EF02C801B70120E030E040E85FE361
:1022F0000E944E3818169CF56091A1047091A204BA
:102300008091A3049091A404A80197010E948436AF
:1023100088232CF52092B10422C087E0881691040E
:10232000F1F40E949F320E9424377B018C0160915E
:102330003704709138048091390490913A0420E078
:1023400030E849E055E40E94BE359B01AC01C8016C
:10235000B7010E948436882314F43092B10480912E
:10236000B20490E08816990629F08091B104882380
:1023700009F4E6CE8091730425E134E0882349F026
:1023800000D000D0EDB7FEB73283218389819A81D6
:1023900011C000D000D0EDB7FEB732832183E091A9
:1023A000B104F0E0EE0FFF1FEC0FFD1F8181928161
:1023B000EDB7FEB7948383830E94C3290F900F90DB
:1023C0000F900F9085E194E00E943A0460960FB65A
:1023D000F894DEBF0FBECDBFCF91DF911F910F915B
:1023E000FF90EF90DF90CF90BF90AF909F908F9035
:1023F0007F906F905F904F903F902F900895EF9255
:10240000FF920F931F93282F462FE5E1EE2EE4E075
:10241000FE2EC701622F0E947E03C7010E94560450
:102420008DB79EB70C970FB6F8949EBF0FBE8DBFA9
:102430000DB71EB70F5F1F4FEDB7FEB7F282E182F7
:1024400082EB91E0F8019383828383E190E09583AE
:10245000848360914F047091500480915104909155
:102460005204209174043091750440917604509187
:1024700077040E945938F8016683778380879187B3
:1024800080917C04828713860E94C3298DB79EB7F2
:102490000C960FB6F8949EBF0FBE8DBFC7010E9469
:1024A0003A041F910F91FF90EF900895EF92FF92E1
:1024B0000F931F93282F462FF5E1EF2EF4E0FF2E08
:1024C000C701622F0E947E03C7010E9456048DB788
:1024D0009EB70C970FB6F8949EBF0FBE8DBF0DB779
:1024E0001EB70F5F1F4FEDB7FEB7F282E18282EB9E
:1024F00091E0F8019383828384E190E09583848363
:1025000060914B0470914C0480914D0490914E0465
:1025100020917404309175044091760450917704B1
:102520000E945938F801668377838087918780916C
:102530007C04828713860E94C3298DB79EB70C96B0
:102540000FB6F8949EBF0FBE8DBFC7010E943A041C
:102550001F910F91FF90EF900895CF92DF92EF922D
:10256000FF920F931F93282F462FA5E1CA2EA4E0B8
:10257000DA2EC601622F0E947E03C6010E94560415
:1025800060916A0470916B0480916C0490916D0469
:10259000209178043091790440917A0450917B0421
:1025A0000E9459382DEC3CEC4CEC5DE30E9459380C
:1025B0007B018C016091BD047091BE048091BF04C9
:1025C0009091C00426E636E646E65FE30E9459385D
:1025D0009B01AC01C801B7010E94BE356093BD04E8
:1025E0007093BE048093BF049093C0042DB73EB790
:1025F0002C5030400FB6F8943EBF0FBE2DBF0DB724
:102600001EB70F5F1F4FEDB7FEB7D282C1822EE912
:1026100031E0F8013383228325E130E035832483E0
:1026200020E030E040E251E40E948B360E94F33615
:10263000882777FD8095982F0E94263720E030E08C
:1026400040E251E40E945938F8016683778380871D
:1026500091878091830490918404938782870E945C
:10266000C3292DB73EB7245F3F4F0FB6F8943EBF46
:102670000FBE2DBFC6010E943A041F910F91FF901B
:10268000EF90DF90CF900895EF92FF920F931F93FA
:10269000282F462FB5E1EB2EB4E0FB2EC701622FA9
:1026A0000E947E03C7010E9456048DB79EB70C9707
:1026B0000FB6F8949EBF0FBE8DBF0DB71EB70F5F4C
:1026C0001F4FEDB7FEB7F282E18288E891E0F80192
:1026D0009383828381E190E09583848360914604B3
:1026E00070914704809148049091490420917804A6
:1026F0003091790440917A0450917B040E945938BA
:10270000F801668377838087918780917D04828733
:1027100013860E94C3298DB79EB70C960FB6F89406
:102720009EBF0FBE8DBFC7010E943A041F910F913B
:10273000FF90EF900895EF92FF920F931F93282F31
:10274000462F15E1E12E14E0F12EC701622F0E9401
:102750007E03C7010E9456048DB79EB70C970FB633
:10276000F8949EBF0FBE8DBF0DB71EB70F5F1F4FF2
:10277000EDB7FEB7F282E18286E791E0F80193833C
:1027800082838DEB90E0958384836091C104709186
:10279000C204882777FD8095982F0E9426372AE06B
:1027A00037ED43E25CE30E945938F8016683778392
:1027B000808791878EE090E0938782870E94C3296B
:1027C0008DB79EB70C960FB6F8949EBF0FBE8DBF07
:1027D000C7010E943A041F910F91FF90EF90089556
:1027E000CF93DF93282F462FC5E1D4E0CE01622F8F
:1027F0000E947E03CE010E9456040E949F3228EE62
:1028000033E040E050E00E94D139CA01B9012CE325
:1028100030E040E050E00E94D1396230710581051E
:10282000910548F400D000D0EDB7FEB7D283C18344
:1028300087ED94E008C000D000D0EDB7FEB7D2839A
:10284000C18381EF92E0948383830E94C3290F9018
:102850000F900F900F9085E194E00E943A04DF9171
:10286000CF910895CF92DF92EF92FF920F931F9333
:10287000282F462F85E194E0622F0E947E0385E198
:1028800094E00E94560480916904282F30E0309330
:10289000EB022093EA028091BC04882359F5009151
:1028A000E00410E0201B310BB901882777FD8095EB
:1028B000982F0E9426376B017C016091E10470E043
:1028C000601B710B882777FD8095982F0E94263713
:1028D0009B01AC01C701B6010E948B3620E030E0BD
:1028E00048EC52E40E9459380E94F3367093EB0290
:1028F0006093EA028DB79EB70A970FB6F8949EBF11
:102900000FBE8DBFEDB7FEB7319605E114E0ADB750
:10291000BEB712961C930E9311978CEB91E09383A4
:10292000828389E090E0958384838091EA0290918C
:10293000EB029783868385E290E0918780870E94EF
:10294000C3298DB79EB70A960FB6F8949EBF0FBEE7
:102950008DBFC8010E943A041F910F91FF90EF9024
:10296000DF90CF9008950F931F93282F462F85E176
:1029700094E0622F0E947E0385E194E00E94560459
:102980004091C404453029F42091610430916204DF
:1029900014C0463029F420916304309164040DC0C2
:1029A000473029F4209165043091660406C0483010
:1029B00021F420916704309168048DB79EB70A977F
:1029C0000FB6F8949EBF0FBE8DBFEDB7FEB7319620
:1029D00005E114E0ADB7BEB712961C930E931197A4
:1029E00084EC91E09383828383E490E095838483F5
:1029F000842F90E0C09697838683318720870E943A
:102A0000C3298DB79EB70A960FB6F8949EBF0FBE26
:102A10008DBFC8010E943A041F910F910895EF9253
:102A2000FF920F931F93282F462F05E1E02E04E01D
:102A3000F02EC701622F0E947E03C7010E94560438
:102A40008DB79EB70C970FB6F8949EBF0FBE8DBF83
:102A50000DB71EB70F5F1F4FEDB7FEB7F282E182D1
:102A60008CEC91E0F801938382838AE090E0958377
:102A700084838091FA0290E02091E2043091E30493
:102A8000829FB001839F700D929F700D1124209141
:102A9000E404620F711D80E090E00E94243720E082
:102AA00030E048EC52E40E948B36F801668377836D
:102AB0008087918780917E04828713860E94C32934
:102AC0008DB79EB70C960FB6F8949EBF0FBE8DBF04
:102AD000C7010E943A041F910F91FF90EF90089553
:102AE000CF92DF92EF92FF920F931F93CF93DF93DA
:102AF000282F462FC5E1D4E0CE01622F0E947E032D
:102B0000CE010E9456046091E9047091EA0480911C
:102B1000EB049091EC042091780430917904409179
:102B20007A0450917B040E9459386B017C0120E0AB
:102B300030E04AE754E40E944E381816CCF58DB7C1
:102B40009EB70C970FB6F8949EBF0FBE8DBF0DB702
:102B50001EB70F5F1F4FADB7BEB71296DC93CE9373
:102B6000119786E791E0F801938382838FE890E0E4
:102B700095838483609181047091820480E090E069
:102B80000E9424379B01AC01C701B6010E948B361D
:102B9000D80116966D937D938D939C931997809190
:102BA0007F04909180041B969C938E931A9721C06A
:102BB0008DB79EB70C970FB6F8949EBF0FBE8DBF12
:102BC000EDB7FEB73196ADB7BEB71296DC93CE9394
:102BD000119788E891E0938382838FE890E0958352
:102BE0008483C682D782E086F18680917D048287C5
:102BF00013860E94C329EDB7FEB73C960FB6F89432
:102C0000FEBF0FBEEDBF85E194E00E943A04DF9164
:102C1000CF911F910F91FF90EF90DF90CF9008958B
:102C2000EF92FF920F931F93CF93DF93282F462F9E
:102C300085E194E0622F0E947E0385E194E00E948A
:102C4000560460915B0470915C04882777FD809541
:102C5000982F0E94263720915304309154044091BC
:102C60005504509156040E94BD3520E030E044EBFD
:102C700053E40E948B3620E030E040E851E40E94AB
:102C800059380E94BC3820E030E040E85FE30E9401
:102C9000BE350E94F336862F6093900467FF02C012
:102CA000805F03C061311CF0805180939004E090FC
:102CB0009104F09092040091930410919404C8013F
:102CC000B70120E030EC49E754E40E944E38181672
:102CD0002CF480E090ECA9E7B4E40EC0C801B70181
:102CE00020E030EC49E754EC0E948436882364F4F9
:102CF00080E090ECA9E7B4EC809391049093920467
:102D0000A0939304B09394048DB79EB742970FB6E7
:102D1000F8949EBF0FBE8DBF0DB71EB70F5F1F4F3C
:102D2000C5E1D4E0EDB7FEB7D283C1838EE292E075
:102D3000F8019383828387E590E09583848380E71D
:102D400090E09783868380915F0480871186138645
:102D5000128660915D0470915E0480E090E00E94B4
:102D60002437209178043091790440917A0450916D
:102D70007B040E945938F801648775878687978796
:102D800080917D04808B118A0E94C3298DB79EB7E4
:102D900042960FB6F8949EBF0FBE8DBF80919004EF
:102DA00060E00E94D90980913B04853039F08A3077
:102DB00029F08B3019F08F3009F047C0EDB7FEB71E
:102DC00070970FB6F894FEBF0FBEEDBF0DB71EB7DC
:102DD0000F5F1F4F85E194E09283818380E492E04E
:102DE000F8019383828380E290E09583848388E571
:102DF00090E09783868385E690E091878087609155
:102E00009104709192048091930490919404209184
:102E100078043091790440917A0450917B040E94A7
:102E20005938F801628773878487958780917D047C
:102E3000868717860E94C3298DB79EB740960FB626
:102E4000F8949EBF0FBE8DBF10C000D000D0EDB76C
:102E5000FEB7D283C18386ED90E0948383830E9482
:102E6000B2290F900F900F900F9085E194E00E948F
:102E70003A04DF91CF911F910F91FF90EF90089549
:102E8000CF92DF92EF92FF920F931F937C01D62E89
:102E9000C72E05E114E0C8016E2D4D2D0E947E0362
:102EA000C8010E94560400D000D0EDB7FEB71283CF
:102EB00001838FED90E0948383830E94B2290F9069
:102EC0000F900F900F90C8010E943A04C70101961D
:102ED0006D2D7C2D0E948D0A1F910F91FF90EF9018
:102EE000DF90CF9008950F931F9305E114E0C80180
:102EF00065E045E00E947E03C8010E94560400D0B0
:102F000000D0EDB7FEB71283018387E291E094838E
:102F100083830E94B2290F900F900F900F90C801E9
:102F20000E943A041F910F9108950E9473170E9406
:102F30001A080895EF92FF920F931F939091B30494
:102F4000913051F48091C304882309F4B4C0909364
:102F5000F0021092C304AFC08091C4048430C9F55C
:102F600080914504833009F09BC08091C50488237B
:102F700021F585EC94E00E947430892BF1F060918A
:102F8000890470918A0480918B0490918C040E9432
:102F900026372091460430914704409148045091CF
:102FA00049040E948B360E94F8367093D5046093D2
:102FB000D40485EC94E00E947E302091D4043091BA
:102FC000D5048091E0029091E10282179307A0F569
:102FD0002BC0853029F4809161049091620414C063
:102FE000863029F480916304909164040DC0873089
:102FF00029F4809165049091660406C0883041F4FC
:1030000080916704909168049093CE048093CD04DE
:103010008091CF042091CD043091CE04882381F497
:1030200084E0203B380718F41092D60439C02950A8
:10303000374010F082E001C081E08093D60430C0B8
:10304000215B344068F1E090D004F090D10400910D
:10305000D2041091D30488EE93E0A0E0B0E0E80E33
:10306000F91E0A1F1B1F0E949F32E616F70608076B
:103070001907B0F481E08093F0028091C3048F5F60
:103080008093D604833010F01092D6040E949F32B1
:103090006093D0047093D1048093D2049093D304AE
:1030A0009091D6048091C304891729F081E0809320
:1030B000F0029093C3041F910F91FF90EF90089539
:1030C0008091C304A82FB0E0FD01E058FC4F80813F
:1030D00080FF0BC0FD01E652FC4F6081A852BC4F3F
:1030E0008C9190E070E00E942E108091F002882375
:1030F00031F085E194E00E94A3041092F0028091E7
:10310000C404843010F00E949A1788EF93E06EE4B4
:1031100072E00E94463588EF93E06091B3044AE084
:1031200050E00E94E13488EF93E065E572E00E9490
:1031300046356091F00288EF93E070E04AE050E09D
:103140000E94333588EF93E06CE572E00E944635CB
:1031500088EF93E06091C3044AE050E00E94E134BC
:1031600088EF93E065E672E00E9449358091C304E0
:10317000823009F426C2A82FB0E0FD01E658FC4FCA
:10318000808181FF0BC0FD01EA57FC4F6081AC5785
:10319000BC4F8C9190E070E00E949A0E8091C30425
:1031A000A82FB0E0FD01E658FC4F808182FF0BC0E4
:1031B000FD01E657FC4F6081A857BC4F8C9190E011
:1031C00070E00E945A0E8091C304A82FB0E0FD0168
:1031D000E658FC4F808183FF0BC0FD01E257FC4F96
:1031E0006081A457BC4F8C9190E070E00E94140E57
:1031F0008091C304A82FB0E0FD01E658FC4F808108
:1032000080FF0BC0FD01EE56FC4F6081A057BC4F04
:103210008C9190E070E00E94CE0D8091C304A82FA5
:10322000B0E0FD01E658FC4F808185FF0BC0FD0139
:10323000EA56FC4F6081AC56BC4F8C9190E070E038
:103240000E94820D8091C304A82FB0E0FD01E658D2
:10325000FC4F808187FF0BC0FD01E256FC4F60816F
:10326000A456BC4F8C9190E070E00E94300D80918C
:10327000C304A82FB0E0FD01E658FC4F808184FF15
:103280000BC0FD01EE55FC4F6081A056BC4F8C91E8
:1032900090E070E00E94AA0F8091C304A82FB0E0D4
:1032A000FD01E458FC4F808180FF0BC0FD01EA5511
:1032B000FC4F6081AC55BC4F8C9190E070E00E9457
:1032C000B00C8091C304A82FB0E0FD01E458FC4F7E
:1032D000808181FF0BC0FD01E655FC4F6081A85540
:1032E000BC4F8C9190E070E00E94EE0C8091C30482
:1032F000A82FB0E0FD01E458FC4F808184FF0BC093
:10330000FD01EE54FC4F6081A055BC4F8C9190E0C4
:1033100070E00E94DA0E8091C304A82FB0E0FD0196
:10332000E458FC4F808183FF0BC0FD01E255FC4F48
:103330006081A455BC4F8C9190E070E00E94980C85
:103340008091C304A82FB0E0FD01E458FC4F8081B8
:1033500087FF0BC0FD01E654FC4F6081A854BC4FB1
:103360008C9190E070E00E94330F80915F0488237D
:10337000A9F08091C304A82FB0E0FD01E458FC4FF0
:10338000808186FF0BC0FD01EA54FC4F6081AC5484
:10339000BC4F8C9190E070E00E9410168091C304A5
:1033A000A82FB0E0FD01E258FC4F808182FF0BC0E6
:1033B000FD01EE53FC4F6081A054BC4F8C9190E016
:1033C00070E00E9444138091C304A82FB0E0FD0177
:1033D000E258FC4F808183FF0BC0FD01EA53FC4F94
:1033E0006081AC53BC4F8C9190E070E00E9456120B
:1033F0008091C304A82FB0E0FD01E258FC4F80810A
:1034000081FF0BC0FD01E653FC4F6081A853BC4F08
:103410008C9190E070E00E94FF118091C304A82F6E
:10342000B0E0FD01E258FC4F808184FF0BC0FD013C
:10343000E253FC4F6081A453BC4F8C9190E070E04C
:103440000E94F00F8091C304A82FB0E0FD01E25864
:10345000FC4F808185FF0BC0FD01EE52FC4F608167
:10346000A053BC4F8C9190E070E00E943D0C809185
:10347000C304A82FB0E0FD01E258FC4F808186FF15
:103480000BC0FD01EA52FC4F6081AC52BC4F8C91E5
:1034900090E070E00E9440178091C304A82FB0E034
:1034A000FD01E258FC4F808180FF0BC0FD01E2541A
:1034B000FC4F6081A454BC4F8C9190E070E00E945E
:1034C0009B138091C304A82FB0E0FD01E058FC4F8E
:1034D000808183FF0BC0FD01EE51FC4F6081A05243
:1034E000BC4F8C9190E070E00E94AD128091C304BB
:1034F000A82FB0E0FD01E058FC4F808186FF0BC093
:10350000FD01EA51FC4F6081AC51BC4F8C9190E0C1
:1035100070E00E9432148091C304A82FB0E0FD0136
:10352000E058FC4F808185FF0BC0FD01E651FC4F48
:103530006081A851BC4F8C9190E070E00E94F01324
:103540008091C304A82FB0E0FD01EE57FC4F8081AD
:1035500081FF0BC0FD01EE50FC4F6081A051BC4FBC
:103560008C9190E070E00E940F158091C304A82F09
:10357000B0E0FD01EE57FC4F808180FF0BC0FD01E4
:10358000E251FC4F6081A451BC4F8C9190E070E0FF
:103590000E94B3148091C304A82FB0E0FD01EE5740
:1035A000FC4F808182FF0BC0FD01EA50FC4F60811F
:1035B000AC50BC4F8C9190E070E00E9470150E945E
:1035C00034060895CF93DF93EC0185E194E00E94E7
:1035D0007A03C817D9073CF085E194E00E946F0395
:1035E000892B09F42397CE01DF91CF910895EF92B3
:1035F000FF920F931F93CF93DF930091C30410E0CA
:103600008AEF90E0089F7001099FF00C189FF00C62
:103610001124C70188569F4F0E94D309F801E6582C
:10362000FC4F882319F08081806102C080818F7EE9
:1036300080838091C304C82FD0E0C70186569F4F76
:103640000E94D309C056DC4F88838091C304C82FE1
:10365000D0E0C70184569F4F0E94D30990E00E949A
:10366000E21ACE55DC4F88830091C30410E0C701F5
:1036700006960E94D309F801E658FC4F882319F0FA
:103680008081826002C080818D7F80838091C304AD
:10369000C82FD0E0C70108960E94D309CC57DC4F51
:1036A00088838091C304C82FD0E0C7010A960E9486
:1036B000D30990E00E94E21ACA57DC4F8883009138
:1036C000C30410E0C7010C960E94D309F801E65824
:1036D000FC4F882319F08081846002C080818B7F39
:1036E00080838091C304C82FD0E0C7010E960E944A
:1036F000D309C857DC4F88838091C304C82FD0E01A
:10370000C70140960E94D30990E00E94E21AC65772
:10371000DC4F88830091C30410E0C70142960E94E9
:10372000D309F801E658FC4F882319F0808188609E
:1037300002C08081877F80838091C304C82FD0E03E
:10374000C70144960E94D309C457DC4F88838091F7
:10375000C304C82FD0E0C70146960E94D30990E069
:103760000E94E21AC257DC4F88830091C30410E024
:10377000C70148960E94D309F801E658FC4F8823F8
:1037800019F08081816002C080818E7F808380916A
:10379000C304C82FD0E0C7014A960E94D309C0577E
:1037A000DC4F88838091C304C82FD0E0C7014C96BA
:1037B0000E94D30990E00E94E21ACE56DC4F888323
:1037C0000091C30410E0C7014E960E94D309F8018E
:1037D000E658FC4F882319F08081806202C0808106
:1037E0008F7D80838091C304C82FD0E0C70180966D
:1037F0000E94D309CC56DC4F88838091C304C82F24
:10380000D0E0C70182960E94D30990E00E94E21A9C
:10381000CA56DC4F88830091C30410E0C701849628
:103820000E94D309F801E658FC4F882319F08081E3
:10383000806402C080818F7B80838091C304C82F05
:10384000D0E0C70186960E94D309C856DC4F888312
:103850008091C304C82FD0E0C70188960E94D30985
:1038600090E00E94E21AC656DC4F88830091C304A0
:1038700010E0C7018A960E94D309F801E658FC4F70
:10388000882319F08081806802C080818F778083CF
:103890008091C304C82FD0E0C7018C960E94D30941
:1038A000C456DC4F88838091C304C82FD0E0C70181
:1038B0008E960E94D30990E00E94E21AC256DC4F15
:1038C00088830091C30410E0C701C0960E94D30909
:1038D000F801E458FC4F882319F08081816002C010
:1038E00080818E7F80838091C304C82FD0E0C70180
:1038F000C2960E94D309CC55DC4F88838091C304C3
:10390000C82FD0E0C701C4960E94D30990E00E945E
:10391000E21ACA55DC4F88830091C30410E0C70146
:10392000C6960E94D309F801E458FC4F882319F089
:103930008081826002C080818D7F80838091C304FA
:10394000C82FD0E0C701C8960E94D309C855DC4FE4
:1039500088838091C304C82FD0E0C701CA960E9413
:10396000D30990E00E94E21AC655DC4F888300918B
:10397000C30410E0C701885B9F4F0E94D309F80180
:10398000E458FC4F882319F08081806102C0808157
:103990008F7E80838091C304C82FD0E0C701865BEF
:1039A0009F4F0E94D309C055DC4F88838091C30488
:1039B000C82FD0E0C701845B9F4F0E94D30990E0DD
:1039C0000E94E21ACE54DC4F88830091C30410E0B9
:1039D000C7018E5B9F4F0E94D309F801E458FC4F4A
:1039E000882319F08081886002C08081877F80836E
:1039F0008091C304C82FD0E0C7018C5B9F4F0E9409
:103A0000D309C455DC4F88838091C304C82FD0E00C
:103A1000C7018A5B9F4F0E94D30990E00E94E21A7F
:103A2000C255DC4F88830091C30410E0C7018A5A55
:103A30009F4F0E94D309F801E458FC4F882319F0E6
:103A40008081806402C080818F7B80838091C304E9
:103A5000C82FD0E0C701885A9F4F0E94D309CC5489
:103A6000DC4F88838091C304C82FD0E0C701865AF9
:103A70009F4F0E94D30990E00E94E21ACA54DC4F83
:103A800088830091C30410E0C70182569F4F0E94B3
:103A9000D309F801E458FC4F882319F0808180682D
:103AA00002C080818F7780838091C304C82FD0E0CB
:103AB000C70180569F4F0E94D309C854DC4F8883AA
:103AC0008091C304C82FD0E0C7018E559F4F0E943C
:103AD000D30990E00E94E21AC654DC4F888300911B
:103AE000C30410E0C7018E599F4F0E94D309F8010B
:103AF000E258FC4F882319F08081816002C08081E8
:103B00008E7F80838091C304C82FD0E0C7018C5979
:103B10009F4F0E94D309C454DC4F88838091C30413
:103B2000C82FD0E0C7018A599F4F0E94D30990E067
:103B30000E94E21AC254DC4F88830091C30410E053
:103B4000C70182599F4F0E94D309F801E258FC4FE8
:103B5000882319F08081846002C080818B7F8083FC
:103B60008091C304C82FD0E0C70180599F4F0E94A5
:103B7000D309C054DC4F88838091C304C82FD0E0A0
:103B8000C7018E589F4F0E94D30990E00E94E21A0D
:103B9000CE53DC4F88830091C30410E0C7018E56DA
:103BA0009F4F0E94D309F801E258FC4F882319F077
:103BB0008081826002C080818D7F80838091C30478
:103BC000C82FD0E0C7018C569F4F0E94D309C8531D
:103BD000DC4F88838091C304C82FD0E0C7018A5688
:103BE0009F4F0E94D30990E00E94E21AC653DC4F17
:103BF00088830091C30410E0C7018C589F4F0E9436
:103C0000D309F801E258FC4F882319F080818860BD
:103C100002C08081877F80838091C304C82FD0E059
:103C2000C7018A589F4F0E94D309CC53DC4F888329
:103C30008091C304C82FD0E0C70188589F4F0E94CD
:103C4000D30990E00E94E21ACA53DC4F88830091A6
:103C5000C30410E0C70186589F4F0E94D309F801A2
:103C6000E258FC4F882319F08081806102C0808176
:103C70008F7E80838091C304C82FD0E0C701845811
:103C80009F4F0E94D309C453DC4F88838091C304A3
:103C9000C82FD0E0C70182589F4F0E94D30990E0FF
:103CA0000E94E21AC253DC4F88830091C30410E0E3
:103CB000C70180589F4F0E94D309F801E258FC4F7A
:103CC000882319F08081806202C080818F7D80838B
:103CD0008091C304C82FD0E0C7018E579F4F0E9428
:103CE000D309C053DC4F88838091C304C82FD0E030
:103CF000C7018C579F4F0E94D30990E00E94E21A9F
:103D0000CE52DC4F88830091C30410E0C7018A576C
:103D10009F4F0E94D309F801E258FC4F882319F005
:103D20008081806402C080818F7B80838091C30406
:103D3000C82FD0E0C70188579F4F0E94D309CC52AB
:103D4000DC4F88838091C304C82FD0E0C701865719
:103D50009F4F0E94D30990E00E94E21ACA52DC4FA2
:103D600088830091C30410E0C7018C559F4F0E94C7
:103D7000D309F801E058FC4F882319F08081816055
:103D800002C080818E7F80838091C304C82FD0E0E1
:103D9000C7018A559F4F0E94D309C852DC4F8883C0
:103DA0008091C304C82FD0E0C70188559F4F0E945F
:103DB000D30990E00E94E21AC652DC4F888300913A
:103DC000C30410E0C70180559F4F0E94D309F8013A
:103DD000E058FC4F882319F08081846002C0808104
:103DE0008B7F80838091C304C82FD0E0C7018E549D
:103DF0009F4F0E94D309C452DC4F88838091C30433
:103E0000C82FD0E0C7018C549F4F0E94D30990E087
:103E10000E94E21AC252DC4F88830091C30410E072
:103E2000C7018A549F4F0E94D309F801E058FC4F04
:103E3000882319F08081886002C08081877F808319
:103E40008091C304C82FD0E0C70188549F4F0E94BF
:103E5000D309C052DC4F88838091C304C82FD0E0BF
:103E6000C70186549F4F0E94D30990E00E94E21A36
:103E7000CE51DC4F88830091C30410E0C701845AFF
:103E80009F4F0E94D309F801E058FC4F882319F096
:103E90008081806402C080818F7B80838091C30495
:103EA000C82FD0E0C701825A9F4F0E94D309CC513E
:103EB000DC4F88838091C304C82FD0E0C701805AAB
:103EC0009F4F0E94D30990E00E94E21ACA51DC4F32
:103ED00088830091C30410E0C70188539F4F0E945C
:103EE000D309F801E058FC4F882319F080818062E3
:103EF00002C080818F7D80838091C304C82FD0E071
:103F0000C70186539F4F0E94D309C851DC4F888355
:103F10008091C304C82FD0E0C70184539F4F0E94F3
:103F2000D30990E00E94E21AC651DC4F88830091C9
:103F3000C30410E0C70182539F4F0E94D309F801C8
:103F4000EE57FC4F882319F08081816002C0808188
:103F50008E7F80838091C304C82FD0E0C701805337
:103F60009F4F0E94D309C451DC4F88838091C304C2
:103F7000C82FD0E0C7018E529F4F0E94D30990E016
:103F80000E94E21AC251DC4F88830091C30410E002
:103F9000C7018C529F4F0E94D309F801EE57FC4F86
:103FA000882319F08081826002C080818D7F8083A8
:103FB0008091C304C82FD0E0C7018A529F4F0E944E
:103FC000D309C051DC4F88838091C304C82FD0E04F
:103FD000C70188529F4F0E94D30990E00E94E21AC5
:103FE000CE50DC4F88830091C30410E0C70180529B
:103FF0009F4F0E94D309F801EE57FC4F882319F018
:104000008081846002C080818B7F80838091C30423
:10401000C82FD0E0C7018E519F4F0E94D309CC50CA
:10402000DC4F88838091C304C82FD0E0C7018C5136
:104030009F4F0E94D30990E00E94E21ACA50DC4FC1
:104040008883DF91CF911F910F91FF90EF9008959A
:10405000482F8BEB95E00E94893008950F931F93B2
:104060000091C3048AEF089F800111240A5F1F4F4B
:1040700081E0B8010E9428200E5F1F4F87E1B80140
:104080000E9428200E5F1F4F8BE0B8010E9428205D
:104090000E5F1F4F81E0B8010E9428200E5F1F4F66
:1040A0008CE0B8010E9428200E5F1F4F81E0B8010C
:1040B0000E9428200E5F1F4F81E0B8010E94282037
:1040C0000E5F1F4F8EE0B8010E9428200E5F1F4F29
:1040D0008EE0B8010E9428200E5F1F4F81E0B801DA
:1040E0000E9428200E5F1F4F85E1B8010E94282002
:1040F0000E5F1F4F83E0B8010E9428200E5F1F4F04
:1041000081E0B8010E9428200E5F1F4F81E0B801B6
:104110000E9428200E5F1F4F8BE0B8010E942820CC
:104120000E5F1F4F81E0B8010E9428200E5F1F4FD5
:1041300085E0B8010E9428200E5F1F4F8BE0B80178
:104140000E9428200E5F1F4F81E0B8010E942820A6
:104150000E5F1F4F81E0B8010E9428200E5F1F4FA5
:104160008EE0B8010E9428200E5F1F4F81E0B80149
:104170000E9428200E5F1F4F85E1B8010E94282071
:104180000E5F1F4F8FE0B8010E9428200E5F1F4F67
:1041900081E0B8010E9428200E5F1F4F88E1B8011E
:1041A0000E9428200E5F1F4F8EE0B8010E94282039
:1041B000085F1F4F81E0B8010E9428200E5F1F4F4B
:1041C0008EE0B8010E9428200E5F1F4F83E0B801E7
:1041D0000E9428200E5F1F4F81E0B8010E94282016
:1041E0000E5F1F4F86E1B8010E9428200E5F1F4F0F
:1041F00081E0B8010E94282080E066E570E00E941E
:10420000282089E068E570E00E9428208EE06AE5B9
:1042100070E00E942820005F1F4F81E0B8010E94DB
:1042200028200E5F1F4F88E0B8010E9428200E5FF3
:104230001F4F8DE0B8010E9428200E5F1F4F81E0C4
:10424000B8010E9428200E5F1F4F8EE0B8010E9427
:1042500028200E5F1F4F8FE0B8010E942820085FC2
:104260001F4F81E0B8010E9428200E5F1F4F86E19A
:10427000B8010E9428200E5F1F4F83E0B8010E9402
:1042800028200E5F1F4F81E0B8010E9428200E5F9A
:104290001F4F81E0B8010E9428200E5F1F4F82E06F
:1042A000B8010E942820065E1F4F81E0B8010E94DD
:1042B00028200E5F1F4F81E0B8010E9428200E5F6A
:1042C0001F4F81E0B8010E9428200E5F1F4F81E040
:1042D000B8010E9428200E5F1F4F81E0B8010E94A4
:1042E00028200E5F1F4F84E0B8010E9428200E5F37
:1042F0001F4F81E0B8010E9428200E5F1F4F87E109
:10430000B8010E9428200E5F1F4F8DE0B8010E9467
:1043100028200852104081E0B8010E9428200E5F3A
:104320001F4F81E0B8010E9428200E5F1F4F83E0DD
:10433000B8010E9428200E5F1F4F81E0B8010E9443
:1043400028200E5F1F4F81E0B8010E9428200E5FD9
:104350001F4F8DE0B8010E9428200E5F1F4F81E0A3
:10436000B8010E9428200E5F1F4F88E0B8010E940C
:1043700028200E5F1F4F86E0B8010E942820065EAD
:104380001F4F81E0B8010E9428200E5F1F4F89E077
:10439000B8010E9428200E5F1F4F84E0B8010E94E0
:1043A0002820085F1F4F80E0B8010E9428200E5F80
:1043B0001F4F88E1B8010E9428200E5F1F4F87E041
:1043C000B8010E9428200E5F1F4F81E0B8010E94B3
:1043D00028200E5F1F4F81E0B8010E9428200E5F49
:1043E0001F4F88E0B8010E942820065E1F4F80E022
:1043F000B8010E9428200E5F1F4F86E1B8010E947D
:1044000028200E5F1F4F8EE0B8010E942820085F11
:104410001F4F80E0B8010E9428200E5F1F4F86E1E9
:10442000B8010E9428200E5F1F4F82E0B8010E9451
:1044300028208EE16CE773E00E94282080E06EE780
:1044400073E00E94282084E660E873E00E94282040
:1044500084E662E873E00E94282086E06AE873E060
:104460000E94282081E064EA73E00E94282081E015
:1044700065EA73E00E94282081E06AEA73E00E9406
:10448000282081E06BEA73E00E94282081E066EA40
:1044900073E00E94282081E068EA73E00E942820EF
:1044A00080E06CEA73E00E94282081E06EEA73E00D
:1044B0000E94282080E060EB73E00E9428201F917A
:1044C0000F9108950F931F938AE268EE73E00E94A4
:1044D000282084E26EEE73E00E9428201092C3042C
:1044E00007C00E942E208091C3048F5F8093C30475
:1044F0008091C3048230A8F305E114E0C80164E0B0
:1045000049E00E947E03C8010E94560400D000D0FA
:10451000EDB7FEB71283018381E591E09483838335
:104520000E94B2290F900F900F900F90C8010E9427
:104530003A04FFCF4F925F927F928F929F92AF92F9
:10454000BF92CF92DF92EF92FF920F931F93DF9370
:10455000CF93CDB7DEB7C854D0400FB6F894DEBFC6
:104560000FBECDBF85E194E00E94A30400D000D02F
:1045700008EF13E0EDB7FEB71283018384E791E003
:10458000948383830E94B22959E6452E51E0552E2B
:10459000EE24FF24CC24DD240F900F900F900F9079
:1045A000702E012F49E0A42EB12CAC0EBD1E4E0181
:1045B0000894811C911C88EF93E00E94662A982F32
:1045C0008D3031F08D30DCF180538230C0F530C059
:1045D0001830A1F59981892F8053823078F5913375
:1045E00011F490E801C090E08A81813309F4905C75
:1045F0008B81813309F4905E8C81813309F4905F63
:104600008D81813309F4985F8E81813309F49C5F39
:104610008F81813309F49E5F8885813309F49F5F20
:10462000F501EE0DFF1D90830894E11CF11C06C0FE
:10463000F401E10FF11D90831F5F01C010E0F0E471
:10464000EF16F104C9F485E194E0B601A5010E94DA
:104650008E030894C11CD11C00D000D0EDB7FEB76A
:1046600071820283548243820E94B229EE24FF2485
:104670000F900F900F900F90FFEFCF16D10409F01D
:104680000CF499CFC85BDF4F0FB6F894DEBF0FBEB6
:10469000CDBFCF91DF911F910F91FF90EF90DF90F1
:1046A000CF90BF90AF909F908F907F905F904F90F2
:1046B0000895EF92FF920F931F93DF93CF93CDB79F
:1046C000DEB766970FB6F894DEBF0FBECDBF7E0192
:1046D0000894E11CF11C01E02BC188EF93E00E94DB
:1046E000662A182F80913404882301F50E949F3296
:1046F00060527E4480409040C8F40E949F326958C6
:1047000073418040904090F01A3011F01D3031F428
:10471000809135048F5F8093350402C01092350478
:1047200080913504833011F40E949A22812FB701C1
:104730000E94A228882309F4FBC00093340400934C
:1047400036040E949F320E9424376093370470938E
:1047500038048093390490933A0489819A81833094
:10476000910509F493C08430910554F4813091058A
:10477000C9F0823091050CF07CC0892B69F0D8C05B
:104780008630910509F4B8C08730910509F4C5C099
:10479000049709F0CDC08AC08B8180933B041092AE
:1047A0003C04C6C06B817C818D819E810E9426372E
:1047B00020E836E948E15BE40E948B3660933D04D3
:1047C00070933E0480933F04909340046F817885FA
:1047D00089859A850E94263720E836E948E15BE41E
:1047E0000E948B366093410470934204809343048B
:1047F000909344048F85809345046B857C858D85DB
:104800009E850E94263760934604709347048093E8
:10481000480490934904888980934A0469897A8975
:1048200080E090E00E94243760934B0470934C0426
:1048300080934D0490934E046B897C8980E090E0D6
:104840000E94243760934F04709350048093510466
:10485000909352046D897E8980E090E00E94243715
:1048600060935304709354048093550490935604BA
:104870005FC08B819C8190935804809357048D81F5
:104880009E8190935A048093590452C08B819C81DD
:1048900090935C0480935B048D819E8190935E0471
:1048A00080935D04898580935F0442C08B819C81E5
:1048B000885E93406AE070E00E94AA3960936004C9
:1048C0008D819E8190936204809361048F8198858D
:1048D000909364048093630489859A859093660419
:1048E000809365048B859C8590936804809367040E
:1048F0008B89809369041CC06B817C81882777FD3C
:104900008095982F0E94263760936A0470936B04F9
:1049100080936C0490936D040BC064EF71E080E0B1
:1049200090E00E94AD32E0913204F0913304099599
:1049300088EF93E00E94362A181619060CF4CDCEA3
:1049400066960FB6F894DEBF0FBECDBFCF91DF9154
:104950001F910F91FF90EF900895EF92FF920F93A8
:104960001F93E0900105F09002050091030510915E
:1049700004058FE590E0A0E0B0E0E80EF91E0A1F04
:104980001B1F0E949F326E157F058007910708F458
:104990001BC10E949F320E949F3260930105709359
:1049A0000205809303059093040587E00E94443339
:1049B000AA2797FDA095BA2FBC01CD010E942637EA
:1049C00020E030E849E85FE30E9459382091FB027B
:1049D0003091FC024091FD025091FE020E948B3604
:1049E0002DEC3CEC4CE45EE30E9459387B018C01D9
:1049F00060910703709108038091090390910A0365
:104A00002DEC3CEC4CE45FE30E9459389B01AC0177
:104A1000C801B7010E94BE35DC019B01AC012093A7
:104A20000703309308034093090350930A03CB0113
:104A30008093A5049093A604A093A704B093A80420
:104A400086E00E944433AA2797FDA095BA2FBC01A7
:104A5000CD010E94263720E030E849E85FE30E945C
:104A600059382091FF023091000340910103509189
:104A700002030E948B362DEC3CEC4CE45EE30E947A
:104A800059387B018C0160910B0370910C0380916C
:104A90000D0390910E032DEC3CEC4CE45FE30E947F
:104AA00059389B01AC01C801B7010E94BE35DC0139
:104AB0009B01AC0120930B0330930C0340930D0337
:104AC00050930E03CB018093A1049093A204A09372
:104AD000A304B093A40481E00E9444339093E304C0
:104AE0008093E204609103037091040380910503B5
:104AF0009091060320E030E040E050E00E944E3804
:104B000018160CF061C082E00E944433AA2797FD7A
:104B1000A095BA2FBC01CD010E94263720E030E8D5
:104B200049E85FE30E9459387B018C016091FD04E4
:104B30007091FE048091FF049091000520E030E028
:104B400040E251EC0E948B369B01AC01C801B701D9
:104B50000E94BE3520910303309104034091050368
:104B6000509106030E948B362DEC3CEC4CEC5DE33F
:104B70000E9459387B018C016091050570910605F2
:104B8000809107059091080526E636E646E65FE344
:104B90000E9459389B01AC01C801B7010E94BE3583
:104BA00060930505709306058093070590930805AB
:104BB00020E030E048EC52E40E9459380E94F3367D
:104BC0007093C2046093C1041F910F91FF90EF9006
:104BD000089583E00E9441336091E6027091E702FC
:104BE0008091E8029091E9022DEC3CEC4CE85FE307
:104BF0000E94593860930703709308038093090358
:104C000090930A036091EC027091ED028091EE02A4
:104C10009091EF022DEC3CEC4CE85FE30E94593898
:104C200060930B0370930C0380930D0390930E031A
:104C3000089586E061E00E94A533089580910905FA
:104C40008130A1F41092090585E194E00E94A3044B
:104C500010920F030E949F320E9424376093370402
:104C6000709338048093390490933A040E94592336
:104C700087E294E00E94E33008950F931F93CF934F
:104C8000DF9386E061E00E94663388EF93E040E0C6
:104C900051EE60E070E00E94D4290E941926C5E11F
:104CA000D4E0CE010E9422050E94951764EF71E0C6
:104CB00080E090E00E94AD3288EE93E00E94D3093C
:104CC000082F8EEE93E00E94D30910E0080F111D0B
:104CD0000E341105E9F0CE0166E049E00E947E0342
:104CE000CE010E94560400D000D0EDB7FEB7D283AB
:104CF000C18384E891E0948383830E94B2290F905A
:104D00000F900F900F90CE010E943A040E946222F1
:104D10000E94A6081092C30407C00E94F71A80914F
:104D2000C3048F5F8093C3048091C3048230A8F3CF
:104D30001092C30460ED77E080E090E00E94AD3215
:104D400088EF93E00E94B32A87E294E06CE478E273
:104D500028E730E040E050E000E00E9495300E94FB
:104D6000E92585E194E00E94A30487E294E00E9493
:104D7000FB30DF91CF911F910F9108952F923F92B9
:104D80004F925F926F927F928F929F92AF92BF925B
:104D9000CF92DF92EF92FF920F931F93DF93CF9307
:104DA00000D000D0CDB7DEB7E0904604F0904704C5
:104DB0000091480410914904C801B70120911305DE
:104DC0003091140540911505509116050E94BD358E
:104DD000609385047093860480938704909388047D
:104DE000A0901705AA2049F580914504833009F069
:104DF0003CC180913D0490913E04A0913F04B0914C
:104E000040048093180590931905A0931A05B09358
:104E10001B058091410490914204A0914304B091FC
:104E2000440480931C0590931D05A0931E05B09328
:104E30001F0581E08093170518C181E0A81609F0CD
:104E400014C160902005E8E1E61580F1609121052C
:104E5000709122058091230590912405A801970166
:104E60000E94BD359F7720E030E040E05FE30E9484
:104E70004E3818165CF410922005E0922105F0924D
:104E80002205009323051093240510C0862D8F5F03
:104E900080932005893151F4E0921305F0921405B6
:104EA0000093150510931605A0920A05E0901805C9
:104EB000F090190500911A0510911B05C801B70162
:104EC0009F7725E33AEF4EE85CE30E9459380E9451
:104ED000883669837A838B839C83C801B7012091CC
:104EE0003D0430913E0440913F04509140040E94A3
:104EF000BD351B012C019F7720EC3BE649ED57E4C3
:104F00000E9459385B016C0160911C0570911D0570
:104F100080911E0590911F0520914104309142041B
:104F200040914304509144040E94BD353B014C0123
:104F30009F7720EC3BE649ED57E40E9459382981E0
:104F40003A814B815C810E9459387B018C01C601FA
:104F5000B501A60195010E9459385B016C01C80199
:104F6000B701A80197010E9459389B01AC01C60105
:104F7000B5010E94BE350E94E0380E94F33660936E
:104F8000890470938A0480938B0490938C0460E06E
:104F900070E080E89FE329813A814B815C810E9427
:104FA0008B369B01AC01C201B1010E94593897FABE
:104FB000909497F89094A40193010E94313620EECA
:104FC0003EE245E652E40E94593820E030E044EBEE
:104FD00052E40E94BE350E94F3369B01AC0197FF5C
:104FE00004C028593E4F4F4F5F4FCA01B901645B5F
:104FF00070408040904097FF06C0CA01B9016C54D0
:105000007F4F8F4F9F4F0E9426372091530430913E
:10501000540440915504509156040E94BD350E949D
:10502000F33697FF04C068597E4F8F4F9F4F0E9401
:10503000263720E030E044EB53E40E948B3620E03A
:1050400030E040E851E40E9459380E94BC3820E02A
:1050500030E040E85FE30E94BE350E94F83660937E
:105060008D04613110F010928D040F900F900F900D
:105070000F90CF91DF911F910F91FF90EF90DF90F4
:10508000CF90BF90AF909F908F907F906F905F90E8
:105090004F903F902F9008950E94070C85E194E077
:1050A0000E94BE260E94AD240E9460180E946306E2
:1050B00008950F931F9389E295E06CE270E00E94DF
:1050C0002C038C010F5F1F4F1093260500932505BD
:1050D000C8016CE270E00E942C03FC01909328054B
:1050E00080932705012B41F0009731F01082209129
:1050F00025053091260502C020E133E0C9011F914A
:105100000F9108958091270590912805009781F0CF
:10511000019690932605809325056CE270E00E942D
:105120002C03FC019093280580932705009719F420
:1051300020E133E005C0108220912505309126053D
:10514000C9010895EF92FF920F931F93CF93DF93BE
:10515000EB01843209F0DAC088EF93E06AE049E2BB
:1051600055E020E830E00E948835882309F4CEC05D
:10517000E82FF0E0E85DFA4F80818D3009F0C6C07D
:105180001082809129058D3409F46EC08E344CF460
:10519000833409F481C08934E1F0813409F0B6C068
:1051A0002AC0823509F4ADC0833524F4803509F076
:1051B000ADC007C0853509F492C08A3509F0A6C094
:1051C00097C0198218820E9459280E94DC028A83A3
:1051D00010C082E090E0998388830E9459280E9441
:1051E000DC029D838C830E9482280E94DC029B83C8
:1051F0008A8381E08CC081E090E0998388830E945B
:1052000059280E94FA026A837B838C839D830E94C3
:1052100082280E94FA026E837F83888799870E9482
:1052200082280E94DC028F870E9482280E94FA0254
:105230006A877B878C879D870E9482280E94DC0278
:10524000888B198A0E9482280E94DC028A8B1B8A22
:105250000E9482280E94DC029D8B8C8B0E948228F7
:105260000E94DC028E87C5CF83E090E0998388831B
:105270000E9459280E94FA027B836A830E94822836
:105280000E94FA026C837D838E839F830E94822812
:105290000E94DC028887ADCF84E090E09983888308
:1052A0000E9459280E94DC029B838A837E0101E0D0
:1052B00010E00E9482280E94DC02F701958384831B
:1052C0000F5F1F4F82E090E0E80EF91E05301105D8
:1052D00081F70E9482280E94DC028A8B8ACF85E0B7
:1052E00090E0998388830E9459280E94DC027FCF36
:1052F00086E090E0998388830E9459280E94DC020E
:1053000076CF87E090E09983888373CF80E0DF9148
:10531000CF911F910F91FF90EF9008956EBD0DB446
:1053200007FEFDCF8EB508958DE061E00E946633E3
:105330008BE061E00E9466338CE060E00E9466339F
:105340008AE061E00E9466331CBC80E58CBD8DB5AF
:105350008EB5089589EA95E00E94942908958FEF0B
:105360009FE70895DF93CF93CDB7DEB7FE0139965F
:105370008D819E8161E04F8158859F010E94532C51
:10538000CF91DF910895DF93CF93CDB7DEB7FE01C4
:1053900039968D819E8160E04F8158859F010E94E2
:1053A000532CCF91DF9108950F931F93DC01ED9162
:1053B000FC910288F389E02D20E030E000E010E06D
:1053C00009951F910F9108958F92AF92CF92EF920E
:1053D000FF920F931F93DF93CF93CDB7DEB7FC01FE
:1053E0001382128288EE93E0A0E0B0E0848395837C
:1053F000A683B78384E693E09183808355874487AF
:1054000037872687118B008BF38AE28AC48AA58AA4
:10541000868A70E0CB0123E0880F991F2A95E1F777
:105420009C0126553A4F308F278B8E549A4F928F7E
:10543000818F81E090E002C0880F991F6A95E2F7A2
:105440002091BA05282B2093BA05CF0140E051EEF8
:1054500060E070E00E94D429CF91DF911F910F91FD
:10546000FF90EF90CF90AF908F900895FC01838DC7
:10547000882319F42FEF3FEF0DC00788F08DE02D42
:105480002081318182819381281B390B8481958110
:1054900028233923C9010895FC01838D882319F439
:1054A0002FEF3FEF11C0018CF28DE02D2081318173
:1054B00082819381281B390B2095309584819581B9
:1054C000282339232F5F3F4FC9010895FC01838DA5
:1054D000882361F0A789B08D2D913C911197129688
:1054E0008D919C9113972817390721F44FEF5FEFA7
:1054F000CA01089512968D919C9113971696ED917D
:10550000FC911797E80FF91F408112968D919C919D
:105510001397019614962D913C911597822393230E
:1055200013969C938E93129750E0E2CFFC01838DEB
:10553000882351F00788F08DE02D20813181828110
:1055400093812817390721F42FEF3FEFC901089500
:10555000828193810680F781E02DE80FF91F808119
:10556000282F30E0F3CFDC015796ED91FC9158974E
:1055700082819381918380835996ED91FC915A9712
:1055800080819181938382830895DC015B968C9165
:105590005B978823A9F15996ED91FC915A97208148
:1055A00031812F5F3F4F84819581282339235C9679
:1055B0008C915C97882329F0828193812817390781
:1055C000F9F08281938128173907D9F3808191817D
:1055D0000680F781E02DE80FF91F60835996ED9161
:1055E000FC915A97318320835296ED91FC91539709
:1055F000808156969C91892B808321E030E002C007
:1056000020E030E0C9010895CF93DF93EC011B82C5
:105610001A828A819B81998388831D821C828E8154
:105620009F81009721F00E94BF311F821E82DF916F
:10563000CF9108950F931F938C01DC015296ED9149
:10564000FC915397208156968C91569755969C9134
:105650005597892B80958223808357968D919C91B5
:1056600058970E94042BF801818D928D0E94042B83
:10567000D8015B961C921F910F9108950F931F9371
:10568000CF93DF938C01FC0113821282828193817C
:105690009183808341E0A1E0B0E001C04F5FFD0154
:1056A000042E02C0EE0FFF1F0A94E2F79B0182E076
:1056B0006130780710F020E032E0E217F30770F372
:1056C000C1E0D0E002C0CC0FDD1F4A95E2F7219780
:1056D000F801268137812115310541F084819581BA
:1056E0008C179D0789F0C9010E94BF31F801D5834D
:1056F000C483CE0101960E9422319C01F801978358
:10570000868380E0232B09F081E0DF91CF911F9108
:105710000F910895AF92BF92CF92DF92EF92FF92D6
:105720000F931F93CF93DF937C015A016B01E90123
:10573000DC015B968C915B978823F1F02115310594
:1057400039F45796ED91FC915897C481D5812196F3
:105750000115110549F4D7015996ED91FC915A971D
:10576000048115810F5F1F4FD701ED91FC910088D7
:10577000F189E02DC7010995F7018789908D209760
:1057800011F4C0E8D0E0BE010E943E2B882381F0D6
:10579000D70159968D919C915A970115110511F4D5
:1057A00000E110E0B8010E943E2B882309F04DC0B3
:1057B000D701ED91FC910088F189E02DC701099591
:1057C00067C0D7015096ED91FC915197B0E0AB16B0
:1057D000B1EEBB06B0E0CB06B0E0DB0609F454C086
:1057E00081E090E0D70154960C9002C0880F991F79
:1057F0000A94E2F7808360E079E08DE390E0A6010F
:1058000095010E94F3392150304040405040CA0178
:10581000B90122E030E040E050E00E94F339D701C6
:105820001C96ED91FC911D9730831E96ED91FC9195
:105830001F972083D7015296ED91FC915397808159
:1058400055969C91892B808323C0D7015996ED9161
:10585000FC915A9713821282828193819183808373
:105860005796ED91FC915897138212828281938111
:105870009183808381E05B968C931A141B041C0433
:105880001D040CF49ECFD6CF108220E130E0C7CFAC
:10589000DF91CF911F910F91FF90EF90DF90CF900C
:1058A000BF90AF9008952F923F924F925F926F9268
:1058B0007F928F929F92AF92BF92CF92DF92EF92A0
:1058C000FF920F931F93DF93CF93CDB7DEB764970B
:1058D0000FB6F894DEBF0FBECDBF3C01688B5A8B6C
:1058E000498B69011C01AE014F5F5F4F5C8B4B8B95
:1058F000E989FA89488940FD659140FF6191FA8BF9
:10590000E98B662309F4D7C3653249F440FD8591DC
:1059100040FF8191FA8BE98B8532B1F40CC06A307B
:1059200051F4D301ED91FC910190F081E02DC10182
:105930006DE009956AE0D301ED91FC910190F08151
:10594000E02DC1010995D4CF982F10E08824992427
:105950001032B0F49B3269F09C3228F4903251F04E
:10596000933271F40BC09D3239F0903349F41160D9
:1059700028C01260146025C0186023C0106121C0C7
:1059800017FD2BC0892F80538A3078F416FF06C08C
:10599000BAE09B9E902C1124980E13C0EAE08E9ED4
:1059A000802C1124880E10620CC09E3221F416FD4A
:1059B00082C3106406C09C3611F4106802C0983689
:1059C00061F4E989FA89488940FD959140FF9191F8
:1059D000FA8BE98B992309F0BBCF892F855483304B
:1059E00020F4812F8061905E07C0892F8556833017
:1059F00008F0E6C1812F8F7E86FD02C076E0972EEB
:105A00006FE3F62EF822953619F450E4F52A07C014
:105A1000963619F480E8F82A02C091109A94F7FE9D
:105A20000BC09BE3991520F427E05CE3B52E0DC075
:105A3000B92CB39427E009C0A7E0A91520F447E0EA
:105A4000942E27E001C0292DBB24F6013496FD8752
:105A5000EC87D6016D917D918D919C91AE014F5F48
:105A60005F4F0B2D0E94A6016C010981E02FF0E031
:105A7000FF87EE8700FF05C0FE85F3FD02C01DE233
:105A800009C0F1FE02C01BE205C0F2FC02C010E03A
:105A900001C010E28E859F858C709070892B09F46F
:105AA00044C0112311F483E001C084E0881510F094
:105AB00088240EC0881AF3FC0BC0D301ED91FC9131
:105AC0000190F081E02DC10160E209958A94A9F767
:105AD000112349F0D301ED91FC910190F081E02D6B
