:100000000C9471010C9499010C9499010C94990130
:100010000C9499010C9499010C9499010C949901F8
:100020000C9499010C9499010C9499010C949901E8
:100030000C9499010C9499010C9499010C949901D8
:100040000C94B5300C9499010C9462050C949E05A7
:100050000C9499010C9499010C9499010C949901B8
:100060000C9499010C949901084AD73B3BCE016E40
:1000700084BCBFFDC12F3D6C74319ABD56833DDAFF
:100080003D00C77F11BED9E4BB4C3E916BAAAABE0E
:10009000000000803F05A84CCDB2D44EB93836A937
:1000A000020C50B9918688083CA6AAAA2ABE000074
:1000B00000803F0664EC1B3C04BC163E3BE5B93CAB
:1000C000C93C37C29E5A3D660498083EEA69AAAA0E
:1000D0003E000000803F2020202020202020002003
:1000E0002020202020202020202020207C202020B4
:1000F000202020202020202020207CC620202020FE
:100100002020202020202020C57C202020202020EE
:10011000202020202020207C202020202020202083
:1001200020202020207C00B0B1B2B3B47CB5B6B79B
:10013000B8B97C4D696E696D4F53442D4578747222
:10014000617C426574612072363039204D50004F19
:10015000534420496E697469616C697A65642C2026
:100160007265626F6F74004368617220446F6E65E0
:100170000A00526561647920666F7220466F6E7462
:100180000A0000407A10F35A00A0724E18090010BD
:10019000A5D4E80000E87648170000E40B540200FC
:1001A00000CA9A3B000000E1F50500008096980027
:1001B000000040420F000000A08601000000102750
:1001C00000000000E80300000000640000000000E0
:1001D0000A00000000000100000000002C76D88812
:1001E000DC674F0823DFC1DFAE59E1B1B796E5E325
:1001F000E453C63AE651997696E8E6C28426EB893E
:100200008C9B62ED407C6FFCEFBC9C9F40F2BAA5DA
:100210006FA5F490055A2AF75C936B6CF9676DC172
:100220001BFCE0E40D47FEF520E6B500D0ED902E76
:100230000300943577050080841E080000204E0AD4
:10024000000000C80C333333330F986E1283114112
:10025000EF8D2114893BE65516CFFEE6DB18D184DD
:100260004B381BF77C1D901DA4BBE4242032847204
:100270005E228100C9F124ECA1E53D276E616E008C
:10028000696E660000000000240027002A000000BC
:100290000000250028002B0000000000230026009D
:1002A00029000404040404040404020202020202F9
:1002B000030303030303010204081020408001022A
:1002C00004081020010204081020000000070002AA
:1002D0000100000304060000000000000000EC051F
:1002E000222811241FBECFEFD8E0DEBFCDBF13E020
:1002F000A0E0B1E0E6E5FEE602C005900D92A6346E
:10030000B107D9F715E0A6E4B3E001C01D92AF37FD
:10031000B107E1F712E0C2EED2E004C02297FE017D
:100320000E942537CE3DD107C9F70E9457320C9461
:1003300029370C940000283008F027E03327DA0131
:10034000990F311D87FD916000966105710539F4A3
:1003500032602E5F3D9330E32A95E1F708959F3F89
:1003600030F080387105610509F03C5F3C5F3D93DA
:10037000913008F08068911DDF93CF931F930F9306
:10038000FF92EF92192F987F9695E92F9695969563
:10039000E90FFF27E452FE4F99273327EE24FF246D
:1003A000A701E70105900894079428F4360FE71E8B
:1003B000F81E491F511D660F771F881F991F06944D
:1003C000A1F70590079428F4E70EF81E491F561F61
:1003D000C11D770F881F991F661F0694A1F705900E
:1003E000079428F4F80E491F561FC71FD11D880F08
:1003F000991F661F771F0694A1F70590079420F4B4
:10040000490F561FC71FD81F990F661F771F881FD8
:100410000694A9F784911095177041F0D695C79569
:1004200057954795F794E7941A95C1F7E2E8F1E0FC
:1004300068941590159135916591959105907FE29D
:100440007395E118F10A430B560BC90BD009C0F79D
:10045000E10CF11E431F561FC91FD01D7EF47033DF
:1004600011F48A95E6CFE894015030F0080F0AF4B1
:100470000027021708F4202F2395022F7A3328F043
:1004800079E37D932A95E9F710C07D932A9589F643
:10049000069497956795379517951794E118F10A83
:1004A000430B560BC90BD00998F023957E91739599
:1004B0007A3308F070E37C932013B8F77E91706173
:1004C0007D9330F0839571E37D9370E32A95E1F796
:1004D0001124EF90FF900F911F91CF91DF919927F9
:1004E00087FD90950895FA01AA27283051F120310F
:1004F00081F1E8946F936E7F6E5F7F4F8F4F9F4FB8
:10050000AF4FB1E03ED0B4E03CD0670F781F891FF9
:100510009A1FA11D680F791F8A1F911DA11D6A0FC7
:10052000711D811D911DA11D20D009F468943F917A
:100530002AE0269F11243019305D3193DEF6CF0179
:100540000895462F4770405D4193B3E00FD0C9F73F
:10055000F6CF462F4F70405D4A3318F0495D31FDAC
:100560004052419302D0A9F7EACFB4E0A6959795FF
:10057000879577956795BA95C9F7009761057105D5
:1005800008959B01AC010A2E06945795479537951F
:100590002795BA95C9F7620F731F841F951FA01D79
:1005A0000895FC0188279927E89421912032E9F3E6
:1005B000293010F02E30C8F32B3241F02D3239F4AF
:1005C000689404C00E944C03820F911D2191205316
:1005D0002A30C0F31EF4909581959F4F08951F9384
:1005E000FC0199278827BC01E89411911032E9F3A6
:1005F000193010F01E30C8F31B3251F01D3249F48F
:10060000689406C00E943703610F711D811D911D02
:10061000119110531A30B0F33EF490958095709577
:1006200061957F4F8F4F9F4F1F910895FC0105905B
:10063000615070400110D8F7809590958E0F9F1FE4
:100640000895FC018191861721F08823D9F7992715
:1006500008953197CF010895FC01615070400190D9
:100660000110D8F7809590958E0F9F1F0895592FF0
:10067000482F372F262F660F771F881F991F660F69
:10068000771F881F991F620F731F841F951F660FA6
:10069000771F881F991F08957AE0979F902D879F55
:1006A000802D910D11240895FC011382128288EE91
:1006B00093E0A0E0B0E084839583A683B7838EEEB9
:1006C00092E0918380830895FC018089803419F43D
:1006D00021E030E002C020E030E0C9010895FC01D3
:1006E000818990E00895FC01648745876687478784
:1006F000089580E090E0089580E090E0089580E023
:1007000090E008950895EF92FF921F93CF93DF93A7
:10071000162F7A0186E060E00E9403328FE595E0B3
:1007200060E00E9406288FE595E060E00E940628C0
:100730008FE595E069E00E9406288FE595E0612F3E
:100740000E940628C0E0D0E0F701EC0FFD1F1081E9
:100750008FE595E06AE00E9406288FE595E06C2F12
:100760000E9406288FE595E06BE00E9406288FE541
:1007700095E0612F0E9406282196C633D10521F706
:100780008FE595E068E00E9406288FE595E060EA35
:100790000E9406288FE595E060EA0E94062885FD04
:1007A000F9CF8FE595E060E00E9406288FE595E09F
:1007B0006CE00E94062886E061E00E940332DF912F
:1007C000CF911F91FF90EF9008951F93CF93DF93E8
:1007D000EC01162F86E060E00E9403328FE595E081
:1007E00060E00E940628112319F0113059F404C06A
:1007F0008FE595E0688904C068896C618FE595E0B4
:100800000E94062886E061E00E940332DF91CF91CA
:100810001F910895EF92FF920F931F938EE1489FCF
:1008200070011124E60EF11C86E060E00E940332A4
:100830000FE515E0C80165E00E940628C8016F2D8C
:100840000E940628C80166E00E940628C8016E2D95
:100850000E9406281F910F91FF90EF900895EF924C
:10086000FF920F931F937C010FE515E0C80167E02D
:100870000E940628C8016FEF0E94062886E061E00A
:100880000E940332F70187858F5F87871F910F9141
:10089000FF90EF900895EF92FF920F931F93FC014A
:1008A000E7848EE1E89E700111248685E80EF11C34
:1008B00086E060E00E9403320FE515E0C80164E0C5
:1008C0000E940628C80163E00E940628C80165E06E
:1008D0000E940628C8016F2D0E940628C80166E004
:1008E0000E940628C8016E2D0E9406281F910F91B4
:1008F000FF90EF9008951F93CF93DF93EC01162F95
:100900006C3731F40E942F04CE010E944B040AC0C0
:100910008FE595E067E00E9406288FE595E0612F5E
:100920000E94062881E090E0DF91CF911F91089509
:100930000F931F9386E060E00E9403320FE515E0FD
:10094000C80164E00E940628C80164E00E940628ED
:1009500086E061E00E9403321F910F9108951F937A
:1009600081E795E066E973E00E94EC2E882361F050
:10097000813011F412E009C0823011F411E005C099
:10098000833011F410E001C013E01092470310927D
:10099000460317C06091460370914703605F8FE57F
:1009A00095E00E9406288FE595E0612F0E940628B9
:1009B000809146039091470301969093470380935B
:1009C0004603809146039091470340971CF31F9183
:1009D0000895CF93DF93EC0186E060E00E9403323C
:1009E0008FE595E060EA0E9406288FE595E06FEFBD
:1009F0000E94062880FF05C080E4888B88E0898BF0
:100A000013C081E795E060E973E00E94EC2E882333
:100A100019F4188A86E003C080E4888B88E0898B0B
:100A200086E060E00E940332DF91CF910895CF927B
:100A3000DF92FF920F931F936C0186E061E00E94AA
:100A4000C43182E060E00E94C43182E061E00E9433
:100A50000332C6010E94E90486E060E00E9403328E
:100A60000FE515E0C8016CEE0E940628C8016FEF83
:100A70000E940628F82EC80160E00E940628F601B0
:100A800060896260C8010E94062862E370E080E02D
:100A900090E00E940B31C8016CE60E940628FFEE30
:100AA000FF22C8016F2D0E940628C6010E94AF04D4
:100AB000C60161E00E94E5031F910F91FF90DF9056
:100AC000CF9008951F920F920FB60F9211242F937B
:100AD0003F934F938F939F93EF93FF934091C60063
:100AE00020916005309161052F5F3F4F8091640533
:100AF00090916505282339238091620590916305C3
:100B00002817390779F08091600590916105E0918F
:100B10006605F0916705E80FF91F40833093610582
:100B200020936005FF91EF919F918F914F913F919D
:100B30002F910F900FBE0F901F9018951F920F923C
:100B40000FB60F9211242F933F938F939F93EF93A0
:100B5000FF9320916A0530916B0580916805909113
:100B6000690528173907E9F080916A0590916B05AE
:100B7000E0916E05F0916F05E80FF91F8081809379
:100B8000C60080916A0590916B05019620916C05D5
:100B900030916D058223932390936B0580936A05B2
:100BA00010C0209168053091690580916A05909187
:100BB0006B052817390729F48091C1008F7D809338
:100BC000C100FF91EF919F918F913F912F910F90D5
:100BD0000FBE0F901F9018958F92AF92CF92EF9209
:100BE000FF920F931F9382EC93E060E045EC50E09E
:100BF00024EC30E000EC10E0F1ECEF2EF12CCC24F2
:100C0000C394E8E9AE2E70E2872E0E945C288FED37
:100C100093E00E9454031092F2031092F303109297
:100C2000F4031092F5031092F6031092F70310925A
:100C3000F8031092F9031092FB031092FA0310923A
:100C4000F1031F910F91FF90EF90CF90AF908F9095
:100C50000895EF92FF920F931F9380918E04853039
:100C600029F48091290490912A0414C0863029F433
:100C700080912B0490912C040DC0873029F4809131
:100C80002D0490912E0406C0883041F480912F04E9
:100C9000909130049093900480938F0480917F040E
:100CA000882321F0809191048823E1F480919204BB
:100CB00020918F0430919004882321F587E029301A
:100CC000380748F080919104823029F081E08093C8
:100CD000CA0282E014C0205B344050F48091910439
:100CE000882331F081E08093CA021092910441C0C0
:100CF000809191048130E9F181E08093CA02809370
:100D0000910437C0215B3440A0F1E0909304F0904F
:100D10009404009195041091960488EE93E0A0E06D
:100D2000B0E0E80EF91E0A1F1B1F0E94FD30E616F8
:100D3000F70608071907E8F491E09093CA0280913A
:100D40009104882319F0813041F403C090939104F9
:100D500006C082E08093910402C0109291040E9428
:100D6000FD30609393047093940480939504909362
:100D700096041F910F91FF90EF900895AF92BF924C
:100D8000CF92DF92EF92FF920F931F931091C904BD
:100D90001130B1F58091B204882391F56091490436
:100DA00070914A0480914B0490914C0420E030E013
:100DB00040EA50E40E947135181614F58091280419
:100DC0008B30F0F01093B20480E090E0A0E0B0E04F
:100DD00080939E0490939F04A093A004B093A104D9
:100DE0000E94FD3028EE33E040E050E00E94E636FD
:100DF00020937104309372044093730450937404ED
:100E0000A0901304B0901404C0901504D090160460
:100E1000C601B50120E030E040E85FE30E94713593
:100E2000181694F5E0909E04F0909F040091A004A1
:100E30001091A1040E94FD302091B3043091B404BC
:100E40004091B5045091B604621B730B840B950B53
:100E50000E9458349B01AC01C601B5010E947C354B
:100E600020E030E04AE754E40E94BF339B01AC012C
:100E7000C801B7010E94F23260939E0470939F04F0
:100E80008093A0049093A104A0907504B090760480
:100E9000C0907704D090780460918C0470918D0498
:100EA000882777FD8095982F0E945A3420E030E003
:100EB00040E251E40E947C357B018C010E94FD30B0
:100EC0002091B3043091B4044091B5045091B6041C
:100ED000621B730B840B950B0E9458349B01AC0171
:100EE000C801B7010E947C3520E03AEB4BE55AE49B
:100EF0000E94BF339B01AC01C601B5010E94F232D2
:100F000060937504709376048093770490937804CB
:100F10000E94FD306093B3047093B4048093B504D1
:100F20009093B6048091B204813009F096C060912C
:100F30004D0470914E0480914F04909150040E9492
:100F40005A347B018C0120919A0430919B0440918A
:100F50009C0450919D040E947135181644F4E0924F
:100F60009A04F0929B0400939C0410939D04E090DB
:100F70001704F09018040091190410911A04C80184
:100F8000B7012091A2043091A3044091A404509190
:100F9000A5040E947135181644F4E092A204F09260
:100FA000A3040093A4041093A504E0901304F0900C
:100FB00014040091150410911604C801B701209182
:100FC000A6043091A7044091A8045091A9040E945E
:100FD0007135181644F4E092A604F092A704009329
:100FE000A8041093A904E0904904F0904A040091E9
:100FF0004B0410914C04C801B7012091AA04309110
:10100000AB044091AC045091AD040E9471351816A8
:1010100044F4E092AA04F092AB040093AC04109361
:10102000AD046091AE047091AF048091B0049091D2
:10103000B10420E030E040E050E00E94B833882363
:1010400064F480E090E0A0E0B0E08093AE04909380
:10105000AF04A093B004B093B1041F910F91FF901F
:10106000EF90DF90CF90BF90AF90089581E795E02B
:101070006AE773E00E94EC2E882381F586E696E607
:10108000A6E6B0E48093380490933904A0933A0420
:10109000B0933B0480E090E0A0E8BFE380933C0481
:1010A00090933D04A0933E04B0933F0480E180936D
:1010B00040048CE0809341048AEB809342048BE1EE
:1010C00090E0909344048093430488EE93E09093DF
:1010D0004604809345048AE190E02FC082E598EBB6
:1010E000AEE0B0E48093380490933904A0933A04BE
:1010F000B0933B0485E89BEEA1E5B0E480933C040B
:1011000090933D04A0933E04B0933F0489E1809303
:10111000400486E6809341048BEB809342048CE18B
:1011200090E0909344048093430480EA94E1909388
:101130004604809345048EE190E0909348048093A8
:1011400047040895DF92EF92FF920F931F938C0153
:10115000A1E7EA2EA5E0FA2EC701B8010E94EC2E05
:10116000D82E0F5F1F4FC701B8010E94EC2E3D2DF6
:1011700020E0280F311DC9011F910F91FF90EF90C2
:10118000DF900895AF92BF92CF92DF92EF92FF92DD
:101190000F931F9381E795E06CE773E00E94EC2EBC
:1011A0008093850481E795E06EE773E00E94EC2E62
:1011B0008093840481E795E060E873E00E94EC2E60
:1011C00090E0A0E0B0E0BC01CD010E94583420E0E6
:1011D00030E040E251E40E94BF336093C00270935C
:1011E000C1028093C2029093C30281E795E062E856
:1011F00073E00E94EC2E90E0A0E0B0E0BC01CD01D5
:101200000E94583420E030E040E251E40E94BF33B5
:101210006093C6027093C7028093C8029093C9027C
:1012200081E795E06EE873E00E94EC2E80939204D3
:1012300081E795E06AE873E00E94EC2E80938E04CB
:1012400081E795E064E873E00E94EC2E80939904B6
:1012500081E795E066E873E00E94EC2E80939804A5
:1012600081E795E06CE873E00E94EC2E1092870411
:10127000882319F081E08093870481E795E064E991
:1012800073E00E94EC2E8093860484EA93E00E942F
:10129000A208A0E0B0E0BC01CD010E94583420E0DB
:1012A00030E040E251E40E94BF336093CB02709380
:1012B000CC028093CD029093CE028AEA93E00E9402
:1012C000A208A0E0B0E0BC01CD010E94583420E0AB
:1012D00030E040E251E40E94BF336093CF0270934C
:1012E000D0028093D1029093D20286EA93E00E94CA
:1012F000A2087C0181E795E068EA73E00E94EC2E89
:10130000D82E00E010E0C801B7010E94583420E058
:1013100030E040E251E40E94BF337B018C018D2D0F
:1013200064E60E94B33690E0AA2797FDA095BA2FF5
:10133000BC01CD010E945A349B01AC01C801B70128
:101340000E94F2326093D3027093D4028093D5024C
:101350009093D60281E795E06CEA73E00E94EC2E50
:10136000E82E81E795E06DEA73E00E94EC2EA82E4E
:10137000FF24E7FCF0940F2D1F2DC801B7010E9438
:101380005A3420E030E040E853E40E947C357B0191
:101390008C01BB24A7FCB094CB2CDB2CC601B5017F
:1013A0000E945A349B01AC01C801B7010E94F2327D
:1013B00020E030E040E251E40E94BF336093B80483
:1013C0007093B9048093BA049093BB041F910F915A
:1013D000FF90EF90DF90CF90BF90AF900895BC0149
:1013E00081E795E00E94EC2E08959F92AF92BF9204
:1013F000CF92DF92EF92FF920F931F93882309F40D
:1014000081E0880F8257613009F06BC0A0903804EA
:10141000B0903904C0903A04D0903B04E82EFF24E9
:10142000E7FCF094909040044DB75EB746515040B1
:101430000FB6F8945EBF0FBE4DBF0DB71EB70F5F5E
:101440001F4F8FED93E0ADB7BEB712969C938E936E
:10145000119783E091E0F801938382838DE190E01E
:1014600095838483C601B50120E030E040E050E080
:101470000E947C35D80116966D937D938D939C9335
:1014800019971A969C921A971B961C921B971D9659
:10149000FC92EE921C970894E11CF11C1F96FC92A2
:1014A000EE921E97C601B50120915204309153046B
:1014B00040915404509155040E947C35F801608B92
:1014C000718B828B938B948A158A0E943B284DB72F
:1014D0005EB74A5E5F4F0FB6F8945EBF0FBE4DBF5A
:1014E00057C0282F332727FD30958FED93E06230CA
:1014F00049F5ADB7BEB71C970FB6F894BEBF0FBE87
:10150000ADBFEDB7FEB7319612969C938E931197AF
:1015100089E191E093838283358324832F5F3F4F5A
:101520003783268380915604909157049187808752
:1015300085E090E0938782870E943B28EDB7FEB755
:101540003C9621C04DB75EB7485050400FB6F89456
:101550005EBF0FBE4DBFEDB7FEB73196ADB7BEB79C
:1015600012969C938E93119783E291E093838283EA
:10157000358324832F5F3F4F378326830E943B2888
:10158000EDB7FEB738960FB6F894FEBF0FBEEDBFAD
:101590001F910F91FF90EF90DF90CF90BF90AF9091
:1015A0009F9008952F923F924F925F926F927F92F9
:1015B0008F929F92AF92BF92CF92DF92EF92FF9263
:1015C0000F931F93DF93CF9300D000D000D0CDB7FF
:1015D000DEB7182F662E20912104309122042A357F
:1015E000310530F0C9018D549F4F89359105E8F4DC
:1015F00037FF02C02D543F4FC90137FF03C09095FC
:1016000081959F4F8A3191053CF0B9ED8B2E912C3D
:10161000A8EF2A2E312C1DC00A975CF1F0ED8F2E19
:10162000912CE3EF2E2E312C20C02B35310514F0F8
:10163000235B3040C90137FF03C0909581959F4FD0
:101640008A31910554F07BEE872E912C6BEF262E7C
:10165000312C57E0A52EB12C15C00A9754F042EE5C
:10166000842E912C35EF232E312C28E0A22EB12C84
:1016700009C096EC892E912C8DEC282E312C09E096
:10168000A02EB12C60911F0470912004882777FD53
:101690008095982F0E945A3427EA32E94BE25CEB9E
:1016A0000E947C350E94503620E030E040EA50E451
:1016B0000E947C3520E030E040E951E40E947C3516
:1016C0000E94DF3520E030E044E352E40E94F23231
:1016D0000E942734712E1EEBC12E1FEFD12E9B01CD
:1016E000442737FD4095542F29833A834B835C83ED
:1016F000BFED4B2EB3E05B2E4AEF5FEF240E351E9D
:101700006091210470912204882777FD8095982F9D
:101710000E945A3425E33AEF4EE85CE30E947C35A0
:101720000E9450367B018C01B601882777FD809599
:10173000982F0E945A349B01AC01C801B7010E9446
:101740007C357B018C0169817A818B819C810E942F
:101750005A349B01AC01C801B7010E94F2320E94C9
:1017600027349B01CB0101978A35910508F071C0A0
:1017700062E170E00E94D3368B012F5F3F4FAEEEE7
:10178000BFEF6A9FC0016B9F900D7A9F900D11244F
:10179000820F931F62E070E00E94D3366D837E83D8
:1017A000E62CE01A4E2D4C5F8FED93E0672D0E94E2
:1017B0000A0400D000D000D0EDB7FEB73196ADB727
:1017C000BEB712965C924E92119720E031E03383BF
:1017D00022838D819E81880D991D958384830E942B
:1017E0003B284DB75EB74A5F5F4F0FB6F8945EBFB8
:1017F0000FBE4DBF8D819E818A159B0554F104302B
:1018000011053CF593E0E90EC201672D4E2D0E94B3
:101810000A0400D000D000D0EDB7FEB73196ADB7C6
:10182000BEB712965C924E92119720E031E033835E
:1018300022834D815E81420D531D558344830E9456
:101840003B288DB79EB706960FB6F8949EBF0FBE85
:101850008DBFACE0B0E0CA0EDB1E7394BEE4CB16C5
:10186000D10409F04DCF26960FB6F894DEBF0FBE17
:10187000CDBFCF91DF911F910F91FF90EF90DF903F
:10188000CF90BF90AF909F908F907F906F905F9020
:101890004F903F902F90089560911B0470911C040D
:1018A00080911D0490911E0420E030E040EC51E452
:1018B0000E947C3520E030E044EB53E40E94BF33CB
:1018C0000E94DF350E9427349B012350304037FFB0
:1018D00003C09B012B5E3F4FADE5B4E0F901E65F2D
:1018E000FC4F80818C932F5F3F4F2831310514F0DE
:1018F00020E030E0119684E0A836B80779F710921E
:10190000640408950F931F93282F462F8FED93E0C3
:10191000622F0E9473038FED93E00E944B0480912D
:101920000304882319F428E231E01AC0823019F444
:101930002DE231E015C0853019F422E331E010C00A
:1019400027E331E08A3019F42CE331E009C08B3011
:1019500019F421E431E004C08F3011F425E431E0C2
:101960008DB79EB708970FB6F8949EBF0FBE8DBF78
:10197000EDB7FEB731960FED13E0ADB7BEB71296D7
:101980001C930E9311978AE491E0938382838FE7EF
:1019900090E095838483378326830E943B288DB70C
:1019A0009EB708960FB6F8949EBF0FBE8DBFC801B4
:1019B0000E942F041F910F9108950F931F93282FBA
:1019C000462F0FED13E0C801622F0E947303C80178
:1019D0000E944B048091510460E00E94F509C80107
:1019E0000E942F041F910F9108950F931F93282F8A
:1019F000462F0FED13E0C801622F0E947303C80148
:101A00000E944B048DB79EB70A970FB6F8949EBFFD
:101A10000FBE8DBFEDB7FEB73196ADB7BEB712960C
:101A20001C930E9311978FE491E09383828383EC50
:101A300090E0958384838DE594E09783868387E89F
:101A400090E0918780870E943B288DB79EB70A96C9
:101A50000FB6F8949EBF0FBE8DBFC8010E942F0421
:101A60001F910F9108950F931F93282F462F0FED6D
:101A700013E0C801622F0E947303C8010E944B0447
:101A80008DB79EB70A970FB6F8949EBF0FBE8DBF55
:101A9000EDB7FEB73196ADB7BEB712961C930E9355
:101AA000119786E591E09383828380911B04909146
:101AB0001C04A0911D04B0911E0484839583A68309
:101AC000B78385E090E0918780870E943B288DB79F
:101AD0009EB70A960FB6F8949EBF0FBE8DBFC80181
:101AE0000E942F041F910F9108950F931F93282F89
:101AF000462F0FED13E0C801622F0E947303C80147
:101B00000E944B048DB79EB740970FB6F8949EBFC6
:101B10000FBE8DBFEDB7FEB73196ADB7BEB712960B
:101B20001C930E9311978EE591E09383828383E05B
:101B300090E0958384838091050490910604A091A0
:101B40000704B091080486839783A087B18784E057
:101B500090E0938782878091090490910A04A09174
:101B60000B04B0910C0484879587A687B7870E94E1
:101B70003B288DB79EB740960FB6F8949EBF0FBE18
:101B80008DBFC8010E942F041F910F9108950F93DC
:101B90001F93282F462F8FED93E0622F0E9473032F
:101BA0008FED93E00E944B0480910D04823010F081
:101BB0002FE001C02FE18DB79EB708970FB6F894BC
:101BC0009EBF0FBE8DBFEDB7FEB731960FED13E090
:101BD000ADB7BEB712961C930E93119780E791E0B4
:101BE00093838283248315828091120486831782D3
:101BF0000E943B288DB79EB708960FB6F8949EBFFB
:101C00000FBE8DBFC8010E942F041F910F91089530
:101C10000F931F93282F462F0FED13E0C801622F5B
:101C20000E947303C8010E944B048DB79EB70C97A6
:101C30000FB6F8949EBF0FBE8DBFEDB7FEB73196BD
:101C4000ADB7BEB712961C930E93119786E791E03D
:101C50009383828380E690E09583848380916904F6
:101C600090916A04A0916B04B0916C048683978371
:101C7000A087B1878DE090E0938782870E943B2800
:101C80008DB79EB70C960FB6F8949EBF0FBE8DBF52
:101C9000C8010E942F041F910F9108950F931F9365
:101CA000282F462F0FED13E0C801622F0E94730307
:101CB000C8010E944B048DB79EB70C970FB6F894DD
:101CC0009EBF0FBE8DBFEDB7FEB73196ADB7BEB7A5
:101CD00012961C930E93119786E791E0938382836B
:101CE0008CEB90E09583848380916D0490916E04D9
:101CF000A0916F04B091700486839783A087B18709
:101D00008DE090E0938782870E943B288DB79EB735
:101D10000C960FB6F8949EBF0FBE8DBFC8010E94EF
:101D20002F041F910F9108950F931F93282F462F73
:101D30000FED13E0C801622F0E947303C8010E94D7
:101D40004B048DB79EB70A970FB6F8949EBF0FBE8F
:101D50008DBFEDB7FEB73196ADB7BEB712961C93E7
:101D60000E93119780E891E0938382838091210400
:101D7000909122049583848385E090E09783868305
:101D800086E090E0918780870E943B288DB79EB7C0
:101D90000A960FB6F8949EBF0FBE8DBFC8010E9471
:101DA0002F041F910F9108950F931F93282F462FF3
:101DB0000FED13E0C801622F0E947303C8010E9457
:101DC0004B048DB79EB70A970FB6F8949EBF0FBE0F
:101DD0008DBFEDB7FEB73196ADB7BEB712961C9367
:101DE0000E93119780E891E09383828380911F0482
:101DF000909120049583848385E090E09783868387
:101E000087E090E0918780870E943B288DB79EB73E
:101E10000A960FB6F8949EBF0FBE8DBFC8010E94F0
:101E20002F041F910F910895EF92FF920F931F932C
:101E3000282F462F1FEDE12E13E0F12EC701622F50
:101E40000E947303C7010E944B048DB79EB70C9785
:101E50000FB6F8949EBF0FBE8DBF0DB71EB70F5FB4
:101E60001F4FEDB7FEB7F282E18288E891E0F801FA
:101E7000938382838BE090E09583848360914D040B
:101E800070914E0480914F04909150040E945A34F6
:101E900020913C0430913D0440913E0450913F0418
:101EA0000E947C35F80166837783808791878091D3
:101EB0004104828713860E943B288DB79EB70C96FB
:101EC0000FB6F8949EBF0FBE8DBFC7010E942F04AE
:101ED0001F910F91FF90EF900895EF92FF920F9353
:101EE0001F93282F462F0FEDE02E03E0F02EC701A1
:101EF000622F0E947303C7010E944B040E94FD30B1
:101F000028EE33E040E050E00E94E6368091710414
:101F100090917204A0917304B0917404281B390B42
:101F20004A0B5B0BCA01B9010E9458346093BC0292
:101F30007093BD028093BE029093BF020E9427342B
:101F40008B019C018DB79EB70C970FB6F8949EBF7E
:101F50000FBE8DBFEDB7FEB73196ADB7BEB71296C7
:101F6000FC92EE92119782E991E09383828388E05C
:101F700090E095838483C8016CE370E00E94D336BF
:101F8000CB016CE370E00E94D336978386838AE3AB
:101F900090E091878087C8016CE370E00E94D3369F
:101FA000938782870E943B288DB79EB70C960FB609
:101FB000F8949EBF0FBE8DBFC7010E942F041F91D2
:101FC0000F91FF90EF9008950F931F93282F462FA6
:101FD0000FED13E0C801622F0E947303C8010E9435
:101FE0004B048DB79EB70C970FB6F8949EBF0FBEEB
:101FF0008DBFEDB7FEB73196ADB7BEB712961C9345
:102000000E9311978EE991E09383828387E190E0AC
:10201000958384838091750490917604A0917704D0
:10202000B091780486839783A087B18781E090E0A0
:10203000938782870E943B288DB79EB70C960FB678
:10204000F8949EBF0FBE8DBFC8010E942F041F9140
:102050000F9108950F931F93282F462F0FED13E034
:10206000C801622F0E947303C8010E944B048DB700
:102070009EB70A970FB6F8949EBF0FBE8DBFEDB7FF
:10208000FEB73196ADB7BEB712961C930E9311975B
:1020900088EA91E09383828382E090E09583848351
:1020A000809128048683178285E290E0918780875B
:1020B0000E943B288DB79EB70A960FB6F8949EBF34
:1020C0000FBE8DBFC8010E942F041F910F9108956C
:1020D0002F923F924F925F926F927F928F929F9238
:1020E000AF92BF92CF92DF92EF92FF920F931F9326
:1020F000DF93CF93CDB7DEB7AD970FB6F894DEBFC1
:102100000FBECDBF282F462FDE011196ECEFF2E077
:102110008EE001900D928150E1F78FED93E0622FF8
:102120000E9473038FED93E00E944B040E94FD30E8
:102130002091790430917A0440917B0450917C0481
:10214000261737074807590708F088C180917D0492
:10215000882391F080937E0410927D0481E0809327
:102160007F040E94FD30609380047093810480930B
:102170008204909383043AC10E94FD3060517742FB
:1021800080409040209180043091810440918204ED
:1021900050918304261737074807590710F4109207
:1021A0007F0480917E04282F30E0388B2F87309178
:1021B0000D043DA370907D04809017049090180446
:1021C000A0901904B0901A04409138045091390439
:1021D00060913A0470913B0449A35AA36BA37CA37A
:1021E0002091840430E0909185044091C002509188
:1021F000C1026091C2027091C3024D8F5E8F6F8FDA
:1022000078A340916D0450916E0460916F047091B9
:102210007004498F5A8F6B8F7C8F6091C4027091CC
:10222000C502788F6F8B80918604A82FB0E0BE8B9B
:10223000AD8B609087042090C6023090C70240901A
:10224000C8025090C9024091690450916A0460919B
:102250006B0470916C04498B5A8B6B8B7C8BCF8495
:10226000D888492F50E060E070E04EA35FA368A7D4
:1022700079A7B901882777FD8095982F6AA77BA752
:102280008CA79DA7AEC00894C11CD11C77E0C716CF
:10229000D10424F061E0C62ED12C04C081E0C81620
:1022A000D10439F49DA1923008F096C0772473943C
:1022B00093C0A2E0CA16D10439F5C501B40129A121
:1022C0003AA14BA15CA10E947C357B018C016AA5DF
:1022D0007BA58CA59DA50E945A349B01AC01C80129
:1022E000B7010E94B83388230CF076C0C501B40151
:1022F00029E23CE54FE85FE30E94713518160CF0C7
:102300006BC052E0752E68C0B3E0CB16D104E1F487
:10231000C501B40129A13AA14BA15CA10E947C3561
:102320007B018C016EA17FA188A599A50E945834DC
:102330009B01AC01C801B7010E94713518160CF061
:102340004BC043E0742E48C0E4E0CE16D104D9F46B
:102350006D8D7E8D8F8D98A120E030E040E85FE3A9
:102360000E9471351816C4F5698D7A8D8B8D9C8D00
:102370002D8D3E8D4F8D58A10E94B833882364F572
:1023800034E0732E29C0F5E0CF16D10479F42F89FB
:10239000388D4D895E8924173507F4F42D593F4F48
:1023A000D9F06620C9F425E0722E16C0C201B10131
:1023B00020E030E040E85FE30E947135181664F4D5
:1023C00069897A898B899C89A20191010E94B8331D
:1023D000882314F496E0792E6F857889C616D7067F
:1023E00019F0772009F44FCF70927D040E94FD30E0
:1023F00068517C4F8F4F9F4F6093790470937A049C
:1024000080937B0490937C0400D000D000D0ADB7C3
:10241000BEB711968FED93E0EDB7FEB7928381833F
:1024200082EB91E013969C938E931297E0917D043A
:10243000F0E0EE0FFF1FEC0FFD1F818192811596DA
:102440009C938E9314970E943B282DB73EB72A5F2A
:102450003F4F0FB6F8943EBF0FBE2DBF8FED93E0F8
:102460000E942F04AD960FB6F894DEBF0FBECDBF0D
:10247000CF91DF911F910F91FF90EF90DF90CF9060
:10248000BF90AF909F908F907F906F905F904F9094
:102490003F902F900895EF92FF920F931F93282F54
:1024A000462F7FEDE72E73E0F72EC701622F0E94C3
:1024B0007303C7010E944B048DB79EB70C970FB6EC
:1024C000F8949EBF0FBE8DBF0DB71EB70F5F1F4F95
:1024D000EDB7FEB7F282E18285EB91E0F8019383DC
:1024E000828383E190E095838483609117047091E7
:1024F00018048091190490911A04209138043091A5
:10250000390440913A0450913B040E947C35F80113
:1025100066837783808791878091400482871386C2
:102520000E943B288DB79EB70C960FB6F8949EBFBD
:102530000FBE8DBFC7010E942F041F910F91FF9006
:10254000EF900895EF92FF920F931F93282F462F3D
:10255000EFEDEE2EE3E0FE2EC701622F0E94730323
:10256000C7010E944B048DB79EB70C970FB6F89425
:102570009EBF0FBE8DBF0DB71EB70F5F1F4FEDB7CC
:10258000FEB7F282E18285EB91E0F80193838283CA
:1025900084E190E095838483609113047091140426
:1025A00080911504909116042091380430913904DB
:1025B00040913A0450913B040E947C35F8016683B7
:1025C00077838087918780914004828713860E9459
:1025D0003B288DB79EB70C960FB6F8949EBF0FBEE2
:1025E0008DBFC7010E942F041F910F91FF90EF90A4
:1025F0000895CF92DF92EF92FF920F931F93282FAF
:10260000462FFFEDCF2EF3E0DF2EC601622F0E9492
:102610007303C6010E944B04609134047091350429
:10262000809136049091370420913C0430913D0410
:1026300040913E0450913F040E947C352DEC3CECCF
:102640004CEC5DE30E947C357B018C016091880439
:102650007091890480918A0490918B0426E636E675
:1026600046E65FE30E947C359B01AC01C801B701DF
:102670000E94F232609388047093890480938A04E4
:1026800090938B042DB73EB72C5030400FB6F89482
:102690003EBF0FBE2DBF0DB71EB70F5F1F4FEDB76B
:1026A000FEB7D282C1822EE931E0F8013383228362
:1026B00025E130E03583248320E030E040E251E43E
:1026C0000E94BF330E942734882777FD8095982F7A
:1026D0000E945A3420E030E040E251E40E947C3510
:1026E000F801668377838087918780914704909172
:1026F0004804938782870E943B282DB73EB7245F0A
:102700003F4F0FB6F8943EBF0FBE2DBFC6010E94CB
:102710002F041F910F91FF90EF90DF90CF900895BD
:10272000EF92FF920F931F93282F462FAFEDEA2EC3
:10273000A3E0FA2EC701622F0E947303C7010E9413
:102740004B048DB79EB70C970FB6F8949EBF0FBE83
:102750008DBF0DB71EB70F5F1F4FEDB7FEB7F282EB
:10276000E18288E891E0F8019383828381E190E03F
:102770009583848360910E0470910F0480911004FE
:102780009091110420913C0430913D0440913E040D
:1027900050913F040E947C35F801668377838087DF
:1027A000918780914104828713860E943B288DB7D0
:1027B0009EB70C960FB6F8949EBF0FBE8DBFC70193
:1027C0000E942F041F910F91FF90EF900895EF92B8
:1027D000FF920F931F93282F462FBFEDEB2EB3E0F0
:1027E000FB2EC701622F0E947303C7010E944B0496
:1027F0008DB79EB70C970FB6F8949EBF0FBE8DBFD6
:102800000DB71EB70F5F1F4FEDB7FEB7F282E18223
:1028100086E791E0F801938382838DEB90E09583C6
:10282000848360918C0470918D04882777FD809556
:10283000982F0E945A342AE037ED43E25CE30E946D
:102840007C35F80166837783808791878EE090E0FE
:10285000938782870E943B288DB79EB70C960FB650
:10286000F8949EBF0FBE8DBFC7010E942F041F9119
:102870000F91FF90EF900895282F462F8FED93E052
:10288000622F0E9473038FED93E00E944B0460E07F
:1028900070E080E090E020911B0430911C04409196
:1028A0001D0450911E040E94F13220E030E044EB00
:1028B00053E40E94BF3320E030E040E851E40E943E
:1028C0007C350E94DF3520E030E040E85FE30E9485
:1028D000F2320E942734693F14F4685E05C0693003
:1028E00014F0685001C0685F6093970460915204CF
:1028F00070915304809154049091550422E538EB73
:102900004EE75FE30E947C3520E030E040E050E09D
:102910000E94F232609352047093530480935404E3
:10292000909355048091970461E00E94F5098FED22
:1029300093E00E942F040895CF92DF92EF92FF92CE
:102940000F931F93282F462F8FED93E0622F0E9445
:1029500073038FED93E00E944B0480913104282F84
:1029600030E03093C5022093C4028091870488230D
:1029700059F50091980410E0201B310BB90188270C
:1029800077FD8095982F0E945A346B017C016091ED
:10299000990470E0601B710B882777FD8095982F54
:1029A0000E945A349B01AC01C701B6010E94BF339B
:1029B00020E030E048EC52E40E947C350E9427344D
:1029C0007093C5026093C4028DB79EB70A970FB685
:1029D000F8949EBF0FBE8DBFEDB7FEB731960FEDD9
:1029E00013E0ADB7BEB712961C930E9311978FEB01
:1029F00091E09383828389E090E095838483809142
:102A0000C4029091C5029783868385E290E0918706
:102A100080870E943B288DB79EB70A960FB6F89420
:102A20009EBF0FBE8DBFC8010E942F041F910F9142
:102A3000FF90EF90DF90CF9008950F931F93282F72
:102A4000462F8FED93E0622F0E9473038FED93E08A
:102A50000E944B0440918E04453029F420912904B2
:102A600030912A0414C0463029F420912B0430916F
:102A70002C040DC0473029F420912D0430912E04F0
:102A800006C0483021F420912F04309130048DB7D6
:102A90009EB70A970FB6F8949EBF0FBE8DBFEDB7D5
:102AA000FEB731960FED13E0ADB7BEB712961C938B
:102AB0000E93119787EC91E09383828383E490E0F7
:102AC00095838483842F90E0C09697838683318793
:102AD00020870E943B288DB79EB70A960FB6F894C0
:102AE0009EBF0FBE8DBFC8010E942F041F910F9182
:102AF0000895EF92FF920F931F93282F462F1FEDFB
:102B0000E12E13E0F12EC701622F0E947303C7016B
:102B10000E944B048DB79EB70C970FB6F8949EBFDA
:102B20000FBE8DBF0DB71EB70F5F1F4FEDB7FEB7BE
:102B3000F282E1828FEC91E0F801938382838AE054
:102B400090E095838483609132047091330480E037
:102B500090E00E94583420E030E048EC52E40E94BB
:102B6000BF33F80166837783808791878091420421
:102B7000828713860E943B288DB79EB70C960FB6AE
:102B8000F8949EBF0FBE8DBFC7010E942F041F91F6
:102B90000F91FF90EF9008952F923F924F925F9286
:102BA0006F927F928F929F92AF92BF92CF92DF925D
:102BB000EF92FF920F931F930FED202E03E0302E24
:102BC000C1016BE045E00E947303C1010E944B0408
:102BD0006091BC027091BD028091BE029091BF02D3
:102BE0000E9427346B017C0180903C0490903D044E
:102BF000A0903E04B0903F044090380450903904B7
:102C000060903A0470903B04F0904104E0904004DE
:102C10008DB79EB7845490400FB6F8949EBF0FBEF8
:102C20008DBF0DB71EB70F5F1F4FEDB7FEB73282D6
:102C3000218289ED91E0F8019383828388E090E01E
:102C400095838483C6016CE370E00E94D336CB0188
:102C50006CE370E00E94D336978386838AE390E02A
:102C600091878087C6016CE370E00E94D33693871A
:102C700082878BE090E095878487C501B40120911D
:102C80009A0430919B0440919C0450919D040E94B1
:102C90007C350E942734F80177876687F08A118A8D
:102CA0008FE890E0938B828BC501B40120919E0444
:102CB00030919F044091A0045091A1040E947C3562
:102CC0000E942734F801758B648BF68A178A83E19A
:102CD00090E0918F808FC301B2012091A2043091C6
:102CE000A3044091A4045091A5040E947C350E9445
:102CF0002734F801738F628FE48E158E84E190E0A3
:102D0000978F868FC301B2012091A6043091A7044A
:102D10004091A8045091A9040E947C350E94273458
:102D2000F80171A360A3E2A213A282E190E095A34F
:102D300084A3C501B4012091AA043091AB04409151
:102D4000AC045091AD040E947C350E942734F801F8
:102D500077A366A3F0A611A68DE190E093A782A7C2
:102D6000C301B2012091AE043091AF044091B00490
:102D70005091B1040E947C350E942734F80175A758
:102D800064A7E6A617A687E190E091AB80AB80919F
:102D9000750490917604A0917704B091780482AB89
:102DA00093ABA4ABB5AB81E090E097AB86AB83E08F
:102DB00090E091AF80AF8091050490910604A091BE
:102DC0000704B091080482AF93AFA4AFB5AF84E01D
:102DD00090E097AF86AF005C1F4F809109049091FF
:102DE0000A04A0910B04B0910C04F8018083918334
:102DF000A283B3830E943B288DB79EB78C5B9F4F05
:102E00000FB6F8949EBF0FBE8DBFC1010E942F0464
:102E10001F910F91FF90EF90DF90CF90BF90AF90F8
:102E20009F908F907F906F905F904F903F902F90EA
:102E30000895CF92DF92EF92FF920F931F93CF935B
:102E4000DF93282F462FCFEDD3E0CE01622F0E94D3
:102E50007303CE010E944B0460919E0470919F0405
:102E60008091A0049091A10420913C0430913D04F4
:102E700040913E0450913F040E947C356B017C01DF
:102E800020E030E04AE754E40E9471351816CCF592
:102E90008DB79EB70C970FB6F8949EBF0FBE8DBF2F
:102EA0000DB71EB70F5F1F4FADB7BEB71296DC93BD
:102EB000CE93119786E791E0F801938382838FE8A0
:102EC00090E095838483609145047091460480E08E
:102ED00090E00E9458349B01AC01C701B6010E94EA
:102EE000BF33D80116966D937D938D939C9319975C
:102EF00080914304909144041B969C938E931A975F
:102F000021C08DB79EB70C970FB6F8949EBF0FBE29
:102F10008DBFEDB7FEB73196ADB7BEB71296DC9355
:102F2000CE93119788E891E0938382838FE890E0B5
:102F300095838483C682D782E086F186809141049E
:102F4000828713860E943B28EDB7FEB73C960FB6EA
:102F5000F894FEBF0FBEEDBF8FED93E00E942F04EB
:102F6000DF91CF911F910F91FF90EF90DF90CF9065
:102F70000895EF92FF920F931F93CF93DF93282F23
:102F8000462F8FED93E0622F0E9473038FED93E045
:102F90000E944B046091230470912404882777FDDC
:102FA0008095982F0E945A3420911B0430911C0464
:102FB00040911D0450911E040E94F13220E030E047
:102FC00044EB53E40E94BF3320E030E040E851E49A
:102FD0000E947C350E94DF3520E030E040E85FE36E
:102FE0000E94F2320E942734862F6093580467FFB4
:102FF00003C0805F80935804E0905904F0905A0415
:1030000000915B0410915C04C801B70120E030EC32
:1030100049E754E40E94713518162CF480E090ECD6
:10302000A9E7B4E40EC0C801B70120E030EC49E7DD
:1030300054EC0E94B833882364F480E090ECA9E754
:10304000B4EC8093590490935A04A0935B04B0931A
:103050005C048DB79EB742970FB6F8949EBF0FBE23
:103060008DBF0DB71EB70F5F1F4FCFEDD3E0EDB78C
:10307000FEB7D283C18381E392E0F8019383828318
:1030800087E590E09583848380E790E0978386834B
:10309000809127048087118613861286609125040B
:1030A0007091260480E090E00E94583420913C0406
:1030B00030913D0440913E0450913F040E947C3584
:1030C000F801648775878687978780914104808B94
:1030D000118A0E943B288DB79EB742960FB6F8948E
:1030E0009EBF0FBE8DBF8091580460E00E94F5091D
:1030F000809103048A3009F045C0EDB7FEB77097A0
:103100000FB6F894FEBF0FBEEDBF0DB71EB70F5F31
:103110001F4FD283C18383E492E0F80193838283BB
:1031200080E290E09583848388E590E097838683AE
:1031300085E690E0918780876091590470915A04E8
:1031400080915B0490915C0420913C0430913D049B
:1031500040913E0450913F040E947C35F801628703
:1031600073878487958780914104868717860E949C
:103170003B288DB79EB740960FB6F8949EBF0FBE02
:103180008DBF10C000D000D0EDB7FEB7D283C18391
:1031900086ED90E0948383830E942A280F900F90FD
:1031A0000F900F908FED93E00E942F04DF91CF914D
:1031B0001F910F91FF90EF900895CF92DF92EF92C1
:1031C000FF920F931F937C01D62EC72E0FED13E0B5
:1031D000C8016E2D4D2D0E947303C8010E944B043F
:1031E00000D000D0EDB7FEB7128301838FED90E0E1
:1031F000948383830E942A280F900F900F900F9042
:10320000C8010E942F04C70101966D2D7C2D0E94DC
:10321000D20A1F910F91FF90EF90DF90CF90089509
:103220000F931F930FED13E0C80165E045E00E9486
:103230007303C8010E944B0400D000D0EDB7FEB765
:103240001283018387E291E0948383830E942A287A
:103250000F900F900F900F90C8010E942F041F91A4
:103260000F9108950E9410190E94360808951F9327
:103270006091490470914A0480914B0490914C04F0
:1032800020E030E040EA51E40E94B83318160CF414
:103290008FC2609113047091140480911504909171
:1032A000160420E030E040E85FE30E94B8331816CF
:1032B0000CF47EC2809128048B3008F079C2109102
:1032C000B204113009F074C280914D0490914E0403
:1032D000A0914F04B091500487399105A105B10523
:1032E0000CF066C20E94FD302091B3043091B4040A
:1032F0004091B5045091B604621B730B840B950B7F
:10330000695873418040904008F452C28091CA02CB
:10331000882331F48FED93E00E9498041093CA0241
:103320000E94CC1550C2FD01E855FC4F6081AA55A2
:10333000BC4F8C9190E070E00E9468108091CA02AE
:10334000882331F08FED93E00E9498041092CA0216
:103350000E94290680919104823009F434C2A82F7A
:10336000B0E0FD01E85BFC4F808181FF0BC0FD01F7
:10337000EC5AFC4F6081AE5ABC4F8C9190E070E0EB
:103380000E94D40E80919104A82FB0E0FD01E85B6B
:10339000FC4F808182FF0BC0FD01E85AFC4F608129
:1033A000AA5ABC4F8C9190E070E00E94940E8091DC
:1033B0009104A82FB0E0FD01E85BFC4F808183FF02
:1033C0000BC0FD01E45AFC4F6081A65ABC4F8C91A2
:1033D00090E070E00E944E0E80919104A82FB0E022
:1033E000FD01E85BFC4F808180FF0BC0FD01E05ACE
:1033F000FC4F6081A25ABC4F8C9190E070E00E941B
:10340000080E80919104A82FB0E0FD01E85BFC4F0D
:10341000808185FF0BC0FD01EC59FC4F6081AE59E6
:10342000BC4F8C9190E070E00E94C70D8091910498
:10343000A82FB0E0FD01E85BFC4F808187FF0BC047
:10344000FD01E459FC4F6081A659BC4F8C9190E07E
:1034500070E00E94750D80919104A82FB0E0FD01ED
:10346000E85BFC4F808184FF0BC0FD01E059FC4FFD
:103470006081A259BC4F8C9190E070E00E94E40FF3
:1034800080919104A82FB0E0FD01E65BFC4F8081A4
:1034900080FF0BC0FD01EC58FC4F6081AE58BC4F63
:1034A0008C9190E070E00E94F50C80919104A82F1F
:1034B000B0E0FD01E65BFC4F808181FF0BC0FD01A8
:1034C000E858FC4F6081AA58BC4F8C9190E070E0A6
:1034D0000E94330D8091B704813051F580919104A1
:1034E000A82FB0E0FD01E65BFC4F808184FF0BC09C
:1034F000FD01E058FC4F6081A258BC4F8C9190E0D8
:1035000070E00E94140F80919104A82FB0E0FD019B
:10351000E65BFC4F808183FF0BC0FD01E458FC4F4C
:103520006081A658BC4F8C9190E070E00E94DD0C49
:1035300080919104A82FB0E0FD01E65BFC4F8081F3
:1035400087FF0BC0FD01E857FC4F6081AA57BC4FB5
:103550008C9190E070E00E946D0F80912704882389
:10356000A9F080919104A82FB0E0FD01E65BFC4F2B
:10357000808186FF0BC0FD01EC57FC4F6081AE5788
:10358000BC4F8C9190E070E00E94B917809191043B
:10359000A82FB0E0FD01E45BFC4F808182FF0BC0EF
:1035A000FD01E057FC4F6081A257BC4F8C9190E029
:1035B00070E00E94901380919104A82FB0E0FD016B
:1035C000E45BFC4F808183FF0BC0FD01EC56FC4F98
:1035D0006081AE56BC4F8C9190E070E00E94A212C8
:1035E00080919104A82FB0E0FD01E45BFC4F808145
:1035F00081FF0BC0FD01E856FC4F6081AA56BC4F0D
:103600008C9190E070E00E944B1280919104A82F61
:10361000B0E0FD01E45BFC4F808184FF0BC0FD0145
:10362000E456FC4F6081A656BC4F8C9190E070E050
:103630000E942A1080919104A82FB0E0FD01E45B64
:10364000FC4F808185FF0BC0FD01E056FC4F60817F
:10365000A256BC4F8C9190E070E00E94820C809149
:103660009104A82FB0E0FD01E45BFC4F808186FF50
:103670000BC0FD01EC55FC4F6081AE55BC4F8C91E9
:1036800090E070E00E94DD1880919104A82FB0E0D6
:10369000FD01E45BFC4F808180FF0BC0FD01E4571E
:1036A000FC4F6081A657BC4F8C9190E070E00E9467
:1036B000E71380919104A82FB0E0FD01E25BFC4F7D
:1036C000808182FF0BC0FD01E455FC4F6081A6554F
:1036D000BC4F8C9190E070E00E943C14809191046A
:1036E000A82FB0E0FD01E25BFC4F808183FF0BC09F
:1036F000FD01E055FC4F6081A255BC4F8C9190E0DC
:1037000070E00E94F91280919104A82FB0E0FD01B1
:10371000E25BFC4F808186FF0BC0FD01EC54FC4F47
:103720006081AE54BC4F8C9190E070E00E949C147C
:1037300080919104A82FB0E0FD01E05BFC4F8081F7
:1037400081FF0BC0FD01E454FC4F6081A654BC4FC7
:103750008C9190E070E00E94791580919104A82FDF
:10376000B0E0FD01E05BFC4F808180FF0BC0FD01FC
:10377000E854FC4F6081AA54BC4F8C9190E070E0FB
:103780000E941D1580919104A82FB0E0FD01E05B1F
:10379000FC4F808182FF17C0FD01E054FC4F608127
:1037A000A254BC4F8C9190E070E00E9419170BC09E
:1037B00080919104A82FB0E0FD01E25BFC4F808175
:1037C00080FFBCCDB0CD1F910895CF93DF93EC0166
:1037D0008FED93E00E946F03C817D9073CF08FED7F
:1037E00093E00E946403892B09F42397CE01DF91B3
:1037F000CF910895EF92FF920F931F93CF93DF9392
:103800000091910410E08AEF90E0089F7001099FF9
:10381000F00C189FF00C1124C70188569F4F0E948E
:10382000EF09F801E85BFC4F882319F08081806183
:1038300002C080818F7E808380919104C82FD0E068
:10384000C70186569F4F0E94EF09C259DC4F8883FB
:1038500080919104C82FD0E0C70184569F4F0E94E9
:10386000EF0990E00E94E51BC059DC4F888300916E
:10387000910410E0C70106960E94EF09F801E85B89
:10388000FC4F882319F08081826002C080818D7F87
:10389000808380919104C82FD0E0C70108960E94D0
:1038A000EF09CE5ADC4F888380919104C82FD0E075
:1038B000C7010A960E94EF0990E00E94E51BCC5ACE
:1038C000DC4F88830091910410E0C7010C960E94A0
:1038D000EF09F801E85BFC4F882319F080818460D0
:1038E00002C080818B7F808380919104C82FD0E0BB
:1038F000C7010E960E94EF09CA5ADC4F8883809157
:103900009104C82FD0E0C70140960E94EF0990E0D3
:103910000E94E51BC85ADC4F88830091910410E097
:10392000C70142960E94EF09F801E85BFC4F88232B
:1039300019F08081886002C08081877F80838091B8
:103940009104C82FD0E0C70144960E94EF09C65ADF
:10395000DC4F888380919104C82FD0E0C701469640
:103960000E94EF0990E00E94E51BC45ADC4F888357
:103970000091910410E0C70148960E94EF09F801F8
:10398000E85BFC4F882319F08081816002C0808150
:103990008E7F808380919104C82FD0E0C7014A9622
:1039A0000E94EF09C25ADC4F888380919104C82F8E
:1039B000D0E0C7014C960E94EF0990E00E94E51B01
:1039C000C05ADC4F88830091910410E0C7014E96E5
:1039D0000E94EF09F801E85BFC4F882319F0808111
:1039E000806202C080818F7D808380919104C82F86
:1039F000D0E0C70180960E94EF09CE59DC4F888342
:103A000080919104C82FD0E0C70182960E94EF09EF
:103A100090E00E94E51BCC59DC4F88830091910413
:103A200010E0C70184960E94EF09F801E85BFC4FA3
:103A3000882319F08081806402C080818F7B80831D
:103A400080919104C82FD0E0C70186960E94EF09AB
:103A5000CA59DC4F888380919104C82FD0E0C701F8
:103A600088960E94EF0990E00E94E51BC859DC4F40
:103A700088830091910410E0C7018A960E94EF09A3
:103A8000F801E85BFC4F882319F08081806802C050
:103A900080818F77808380919104C82FD0E0C70107
:103AA0008C960E94EF09C659DC4F8883809191045F
:103AB000C82FD0E0C7018E960E94EF0990E00E94C7
:103AC000E51BC459DC4F88830091910410E0C701C5
:103AD000C0960E94EF09F801E65BFC4F882319F0BD
:103AE0008081816002C080818E7F8083809191047B
:103AF000C82FD0E0C701C2960E94EF09CE58DC4F14
:103B0000888380919104C82FD0E0C701C4960E9499
:103B1000EF0990E00E94E51BCC58DC4F88830091B0
:103B2000910410E0C701C6960E94EF09F801E65B18
:103B3000FC4F882319F08081826002C080818D7FD4
:103B4000808380919104C82FD0E0C701C8960E945D
:103B5000EF09CA58DC4F888380919104C82FD0E0C8
:103B6000C701CA960E94EF0990E00E94E51BC85861
:103B7000DC4F88830091910410E0C701885B9F4F60
:103B80000E94EF09F801E65BFC4F882319F0808161
:103B9000806102C080818F7E808380919104C82FD4
:103BA000D0E0C701865B9F4F0E94EF09C258DC4FEF
:103BB000888380919104C82FD0E0C701845B9F4F18
:103BC0000E94EF0990E00E94E51BC058DC4F8883FB
:103BD0000091910410E0C7018E5B9F4F0E94EF0996
:103BE000F801E65BFC4F882319F08081886002C0F1
:103BF0008081877F808380919104C82FD0E0C701A6
:103C00008C5B9F4F0E94EF09C658DC4F88838091E0
:103C10009104C82FD0E0C7018A5B9F4F0E94EF0933
:103C200090E00E94E51BC458DC4F8883009191040A
:103C300010E0C7018A5A9F4F0E94EF09F801E65B26
:103C4000FC4F882319F08081806402C080818F7BC3
:103C5000808380919104C82FD0E0C701885A9F4F7C
:103C60000E94EF09CE57DC4F888380919104C82FC2
:103C7000D0E0C701865A9F4F0E94EF0990E00E9452
:103C8000E51BCC57DC4F88830091910410E0C701FD
:103C900082569F4F0E94EF09F801E65BFC4F882394
:103CA00019F08081806802C080818F778083809145
:103CB0009104C82FD0E0C70180569F4F0E94EF09A2
:103CC000CA57DC4F888380919104C82FD0E0C70188
:103CD0008E559F4F0E94EF0990E00E94E51BC85748
:103CE000DC4F88830091910410E0C7018E599F4FEB
:103CF0000E94EF09F801E45BFC4F882319F08081F2
:103D0000816002C080818E7F808380919104C82F62
:103D1000D0E0C7018C599F4F0E94EF09C657DC4F76
:103D2000888380919104C82FD0E0C7018A599F4FA2
:103D30000E94EF0990E00E94E51BC457DC4F888386
:103D40000091910410E0C70182599F4F0E94EF0932
:103D5000F801E45BFC4F882319F08081846002C085
:103D600080818B7F808380919104C82FD0E0C70130
:103D700080599F4F0E94EF09C257DC4F8883809182
:103D80009104C82FD0E0C7018E589F4F0E94EF09C1
:103D900090E00E94E51BC057DC4F8883009191049E
:103DA00010E0C7018E569F4F0E94EF09F801E45BB7
:103DB000FC4F882319F08081826002C080818D7F52
:103DC000808380919104C82FD0E0C7018C569F4F0B
:103DD0000E94EF09CA56DC4F888380919104C82F56
:103DE000D0E0C7018A569F4F0E94EF0990E00E94E1
:103DF000E51BC856DC4F88830091910410E0C70191
:103E00008C589F4F0E94EF09F801E45BFC4F882318
:103E100019F08081886002C08081877F80838091D3
:103E20009104C82FD0E0C7018A589F4F0E94EF0924
:103E3000CE56DC4F888380919104C82FD0E0C70113
:103E400088589F4F0E94EF0990E00E94E51BCC56D6
:103E5000DC4F88830091910410E0C70186589F4F82
:103E60000E94EF09F801E45BFC4F882319F0808180
:103E7000806102C080818F7E808380919104C82FF1
:103E8000D0E0C70184589F4F0E94EF09C656DC4F0F
:103E9000888380919104C82FD0E0C70182589F4F3A
:103EA0000E94EF0990E00E94E51BC456DC4F888316
:103EB0000091910410E0C70180589F4F0E94EF09C4
:103EC000F801E45BFC4F882319F08081806202C016
:103ED00080818F7D808380919104C82FD0E0C701BD
:103EE0008E579F4F0E94EF09C256DC4F8883809106
:103EF0009104C82FD0E0C7018C579F4F0E94EF0953
:103F000090E00E94E51BC056DC4F8883009191042D
:103F100010E0C7018A579F4F0E94EF09F801E45B48
:103F2000FC4F882319F08081806402C080818F7BE0
:103F3000808380919104C82FD0E0C70188579F4F9C
:103F40000E94EF09CE55DC4F888380919104C82FE1
:103F5000D0E0C70186579F4F0E94EF0990E00E9472
:103F6000E51BCC55DC4F88830091910410E0C7011C
:103F70008C559F4F0E94EF09F801E25BFC4F8823AC
:103F800019F08081816002C080818E7F8083809162
:103F90009104C82FD0E0C7018A559F4F0E94EF09B6
:103FA000CA55DC4F888380919104C82FD0E0C701A7
:103FB00088559F4F0E94EF0990E00E94E51BC8556D
:103FC000DC4F88830091910410E0C70180559F4F1A
:103FD0000E94EF09F801E25BFC4F882319F0808111
:103FE000846002C080818B7F808380919104C82F80
:103FF000D0E0C7018E549F4F0E94EF09C655DC4F99
:10400000888380919104C82FD0E0C7018C549F4FC2
:104010000E94EF0990E00E94E51BC455DC4F8883A5
:104020000091910410E0C7018A549F4F0E94EF094C
:10403000F801E25BFC4F882319F08081886002C0A0
:104040008081877F808380919104C82FD0E0C70151
:1040500088549F4F0E94EF09C255DC4F888380919E
:104060009104C82FD0E0C70186549F4F0E94EF09EA
:1040700090E00E94E51BC055DC4F888300919104BD
:1040800010E0C701845A9F4F0E94EF09F801E25BDC
:10409000FC4F882319F08081806402C080818F7B6F
:1040A000808380919104C82FD0E0C701825A9F4F2E
:1040B0000E94EF09CE54DC4F888380919104C82F71
:1040C000D0E0C701805A9F4F0E94EF0990E00E9404
:1040D000E51BCC54DC4F88830091910410E0C701AC
:1040E00082539F4F0E94EF09F801E05BFC4F882349
:1040F00019F08081816002C080818E7F80838091F1
:104100009104C82FD0E0C70180539F4F0E94EF0950
:10411000CA54DC4F888380919104C82FD0E0C70136
:104120008E529F4F0E94EF0990E00E94E51BC854F9
:10413000DC4F88830091910410E0C7018C529F4F9F
:104140000E94EF09F801E05BFC4F882319F08081A1
:10415000826002C080818D7F808380919104C82F0E
:10416000D0E0C7018A529F4F0E94EF09C654DC4F2E
:10417000888380919104C82FD0E0C70188529F4F57
:104180000E94EF0990E00E94E51BC454DC4F888335
:104190000091910410E0C70180529F4F0E94EF09E7
:1041A000F801E05BFC4F882319F08081846002C035
:1041B00080818B7F808380919104C82FD0E0C701DC
:1041C0008E519F4F0E94EF09C254DC4F888380912B
:1041D0009104C82FD0E0C7018C519F4F0E94EF0976
:1041E00090E00E94E51BC054DC4F8883DF91CF91A3
:1041F0001F910F91FF90EF9008954F925F927F92E1
:104200008F929F92AF92BF92CF92DF92EF92FF92E6
:104210000F931F93DF93CF93CDB7DEB7C854D04031
:104220000FB6F894DEBF0FBECDBF8FED93E00E94B6
:10423000980400D000D002EC13E0EDB7FEB7128373
:10424000018382E791E0948383830E942A2847E6D2
:10425000442E41E0542ECC24DD24EE24FF240F9084
:104260000F900F900F90702E012F39E0A32EB12CDC
:10427000AC0EBD1E4E010894811C911C82EC93E093
:104280000E94DE28982F8D3031F08D30DCF1805384
:104290008230C0F530C01830A1F59981892F805344
:1042A000823078F5913311F490E801C090E08A8172
:1042B000813309F4905C8B81813309F4905E8C81A9
:1042C000813309F4905F8D81813309F4985F8E8189
:1042D000813309F49C5F8F81813309F49E5F888567
:1042E000813309F49F5FF501EE0DFF1D9083089463
:1042F000E11CF11C06C0F401E10FF11D90831F5F6A
:1043000001C010E0F0E4EF16F104C9F48FED93E082
:10431000B601A5010E9483030894C11CD11C00D0E2
:1043200000D0EDB7FEB771820283548243820E94AF
:104330002A28EE24FF240F900F900F900F90FFEF8C
:10434000CF16D10409F00CF499CFC85BDF4F0FB63C
:10435000F894DEBF0FBECDBFCF91DF911F910F91BB
:10436000FF90EF90DF90CF90BF90AF909F908F9095
:104370007F905F904F900895EF92FF920F931F935D
:10438000DF93CF93CDB7DEB766970FB6F894DEBF55
:104390000FBECDBF7E010894E11CF11C01E030C1CD
:1043A00082EC93E00E94DE28182F8091FC03882382
:1043B00001F50E94FD3060527E4480409040C8F478
:1043C0000E94FD30695873418040904090F01A304F
:1043D00011F01D3031F48091FD038F5F8093FD0358
:1043E00002C01092FD038091FD03833011F40E94FE
:1043F000FD20812FB7010E942627882309F400C1E0
:104400000093FC030093FE030E94FD300E94583489
:104410006093FF037093000480930104909302045F
:1044200089819A818330910509F493C08430910584
:1044300054F481309105C9F0823091050CF07CC0B4
:10444000892B69F0DDC08530910509F4B8C085304D
:1044500091050CF48EC0069709F0D2C0C1C08B81C3
:104460008093030410920404CBC06B817C818D8106
:104470009E810E945A3420E836E948E15BE40E94BC
:10448000BF336093050470930604809307049093F0
:1044900008046F81788589859A850E945A3420E8BE
:1044A00036E948E15BE40E94BF33609309047093EE
:1044B0000A0480930B0490930C048F8580930D0461
:1044C0006B857C858D859E850E945A3460930E0491
:1044D00070930F0480931004909311048889809343
:1044E000120469897A8980E090E00E9458346093D0
:1044F00013047093140480931504909316046B892D
:104500007C8980E090E00E94583460931704709397
:1045100018048093190490931A046D897E8980E0B1
:1045200090E00E94583460931B0470931C048093A5
:104530001D0490931E0464C08B819C819093200481
:1045400080931F048D819E81909322048093210487
:1045500057C08B819C8190932404809323048D8188
:104560009E81909326048093250489858093270457
:1045700047C08B819C81885E93406AE070E00E9416
:10458000BF36609328048D819E8190932A04809386
:1045900029048F81988590932C0480932B0489851E
:1045A0009A8590932E0480932D048B859C859093FF
:1045B000300480932F048B898093310421C08B8138
:1045C0009C819C0163E0220F331F6A95E1F7880FFD
:1045D000991F280F391F309333042093320410C0E1
:1045E0006B817C81882777FD8095982F0E945A34B3
:1045F00060933404709335048093360490933704A9
:1046000082EC93E00E94AE28181619060CF4C8CE6E
:1046100066960FB6F894DEBF0FBECDBFCF91DF9187
:104620001F910F91FF90EF9008952F923F924F921C
:104630005F926F927F928F929F92AF92BF92CF9232
:10464000DF92EF92FF920F931F93E090BC04F090E3
:10465000BD040091BE041091BF048FE590E0A0E07E
:10466000B0E0E80EF91E0A1F1B1F0E94FD306E15F8
:104670007F058007910708F468C10E94FD301B0187
:104680002C016090BC047090BD048090BE0490909A
:10469000BF040E94FD306093BC047093BD048093FE
:1046A000BE049093BF0487E00E94A231AA2797FD21
:1046B000A095BA2FBC01CD010E945A3420E030E809
:1046C00049E85FE30E947C352091CB023091CC0217
:1046D0004091CD025091CE020E94BF332DEC3CECB4
:1046E0004CE45EE30E947C357B018C016091DB022F
:1046F0007091DC028091DD029091DE022DEC3CECA9
:104700004CE45FE30E947C359B01AC01C801B7011A
:104710000E94F232DC019B01AC012093DB0230935A
:10472000DC024093DD025093DE02CB0180936D04E6
:1047300090936E04A0936F04B093700486E00E947F
:10474000A231AA2797FDA095BA2FBC01CD010E94E6
:104750005A3420E030E849E85FE30E947C3520913C
:10476000CF023091D0024091D1025091D2020E94EA
:10477000BF332DEC3CEC4CE45EE30E947C357B01C6
:104780008C016091D7027091D8028091D9029091EA
:10479000DA022DEC3CEC4CE45FE30E947C359B019B
:1047A000AC01C801B7010E94F232DC019B01AC01EF
:1047B0002093D7023093D8024093D9025093DA0263
:1047C000CB018093690490936A04A0936B04B09327
:1047D0006C046091D3027091D4028091D5029091C3
:1047E000D60220E030E040E85FE30E947135181601
:1047F0000CF0ABC082E00E94A231AA2797FDA095E1
:10480000BA2FBC01CD010E945A3420E030E849E8BB
:104810005FE30E947C357B018C016091B80470914C
:10482000B9048091BA049091BB0420E030E44CE1DB
:1048300056EC0E94BF339B01AC01C801B7010E9436
:10484000F2322091D3023091D4024091D50250919E
:10485000D6020E947C352DEC3CEC4CE45EE30E94D9
:104860007C357B018C016091C4047091C5048091FA
:10487000C6049091C7042DEC3CEC4CE45FE30E942D
:104880007C359B01AC01C801B7010E94F2326093F4
:10489000C4047093C5048093C6049093C70482E057
:1048A0000E94A231AA2797FDA095BA2FBC01CD0185
:1048B0000E945A345B016C016093C4047093C50478
:1048C0008093C6049093C704B1016619770980E00C
:1048D00090E00E9458349B01AC01C601B5010E94D2
:1048E0007C352FEA35EA41E959E30E947C35209175
:1048F000C0043091C1044091C2045091C3040E948D
:10490000F2327B018C01CB01D8018093C0049093DB
:10491000C104A093C204B093C304C601B50120E052
:1049200030E048EC52E40E947C350E9427347093BA
:104930008D0460938C04C701D80180937504909313
:104940007604A0937704B09378041F910F91FF90A1
:10495000EF90DF90CF90BF90AF909F908F907F901F
:104960006F905F904F903F902F90089586E061E0A8
:104970000E94033208958091C8048130A1F41092FE
:10498000C8048FED93E00E9498041092DF020E9409
:10499000FD300E9458346093FF03709300048093AD
:1049A0000104909302040E94BC2181EF93E00E94D5
:1049B000412F08950F9386E061E00E94C43182EC9C
:1049C00093E040E051EE60E070E00E944C280E94CD
:1049D000B6248FED93E00E9417050E94321964EF10
:1049E00071E080E090E00E940B3183E00E949F31F3
:1049F0000E94C2081092910407C00E94FA1B809185
:104A000091048F5F80939104809191048230A8F388
:104A10001092910460ED77E080E090E00E940B310D
:104A200082EC93E00E942B2981EF93E060ED76E227
:104A300028E730E040E050E000E00E94F32E8FEDE8
:104A400093E00E94980481EF93E00E94592F0F9108
:104A500008952F923F924F925F926F927F928F9222
:104A60009F92AF92BF92CF92DF92EF92FF920F93FD
:104A70001F93DF93CF9300D000D0CDB7DEB78091E6
:104A800028048430A8F08091BA029091BB0280572C
:104A90009E4F71F460911B0470911C0480911D0461
:104AA00090911E040E9427347093BB026093BA0257
:104AB000E0900E04F0900F04009110041091110486
:104AC000C801B7012091CA043091CB044091CC04B5
:104AD0005091CD040E94F1326093490470934A04CE
:104AE00080934B0490934C04A090B704AA2049F5FE
:104AF00080910D04823008F43CC1809105049091AE
:104B00000604A0910704B09108048093CE0490930A
:104B1000CF04A093D004B093D10480910904909164
:104B20000A04A0910B04B0910C048093D2049093DA
:104B3000D304A093D404B093D50481E08093B70448
:104B400018C181E0A81609F014C16090D604E8E10C
:104B5000E61580F16091D7047091D8048091D90452
:104B60009091DA04A80197010E94F1329F7720E02A
:104B700030E040E05FE30E94713518165CF410925B
:104B8000D604E092D704F092D8040093D90410938D
:104B9000DA0410C0862D8F5F8093D604893151F4DA
:104BA000E092CA04F092CB040093CC041093CD049D
:104BB000A092C904E090CE04F090CF040091D004FC
:104BC0001091D104C801B7019F7725E33AEF4EE871
:104BD0005CE30E947C350E94BC3369837A838B83BB
:104BE0009C83C801B70120910504309106044091CF
:104BF0000704509108040E94F1321B012C019F7799
:104C000020EC3BE649ED57E40E947C355B016C01EA
:104C10006091D2047091D3048091D4049091D50412
:104C20002091090430910A0440910B0450910C0426
:104C30000E94F1323B014C019F7720EC3BE649EDAD
:104C400057E40E947C3529813A814B815C810E9426
:104C50007C357B018C01C601B501A60195010E943E
:104C60007C355B016C01C801B701A80197010E9466
:104C70007C359B01AC01C601B5010E94F2320E9455
:104C800003360E94273460934D0470934E04809342
:104C90004F049093500460E070E080E89FE3298126
:104CA0003A814B815C810E94BF339B01AC01C20100
:104CB000B1010E947C3597FA909497F89094A401E2
:104CC00093010E94653320EE3EE245E652E40E94E5
:104CD0007C3520E030E044EB52E40E94F2320E9446
:104CE00027349B01AC0197FF04C028593E4F4F4F1A
:104CF0005F4FCA01B901645B70408040904097FFEC
:104D000006C0CA01B9016C547F4F8F4F9F4F0E945C
:104D10005A3420911B0430911C0440911D04509181
:104D20001E040E94F1320E94273497FF04C0685984
:104D30007E4F8F4F9F4F0E945A3420E030E044EB6B
:104D400053E40E94BF3320E030E040E851E40E9489
:104D50007C350E94DF3520E030E040E85FE30E94D0
:104D6000F2320E942C3460935104613110F01092A1
:104D700051040F900F900F900F90CF91DF911F91E2
:104D80000F91FF90EF90DF90CF90BF90AF909F90EA
:104D90008F907F906F905F904F903F902F900895ED
:104DA0000E944C0C8FED93E00E9429250E94152350
:104DB0000E9437190E94BE0608950F931F938FED2E
:104DC00094E06CE270E00E9421038C010F5F1F4FA2
:104DD0001093DC040093DB04C8016CE270E00E94D5
:104DE0002103FC019093DE048093DD04012B41F04C
:104DF000009731F010822091DB043091DC0402C076
:104E000020EE32E0C9011F910F9108958091DD04D9
:104E10009091DE04009781F001969093DC048093DA
:104E2000DB046CE270E00E942103FC019093DE043D
:104E30008093DD04009719F420EE32E005C0108263
:104E40002091DB043091DC04C9010895EF92FF92B8
:104E50000F931F93CF93DF93EB01843209F0CEC001
:104E600082EC93E06AE04FED54E020E830E00E94ED
:104E7000BC32882309F4C2C0E82FF0E0E252FB4FB5
:104E800080818D3009F0BAC010828091DF048D34AA
:104E900009F467C08E344CF4833409F47AC0893441
:104EA000A9F0813409F0AAC023C0853509F494C063
:104EB0008A3509F49AC0803509F0A0C01982188299
:104EC0000E94DD260E94D1028A8310C082E090E019
:104ED000998388830E94DD260E94D1029D838C8362
:104EE0000E9406270E94D1029B838A8381E087C0AB
:104EF00081E090E0998388830E94DD260E94EF0282
:104F00006A837B838C839D830E9406270E94EF0225
:104F10006E837F83888799870E9406270E94D1022B
:104F20008F870E9406270E94EF026A877B878C8703
:104F30009D870E9406270E94D102888B198A0E94B1
:104F400006270E94D1028A8B1B8A0E9406270E9494
:104F5000D1029D8B8C8B0E9406270E94D1028E87E6
:104F6000C5CF83E090E0998388830E94DD260E946C
:104F7000EF027B836A830E9406270E94EF026C8304
:104F80007D838E839F830E9406270E94D10288879B
:104F9000ADCF84E090E0998388830E94DD260E9453
:104FA000D1029B838A837E0101E010E00E940627E4
:104FB0000E94D102F701958384830F5F1F4F82E027
:104FC00090E0E80EF91E0530110581F70E940627D2
:104FD0000E94D1028A8B8ACF85E090E099838883F2
:104FE0000E94DD260E94D1027FCF86E090E0998367
:104FF00088830E94DD260E94D10276CF80E0DF9177
:10500000CF911F910F91FF90EF9008956EBD0DB459
:1050100007FEFDCF8EB508958DE061E00E94C4319A
:105020008BE061E00E94C4318CE060E00E94C431FA
:105030008AE061E00E94C4311CBC80E58CBD8DB566
:105040008EB508958FE595E00E940C2808958FEFA6
:105050009FE70895DF93CF93CDB7DEB7FE01399672
:105060008D819E8161E04F8158859F010E94CB2AEE
:10507000CF91DF910895DF93CF93CDB7DEB7FE01D7
:1050800039968D819E8160E04F8158859F010E94F5
:10509000CB2ACF91DF9108950F931F93DC01ED91FF
:1050A000FC910288F389E02D20E030E000E010E080
:1050B00009951F910F9108958F92AF92CF92EF9221
:1050C000FF920F931F93DF93CF93CDB7DEB7FC0111
:1050D0001382128288EE93E0A0E0B0E0848395838F
:1050E000A683B78382E393E09183808355874487C7
:1050F00037872687118B008BF38AE28AC48AA58AB8
:10510000868A70E0CB0123E0880F991F2A95E1F78A
:105110009C01205A3A4F308F278B88599A4F928F93
:10512000818F81E090E002C0880F991F6A95E2F7B5
:1051300020917005282B20937005CF0140E051EE9F
:1051400060E070E00E944C28CF91DF911F910F9199
:10515000FF90EF90CF90AF908F900895FC01838DDA
:10516000882319F42FEF3FEF0DC00788F08DE02D55
:105170002081318182819381281B390B8481958123
:1051800028233923C9010895FC01838D882319F44C
:105190002FEF3FEF11C0018CF28DE02D2081318186
:1051A00082819381281B390B2095309584819581CC
:1051B000282339232F5F3F4FC9010895FC01838DB8
:1051C000882361F0A789B08D2D913C91119712969B
:1051D0008D919C9113972817390721F44FEF5FEFBA
:1051E000CA01089512968D919C9113971696ED9190
:1051F000FC911797E80FF91F408112968D919C91B1
:105200001397019614962D913C9115978223932321
:1052100013969C938E93129750E0E2CFFC01838DFE
:10522000882351F00788F08DE02D20813181828123
:1052300093812817390721F42FEF3FEFC901089513
:10524000828193810680F781E02DE80FF91F80812C
:10525000282F30E0F3CFDC015796ED91FC91589761
:1052600082819381918380835996ED91FC915A9725
:1052700080819181938382830895DC015B968C9178
:105280005B978823A9F15996ED91FC915A9720815B
:1052900031812F5F3F4F84819581282339235C968C
:1052A0008C915C97882329F0828193812817390794
:1052B000F9F08281938128173907D9F38081918190
:1052C0000680F781E02DE80FF91F60835996ED9174
:1052D000FC915A97318320835296ED91FC9153971C
:1052E000808156969C91892B808321E030E002C01A
:1052F00020E030E0C9010895CF93DF93EC011B82D9
:105300001A828A819B81998388831D821C828E8167
:105310009F81009721F00E941D301F821E82DF9125
:10532000CF9108950F931F938C01DC015296ED915C
:10533000FC915397208156968C91569755969C9147
:105340005597892B80958223808357968D919C91C8
:1053500058970E947C29F801818D928D0E947C29AA
:10536000D8015B961C921F910F9108950F931F9384
:10537000CF93DF938C01FC0113821282828193818F
:105380009183808341E0A1E0B0E001C04F5FFD0167
:10539000042E02C0EE0FFF1F0A94E2F79B0182E089
:1053A0006130780710F020E032E0E217F30770F385
:1053B000C1E0D0E002C0CC0FDD1F4A95E2F7219793
:1053C000F801268137812115310541F084819581CD
:1053D0008C179D0789F0C9010E941D30F801D58303
:1053E000C483CE0101960E94802F9C01F80197830F
:1053F000868380E0232B09F081E0DF91CF911F911C
:105400000F910895AF92BF92CF92DF92EF92FF92E9
:105410000F931F93CF93DF937C015A016B01E90136
:10542000DC015B968C915B978823F1F021153105A7
:1054300039F45796ED91FC915897C481D581219606
:105440000115110549F4D7015996ED91FC915A9730
:10545000048115810F5F1F4FD701ED91FC910088EA
:10546000F189E02DC7010995F7018789908D209773
:1054700011F4C0E8D0E0BE010E94B629882381F073
:10548000D70159968D919C915A970115110511F4E8
:1054900000E110E0B8010E94B629882309F04DC050
:1054A000D701ED91FC910088F189E02DC7010995A4
:1054B00067C0D7015096ED91FC915197B0E0AB16C3
:1054C000B1EEBB06B0E0CB06B0E0DB0609F454C099
:1054D00081E090E0D70154960C9002C0880F991F8C
:1054E0000A94E2F7808360E079E08DE390E0A60122
:1054F00095010E9408372150304040405040CA0179
:10550000B90122E030E040E050E00E940837D701C6
:105510001C96ED91FC911D9730831E96ED91FC91A8
:105520001F972083D7015296ED91FC91539780816C
:1055300055969C91892B808323C0D7015996ED9174
:10554000FC915A9713821282828193819183808386
:105550005796ED91FC915897138212828281938124
:105560009183808381E05B968C931A141B041C0446
:105570001D040CF49ECFD6CF108220E130E0C7CFBF
:10558000DF91CF911F910F91FF90EF90DF90CF901F
:10559000BF90AF9008952F923F924F925F926F927B
:1055A0007F928F929F92AF92BF92CF92DF92EF92B3
:1055B000FF920F931F93DF93CF93CDB7DEB764971E
:1055C0000FB6F894DEBF0FBECDBF3C01688B5A8B7F
:1055D000498B69011C01AE014F5F5F4F5C8B4B8BA8
:1055E000E989FA89488940FD659140FF6191FA8B0C
:1055F000E98B662309F4D7C3653249F440FD8591F0
:1056000040FF8191FA8BE98B8532B1F40CC06A308E
:1056100051F4D301ED91FC910190F081E02DC10195
:105620006DE009956AE0D301ED91FC910190F08164
:10563000E02DC1010995D4CF982F10E0882499243A
:105640001032B0F49B3269F09C3228F4903251F061
:10565000933271F40BC09D3239F0903349F41160EC
:1056600028C01260146025C0186023C0106121C0DA
:1056700017FD2BC0892F80538A3078F416FF06C09F
:10568000BAE09B9E902C1124980E13C0EAE08E9EE7
:10569000802C1124880E10620CC09E3221F416FD5D
:1056A00082C3106406C09C3611F4106802C098369C
:1056B00061F4E989FA89488940FD959140FF91910B
:1056C000FA8BE98B992309F0BBCF892F855483305E
:1056D00020F4812F8061905E07C0892F855683302A
:1056E00008F0E6C1812F8F7E86FD02C076E0972EFE
:1056F0006FE3F62EF822953619F450E4F52A07C028
:10570000963619F480E8F82A02C091109A94F7FEB0
:105710000BC09BE3991520F427E05CE3B52E0DC088
:10572000B92CB39427E009C0A7E0A91520F447E0FD
:10573000942E27E001C0292DBB24F6013496FD8765
:10574000EC87D6016D917D918D919C91AE014F5F5B
:105750005F4F0B2D0E949B016C010981E02FF0E04F
:10576000FF87EE8700FF05C0FE85F3FD02C01DE246
:1057700009C0F1FE02C01BE205C0F2FC02C010E04D
:1057800001C010E28E859F858C709070892B09F482
:1057900044C0112311F483E001C084E0881510F0A7
:1057A00088240EC0881AF3FC0BC0D301ED91FC9144
:1057B0000190F081E02DC10160E209958A94A9F77A
:1057C000112349F0D301ED91FC910190F081E02D7E
:1057D000C101612F0995BE85B3FF03C00CE712E03C
:1057E00012C000E812E00FC0E114F10409F06052A9
:1057F000D301ED91FC910190F081E02DC10109955B
:105800000F5F1F4F05C0EF2CFF24B0E1EB22FF24F8
:10581000F8016491662341F748C1F7FE13C0BC0C40
:10582000FE85F4FF04C08A81813309F4BA941B1405
:105830001CF0BB24B3942DC048E04B1550F538E064
:10584000B32E27C0F6FC25C0892D90E08C159D0550
:105850004CF05CEFC5165FEFD50624F080E8F82A1F
:1058600001C09A94992049F0E2E0F0E0EC0FFD1FAE
:10587000E90DF11D80818033A1F3F7FE0AC0B92C38
:10588000B394892D90E0C816D90614F0992401C06C
:105890009C18F7FC03C025E030E009C01C141D046F
:1058A0001CF021E030E003C096012F5F3F4F112331
:1058B00011F02F5F3F4F992029F0892D90E001963C
:1058C000280F391F882D90E02817390714F08824F5
:1058D00001C0821A4F2C5524C20189709070892B07
:1058E00059F00CC0D301ED91FC910190F081E02DB5
:1058F000C10160E209958A948820A1F7112349F03B
:10590000D301ED91FC910190F081E02DC101612F57
:10591000099543FE0BC00CC0D301ED91FC910190A1
:10592000F081E02DC10160E309958A948820A1F7F8
:10593000F7FE51C08601D7FE02C000E010E07601FC
:105940000894E11CF11CE01AF10AE1E0F0E0EC0F30
:10595000FD1FEE0EFF1E26014B185108892D90E009
:10596000AA24BB24A81AB90AFFEF0F3F1F0749F466
:10597000D301ED91FC910190F081E02DC1016EE227
:105980000995C016D10634F0401651061CF4F701F3
:10599000608101C060E3015010400894E11CF11CDB
:1059A0000A151B054CF0D301ED91FC910190F0819B
:1059B000E02DC1010995D8CF0C151D0541F48A8150
:1059C000863320F4853319F4BE85B4FF61E3D30137
:1059D000ED91FC9165C06A81613309F00F7ED301BE
:1059E000ED91FC910190F081E02DC1010995992084
:1059F000E1F0D301ED91FC910190F081E02DC10126
:105A00006EE2099512E0E1E0F0E0EC0FFD1FE10F1E
:105A1000F11D60811F5FD301ED91FC910190F08138
:105A2000E02DC10109959A9471F7D301ED91FC9194
:105A30000190F081E02D44FC02C065E601C065E400
:105A4000C1010995D7FC05C0C114D10441F404FF7C
:105A500006C0D094C194D108D3946DE201C06BE22A
:105A6000D301ED91FC910190F081E02DC1010995E8
:105A700060E305C06F5FE6EFFFEFCE0EDF1EFAE0DA
:105A8000CF16D104BCF7D301ED91FC910190F081C8
:105A9000E02DC1010995D301ED91FC916C2D605D64
:105AA0000190F081E02DC1010995CC84DD8478C19D
:105AB000933631F0933799F0933509F061C023C0E4
:105AC000F601808189835E010894A11CB11C42E02B
:105AD00050E0C40ED51E21E0E22EF12C12C0D601FA
