:020000040000fa
:080000000002040000000000f2
:020000040000fa
:10000800e2c20000dec20000ecc20000dac200005a
:10001800d6c20000e8c20000ecc20000ecc200003a
:10002800ecc20000028b0000ecc2000044b60000e5
:1000380002990000508b0000ecc20000ecc20000e6
:10004800ecc20000ecc2000012a20000b2ac00003a
:1000580078ac0000ecc20000ecc20000ecc200006a
:10006800ecc20000ecc20000ecc20000ecc20000d0
:1000780000be0000ecc20000e08c00002e8d0000e5
:10008800ecc20000ecc20000ecc200001cbb000087
:10009800fab60000ecc20000eead0000b4ad0000fe
:1000a800ecc2000076a30000ecc2000090b3000090
:1000b800ecc20000a08b0000f08b0000408c000018
:1000c800908c0000ecc20000ecc20000ecc2000002
:1000d800ecc20000ecc20000ecc2000018b700003f
:1000e800beb60000ecc20000b2830000ecc2000003
:1000f800ecc20000ecc20000ecc20000ecc2000040
:1001080026b30000ecc20000ecc20000ecc2000004
:10011800ecc20000ecc20000ecc20000ecc200001f
:10012800ecc20000ecc20000ecc20000ecc200000f
:10013800ecc20000ecc20000ecc20000ecc20000ff
:10014800ecc20000ecc20000ecc20000ecc20000ef
:10015800ecc20000ecc20000ecc20000ecc20000df
:10016800ecc20000ecc20000ecc20000ecc20000cf
:10017800ecc20000ecc20000ecc20000ecc20000bf
:10018800ecc20000ecc20000ecc20000ecc20000af
:10019800ecc20000ecc20000ecc20000ecc200009f
:1001a800ecc20000ecc20000ecc20000ecc200008f
:1001b800ecc20000ecc20000ecc20000ecc200007f
:1001c800ecc20000ecc20000ecc20000ecc200006f
:1001d800ecc20000ecc20000ecc20000ecc200005f
:1001e800ecc20000ecc20000ecc20000ecc200004f
:1001f800ecc20000ecc20000ecc20000ecc200003f
:10020800ecc20000ecc20000ecc20000ecc200002e
:10021800ecc20000ecc20000ecc20000ecc200001e
:10022800ecc20000ecc20000ecc20000ecc200000e
:10023800ecc20000ecc20000ecc20000ecc20000fe
:10024800ecc20000ecc20000ecc20000ecc20000ee
:10025800ecc20000ecc20000ecc20000ecc20000de
:020000040000fa
:100400000f0022000eff22000e01880000000000f5
:100410000c00070080612800010020000f00070089
:10042000000020000000e000020032000000020096
:1004300000000000b2c30200000000000040da002b
:100440000000fe00601221000000e0000200320007
:10045000002020009001880000000600a102880012
:10046000800078000000eb001a003700e2804000b6
:1004700054a0b4009101ba00e280400054a0b4003e
:100480009102ba00e280400054a0b4000002eb00e8
:10049000472bde00f507b200a6018800602ce100c2
:1004a00008003a000049eb000201e80002003900b0
:1004b0003420ec0002f0a0008301e900f9ff3e00c7
:1004c000040037006128e100010032000082eb00e7
:1004d000040007001101ba000200e000e3ff3a0047
:1004e0000000060004d0a300e20f49001c00390000
:1004f000810278003549ba000201e80002003900a3
:100500003420ec0002f0a0008301e9000f0032006b
:100510002549ba000201e800020039003420ec004d
:1005200002f0a0008301e900080032000400e000ae
:100530000600320015c9ba000201e80002003900c5
:100540003420ec0002f0a0008301e9008180e80083
:1005500054a0b4000300e000e2ff3a0000000600ef
:100560009102ba00055978008301e900f7ff3200d3
:10057000c82ade00055978008301e900f3ff320044
:100580000400e000f1ff320011d9ba00eeff37009d
:100590008c9d040000000000429b0400000000004d
:1005a0004e9b0400000000005e9b04000000000061
:1005b0006e9b040000000000829b0400000000000d
:1005c000789d040000000000ec9c04000000000086
:1005d000d49b040000000000f09b04000000000019
:1005e000969b040000000000269c04000000000010
:1005f000ae9b040000000000849d04000000000089
:10060000d87a040000000000187b040000000000fd
:10061000a87a040000000000367b040000000000ff
:10062000607b040000000000827b040000000000ea
:10063000a27b0400000000008a7c0400000000008f
:10064000c87c040000000000067d040000000000db
:10065000447d040000000000c67d0400000000008e
:10066000827d040000000000f47d04000000000012
:10067000a47d0400000000001286040000000000b9
:100680001484040000000000dc830400000000006b
:10069000e88304000000000008840400000000005b
:1006a00028840400000000003684040000000000dc
:1006b0004484040000000000508404000000000096
:1006c0005e840400000000008c8404000000000030
:1006d000b8840400000000008084040000000000d2
:1006e000c484040000000000c2bd0400000000003b
:1006f000cea1040000000000989f0400000000004c
:10070000a69f040000000000e49f04000000000019
:1007100054a004000000000098a0040000000000a5
:10072000d8a00400000000001ea10400000000008a
:1007300046580400000000007c5304000000000044
:10074000b4530400000000002c520400000000001c
:100750008c52040000000000ca5204000000000097
:100760002853040000000000aa510400000000000b
:10077000ee51040000000000f453040000000000eb
:100780006054040000000000bc540400000000009d
:100790000855040000000000f255040000000000ad
:1007a0003a560400000000004e550400000000000e
:1007b00096550400000000005e5704000000000091
:1007c000ca57040000000000965604000000000014
:1007d0000257040000000000401504000000000063
:1007e0000c250400000000000000040000000000d0
:1007f000ba05040000000000e60504000000000047
:100800001200fa006007980071079800020f980024
:1008100000222000100798002022200020079800c6
:1008200060222000300798008022200040079800b6
:100830006e00900060004000e20f50005e003e003d
:10084000c0f08000e20f500008003a0000232000b2
:100850001007980020232000200798006023200024
:10086000300798008023200040079800c0f08000e7
:10087000e30f50000b003a0080252000e00f5000ed
:1008800008003200002520001007980020252000d5
:100890002007980060252000300798008025200060
:1008a00040079800c0f08000e40f50000b003a00b1
:1008b000802b2000e00f500008003200002b2000a9
:1008c00010079800202b200020079800602b2000a4
:1008d00030079800802b2000400798001e009000f1
:1008e000900078000000280000806000e00f5000b9
:1008f00008003a004e0090008000eb0001087800ec
:100900001e00900010017800010028008100710095
:10091000010878000e089000000f78001c003700d6
:10092000000a200050079800030037005e00900086
:100930000000e900500798002e0090001000780099
:1009400061006000e00f500003003a005e0090007c
:10095000e00f5000f5ff3a002e00900010007800e4
:1009600061006000e00f50000d003200fe009000ba
:100970003e00900010007800004078008048780029
:100980007e0090000000e800700798001e0fe9004c
:100990001e007800e00f5000e1ff3a000100370030
:1009a000000000001e0078008e08900000805000bb
:1009b000000f980001003700000000000e089000b2
:1009c0000080fa00000006001000fa0050079800ae
:1009d0006107980072079800002220001007980015
:1009e0002022200020079800402220003007980095
:1009f00080222000400798005e00900060004000c8
:100a0000e20f500057003e00c0f08000e20f50009f
:100a100008003a000023200010079800202320003f
:100a200020079800402320003007980080232000f2
:100a300040079800c0f08000e30f50000b003a0020
:100a400080252000e00f5000080032000025200023
:100a5000100798002025200020079800402520003e
:100a6000300798008025200040079800c0f08000e3
:100a7000e40f50000b003a00802b2000e00f5000e4
:100a800008003200002b200010079800202b2000c7
:100a900020079800402b200030079800802b200072
:100aa000400798001e009000900078000000280089
:100ab00000806000e00f500008003a004e009000f7
:100ac0008000eb00010878001e0090001001780003
:100ad0000100280081007100010878002e009000bc
:100ae000900078000040200000806000e00f50007f
:100af00005003a002e00900010017800014020000f
:100b000081007100010878007e009000000f7800dd
:100b100010003700000000002e00900090007800c8
:100b20000010200000806000e00f5000faff32004b
:100b30006e009000104078008000fb003e009000a6
:100b4000010878006e0090000000e800600798003f
:100b50001e0fe9001e007800e00f5000edff3a0084
:100b600001003700000000007e0090000080fa00c5
:100b700000000600881f7800020478000801780051
:100b80006b0a0700080040004f04780000000600d0
:100b90000000fa00881f780000047800ea815700fe
:100ba0003fb9970088007800a05b20001d00070077
:100bb000e00f50000200350000044400004ceb0040
:100bc0004f0478000080fa0000000600889fbe00f5
:100bd0000004780001007800820478008801780021
:100be0000901780011002000f3090700890f500067
:100bf000010032000004eb00080078004f04be0042
:100c0000000006000000fa00e88157004fb9970085
:100c100021ce2100605e2000020007000080fa0063
:100c2000000006004f06b000889fbe008a9fbe00ed
:100c30008c9fbe008e1f780080057800010578002b
:100c4000820478008300780000f92f000f00400034
:100c50001e0f070028f92f000f0444004b049800d2
:100c60005a0498000000eb00600c98002edf210071
:100c70006dde2100fcff2700194078008085fb0015
:100c80000b05fb008b05ea00cf5dde005002200063
:100c9000800f55000d003200e18f55000b003a0027
:100ca000c80190000b01780089007800580090007e
:100cb0000300010050049800e00f50008d00320046
:100cc000680890000000e800600c98008b844400e5
:100cd00050022000800f550004003200e00f550044
:100ce000e5ff3a007f909700830037000000eb009b
:100cf000400c9800300c9800200c9800100c9800c4
:100d0000000c980070049800001498000700370049
:100d10000e00500000004000808046000810900047
:100d200011007000001498008904e800194578004b
:100d30008a00fb0020df2100190a0700e00f5000a5
:100d4000f3ff3a00a1c2b300814f55000e003a00f4
:100d50008f8897000180e900808f9f001000780045
:100d6000700c9800e00f500005003d000000ea0004
:100d7000700c9800081090000020a000001498004b
:100d80008904e80010003700700c98000900370053
:100d9000f80890008c8f500005003200ea09b80076
:100da00001fd2f008280400000804000700c980000
:100db0008904e8001900fb0001fd2f00808040003d
:100dc000e98f5000f2ff3600e0c2b300994f1000e7
:100dd000030032000080eb00500c98001b0037002d
:100de000a0c2b300d94f100007003a008f889700c7
:100df0000180e900808f9f0010007800500c98005f
:100e00008904e800110037000000eb00500c980046
:100e100009003700d80890008c8f50000500320080
:100e2000ea09b80001fd2f008280400000804000e8
:100e3000500c98008904e8001900fb0001fd2f0008
:100e400080804000e98f5000f2ff3600194578009d
:100e50008a00fb00e0dd2100d1090700e00f50000f
:100e6000020032008904e8000100370000457800e4
:100e70002a64980080c6b300804f550004003a00f1
:100e8000994f15000a003a006640500006003700ee
:100e9000c0c6b300804f550005003a00994f1500b9
:100ea00003003a0065404000206498008904e8008f
:100eb0001901fb0063fb2f008f81410001f92f0016
:100ec0008f8040000800780011000700e00f5000fc
:100ed00008003a0061fb2f008f8040000800780076
:100ee000be0d0700e00f5000020035008904e80045
:100ef00061ff37000080eb004f0778004f06be000f
:100f00004f05be004f04be004f06b10000000600b2
:100f1000889fbe008a1f7800000478000242780093
:100f200083027800e0c6b300804f5200d800320040
:100f300015003c006b405000804f520024003200ee
:100f40000a003c0070405000804f520016013200f1
:100f500065404000804f52007600320050c2b3001e
:100f6000804f520027013a002301370040c6b300ea
:100f7000804f52001c00320065404000804f5200fc
:100f800020013a001800370030c7b300804f5200ec
:100f90000501320007003c0064405000804f5200c1
:100fa000640032000040e800804f520015013a0012
:100fb000ee00370050c7b300804f52005d00320092
:100fc00063404000804f52000e013a005900370044
:100fd0001181e90082087800780090008082420048
:100fe000924a78000d01370028609000c2c6b30015
:100ff000824f500009003a0011007800640350004d
:10100000860878001600be00160390004fb3de007d
:1010100006017800860178001500370012c7b3007a
:10102000824f500003003a0011017800680051001f
:1010300005003700a2c6b300824f500006003a00f8
:101040009101780068805100800878005001be004e
:101050004000be00060037001180e90080087800db
:1010600010007800cf80de00010178008201780056
:10107000009cbe000294be002863900087c6b300a7
:10108000874f53000e00320027c6b300874f53002e
:1010900005003a000000fb00cf80de00010178006f
:1010a000820178000900370047c7b300874f53001b
:1010b00003003200e6c34300874f530005003a00a7
:1010c000cf80de000101780082017800009cbe0024
:1010d0000294be00780390003800be002801be00d4
:1010e000e00f5000e08f5800e00f5900e08f5900ea
:1010f00003003d0006814200d1c2b3000a00370060
:101100008810900062816000030032000681420076
:10111000b1c2b30004003700e18060005700320024
:101120000681420001c2b300014978000600e800d0
:101130005100370028609000c2c6b300824f5000b3
:1011400007003a0011017800640351008608780016
:101150001600be000001eb00820178001500370088
:1011600012c7b300824f500003003a00910178008b
:101170006880510005003700a2c6b300824f5000be
:1011800006003a00110178006800510080087800dc
:101190005001be004000be00060037001180e9008b
:1011a0008008780010007800010020000200200074
:1011b00003002000009cbe000294be002863900043
:1011c00087c6b300874f53000e00320027c6b30016
:1011d000874f530005003a000080fb00010020000b
:1011e00002002000030020000900370047c7b300b9
:1011f000874f530003003200e6c34300874f53007c
:1012000005003a0001002000020020000300200039
:10121000009cbe000294be000810900068006000b0
:10122000160032003800be002801be00e00f50005a
:10123000e08f5800e00f5900e08f59000f00320096
:1012400080c7b300804f52000300320080c5b30056
:10125000804f520009003a00f800900001814200de
:1012600000c3b300004978000100e800808042001c
:10127000844878000000e80070049800780090002e
:101280008082420065049800844078004300370063
:1012900028609000c3c6b3001181e900834f50005d
:1012a000260032000a003c00e4c15100834f500088
:1012b0001f00320083c1e800834f5000130032004a
:1012c000e8c15100834f500022003a000a00370065
:1012d00043c7b300834f500015003200e6c1410000
:1012e000834f500012003200e9c15100834f50007b
:1012f00018003a00050037008208780012007800d4
:10130000485c900008487800460037008208780062
:101310001202780068089000cf80de00010178009a
:1013200082017800009abe000292be003d003700a4
:1013300082087800120078000900370082087800df
:101340001201780068089000cf80de000089be009e
:10135000340037001180e900800878001000780020
:10136000680c9000080878002e0037001180e90012
:101370008008780010007800cf80de00010178003e
:1013800082017800009cbe000294be0078009000ac
:10139000808242006504980081c7b300080078008d
:1013a000400b07001f0037001180e900800878001b
:1013b000100578006a049800d80c9000e08f540063
:1013c00004003d000a0078008c08070080047800c3
:1013d00007003700090178008000eb000a00780060
:1013e0004a080700e00f5000010032008a04500054
:1013f000190c98000b0037007800900080824200a2
:10140000050037007800900080824200e04f5200d3
:1014100001003a0054c2b300844a78000000e8009a
:10142000700498000000eb004f0578004f04be00e8
:10143000000006002200f8002400f8002600f80052
:101440000100b8000000e9004400f800010f20008e
:1014500021028800820078003800f8003a00f80085
:101460003c00f8003e00f8004000f8000080080052
:1014700004000000b30278000500ca00b40278003e
:101480000500c9003200cc004000f9003e00f90020
:101490003c00f9003a00f9003800f900010078003a
:1014a0004400f9002600f9002400f9002200f900a8
:1014b000000006002200f8002400f8002600f800d2
:1014c000889fbe008a9fbe008c9fbe004400f8002b
:1014d0000d0f20002d028800830678000106e90028
:1014e0008205e90081804000020141000000e9001e
:1014f00024003500050578003800f8003a00f800af
:101500003c00f8003e00f8004000f8000b800800a6
:1015100014000000040478008a0478001201c3005b
:101520003800f8003a00f8003c00f8003e00f800ef
:101530004000f8000c800800030000003803780029
:10154000990378001201c600828444004000f9002b
:101550003e00f9003c00f9003a00f9003800f900bb
:101560003300cd000a85e8004000f9003e00f90094
:101570003c00f9003a00f9003800f900010242008d
:10158000daff37000d0078004400f9004f06be0076
:101590004f05be004f04be002600f9002400f900ec
:1015a0002200f900000006002200f8002400f800e4
:1015b0002600f8004400f800050f200025028800ee
:1015c0000100b8000000e900820078003800f8004f
:1015d0003a00f8003c00f8003e00f8004000f80037
:1015e0000080080002000000b30278001301c00070
:1015f0003200cd004000f9003e00f9003c00f90047
:101600003a00f9003800f900010078004400f900c0
:101610002600f9002400f9002200f900000006006d
:101620002200f8002400f8002600f8002800f80046
:101630002a00f8002c00f8000100b8000000e900c2
:101640004400f800010f2000210288008200780089
:101650003800f8003a00f8003c00f8003e00f800be
:101660004000f8000080080005000000b302780088
:101670000500ca00b40278000580ca000030cb0023
:101680003200cc004000f9003e00f9003c00f900b7
:101690003a00f9003800f900010078004400f90030
:1016a0002c00f9002a00f9002800f9002600f900b2
:1016b0002400f9002200f9000000060082027800f0
:1016c0000000e9000102e900818040003800f800d4
:1016d0003a00f8003c00f8003e00f8004000f80036
:1016e0000480080011000000030278003800f800b0
:1016f0003a00f8003c00f8003e00f8004000f80016
:101700000080080001000000141978000102420066
:101710004000f9003e00f9003c00f9003a00f900f1
:101720003800f900000000008381e800000000009c
:101730004000f9003e00f9003c00f9003a00f900d1
:101740003800f90005007800000006002200f800cb
:101750002400f8002600f8004400f800040f2000e0
:1017600024028800010278000000e9003800f80037
:101770003a00f8003c00f8003e00f8004000f80095
:101780000080080004000000b20278000500ca00d2
:10179000b30278000500c9003100cc004000f90018
:1017a0003e00f9003c00f9003a00f9003800f90069
:1017b000040078004400f9002600f9002400f90034
:1017c0002200f900000006002200f8002400f800c2
:1017d0002600f800889fbe008a1f78004400f800a9
:1017e000070f200027028800821f78008103e9008c
:1017f0000005eb003800f8003a00f8003c00f80063
:101800003e00f8004000f8000780080014000000c7
:1018100003047800840478001201c3003800f80043
:101820003a00f8003c00f8003e00f8004000f800e4
:101830000a80080002000000b8027800290378003e
:101840001201c4004000f9003e00f9003c00f9001c
:101850003a00f9003800f9003200cd000482e800b7
:101860000a05e8004000f9003e00f9003c00f900dc
:101870003a00f9003800f9000482e9008381e800a9
:1018800001055000210034000a05e9003800f80085
:101890003a00f8003c00f8003e00f8004000f80074
:1018a0000a80080013000000030478008404780014
:1018b0001201c3003800f8003a00f8003c00f800bc
:1018c0003e00f8004000f800078008000200000019
:1018d000b8027800290378001201c4004000f90022
:1018e0003e00f9003c00f9003a00f9003800f90028
:1018f0003200cd008381e8004000f9003e00f9008d
:101900003c00f9003a00f9003800f9008703e900cb
:10191000210035003800f8003a00f8003c00f800db
:101920003e00f8004000f8000780080014000000a6
:1019300003047800840478001201c3003800f80022
:101940003a00f8003c00f8003e00f8004000f800c3
:101950000780080002000000b80278002903780020
:101960001201c4004000f9003e00f9003c00f900fb
:101970003a00f9003800f9003200cd008381e80018
:101980008703e9004000f9003e00f9003c00f9003f
:101990003a00f9003800f9004f0078004400f900df
:1019a0004f0578004f04be002600f9002400f9001e
:1019b0002200f900000006003600f80081017800de
:1019c0000000e90000800900b218780003007800e8
:1019d0003600f90000000600840378008102e90067
:1019e0008502d000050342008102d1008502e90092
:1019f0003800f8003a00f8003c00f8003e00f8001b
:101a00004000f800058008000200000096027800ff
:101a100017137800851b78004000f9003e00f9009c
:101a20003c00f9003a00f9003800f900e40b02002c
:101a300000000000000006002200f8002400f8006a
:101a40002600f8004400f800040f2000240288005b
:101a50000000e9001201c3003800f8003a00f80065
:101a60003c00f8003e00f8004000f800008008004c
:101a70000200000031027800b20278001201c000ba
:101a80004000f9003e00f9003c00f9003a00f9007e
:101a90003800f9000000cd004400f9002600f900ec
:101aa0002400f9002200f90000000600b1027800cd
:101ab0000009eb000002e90007003400b1017800e2
:101ac0000328e10002003c00830278000409500072
:101ad0000402e900f9ff3c00050078000000060060
:101ae000b10278000009eb000002e90007003400b1
:101af000b10178000328e10002003500830278007c
:101b0000040950000402e900f9ff3c0005007800d8
:101b1000000006002200f8002400f8002600f8006b
:101b20004400f800040f200024028800811f780080
:101b30000000e9003800f8003a00f8003c00f80026
:101b40003e00f8004000f80000800800030000009c
:101b500032027800b30278001301c0003100cd00da
:101b60004000f9003e00f9003c00f9003a00f9009d
:101b70003800f9004f0078004400f9002600f90011
:101b80002400f9002200f900000006002200f800fd
:101b90002400f8002600f8004400f800030f20009d
:101ba00023028800810178000000e9000400280079
:101bb0001201c3003800f8003a00f8003c00f800b9
:101bc0003e00f8004000f80000800800030000001c
:101bd000b20278001201c0003100cc001201c30033
:101be0004000f9003e00f9003c00f9003a00f9001d
:101bf0003800f900030078004400f9002600f900dd
:101c00002400f9002200f900000006002200f8007c
:101c10002400f8002600f8004400f800020f20001d
:101c2000220288000000e9001201c3003800f80019
:101c30003a00f8003c00f8003e00f8004000f800d0
:101c40000080080001000000310278001001f0005f
:101c50004000f9003e00f9003c00f9003a00f900ac
:101c60003800f9000000cd004400f9002600f9001a
:101c70002400f9002200f900000006002200f8000c
:101c80002400f8002600f8004400f800040f2000ab
:101c900024028800811f78000000e9000302780018
:101ca0003800f8003a00f8003c00f8003e00f80068
:101cb0004000f8000080080002000000b202780036
:101cc0001301c0003100cd004000f9003e00f900d2
:101cd0003c00f9003a00f9003800f9004f007800a4
:101ce0004400f9002600f9002400f9002200f90060
:101cf000000006002200f8002400f8002600f8008a
:101d00002800f8002a00f8002c00f8004400f80031
:101d1000040f200024028800010278000000e9007e
:101d20003800f8003a00f8003c00f8003e00f800e7
:101d30004000f8000080080005000000b2027800b2
:101d40000500ca00b30278000580ca000030cb004d
:101d50003100cc004000f9003e00f9003c00f900e1
:101d60003a00f9003800f900040078004400f90056
:101d70002c00f9002a00f9002800f9002600f900db
:101d80002400f9002200f900000006003600f800e7
:101d9000020378000002d0008102e900820078008e
:101da00003017800dc0c0200000000000400400089
:101db0000100200005800900011878000600780065
:101dc0003600f900000006002148a90041e2a90000
:101dd0000148a900000006002428a90061e2a9002a
:101de0000428a900000006000148a900670160005e
:101df0004811dd0041842000f38f2f0091816100a4
:101e000082887100680060004300de0061006000ad
:101e10004a00dd00018220001101780002a0a1002b
:101e200080087100000006000428a9006701600016
:101e30004411dd0001852000f3f82f00918161003d
:101e400082887100680060004300de00610060006d
:101e50000000400041822000110178000210a10022
:101e6000800871000000060023242000800978000b
:101e70004024200001087800002420000208780097
:101e8000000006002326200080097800402620005c
:101e900001087800002620000208780000000600f3
:101ea00003f0a200889fbe008a9fbe008c1f7800ae
:101eb0005b010700620133006450e1004f00320013
:101ec0006420e1005200320003826c0007003b00f6
:101ed0000905d0000306d000820f54000c065d00f7
:101ee0000200390002003200890178000306780000
:101ef0008582550004003d000003fd008103fd00c4
:101f00008502ea008b854200840f720002003b00cc
:101f100060001000e08018006011b8000005eb00c0
:101f20007a28e1000a00390006007800c75ddd006c
:101f3000f707b200878075002d003700828171009d
:101f40000a017800610560008180d1000080d30023
:101f50008502e900f9ff3b00060440008784480041
:101f600002003b0060041400e0841c000988a30008
:101f7000070032008a817100828171006101640072
:101f80008904d1000884d3008b05e80017003700ce
:101f90000978a30013003a000b00e000130034009e
:101fa0008b05e9000804440089844c000a4474004d
:101fb0000978a3000d003a000b00e0000700340090
:101fc0008b05e9000804440089844c0001003a00b4
:101fd0000b0020000978a300f7ff32000001eb009e
:101fe00002003700828171000a017800d1000700e9
:101ff0000cf0a70001f0a0001a0137006420e100f6
:1020000002003a00838f6c001a0133000801be0001
:102010000200be0013013700889fbe008a9fbe00e9
:102020008c1f7800fe0007000501330003866c005a
:102030006450e1002e0032006420e10033003200e1
:102040006150e1002f0032006120e10031003200d8
:1020500085855500eb07b00009002000080420002a
:10206000050037000804440089844c000a00310050
:102070000603430087834b000001530081815b000e
:10208000f8ff33000203be000800a000080444006b
:1020900089844c00f6ff3900c639dd0083017300e6
:1020a00001003200130020008904d1000884d3000d
:1020b0000998a300050032000800a7000300a00053
:1020c0008904d1000884d3008b05e8008904d1007d
:1020d0000884d3000001eb000281d20095000700c4
:1020e00001f0a1000cf0a70001f0a000dd00370016
:1020f0006420e100df0032000801be000200be00e3
:10210000f7ff37006120e100da0032006000b8001c
:10211000f3ff37000000200001f82700f0ff370030
:10212000839f68000100e00002003d006000100095
:10213000e08018000300e00002003d006001110093
:10214000e0811900020107004f00e00002003b009f
:1021500060001000e080180000000600140020005d
:102160002c023700f4ff2f002a0237000001be00c6
:10217000960007000470a70003f0a1006509b100f4
:10218000160032000d0035006828e1000600350019
:10219000f0ff2f00f1ff27000300e00013003b00d9
:1021a0000100280000000500000040008180480078
:1021b0008502e900fcff3a0008003700f88f420072
:1021c00002003c008000eb00000005008100d1000f
:1021d0000080d3008502e800fcff3a000300e00025
:1021e00002003b0060001000e080180000000600c4
:1021f0000001be00750007000470a70003f0a100f5
:1022000003f8a30013003a006509b1001000320082
:10221000090035006928e1000200350001002800ae
:102220000000050000004000818048008502e900b0
:10223000fcff3a0000000600f88f42000500350060
:102240008100d1000080d3008502e800fcff3a0045
:10225000000006008000eb0000000500881f7800e9
:10226000010478000100e00005003d00600010005e
:10227000e080180002003b0001f02c000300370052
:102280000400070008f0a70001f0a0004f04780048
:1022900000000600889fbe008a9fbe0001057800ee
:1022a0000000e000180032000004be006011b80019
:1022b0006b0920000982cf00020039000882cf009c
:1022c0000441b000694252000e00320008003b0099
:1022d00082817100610164008904d1000884d30007
:1022e0008b05e8000442e800f9ff3a0005003700da
:1022f0000804440089844c008b05e9000442e9008d
:10230000fbff3a000b0007004f05be004f04be0064
:10231000000006000001eb009701070004003200f6
:102320000200200003f8230001f0a700dcfe0700f4
:102330000000060081002000618055000b003d0078
:102340000b00200061fe2f000100e1001d003400a1
:1023500082817100610164008904d1000884d30086
:102360000000e800faff3a007100200061006400fc
:1023700003007000020060000900320061044400a4
:10238000e0844c000988a500050032008b05e800b8
:102390006808e10002003a008904d1000884d300f3
:1023a000f20f20000258e10005003d00c75ddd008e
:1023b000f907b20089807500080078000000060067
:1023c0000bf827008b00780000000500c70ade002c
:1023d000f107b200f50fb20008003200e1cf420071
:1023e000020032000170a00024000500810f70007f
:1023f000010032000408050044000500810f700050
:1024000002003a00140005008502e90000004000c7
:1024100081c04800fcff3b000170a00024000500c3
:102420000004be00e9ff07000003be000405be0073
:102430000200be00e5ff0700844f750000000600a3
:102440000200be006450e100050036006420e10097
:10245000020036000968a30001003a000800be002f
:102460000160a0004f0678004f05be004f04be007b
:1024700000000600f0ff2f00f1ff2700f9ff3700f2
:10248000889fbe008a9fbe008c1f7800e4ff070073
:10249000ebff330003866c006450e100240032003f
:1024a0006420e100270032006150e1002200320088
:1024b0006120e100210032008b854200eb07b10072
:1024c0000134b800003ab8000804420089844a0088
:1024d000013ab8000030b8008880400009014a0085
:1024e00004003300000040008180480002014900e0
:1024f0008b05e900c909dd0083017000010032008d
:1025000013002000c814de004814dd004709de0077
:102510001200b200c808de000884700085ff0700c2
:1025200001f0a1000cf0a70001f0a000cdff3700e2
:102530006120e100cfff32000801be000200be00b2
:10254000f7ff37006150e100fcff3a00c9ff370098
:102550006022b800060220000000d0008180d20076
:102560000482d2008582d2000000a0000202520044
:1025700083825a00030031000202420083824a0033
:102580000000a1000603e900f3ff3a000000060086
:10259000889fbe008a9fbe003004be002005be009a
:1025a0000404440085844c0006054d0087854d00d9
:1025b0000898be000a90be000440e10005c8e10092
:1025c00006d0e10007d8e1000200310068004000b9
:1025d0001008e8004f05be004f04be0000000600d2
:1025e000889fbe008a9fbe008c1f7800000678007e
:1025f0003c04be002c05be000400540085805c0035
:1026000006015d0087815d00009ebe00029ebe0047
:10261000100020000440e10005c8e10006d0e10000
:1026200007d8e100010039000000eb001c0e10008b
:102630004f0678004f05be004f04be0000000600a4
:102640001200fa00889fbe008a9fbe008c9fbe00c9
:102650000205be000004be00e4b79f00f5b79f006e
:1026600086bf9f0097bf9f000000eb00d0b79f0080
:10267000c0b79f00b0b79f00a0b79f0090b79f0062
:1026800000067800fd032000dfb197004fb09700ef
:1026900003814100bfb09700e08f510004003d006e
:1026a000290007007e805700b9ff070003003700ac
:1026b000250007007e805700c9ff0700dfb09700a4
:1026c000e08f5000070035001400200005002000b6
:1026d0006033b80008047200898472000a05730030
:1026e0008b8573000c06e8008d0f5600e6ff340062
:1026f000e08f500006003d006fb29700ffb29700d8
:102700000fbb97009fbb97007e805700a0ff07007c
:102710005fa89700e00f500004003a001fb4970034
:10272000afb497003fb59700cfb597000800be0043
:102730000a01be004f06be004f05be004f04be009a
:102740000080fa0000000600cf01de000281710067
:10275000b2b79f004f09de0000004000000071008a
:10276000a0b79f000fb097004f01de0081804000ae
:102770008100710091b79f007faa9700cf20de00f3
:10278000000040000080700080b79f000800be007d
:102790000a01be004f18de0004024200000272006f
:1027a000f4af9f000804440089844c000a054d00e2
:1027b0008b854d004fb29700dfb297006fb3970043
:1027c000ffb3970000000600881f78001800200063
:1027d000881f78009aff07008f87e9004f04780070
:1027e00000000600801feb0095ff07008f87e900bf
:1027f00000000600889fbe008a9fbe008c1f7800e4
:10280000e00f5000e08f5800e00f5900e08f5900b2
:102810000f003d006044b8006055b800000054004f
:1028200081805c0002015d0083815d001c0020004e
:102830000820e10009a8e1000ab0e1000bb8e100be
:102840000d003d00190007000006eb000a003700ec
:102850000006eb00e00f5200e08f5a00e00f5b0033
:10286000e08f5b0004003d006044b8006055b80094
:102870000e0007001c002000d3ff0700e00f5600e9
:10288000060032006022b8006033b8000000520039
:1028900081805a0002015b0083815b004f06780053
:1028a0004f05be004f04be000000060004025400a5
:1028b00085825c0006035d0087835d0000000600e2
:1028c000889fbe008a9fbe008c1f7800e00f5000da
:1028d000e08f5800e00f5900e08f59000d003d00d7
:1028e0006044b8006055b8000000540081805c006e
:1028f00002015d0083815d001c0020000820e100d2
:1029000009a8e1000ab0e1000bb8e1000d003d00ac
:10291000080037000006eb00e00f5200e08f5a007d
:10292000e00f5b00e08f5b0006003d006044b800f4
:102930006055b8000402540085825c0006035d0007
:1029400087835d00a7ff0700e00f560006003200f6
:102950006022b8006033b8000000520081805a0045
:1029600002015b0083815b004f0678004f05be00cb
:102970004f04be0000000600889fbe008a9fbe0074
:102980000003be0091fe0700850578008281520099
:10299000020020006220e10004003a00f307b100c9
:1029a000040035007718e100040035000600be0081
:1029b000140037006000b8000f003700f50f20004a
:1029c000faff2f008502d1000a85d3008301e900b8
:1029d000fcff3b008184620000046500890f7400e5
:1029e000f2ff32008582ea000a85ea0081846200f3
:1029f000000465004ffe070007f0a70001f0a000eb
:102a00000081eb000200e0004f05be004f04be0055
:102a100000000600889fbe008a9fbe00841f7800c9
:102a20007ffe07004f00780011003300f0ff2f00f9
:102a3000838f6c0006003b00040565000a00a700b8
:102a40000800370009f0a600100020000800370039
:102a5000820f5400838f5c000300390010002000b7
:102a600001003e000000200009f0a7000000ea007d
:102a70004f05be004f04be000000e000000006004d
:102a8000889fbe000004780001007800820478006e
:102a90008801780009017800110020004602070033
:102aa000890f5000010032000004eb00080078009c
:102ab0004f04be00000006000000fa00e881570045
:102ac0004fb9970021ce21000054210002000700d9
:102ad0000080fa00000006004f06b000889fbe008c
:102ae0008a9fbe008c9fbe008e1f780080057800f4
:102af00001057800820478008300780000f92f0037
:102b00000f0040007107070028f92f000f04440050
:102b10004b0498005a0498000000eb00600c9800e9
:102b20004ee021008ddf2100fcff270019407800d6
:102b30008085fb000b05fb008b05ea00cf5dde0006
:102b400050022000800f55000d003200e18f55002b
:102b50000b003a00c80190000b0178008900780052
:102b6000580090000300010050049800e00f50004e
:102b70008d003200680890000000e800600c9800aa
:102b80008b84440050022000800f55000400320066
:102b9000e00f5500e5ff3a007f9097008300370073
:102ba0000000eb00400c9800300c9800200c9800be
:102bb000100c9800000c9800700498000014980005
:102bc000070037000e0050000000400080804600e3
:102bd0000810900011007000001498008904e800ab
:102be000194578008a00fb0040e021006c020700d4
:102bf000e00f5000f3ff3a00a1c2b300814f55002f
:102c00000e003a008f8897000180e900808f9f00b6
:102c100010007800700c9800e00f500005003d0097
:102c20000000ea00700c9800081090000020a0003e
:102c3000001498008904e80010003700700c980018
:102c400009003700f80890008c8f50000500320012
:102c5000ea09b80001fd2f0082804000008040009a
:102c6000700c98008904e8001900fb0001fd2f009a
:102c700080804000e98f5000f2ff3600e0c2b300d0
:102c8000994f1000030032000080eb00500c9800b8
:102c90001b003700a0c2b300d94f100007003a0054
:102ca0008f8897000180e900808f9f0010007800d6
:102cb000500c98008904e800110037000000eb0078
:102cc000500c980009003700d80890008c8f5000f5
:102cd00005003200ea09b80001fd2f0082804000a3
:102ce00000804000500c98008904e8001900fb00a7
:102cf00001fd2f0080804000e98f5000f2ff360078
:102d0000194578008a00fb00a0e02100240207009a
:102d1000e00f5000020032008904e8000100370093
:102d2000004578002a64980080c6b300804f5500a3
:102d300004003a00994f15000a003a00664050001e
:102d400006003700c0c6b300804f550005003a00aa
:102d5000994f150003003a00654040002064980038
:102d60008904e80063fb2f008f814100194178003e
:102d700001f92f008f804000080078001100070043
:102d8000e00f500008003a0061fb2f008f804000e8
:102d90000800780011060700e00f5000020035001f
:102da0008904e80061ff37000080eb004f077800de
:102db0004f06be004f05be004f04be004f06b100d7
:102dc00000000600889fbe008a1f7800000478007b
:102dd000824478000305780070c6b30080cf5400a9
:102de00021003c0000c0e90080cf5400dd003d0020
:102df0007240500080cf54004c0132000d003c0066
:102e00006c40500080cf54005f013c0000c0e900de
:102e100080cf5400d3003d0050c2b30080cf540097
:102e2000560132007c40400080cf540056013a00e9
:102e3000cc00370010c6b30080cf5400c900320068
:102e400004003c006940500080cf54004e013a001d
:102e50007000370030c6b30080cf54001800320035
:102e60000040e8000900370000c7b30080cf5400dd
:102e70001f01320008003c0000c0e90080cf540070
:102e8000e400320063003c006540500080cf5400f5
:102e90003d013a001000370050c7b30080cf540006
:102ea0005c0032006340400080cf54005900320083
:102eb0006540500080cf540033013a001b013700b9
:102ec0001181e90082087800780090000005450033
:102ed000124d78003201370028609000c2c6b3005e
:102ee000824f500009003a0011007800640250003f
:102ef000840878001400be00140290004fa2de0087
:102f000004017800840178001200370012c7b30072
:102f1000824f500003003200a2c6b300824f50001f
:102f200006003a001101780068005100800878001e
:102f30005001be004000be00060037001180e900cd
:102f40008008780010007800cf80de000101780052
:102f500082017800009cbe000294be0028629000ae
:102f600085c6b300854f52000e00320025c6b3005f
:102f7000854f520005003a000000fb00cf80de00c4
:102f800001017800820178000900370045c7b300cd
:102f9000854f520003003200e6c24200854f5200c6
:102fa00005003a00cf80de00010178008201780040
:102fb000009cbe000294be003802be002803be0082
:102fc00078009000e00f5200e08f5a00e00f5b00a5
:102fd000e08f5b0003003d0000014500d1c2b3005b
:102fe0000a00370088109000628160000300320000
:102ff00000014500b1c2b30004003700e180600069
:10300000530032000001450001c2b30001497800bd
:103010004d00370028609000c2c6b300824f5000b8
:1030200007003a001100780064025000840878001c
:103030001400be000001eb0082017800120037008e
:1030400012c7b300824f500003003200a2c6b30083
:10305000824f500006003a001101780068005100cc
:10306000800878005001be004000be000600370016
:103070001180e9008008780010007800010020002d
:103080000200200003002000009cbe000294be004d
:103090002862900085c6b300854f52000e003200b2
:1030a00025c6b300854f520005003a000080fb00a2
:1030b000010020000200200003002000090037006a
:1030c00045c7b300854f520003003200e6c24200fc
:1030d000854f520005003a00010020000200200048
:1030e00003002000009cbe000294be000810900067
:1030f00068006000160032003800be002801be00e3
:10310000e00f5000e08f5800e00f5900e08f5900a9
:103110000f00320080c7b30080cf5400030032009c
:1031200080c5b30080cf540009003a00f800900039
:103130000101450000c3b300004978000100e80028
:1031400080004500894878000000e800700498007d
:1031500078009000000545006a04980089407800d6
:103160006f00370028619000c0c4b300804f510049
:1031700006003a00110178006800510080087800cc
:103180005001be004000be0005003700110178006c
:1031900064005100800878001000be00920a070009
:1031a000009cbe000294be00b80090007800900021
:1031b000e08f500003003d0000014500d1c2b30084
:1031c0000a0037008810900062816000030032001e
:1031d00000014500b1c2b30004003700e180600087
:1031e000050032000001450001c2b300014978002a
:1031f0000000e80070049800780090000005450089
:103200006a04980089407800080078004a010700a5
:103210006500370028609000c3c6b3001181e90043
:10322000834f5000260032000a003c00e4c15100e8
:10323000834f50001f00320083c1e800834f5000cd
:1032400013003200e8c15100834f500022003a00c1
:103250000a00370043c7b300834f50001500320007
:10326000e6c14100834f500012003200e9c1510015
:10327000834f500018003a0005003700820878009c
:1032800012007800485c900008487800460037003b
:10329000820878001202780068089000cf80de0073
:1032a0000101780082017800009abe000292be00ff
:1032b0003d003700820878001200780009003700ce
:1032c000820878001201780068089000cf80de0044
:1032d0000089be00340037001180e90080087800c2
:1032e00010007800680c9000080878002e00370065
:1032f0001180e9008008780010007800cf80de009f
:103300000101780082017800009cbe000294be009a
:1033100078009000000545006a04980081c7b3005a
:10332000080078005f0307001f0037001180e900e4
:1033300080087800100578006a049800d80c900086
:10334000e08f540004003d000a007800ab00070045
:103350008004780007003700090178008000eb0046
:103360000a00780069000700e00f500001003200f9
:103370008a045000190c98000b0037007800900068
:103380000005450005003700780090000005450065
:10339000e0cf540001003a0059c2b300094d780053
:1033a0000000e800700498000000eb004f05780072
:1033b0004f04be0000000600889fbe008a9fbe002a
:1033c0008c9fbe008e1f78000107780003047800f0
:1033d0008e12b80084067800e08f56004400320058
:1033e000e00f570043003200800578000d0578009b
:1033f000c800900068009000808f500004003900e1
:103400000800780085000700e00f50002600350016
:1034100000402000180660000a0032000a0178000f
:10342000a10020000b00780038000700000678009b
:10343000e00f560003003200e184150089044600c5
:10344000010037008a04780048009000e8009000ee
:1034500080805000898f5000020031008104780084
:103460000006eb00090178008b00780030000700af
:1034700009055500480090000900400040049800ec
:10348000e00f560004003200080078006f050700c6
:10349000e00f500004003a00e00f55000200320037
:1034a00089854500d2ff37000080200018006000a9
:1034b00002003200080078006405070000c0200008
:1034c0001800600002003200480290006404980076
:1034d0000a85560000017800811f7800110009005c
:1034e0000e85d8000001fd00cf00780001003700f4
:1034f0000d017800020078004f0778004f06be00eb
:103500004f05be004f04be00000006000400370057
:1035100090cf1000050032000000e8000201e90031
:10352000e00f5100faff3a000200780000000600a8
:103530008001780002003700b15978000201e900eb
:10354000e00f5100fcff3a00000006008001780007
:1035500002003700815978000201e900e00f5100b4
:10356000fcff3a000000060021ce2100770507008d
:103570000000060021ce21009d0507008000780094
:103580000080eb00e08f50000400350021ce2100c8
:10359000a00020006d0507004f80de00000006003f
:1035a00003003700e04f5100050032000000e80042
:1035b00010417800814f5100faff3a0000000600e8
:1035c0000000050004003700e04f51000900320000
:1035d0000000e8008100e80010417800914f5100a0
:1035e000f9ff320010002000030031000080eb00e2
:1035f000000006000000eb000000060080007800dc
:10360000010037008100e8000041eb00914f1100fc
:10361000fcff3a000080500000000600889fbe00ba
:103620008a1f780000047800c800900068019000ac
:103630000000eb00828f50003c0039001800780039
:103640002200290002016000e20f51000700320051
:1036500001202400e00f500001003d000120200067
:10366000008c70000080eb00300037000200260064
:1036700002006000820f500009003a0038009000fc
:10368000808f50000600390008007800ef04070022
:10369000800078000080eb00e08f500023003a00ab
:1036a0001805780000c020000000650018003a00ee
:1036b000a80490006002200008004000808f5400a1
:1036c00013003a0000202000ee06070020049800b6
:1036d000e00f500005003a002904980049049800c2
:1036e0008904e80039049800080037000a60a00047
:1036f0000a0c7800400498000120200080804000df
:1037000031049800400c9800500c98007404070095
:103710002800900050049800380090006004980041
:1037200000002600180c70000000eb004f05780028
:103730004f04be0000000600cf04b000889fbe000a
:103740008a9fbe008c9fbe008e1f7800c0b79f006e
:1037500001477800800078005101be004100be00a2
:10376000d0979f00e1979f00f2979f00839f9f0053
:1037700010c6b300804f57001500320010c4b300cc
:10378000804f5700120032004fb19700520890004e
:10379000e00f500003003d00600020005009980039
:1037a0000b003700e00f500009003a0070c6b3006c
:1037b000804f57000300320070c4b300804f5700a1
:1037c00003003a0010002000cfb19700d009980004
:1037d000cfb0970080fa2f000f00400007020700cb
:1037e00080017800e28f510012003a003000200082
:1037f0004fb29700100a9800a0d8210011c6b3005c
:10380000814f570008003200e4c04000814f57004c
:1038100005003200e0d821008140e800814f5700c8
:1038200001003a00a0d821004fb19700e2009000bb
:1038300013003700e08f51001600340030002000e4
:10384000cfb197009009980020d9210011c6b3008c
:10385000814f570008003200e4c04000814f5700fc
:103860000500320060d921008140e800814f5700f7
:1038700001003a0020d921004fb29700e4009000e7
:10388000b0487800b0687800104078009040980008
:10389000d401370010c6b300804f57000300320038
:1038a00010c4b300804f570011003a004fb097008a
:1038b0006001900000c3b30000597800cfb09700ba
:1038c000e200980080c7b30011c6b300814f5700d3
:1038d0000100320080c5b300005978004fb2970054
:1038e00062029800740090000080e8007002980066
:1038f000e08f510005003a00c3979f00d3b79f00a7
:1039000022fb2f000f014100b101370010c6b300a8
:10391000804f57000600320010c4b300804f57009c
:10392000ad003a00b0da2100a0b79f0002003700d6
:10393000a1d92100a1b79f004fb197005208900074
:1039400013022000d3b79f00e00f500002003500a3
:103950000000e800d0b79f005fb297000404e800c1
:103960006022b8006033b8005f909700ef90970036
:103970007f9197008f999700f2070700cfb09700cb
:103980003102be002103be00e00f500001003d00e7
:1039900007f0a200d4979f00e5979f00f6979f003d
:1039a000879f9f004f91970064015100c2979f002d
:1039b0008041eb00a3779f0034fb2f000482470077
:1039c000b4b79f000e407800a0e79f00080778007a
:1039d00032003700c201200003002000a0fa2f00af
:1039e0000f004000490507005f949700ef9497008f
:1039f0007f9597008f9d97000800be000a01be00ca
:103a0000980807000006be00670757004240a9005b
:103a10000c003400bf0807000002be000203be0015
:103a20000800be000a01be00320907000002be0005
:103a30000203be00d4979f00e5979f00f6979f0072
:103a4000879f9f003fb19700e70041007000200072
:103a500005003700ef606600cc69dd004466de00db
:103a60000c867100c4eede00e00f5600e08f5e00b1
:103a7000040034000000e900f6ff3b0001003700bd
:103a80008060eb000000e900fdff3b00e7804000a4
:103a9000b1b79f00e00f5700090034006022b80062
:103aa0006033b8005f909700ef9097007f91970088
:103ab0008f999700a8070700e00f5000c5ff3c0052
:103ac0002fe7970032fb2f000f0141003fb0970016
:103ad00002025000dfb09700810f520004003d0049
:103ae000e00f52000d003d00d4b79f0032003700b8
:103af0005fb19700840f510009003d0023fb2f00a8
:103b00008f8141000300410010409000f2c0b300db
:103b1000e74f500003003c0001003700d4b79f007e
:103b20000041eb00dfb1970003027800010037008d
:103b30000402e9008301e90030fb2f000f00400080
:103b40008300400011407800824f5000f8ff32009f
:103b5000d4b79f00ef4f510001003a008048e800c1
:103b6000e08f510009003d00dfb097008100e800c0
:103b7000d1b79f004f91970064014100c2979f0009
:103b800022fb2f000f0141000200370032fb2f0003
:103b90000f014100dfb1970005003700030041002d
:103ba0009000fb002fb2970081004200114878007e
:103bb0008301e900f9ff3b00cfb097005108900066
:103bc000e00f500002013d00dfb197000300e90063
:103bd000d0089800fe0037005f949700ef9497009c
:103be0007f9597008f9d97006022b8006033b800e2
:103bf0000800be000a01be0052070700e00f500097
:103c000005003d000bf0a200d8979f00e9979f00a8
:103c1000fa979f008b9f9f004f909700cf80de0008
:103c20007259270003002000b7080700026a280025
:103c3000130020003af9070064005000c0979f006d
:103c40001c003b0063001000c1ff2f000104600056
:103c50000802ea00c4979f000006eb002dd4210063
:103c600011003700610064000d0032004360dd0088
:103c7000008046003002be002003be005f90970027
:103c8000ef9097007f9197008f9997002408070085
:103c9000d0979f00e1979f00f2979f00839f9f001e
:103ca0000884d1000c06e800e00f5400edff3c0052
:103cb00021003700e00f50001f003200c8ff2f0026
:103cc00008046000c8979f006000b8000200200050
:103cd00003ff23000006eb002dd42100090037006c
:103ce00061026400050032004362dd000482460088
:103cf0005403be004402be00090807000884d10036
:103d00000c06e800e00f5400f5ff3c000002be0086
:103d10000203be005f909700ef9097007f9197009d
:103d20008f99970011070700d0979f00e1979f0098
:103d3000f2979f00839f9f004fb09700500990001b
:103d400060c6b300804f57000400320061002000bd
:103d500060c4b300804f570002003a00cf91970033
:103d6000ea80410082804000f38f5000010034005f
:103d70003101200000c3b300a0779f003dfb2f005e
:103d80008f864600004578008e4578000107780050
:103d9000330037005fb09700efb097007fb1970016
:103da0008fb99700af0707000004be0068075700ef
:103db0004240a90010003400d60707000002be00f0
:103dc0000203be005fb09700efb097007fb197008d
:103dd0008fb99700470807006022b80046782d0089
:103de00077192400ce070700d0979f00e1979f0026
:103df000f2979f00839f9f00e88646008c0020007a
:103e00000801be000c003700a400200005002000bf
:103e1000a0fd2f000f004000c20307005fa897001d
:103e2000efa897007fa997008fb1970004c3b30054
:103e3000846641000001be00e00f5100e08f590090
:103e4000040034000c06e900efff3b0001003700de
:103e50008a6678000c06e900fdff3b00e886460014
:103e6000e00f57000e0034005f909700ef9097002e
:103e70007f9197008f999700d0b79f00e1b79f007f
:103e8000f2b79f0083bf9f006022b8006033b80084
:103e9000b106070080007800e08f5000bdff3c00b5
:103ea0000b47780032fb2f000f0141008282560041
:103eb000cf909700e7804000c1979f0000c3b300f8
:103ec000050037008502e900cf9197008301e900e2
:103ed000c3979f000201e800924f1000f9ff3200e3
:103ee0004fb29700d408900060c6b300804f5700cf
:103ef0000300320060c4b300804f570003003a0053
:103f00004f9097008001e80009003700130020005f
:103f100050c6b300804f5700050032000e407800b5
:103f200050c4b2008081fb008301e900cf19de009c
:103f300081804100d1b79f00858f5000010034007f
:103f4000d5b79f00dfb19700e08f5100200035000a
:103f500004c3b300858f510006003d00830041007b
:103f60006942420040c3b300914f100001003c0081
:103f700069425200dfb197008300780001003700ea
:103f80008100e9008301e9008302410015407800c7
:103f9000844f5000faff3200d1b79f0091c3b300a5
:103fa000814f520001003a00804ae800e08f510042
:103fb00007003d000201e9005fb297000402e8003b
:103fc000d4b79f004f9097000000e800c0979f0073
:103fd0004f929700dfb197008e4078004fb0970066
:103fe000d20407004f0778004f06be004f05be0001
:103ff0004f04be00cf04b10000000600889fbe0041
:1040000080047800668440001800d0004500de007f
:10401000f27f2000820f500010003a00800ceb006d
:10402000180478006f016400200020001b003a0093
:1040300021019000e00f510018003a00110190009a
:10404000e00f510015003a0010002000910f110000
:10405000120032002000200010003700e00f500056
:1040600004003a00010078005b030700e00f5000f5
:1040700008003c00f20028001801610001fe230046
:10408000010c710021c02f00810c40000080eb006a
:1040900002003700800ceb000000eb004f04be0074
:1040a000000006004f02b000889fbe008a9fbe003d
:1040b0008c9fbe008e1f78000006780080c5b3007c
:1040c00080cf50000a0032007740400080cf50007f
:1040d0000a0032006940400080cf50000b003200df
:1040e000d0dc210080bf9f00ae0020000a00370016
:1040f000c2db210082bf9f0006003700d3dc210015
:1041000083bf9f008e00200003003700d4dc210015
:1041100084bf9f000e0120003c02be002c03be00a5
:104120000605be000404be0040c6b30080cf5000a8
:10413000030032006540400080cf50000b003a0081
:10414000e00f5200e08f5a00e00f5b00e08f5b0051
:1041500006003d006044b8006055b80004045400f7
:1041600085845c0006055d0087855d00e80f5700cb
:1041700003003200f00f57003c003a000200370005
:10418000320020000100370042002000e00f540000
:10419000e08f5c00e00f5d00e08f5d0004003a00fe
:1041a0005c0890008d012000e00f500007003200f5
:1041b0000e00e900080060008fb897000080400002
:1041c00010407800f0e79f007d0120008201780018
:1041d0008301e900050033008b05d1000a85d30077
:1041e0008984d3000884d300f9ff3700089ebe00fd
:1041f0000a96be000e00e900120037008d06e900a5
:1042000008fd2f000f0444008d004400840160006d
:104210000fbc970083014400934878008200780027
:104220008100e900050033008783d1000683d300b5
:104230008582d3000482d300f9ff3700049ebe00bc
:104240000696be003c02be002c03be00e00f5200ea
:10425000e08f5a00e00f5b00e08f5b00a6003400a7
:10426000e08f5600e5ff3c00a3003700ac609000f3
:1042700082c6b30082cf50000b00320006003c0023
:10428000e0cf50000800320020c6b30080cf5000bd
:104290005b003a0004003700c0c6b30080cf500076
:1042a00057003a002b003700e00f540004003a009a
:1042b0005c0890008d012000e00f500008003200e3
:1042c000110009000e84d8008000fd000fb997008e
:1042d0000000410010407800f0e79f007d012000c1
:1042e00000027800811f7800110009000e84d800b8
:1042f0000002fd00cf0078000c003700110009001b
:104300000e02d8008d06e90003fd2f008f814100c9
:104310008d8041008e01b800020252000fbc970050
:10432000040244009448780000027800e00f520034
:1043300002003200e08f5600f0ff3c00cfa2de000a
:104340000503780086037800049ebe000696be0032
:1043500069003700e00f5400e08f5c0004003a0071
:104360005c0890008d012000e00f50000800320032
:104370006171b9000800be00e00607000fb99700a0
:104380000000410010407800f0e79f007d01200010
:104390006175b9000a01be000800be006cf8070094
:1043a0000c0037000a01be000800be005cf70700e1
:1043b0008d06e90003fd2f008f8141000d81410032
:1043c0008072b800040454000fba97000804420039
:1043d000184978000004be00e00f5000e08f58003c
:1043e00002003200e08f5600eeff3c00088ebe0057
:1043f0004fc8de0020069800300698003e003700c7
:10440000e00f5400e08f5c00e00f5d00e08f5d0086
:1044100004003a005c0890008d012000e00f50007d
:104420000c0032000e027800cfa2de0005037800f7
:10443000860378000800be000a01be00e9f8070004
:104440000fba97000000420010407800f0e79f008c
:104450007d0120000e007800cf80de000101780091
:1044600082017800c0b79f00d1b79f00e2b79f00dc
:10447000f3b79f000203be000002be000800be00aa
:104480000a01be00d0f80700100037004fb29700b5
:10449000dfb297006fb39700ffb397000800be002c
:1044a0000a01be00d3f807008d06e90004fd2f00c5
:1044b0000f0242008d0242008072b80004045400d2
:1044c0000fba970008044200984a7800009ebe0088
:1044d0000296be003c04be002c05be00e00f540056
:1044e000e08f5c00e00f5d00e08f5d0002003400b3
:1044f000e08f5600e5ff3c00e80f570011003a003e
:104500000c109000680060000e003200f78f56001b
:1045100006003e0008fd2f000f0444008d004400fb
:1045200000c3b300914f1000060032008d06e90071
:1045300000fd2f000f0040008d00400000c3b300bd
:104540008048780078811600120e98006c00900068
:1045500003fd2f008f8141008d804100f4fb070097
:104560009c0890005c099000828f500006003d007e
:1045700081005100010e98008c1090000140a100b4
:10458000011698000f003700e00f51000d003d00ac
:104590000c10900074006000f00f500009003a0009
:1045a0007c0990007c009000000051000c099000f4
:1045b00002005000810050004240a9000100340078
:1045c000010e98004f0778004f06be004f05be0051
:1045d0004f04be004f02b100000006000400fa00c4
:1045e000889fbe008a9fbe008c1f78000004780060
:1045f00001067800f80d9000780090008085550045
:1046000008089000808555001808900080855500a6
:10461000a80c900089855500b80c9000898555003c
:10462000c80c9000898555000002220090bf9f00b1
:1046300000032300a0bf9f000810900064006000ea
:1046400015003a00e08f5500130034000b05780088
:104650008a047800e20f550001003600290020008e
:10466000c801900009017800ee80570058009000c2
:104670000300010050049800e00f50008c0032004d
:104680006808900009004000600c9800090555007a
:104690004240a900eeff3c0078019000e00f51007d
:1046a0000c003400c80190008c0078005800900085
:1046b00003000100500498008080eb00e00f5000e0
:1046c0007c003200e80890007800900000804000f4
:1046d000600c9800880c9000e08f540011003400aa
:1046e00009057800e28f5400010036002a002000fe
:1046f000c80190000a017800ec8057005800900033
:104700000300010050049800e00f500068003200e0
:10471000680890000a004000600c98008a845400e9
:10472000edff370018099000e00f51000c00340035
:10473000c8019000e80090005800900003000100bc
:10474000500498008080eb00e00f500059003200c8
:10475000e80890001808900000804000600c980065
:10476000a80c9000e08f5400110034000905780077
:10477000e28f5400010036002a002000c80190009a
:104780000a017800ec8057005800900003000100f7
:1047900050049800e00f5000450032006808900077
:1047a0000a004000600c98008a845400edff370036
:1047b00038099000e00f51000e003400e80090002e
:1047c0001808900080804000c801900058009000b8
:1047d00003000100500498008080eb00e00f5000bf
:1047e00034003200e8089000380890000080400053
:1047f000600c9800c80c9000e08f54001100340049
:1048000009057800e28f5400010036002a002000dc
:10481000c80190000a017800ec8057005800900011
:104820000300010050049800e00f50002000320007
:10483000680890000a004000600c98008a845400c8
:10484000edff370088109000e4806000190032000e
:104850008000eb00818f5500160034008b04780037
:1048600009057800e28f5400010036002a0020007c
:10487000c80190000a017800ee80570058009000af
:104880000300010050049800e00f500008003200bf
:10489000680890000a004000600c98008a84540068
:1048a0004240a900eeff3c008000eb000100370011
:1048b0008080eb00010078004f0678004f05be00b5
:1048c0004f04be000080fa000000060001087800d6
:1048d00000000600c0502200320107000000060060
:1048e000881f7800a8e121000040eb00984f1000dd
:1048f00003003a00f7ff070020c0b300004c780027
:104900004f04780000000600889fbe000004780075
:10491000080078004d0007008004780000042000a3
:10492000180060000200320028009000f10107002a
:104930000000eb002004980038409000e04f500049
:10494000050035000000fb00c8030700e00f500021
:10495000010032008084eb0018109000e00f50003e
:1049600008003200cc030700e00f500001003200c5
:104970008084eb0018109000de0107000000eb00bf
:104980001014980000082000180060001100320088
:104990006011b80024d32100020041008380490047
:1049a00000004200900f140002003a000008eb00e3
:1049b0000500370061014100e0814900e70f510027
:1049c000e08f5900f4ff360008007800c9010700a5
:1049d0000e003700000c780000c0eb003044980057
:1049e0006102200088804000210498004104980062
:1049f00051049800410c980061049800510c9800f3
:104a00007104980076004400000c980009007800ba
:104a10004f04be0000000600889fbe007800200002
:104a200029d321000800d0000900400010007800c0
:104a3000e00f500001003200b3ff07000804e90056
:104a4000f8ff3b004f04be0000000600889fbe0038
:104a50008a1f780000047800e00f54000f003a002d
:104a6000880478002ad321000900d0000a00400001
:104a700010007800e00f500004003200f3ff070040
:104a8000e00f500001003d000084eb008904e800c5
:104a9000e78f5400f4ff34002800370000002200a4
:104aa0001800600024003200a80490000f003700b6
:104ab00009015100384090000000fb008900780097
:104ac000c1ef0700e00f500007003c0028009000f5
:104ad0004004980060049800500c98001890a000c2
:104ae0000084eb00150037008084440048019000ea
:104af000828f5400eeff3900280090004004980097
:104b00009800780002c020000281600001003a0095
:104b10003800900002002400828060000300320010
:104b2000600498000004eb0004003700500c98006b
:104b300001047800010037000004780008007800c4
:104b40004f0578004f04be0000000600889fbe009d
:104b50008a1f78000005780001047800c8009000e2
:104b600068009000808f5000050039000800780030
:104b7000aafa07008080eb00e00f50001800350013
:104b80008a447800c80090008a5878004104980050
:104b900018007800018020008100600005003a00c4
:104ba000014020000100600007003200ea4f55007c
:104bb00005003a0008007800a4ff07008080eb00a1
:104bc000e00f500006003a0000c02000180060000e
:104bd0000200320048009000600498008980fb00c9
:104be000010078004f0578004f04be000000060069
:104bf000889fbe008a9fbe008c9fbe008005780003
:104c0000010578000d4020002e003700ca009000fa
:104c10006a009000808f5000040039000a0078007c
:104c20007efa0700e00f5000390035001a80660058
:104c30000a003200a10020000b0078004e0007009f
:104c400000067800e00f5600040032006184150071
:104c500008044600cfc4de00040037000b007800d3
:104c600066fa07000004be000006eb004a00900050
:104c70006a01900000015100cf91de00880f5100c1
:104c8000898f5900020031000204be000006eb00cb
:104c90000801be008b00780025fa07004a0090004a
:104ca0000800400040059800e00f56000400320064
:104cb0000a00780065ff0700e00f500014003a007a
:104cc000888545000040eb009b4f1000cfff3a0065
:104cd000008020001a006000060032000a00780000
:104ce0005aff0700800078000080eb00e08f500042
:104cf00008003a0000c020001a00600005003200e1
:104d00004a009000600598000000eb0001003700a9
:104d10000080eb004f06be004f05be004f04be00f2
:104d200000000600889fbe008a9fbe008c1f78008e
:104d3000000678000205be000404be000401be00a7
:104d40000a00be00f6f40700008ebe000801be0097
:104d50006d0407000002550081825d002406980062
:104d6000350698000c0078004f0678004f05be000d
:104d70004f04be00000006008001eb0010417800e7
:104d8000814f510001003a0080017800e04f51004e
:104d900002003a0003007800000006000000e8006e
:104da000f6ff370001002000e08f500009003200bc
:104db00001008000e08f5000060032008100e90011
:104dc000010088008100d000020080008280400045
:104dd0008008780000000600e6004000910178009d
:104de0000600280006836100ef81610083087800d7
:104df000120020000f003a00a0019000e08f510047
:104e00000c003a0090019000e08f510009003a0038
:104e1000908f110007003a0039003700940878009d
:104e2000130a780090097800050878007001510095
:104e300002003700640240008081e800910278009f
:104e4000e08f5200f5ff3200120037009403780023
:104e5000cf3bde0085824200858873009303780093
:104e6000cf3bde009402780085824200058a730001
:104e7000930378008783430090027800cf2ade00f6
:104e80008589730090027800058842000201e900dc
:104e900002003700640240008081e800910278003f
:104ea000ef8f5200e9ff36000f00370094037800bf
:104eb000cf3bdd009002d10005887300930378009a
:104ec000cf3bdd009402d100058a73009103780086
:104ed000cf3bdd009302d100858973009108d1009a
:104ee0000201e800020037000082e800e40140000f
:104ef00091027800ff8f5200ecff3e00ef886200c5
:104f00009108730002007800000006000400fa0017
:104f1000889fbe0000047800e60444001900780071
:104f20008000d000c508de00f47f2000848f500090
:104f30000e003a00ef006000200020006a003a00f6
:104f4000a8009000e08f500067003a0098009000a1
:104f5000e08f500064003a0010002000988f10008d
:104f600061003200200020005f003700e08f500019
:104f70000a003a0008007800c2bf9f00d3bf9f001c
:104f800095ff0700800078000000eb004fb9970004
:104f9000dfb99700808f500053003c006108b900d2
:104fa0000001410081814900e07f2000800f510015
:104fb000e08f59000e0034008000eb00998f100044
:104fc00004003d006000b8000200200003ff2f0035
:104fd000030037006000b8000200200003ff270034
:104fe000009cbe000294be00100020003e0037006e
:104ff000e00f5100e08f5900050034004411dd003e
:10500000f000280019006000800c710035003700a6
:105010001900780004002800040260006f0060009e
:105020000040a000800c780061015100e08159002f
:10503000c0fc2f00f1ff2f00800f5100818f59001d
:1050400006003d00840c78000000eb00200498006e
:1050500010049800000c7800230037008880e800d6
:105060006400440005003700110c780090087800b7
:1050700019087800800ceb0070014100ef0f41002f
:10508000f9ff35000200ea001500320088007800c0
:1050900070011000d1027800822add0098017800aa
:1050a0008019de00038c72006404440098027800ca
:1050b000822add00910178008019de008388720069
:1050c000990078000209dd00980078008008de0071
:1050d000010c7100990078000008de00800c780057
:1050e000990c72000080eb004f04be000080fa00b3
:1050f00000000600e00f50002f003200c0017800d1
:10510000e38f51002c003600e18061002a003a0054
:10511000a1f08000e08f500002003200810f5000ab
:105120000400310011009800a0f08800160037003c
:105130008200780011019000e00f5100020032005f
:10514000800f5100faff390011027800848240007c
:10515000850f500018003900808f520003003a007c
:10516000830842000100780007003700e00f51007b
:105170000300320083014000830f51000e0039000c
:10518000120098009000980090009000e08f50006e
:105190000900320010014000828f500006003a00e2
:1051a00022e121000009eb00100178001108410004
:1051b000910090001100980000000600889fbe003a
:1051c0000004780091f08000e08f5000020032006f
:1051d000010078000d003700a1f0800040e12100bf
:1051e00004003700910f5400240036000180e800cd
:1051f00091009000e08f5000faff3a001000370055
:10520000920f54001d0036000280e8001001780063
:10521000e00f5100faff3a0011017800a1f0800080
:1052200040e1210004003700910f540013003600c4
:105230000180e80091009000828f5000faff3a0050
:10524000b9f08000888f5400010031008804780094
:10525000090078006e010700e00f500004003a00da
:10526000888f5400050032008904d100f5ff370013
:10527000091878009fff0700d2ff37004f04be00d7
:1052800000000600881f78008000780063844000da
:105290000800a1000000eb00810f5400210036003f
:1052a000e30f540001003e00480020000800780091
:1052b000c2ff0700e00f50001a0032009000780093
:1052c0009101780064815100880f51000300310082
:1052d00011019000020878000700370008814000a3
:1052e00002087800910190001301980010017800e5
:1052f000110914008808780010007800e00f5000b1
:105300000600320010019000e00f51000200320050
:105310000080e800010037000200780090f088006b
:105320000180e8004f04780000000600f087470085
:10533000889fbe008a9fbe008c9fbe008e1f780093
:1053400000047800814478000206780003057800a4
:1053500084057800e00f550002003c001a00200090
:10536000cce1210060c6b30080cf54000e003200b3
:1053700060c4b30080cf54000b00320070c6b3008d
:1053800080cf54000300320070c4b30080cf5400bb
:105390009d003a00e48f45008300350058089000d6
:1053a000808f550080003d008b05e80060c6b3008b
:1053b00080cf54001000320060c4b30080cf54008e
:1053c0000d003200081090006800600004003a00f0
:1053d00058089000800f550001003d005a0c9800bd
:1053e000580890000b005000500c980002003b0041
:1053f0000000eb00500c980018089000e8009000a6
:10540000e08f550028003c008080400002c3b300bc
:10541000824878000000e800100c9800d80890003e
:10542000e08f500003003c0088109000e88060008e
:10543000060032006801900000014100e1c2b300a3
:10544000014978000000e800100c9800580890000e
:105450008b00ea00810f500001003d008005ea004a
:105460008b00ea00210c9800808545005b0c9800b9
:105470008a8f5500010034008a0578003b0c9800a3
:10548000e800900018089000008040000b017800b0
:105490008c00780026f80700580890008b05500013
:1054a0004b0c9800c20037008b0f550019003d00cf
:1054b000008040000a0178008c0078001cf807008a
:1054c0001808900000004500100c98000a8555004f
:1054d0002a0c9800d8089000e08f500003003c0090
:1054e00088109000e880600007003200e80090001b
:1054f00080804000e0c2b300804878003808900007
:105500000000e800300c980058089000400c98000b
:10551000a7003700008040000b0178008c00780065
:1055200003f807001808900000804500100c980050
:105530000b055500d8089000e08f500003003c0098
:1055400088109000e880600006003200680190003a
:1055500000014100e1c2b300014978000000e80009
:10556000100c980058089000800f5500010034007e
:1055700000057800e80090001808900000804000c6
:105580008b0046000a017800e9f707001808900030
:105590000a004000100c9800580890000a055000be
:1055a0002a0c98008200370070c6b30080cf5400e8
:1055b0000300320070c4b30080cf540012003a00e0
:1055c00058089000800f550004003d00081090001e
:1055d0006800600001003a005a0c980058089000da
:1055e0000000e900500c980002003b000000eb00b6
:1055f000500c980070c6b30080cf54000a003200ef
:1056000059c4b3000b00370010c6b30080cf54005c
:105610000700320010c4b30080cf540005003a00e8
:1056200009c5b3000300370059c6b30001003700b5
:1056300009c7b30018089000e8009000808040007f
:105640009c4878000000e800100c9800d8089000f2
:10565000e08f500003003c0088109000e88060005c
:10566000060032006801900000014100e1c2b30071
:10567000014978000000e800100c980058089000dc
:10568000e00f5000100034000a05e900800f5500bb
:105690000100340000057800e80090001808900030
:1056a000008040008c00e8000a017800a0f70700a5
:1056b000180890000a004000100c9800580890004c
:1056c0000a0550002a0c9800e80090001808900085
:1056d00000804000095878000007e800e08f55007e
:1056e00004003500b1c2b300014878000e0678000e
:1056f00004003700d1c2b300014878000e067800dc
:105700008b05ea008006eb000b003700a2002000aa
:105710008b00780072805700470007007fb5970024
:105720008fbd9700fc8057000d8040000b4878002b
:105730008d06e8008a057800e08f5500f3ff3c00f5
:10574000e18f560013003c0050c6b30080cf5400d8
:105750000300320050c4b30080cf540003003a006d
:105760000e06780000c3b300005e7800e08f56009c
:1057700008003a0000c3b300005e7800050037005f
:105780008d06e900fc8057000d80400001c3b30086
:1057900010de4000e08f5600f9ff3a00e80090006c
:1057a0001808900000804000000656003c0c98004d
:1057b0000810900074006000f00f50000e003a00d6
:1057c000980890007800900000804000a8089000a1
:1057d00001004000b808900001004000c808900097
:1057e00001004000f8089000810f500002003d00c9
:1057f00000805000000c98004f0778004f06be0054
:105800004f05be004f04be000f01b10000000600ae
:10581000800078000000eb00808f5000050034000d
:105820000100780025000700e10f400001003a0068
:105830000000eb000000060080017800811f780066
:10584000110009008200d8008001fd00cf0078001f
:10585000030878008219b800828050001100980077
:105860000000060000c0da00000006000a00fa008e
:1058700011002000b1bf9f00c0bf9f006a80570089
:10588000f8ff07004fb897000080fa0000000600fc
:1058900000c0da00000006000a00fa0051002000f3
:1058a000b1bf9f00c0bf9f006a805700f8ff07008c
:1058b0005fb897000080fa0000000600889fbe00d5
:1058c00080047800f0f08000e00f500004003a00ff
:1058d0000e0007000084eb00e00f500008003500c8
:1058e000f8f08000e08f5400050032000900440009
:1058f00006000700e00f500001003d000084eb00af
:10590000080078004f04be0000000600e00f5000c1
:1059100004003a0001002000f1f0880080007800c7
:10592000060037008080eb0002002000820f50004c
:1059300002003e00f0f088008000eb0001007800db
:10594000000006008f1fd100f20107008f87e900d9
:105950000000e00000000600809feb00ed01070062
:105960008f87e9000000e000000006002800fa0030
:10597000889fbe008a9fbe008c9fbe0003866b007e
:10598000800007006400e100440032006408e10088
:105990004a0032006100e100460032006108e10087
:1059a00049003200ec0647006000b8003d02be002e
:1059b0003d03be00f48657006011b8003d04be00f0
:1059c0003d05be007d0320000b0037000000a00055
:1059d0008d06e900130032000402420085824a006d
:1059e00006034b0087834b00000040008180480085
:1059f00002014900838149000802520089825a004d
:105a00000a035b008b835b00f0ff3b00080242004f
:105a100089824a000a034b008b834b008d06e90004
:105a2000edff3a008482720086827200f707b200ae
:105a30008782720001003200150020001e049000d1
:105a40003e0b900006035400e63fb0000368a3003d
:105a5000070032000000a7000500a0008301d1006c
:105a60000281d3008180d3000080d3000603e800c8
:105a70008301d1000281d3008180d3000080d30054
:105a80000002eb000482d2001200070003f0a10024
:105a90000cf0a70003f0a0004e003700640247009e
:105aa0006408e100480032003400be003401be004a
:105ab000f6ff37006108e100430032006011b800d2
:105ac0006000b800f1ff370003ff2700020020004c
:105ad000fbff370018002000570020000804530087
:105ae0000d003d000600200097fc2f000740e1005c
:105af0001e00340084827200610260008301d100c4
:105b00000281d3008180d3000080d3000804e80024
:105b1000f8ff3a00470020006104600005047400ab
:105b2000040464000d00320061004000e080480081
:105b300060014900e081490003b8a5000700320078
:105b40000603e8006538e10004003a008301d10053
:105b50000281d3008180d3000080d300f87f200031
:105b60000830e10003003500080378006000b80049
:105b70006011b8004433dd00f300b200830173000c
:105b800000000600680447000294be000094be00b6
:105b9000fc0447008694be008494be00090078008f
:105ba000a501070008007800a3010700990078000c
:105bb000814f70000b003b000800be007e01070013
:105bc0004f00b10003003700f3ff2700f2ff2f0062
:105bd0006110b9004f06be004f05be004f04be0065
:105be0000080fa000000060081037800f7f107004a
:105bf0000001be006000b8000478a30013003a0062
:105c00006220e10015003e000d0039008301d10043
:105c10000281d3008180d3008301d1000281d300af
:105c20008180d3008301d1000281d3008180d30021
:105c30000538b000c42add00f300b2008381720091
:105c400007f0a70003f0a00000000600f3ff270004
:105c5000f2ff2f006110b900fbff370003ff2700a0
